{"abi":[{"inputs":[{"internalType":"address","name":"creator","type":"address"},{"internalType":"string","name":"NFTname","type":"string"},{"internalType":"string","name":"NFTsymbol","type":"string"},{"internalType":"uint256","name":"Price","type":"uint256"},{"internalType":"uint256","name":"MaxTokens","type":"uint256"},{"internalType":"uint256","name":"TokensReserved","type":"uint256"},{"internalType":"string","name":"baseNFTURI","type":"string"},{"internalType":"uint256","name":"MaxPerWallet","type":"uint256"},{"internalType":"uint256","name":"MaxPerTX","type":"uint256"}],"stateMutability":"nonpayable","type":"constructor"},{"anonymous":false,"inputs":[{"indexed":true,"internalType":"address","name":"owner","type":"address"},{"indexed":true,"internalType":"address","name":"approved","type":"address"},{"indexed":true,"internalType":"uint256","name":"tokenId","type":"uint256"}],"name":"Approval","type":"event"},{"anonymous":false,"inputs":[{"indexed":true,"internalType":"address","name":"owner","type":"address"},{"indexed":true,"internalType":"address","name":"operator","type":"address"},{"indexed":false,"internalType":"bool","name":"approved","type":"bool"}],"name":"ApprovalForAll","type":"event"},{"anonymous":false,"inputs":[{"indexed":true,"internalType":"address","name":"previousOwner","type":"address"},{"indexed":true,"internalType":"address","name":"newOwner","type":"address"}],"name":"OwnershipTransferred","type":"event"},{"anonymous":false,"inputs":[{"indexed":true,"internalType":"address","name":"from","type":"address"},{"indexed":true,"internalType":"address","name":"to","type":"address"},{"indexed":true,"internalType":"uint256","name":"tokenId","type":"uint256"}],"name":"Transfer","type":"event"},{"inputs":[],"name":"Creator","outputs":[{"internalType":"address","name":"","type":"address"}],"stateMutability":"view","type":"function"},{"inputs":[],"name":"MAX_MINT_PER_TX","outputs":[{"internalType":"uint256","name":"","type":"uint256"}],"stateMutability":"view","type":"function"},{"inputs":[],"name":"MAX_MINT_PER_WALLET","outputs":[{"internalType":"uint256","name":"","type":"uint256"}],"stateMutability":"view","type":"function"},{"inputs":[],"name":"MAX_TOKENS","outputs":[{"internalType":"uint256","name":"","type":"uint256"}],"stateMutability":"view","type":"function"},{"inputs":[],"name":"NFTName","outputs":[{"internalType":"string","name":"","type":"string"}],"stateMutability":"view","type":"function"},{"inputs":[],"name":"NFTSymbol","outputs":[{"internalType":"string","name":"","type":"string"}],"stateMutability":"view","type":"function"},{"inputs":[{"internalType":"address","name":"to","type":"address"},{"internalType":"uint256","name":"tokenId","type":"uint256"}],"name":"approve","outputs":[],"stateMutability":"nonpayable","type":"function"},{"inputs":[{"internalType":"address","name":"owner","type":"address"}],"name":"balanceOf","outputs":[{"internalType":"uint256","name":"","type":"uint256"}],"stateMutability":"view","type":"function"},{"inputs":[],"name":"baseExtension","outputs":[{"internalType":"string","name":"","type":"string"}],"stateMutability":"view","type":"function"},{"inputs":[],"name":"baseURI","outputs":[{"internalType":"string","name":"","type":"string"}],"stateMutability":"view","type":"function"},{"inputs":[],"name":"flipSaleState","outputs":[],"stateMutability":"nonpayable","type":"function"},{"inputs":[{"internalType":"uint256","name":"tokenId","type":"uint256"}],"name":"getApproved","outputs":[{"internalType":"address","name":"","type":"address"}],"stateMutability":"view","type":"function"},{"inputs":[],"name":"getSaleInfo","outputs":[{"internalType":"address","name":"","type":"address"},{"internalType":"uint256","name":"","type":"uint256"},{"internalType":"uint256","name":"","type":"uint256"},{"internalType":"uint256","name":"","type":"uint256"},{"internalType":"uint256","name":"","type":"uint256"},{"internalType":"string","name":"","type":"string"},{"internalType":"string","name":"","type":"string"},{"internalType":"string","name":"","type":"string"},{"internalType":"bool","name":"","type":"bool"},{"internalType":"uint256","name":"","type":"uint256"}],"stateMutability":"view","type":"function"},{"inputs":[{"internalType":"uint256","name":"tokenID","type":"uint256"}],"name":"getTokenURI","outputs":[{"internalType":"string","name":"","type":"string"}],"stateMutability":"view","type":"function"},{"inputs":[{"internalType":"address","name":"owner","type":"address"},{"internalType":"address","name":"operator","type":"address"}],"name":"isApprovedForAll","outputs":[{"internalType":"bool","name":"","type":"bool"}],"stateMutability":"view","type":"function"},{"inputs":[],"name":"isSaleActive","outputs":[{"internalType":"bool","name":"","type":"bool"}],"stateMutability":"view","type":"function"},{"inputs":[{"internalType":"uint256","name":"_numTokens","type":"uint256"}],"name":"mint","outputs":[],"stateMutability":"payable","type":"function"},{"inputs":[],"name":"name","outputs":[{"internalType":"string","name":"","type":"string"}],"stateMutability":"view","type":"function"},{"inputs":[],"name":"owner","outputs":[{"internalType":"address","name":"","type":"address"}],"stateMutability":"view","type":"function"},{"inputs":[{"internalType":"uint256","name":"tokenId","type":"uint256"}],"name":"ownerOf","outputs":[{"internalType":"address","name":"","type":"address"}],"stateMutability":"view","type":"function"},{"inputs":[],"name":"price","outputs":[{"internalType":"uint256","name":"","type":"uint256"}],"stateMutability":"view","type":"function"},{"inputs":[],"name":"renounceOwnership","outputs":[],"stateMutability":"nonpayable","type":"function"},{"inputs":[{"internalType":"address","name":"from","type":"address"},{"internalType":"address","name":"to","type":"address"},{"internalType":"uint256","name":"tokenId","type":"uint256"}],"name":"safeTransferFrom","outputs":[],"stateMutability":"nonpayable","type":"function"},{"inputs":[{"internalType":"address","name":"from","type":"address"},{"internalType":"address","name":"to","type":"address"},{"internalType":"uint256","name":"tokenId","type":"uint256"},{"internalType":"bytes","name":"data","type":"bytes"}],"name":"safeTransferFrom","outputs":[],"stateMutability":"nonpayable","type":"function"},{"inputs":[{"internalType":"address","name":"operator","type":"address"},{"internalType":"bool","name":"approved","type":"bool"}],"name":"setApprovalForAll","outputs":[],"stateMutability":"nonpayable","type":"function"},{"inputs":[{"internalType":"string","name":"_baseURI","type":"string"}],"name":"setBaseURI","outputs":[],"stateMutability":"nonpayable","type":"function"},{"inputs":[{"internalType":"bytes4","name":"interfaceId","type":"bytes4"}],"name":"supportsInterface","outputs":[{"internalType":"bool","name":"","type":"bool"}],"stateMutability":"view","type":"function"},{"inputs":[],"name":"symbol","outputs":[{"internalType":"string","name":"","type":"string"}],"stateMutability":"view","type":"function"},{"inputs":[{"internalType":"uint256","name":"tokenId","type":"uint256"}],"name":"tokenURI","outputs":[{"internalType":"string","name":"","type":"string"}],"stateMutability":"view","type":"function"},{"inputs":[],"name":"totalSupply","outputs":[{"internalType":"uint256","name":"","type":"uint256"}],"stateMutability":"view","type":"function"},{"inputs":[{"internalType":"address","name":"from","type":"address"},{"internalType":"address","name":"to","type":"address"},{"internalType":"uint256","name":"tokenId","type":"uint256"}],"name":"transferFrom","outputs":[],"stateMutability":"nonpayable","type":"function"},{"inputs":[{"internalType":"address","name":"newOwner","type":"address"}],"name":"transferOwnership","outputs":[],"stateMutability":"nonpayable","type":"function"},{"inputs":[],"name":"withdrawAll","outputs":[],"stateMutability":"payable","type":"function"}],"devdoc":{"kind":"dev","methods":{"approve(address,uint256)":{"details":"See {IERC721-approve}."},"balanceOf(address)":{"details":"See {IERC721-balanceOf}."},"getApproved(uint256)":{"details":"See {IERC721-getApproved}."},"isApprovedForAll(address,address)":{"details":"See {IERC721-isApprovedForAll}."},"name()":{"details":"See {IERC721Metadata-name}."},"owner()":{"details":"Returns the address of the current owner."},"ownerOf(uint256)":{"details":"See {IERC721-ownerOf}."},"renounceOwnership()":{"details":"Leaves the contract without owner. It will not be possible to call `onlyOwner` functions anymore. Can only be called by the current owner. NOTE: Renouncing ownership will leave the contract without an owner, thereby removing any functionality that is only available to the owner."},"safeTransferFrom(address,address,uint256)":{"details":"See {IERC721-safeTransferFrom}."},"safeTransferFrom(address,address,uint256,bytes)":{"details":"See {IERC721-safeTransferFrom}."},"setApprovalForAll(address,bool)":{"details":"See {IERC721-setApprovalForAll}."},"supportsInterface(bytes4)":{"details":"See {IERC165-supportsInterface}."},"symbol()":{"details":"See {IERC721Metadata-symbol}."},"tokenURI(uint256)":{"details":"See {IERC721Metadata-tokenURI}."},"transferFrom(address,address,uint256)":{"details":"See {IERC721-transferFrom}."},"transferOwnership(address)":{"details":"Transfers ownership of the contract to a new account (`newOwner`). Can only be called by the current owner."}},"version":1},"evm":{"assembly":"    /* \"contract.sol\":712:4265  contract NFT is ERC721URIStorage, Ownable {... */\n  mstore(0x40, 0x80)\n    /* \"contract.sol\":1216:1253  string public baseExtension = \".json\" */\n  mload(0x40)\n  dup1\n  0x40\n  add\n  0x40\n  mstore\n  dup1\n  0x05\n  dup2\n  mstore\n  0x20\n  add\n  0x2e6a736f6e000000000000000000000000000000000000000000000000000000\n  dup2\n  mstore\n  pop\n  0x14\n  swap1\n  dup2\n  tag_1\n  swap2\n  swap1\n  tag_2\n  jump\t// in\ntag_1:\n  pop\n    /* \"contract.sol\":1354:2041  constructor(address creator, string memory NFTname, string memory NFTsymbol, uint256 Price, uint256 MaxTokens, uint256 TokensReserved, string memory baseNFTURI, uint256 MaxPerWallet, uint256 MaxPerTX ) ERC721(NFTname, NFTsymbol) {... */\n  callvalue\n  dup1\n  iszero\n  tag_3\n  jumpi\n  0x00\n  dup1\n  revert\ntag_3:\n  pop\n  mload(0x40)\n  sub(codesize, bytecodeSize)\n  dup1\n  bytecodeSize\n  dup4\n  codecopy\n  dup2\n  dup2\n  add\n  0x40\n  mstore\n  dup2\n  add\n  swap1\n  tag_4\n  swap2\n  swap1\n  tag_5\n  jump\t// in\ntag_4:\n    /* \"contract.sol\":1563:1570  NFTname */\n  dup8\n    /* \"contract.sol\":1572:1581  NFTsymbol */\n  dup8\n    /* \"ERC721.sol\":1443:1448   */\n  dup2\n    /* \"ERC721.sol\":1435:1440   */\n  0x00\n    /* \"ERC721.sol\":1435:1448   */\n  swap1\n  dup2\n  tag_10\n  swap2\n  swap1\n  tag_2\n  jump\t// in\ntag_10:\n  pop\n    /* \"ERC721.sol\":1469:1476   */\n  dup1\n    /* \"ERC721.sol\":1459:1466   */\n  0x01\n    /* \"ERC721.sol\":1459:1476   */\n  swap1\n  dup2\n  tag_11\n  swap2\n  swap1\n  tag_2\n  jump\t// in\ntag_11:\n  pop\n    /* \"ERC721.sol\":1368:1484   */\n  pop\n  pop\n    /* \"Ownable.sol\":957:989   */\n  tag_13\n    /* \"Ownable.sol\":976:988   */\n  tag_14\n    /* \"Ownable.sol\":976:986   */\n  shl(0x20, tag_15)\n    /* \"Ownable.sol\":976:988   */\n  0x20\n  shr\n  jump\t// in\ntag_14:\n    /* \"Ownable.sol\":957:975   */\n  shl(0x20, tag_16)\n    /* \"Ownable.sol\":957:989   */\n  0x20\n  shr\n  jump\t// in\ntag_13:\n    /* \"contract.sol\":1604:1614  baseNFTURI */\n  dup3\n    /* \"contract.sol\":1594:1601  baseURI */\n  0x13\n    /* \"contract.sol\":1594:1614  baseURI = baseNFTURI */\n  swap1\n  dup2\n  tag_18\n  swap2\n  swap1\n  tag_2\n  jump\t// in\ntag_18:\n  pop\n    /* \"contract.sol\":1635:1642  creator */\n  dup9\n    /* \"contract.sol\":1625:1632  Creator */\n  0x08\n  0x00\n    /* \"contract.sol\":1625:1642  Creator = creator */\n  0x0100\n  exp\n  dup2\n  sload\n  dup2\n  0xffffffffffffffffffffffffffffffffffffffff\n  mul\n  not\n  and\n  swap1\n  dup4\n  0xffffffffffffffffffffffffffffffffffffffff\n  and\n  mul\n  or\n  swap1\n  sstore\n  pop\n    /* \"contract.sol\":1663:1670  NFTname */\n  dup8\n    /* \"contract.sol\":1653:1660  NFTName */\n  0x0e\n    /* \"contract.sol\":1653:1670  NFTName = NFTname */\n  swap1\n  dup2\n  tag_19\n  swap2\n  swap1\n  tag_2\n  jump\t// in\ntag_19:\n  pop\n    /* \"contract.sol\":1693:1702  NFTsymbol */\n  dup7\n    /* \"contract.sol\":1681:1690  NFTSymbol */\n  0x0f\n    /* \"contract.sol\":1681:1702  NFTSymbol = NFTsymbol */\n  swap1\n  dup2\n  tag_20\n  swap2\n  swap1\n  tag_2\n  jump\t// in\ntag_20:\n  pop\n    /* \"contract.sol\":1721:1726  Price */\n  dup6\n    /* \"contract.sol\":1713:1718  price */\n  0x0b\n    /* \"contract.sol\":1713:1726  price = Price */\n  dup2\n  swap1\n  sstore\n  pop\n    /* \"contract.sol\":1755:1769  TokensReserved */\n  dup4\n    /* \"contract.sol\":1737:1752  TOKENS_RESERVED */\n  0x0a\n    /* \"contract.sol\":1737:1769  TOKENS_RESERVED = TokensReserved */\n  dup2\n  swap1\n  sstore\n  pop\n    /* \"contract.sol\":1794:1809  TOKENS_RESERVED */\n  sload(0x0a)\n    /* \"contract.sol\":1780:1791  totalSupply */\n  0x11\n    /* \"contract.sol\":1780:1809  totalSupply = TOKENS_RESERVED */\n  dup2\n  swap1\n  sstore\n  pop\n    /* \"contract.sol\":1833:1842  MaxTokens */\n  dup5\n    /* \"contract.sol\":1820:1830  MAX_TOKENS */\n  0x09\n    /* \"contract.sol\":1820:1842  MAX_TOKENS = MaxTokens */\n  dup2\n  swap1\n  sstore\n  pop\n    /* \"contract.sol\":1871:1879  MaxPerTX */\n  dup1\n    /* \"contract.sol\":1853:1868  MAX_MINT_PER_TX */\n  0x0c\n    /* \"contract.sol\":1853:1879  MAX_MINT_PER_TX = MaxPerTX */\n  dup2\n  swap1\n  sstore\n  pop\n    /* \"contract.sol\":1912:1924  MaxPerWallet */\n  dup2\n    /* \"contract.sol\":1890:1909  MAX_MINT_PER_WALLET */\n  0x0d\n    /* \"contract.sol\":1890:1924  MAX_MINT_PER_WALLET = MaxPerWallet */\n  dup2\n  swap1\n  sstore\n  pop\n    /* \"contract.sol\":1942:1951  uint256 i */\n  0x00\n    /* \"contract.sol\":1953:1954  1 */\n  0x01\n    /* \"contract.sol\":1942:1954  uint256 i =1 */\n  swap1\n  pop\n    /* \"contract.sol\":1937:2032  for (uint256 i =1; i<TOKENS_RESERVED; i++) {... */\ntag_21:\n    /* \"contract.sol\":1958:1973  TOKENS_RESERVED */\n  sload(0x0a)\n    /* \"contract.sol\":1956:1957  i */\n  dup2\n    /* \"contract.sol\":1956:1973  i<TOKENS_RESERVED */\n  lt\n    /* \"contract.sol\":1937:2032  for (uint256 i =1; i<TOKENS_RESERVED; i++) {... */\n  iszero\n  tag_22\n  jumpi\n    /* \"contract.sol\":1995:2020  _safeMint (msg.sender, i) */\n  tag_24\n    /* \"contract.sol\":2006:2016  msg.sender */\n  caller\n    /* \"contract.sol\":2018:2019  i */\n  dup3\n    /* \"contract.sol\":1995:2004  _safeMint */\n  shl(0x20, tag_25)\n    /* \"contract.sol\":1995:2020  _safeMint (msg.sender, i) */\n  0x20\n  shr\n  jump\t// in\ntag_24:\n    /* \"contract.sol\":1975:1978  i++ */\n  dup1\n  dup1\n  tag_26\n  swap1\n  tag_27\n  jump\t// in\ntag_26:\n  swap2\n  pop\n  pop\n    /* \"contract.sol\":1937:2032  for (uint256 i =1; i<TOKENS_RESERVED; i++) {... */\n  jump(tag_21)\ntag_22:\n  pop\n    /* \"contract.sol\":1354:2041  constructor(address creator, string memory NFTname, string memory NFTsymbol, uint256 Price, uint256 MaxTokens, uint256 TokensReserved, string memory baseNFTURI, uint256 MaxPerWallet, uint256 MaxPerTX ) ERC721(NFTname, NFTsymbol) {... */\n  pop\n  pop\n  pop\n  pop\n  pop\n  pop\n  pop\n  pop\n  pop\n    /* \"contract.sol\":712:4265  contract NFT is ERC721URIStorage, Ownable {... */\n  jump(tag_28)\n    /* \"Context.sol\":656:754   */\ntag_15:\n    /* \"Context.sol\":709:716   */\n  0x00\n    /* \"Context.sol\":736:746   */\n  caller\n    /* \"Context.sol\":729:746   */\n  swap1\n  pop\n    /* \"Context.sol\":656:754   */\n  swap1\n  jump\t// out\n    /* \"Ownable.sol\":2503:2694   */\ntag_16:\n    /* \"Ownable.sol\":2577:2593   */\n  0x00\n    /* \"Ownable.sol\":2596:2602   */\n  0x07\n  0x00\n  swap1\n  sload\n  swap1\n  0x0100\n  exp\n  swap1\n  div\n  0xffffffffffffffffffffffffffffffffffffffff\n  and\n    /* \"Ownable.sol\":2577:2602   */\n  swap1\n  pop\n    /* \"Ownable.sol\":2622:2630   */\n  dup2\n    /* \"Ownable.sol\":2613:2619   */\n  0x07\n  0x00\n    /* \"Ownable.sol\":2613:2630   */\n  0x0100\n  exp\n  dup2\n  sload\n  dup2\n  0xffffffffffffffffffffffffffffffffffffffff\n  mul\n  not\n  and\n  swap1\n  dup4\n  0xffffffffffffffffffffffffffffffffffffffff\n  and\n  mul\n  or\n  swap1\n  sstore\n  pop\n    /* \"Ownable.sol\":2677:2685   */\n  dup2\n    /* \"Ownable.sol\":2646:2686   */\n  0xffffffffffffffffffffffffffffffffffffffff\n  and\n    /* \"Ownable.sol\":2667:2675   */\n  dup2\n    /* \"Ownable.sol\":2646:2686   */\n  0xffffffffffffffffffffffffffffffffffffffff\n  and\n  0x8be0079c531659141344cd1fd0a4f28419497f9722a3daafe3b4186f6b6457e0\n  mload(0x40)\n  mload(0x40)\n  dup1\n  swap2\n  sub\n  swap1\n  log3\n    /* \"Ownable.sol\":2566:2694   */\n  pop\n    /* \"Ownable.sol\":2503:2694   */\n  pop\n  jump\t// out\n    /* \"ERC721.sol\":8153:8263   */\ntag_25:\n    /* \"ERC721.sol\":8229:8255   */\n  tag_32\n    /* \"ERC721.sol\":8239:8241   */\n  dup3\n    /* \"ERC721.sol\":8243:8250   */\n  dup3\n    /* \"ERC721.sol\":8229:8255   */\n  mload(0x40)\n  dup1\n  0x20\n  add\n  0x40\n  mstore\n  dup1\n  0x00\n  dup2\n  mstore\n  pop\n    /* \"ERC721.sol\":8229:8238   */\n  shl(0x20, tag_33)\n    /* \"ERC721.sol\":8229:8255   */\n  0x20\n  shr\n  jump\t// in\ntag_32:\n    /* \"ERC721.sol\":8153:8263   */\n  pop\n  pop\n  jump\t// out\n    /* \"ERC721.sol\":8490:8775   */\ntag_33:\n    /* \"ERC721.sol\":8585:8603   */\n  tag_35\n    /* \"ERC721.sol\":8591:8593   */\n  dup4\n    /* \"ERC721.sol\":8595:8602   */\n  dup4\n    /* \"ERC721.sol\":8585:8590   */\n  shl(0x20, tag_36)\n    /* \"ERC721.sol\":8585:8603   */\n  0x20\n  shr\n  jump\t// in\ntag_35:\n    /* \"ERC721.sol\":8636:8689   */\n  tag_37\n    /* \"ERC721.sol\":8667:8668   */\n  0x00\n    /* \"ERC721.sol\":8671:8673   */\n  dup5\n    /* \"ERC721.sol\":8675:8682   */\n  dup5\n    /* \"ERC721.sol\":8684:8688   */\n  dup5\n    /* \"ERC721.sol\":8636:8658   */\n  shl(0x20, tag_38)\n    /* \"ERC721.sol\":8636:8689   */\n  0x20\n  shr\n  jump\t// in\ntag_37:\n    /* \"ERC721.sol\":8614:8767   */\n  tag_39\n  jumpi\n  mload(0x40)\n  0x08c379a000000000000000000000000000000000000000000000000000000000\n  dup2\n  mstore\n  0x04\n  add\n  tag_40\n  swap1\n  tag_41\n  jump\t// in\ntag_40:\n  mload(0x40)\n  dup1\n  swap2\n  sub\n  swap1\n  revert\ntag_39:\n    /* \"ERC721.sol\":8490:8775   */\n  pop\n  pop\n  pop\n  jump\t// out\n    /* \"ERC721.sol\":9111:10025   */\ntag_36:\n    /* \"ERC721.sol\":9205:9206   */\n  0x00\n    /* \"ERC721.sol\":9191:9207   */\n  0xffffffffffffffffffffffffffffffffffffffff\n  and\n    /* \"ERC721.sol\":9191:9193   */\n  dup3\n    /* \"ERC721.sol\":9191:9207   */\n  0xffffffffffffffffffffffffffffffffffffffff\n  and\n  sub\n    /* \"ERC721.sol\":9183:9244   */\n  tag_43\n  jumpi\n  mload(0x40)\n  0x08c379a000000000000000000000000000000000000000000000000000000000\n  dup2\n  mstore\n  0x04\n  add\n  tag_44\n  swap1\n  tag_45\n  jump\t// in\ntag_44:\n  mload(0x40)\n  dup1\n  swap2\n  sub\n  swap1\n  revert\ntag_43:\n    /* \"ERC721.sol\":9264:9280   */\n  tag_46\n    /* \"ERC721.sol\":9272:9279   */\n  dup2\n    /* \"ERC721.sol\":9264:9271   */\n  shl(0x20, tag_47)\n    /* \"ERC721.sol\":9264:9280   */\n  0x20\n  shr\n  jump\t// in\ntag_46:\n    /* \"ERC721.sol\":9263:9280   */\n  iszero\n    /* \"ERC721.sol\":9255:9313   */\n  tag_48\n  jumpi\n  mload(0x40)\n  0x08c379a000000000000000000000000000000000000000000000000000000000\n  dup2\n  mstore\n  0x04\n  add\n  tag_49\n  swap1\n  tag_50\n  jump\t// in\ntag_49:\n  mload(0x40)\n  dup1\n  swap2\n  sub\n  swap1\n  revert\ntag_48:\n    /* \"ERC721.sol\":9326:9374   */\n  tag_51\n    /* \"ERC721.sol\":9355:9356   */\n  0x00\n    /* \"ERC721.sol\":9359:9361   */\n  dup4\n    /* \"ERC721.sol\":9363:9370   */\n  dup4\n    /* \"ERC721.sol\":9372:9373   */\n  0x01\n    /* \"ERC721.sol\":9326:9346   */\n  shl(0x20, tag_52)\n    /* \"ERC721.sol\":9326:9374   */\n  0x20\n  shr\n  jump\t// in\ntag_51:\n    /* \"ERC721.sol\":9473:9489   */\n  tag_53\n    /* \"ERC721.sol\":9481:9488   */\n  dup2\n    /* \"ERC721.sol\":9473:9480   */\n  shl(0x20, tag_47)\n    /* \"ERC721.sol\":9473:9489   */\n  0x20\n  shr\n  jump\t// in\ntag_53:\n    /* \"ERC721.sol\":9472:9489   */\n  iszero\n    /* \"ERC721.sol\":9464:9522   */\n  tag_54\n  jumpi\n  mload(0x40)\n  0x08c379a000000000000000000000000000000000000000000000000000000000\n  dup2\n  mstore\n  0x04\n  add\n  tag_55\n  swap1\n  tag_50\n  jump\t// in\ntag_55:\n  mload(0x40)\n  dup1\n  swap2\n  sub\n  swap1\n  revert\ntag_54:\n    /* \"ERC721.sol\":9864:9865   */\n  0x01\n    /* \"ERC721.sol\":9847:9856   */\n  0x03\n    /* \"ERC721.sol\":9847:9860   */\n  0x00\n    /* \"ERC721.sol\":9857:9859   */\n  dup5\n    /* \"ERC721.sol\":9847:9860   */\n  0xffffffffffffffffffffffffffffffffffffffff\n  and\n  0xffffffffffffffffffffffffffffffffffffffff\n  and\n  dup2\n  mstore\n  0x20\n  add\n  swap1\n  dup2\n  mstore\n  0x20\n  add\n  0x00\n  keccak256\n  0x00\n    /* \"ERC721.sol\":9847:9865   */\n  dup3\n  dup3\n  sload\n  add\n  swap3\n  pop\n  pop\n  dup2\n  swap1\n  sstore\n  pop\n    /* \"ERC721.sol\":9904:9906   */\n  dup2\n    /* \"ERC721.sol\":9885:9892   */\n  0x02\n    /* \"ERC721.sol\":9885:9901   */\n  0x00\n    /* \"ERC721.sol\":9893:9900   */\n  dup4\n    /* \"ERC721.sol\":9885:9901   */\n  dup2\n  mstore\n  0x20\n  add\n  swap1\n  dup2\n  mstore\n  0x20\n  add\n  0x00\n  keccak256\n  0x00\n    /* \"ERC721.sol\":9885:9906   */\n  0x0100\n  exp\n  dup2\n  sload\n  dup2\n  0xffffffffffffffffffffffffffffffffffffffff\n  mul\n  not\n  and\n  swap1\n  dup4\n  0xffffffffffffffffffffffffffffffffffffffff\n  and\n  mul\n  or\n  swap1\n  sstore\n  pop\n    /* \"ERC721.sol\":9949:9956   */\n  dup1\n    /* \"ERC721.sol\":9945:9947   */\n  dup3\n    /* \"ERC721.sol\":9924:9957   */\n  0xffffffffffffffffffffffffffffffffffffffff\n  and\n    /* \"ERC721.sol\":9941:9942   */\n  0x00\n    /* \"ERC721.sol\":9924:9957   */\n  0xffffffffffffffffffffffffffffffffffffffff\n  and\n  0xddf252ad1be2c89b69c2b068fc378daa952ba7f163c4a11628f55a4df523b3ef\n  mload(0x40)\n  mload(0x40)\n  dup1\n  swap2\n  sub\n  swap1\n  log4\n    /* \"ERC721.sol\":9970:10017   */\n  tag_56\n    /* \"ERC721.sol\":9998:9999   */\n  0x00\n    /* \"ERC721.sol\":10002:10004   */\n  dup4\n    /* \"ERC721.sol\":10006:10013   */\n  dup4\n    /* \"ERC721.sol\":10015:10016   */\n  0x01\n    /* \"ERC721.sol\":9970:9989   */\n  shl(0x20, tag_57)\n    /* \"ERC721.sol\":9970:10017   */\n  0x20\n  shr\n  jump\t// in\ntag_56:\n    /* \"ERC721.sol\":9111:10025   */\n  pop\n  pop\n  jump\t// out\n    /* \"ERC721.sol\":14162:15015   */\ntag_38:\n    /* \"ERC721.sol\":14316:14320   */\n  0x00\n    /* \"ERC721.sol\":14337:14352   */\n  tag_59\n    /* \"ERC721.sol\":14337:14339   */\n  dup5\n    /* \"ERC721.sol\":14337:14350   */\n  0xffffffffffffffffffffffffffffffffffffffff\n  and\n  or(tag_0_190, shl(0x20, tag_60))\n    /* \"ERC721.sol\":14337:14352   */\n  0x20\n  shr\n  jump\t// in\ntag_59:\n    /* \"ERC721.sol\":14333:15008   */\n  iszero\n  tag_61\n  jumpi\n    /* \"ERC721.sol\":14389:14391   */\n  dup4\n    /* \"ERC721.sol\":14373:14409   */\n  0xffffffffffffffffffffffffffffffffffffffff\n  and\n  0x150b7a02\n    /* \"ERC721.sol\":14410:14422   */\n  tag_62\n    /* \"ERC721.sol\":14410:14420   */\n  shl(0x20, tag_15)\n    /* \"ERC721.sol\":14410:14422   */\n  0x20\n  shr\n  jump\t// in\ntag_62:\n    /* \"ERC721.sol\":14424:14428   */\n  dup8\n    /* \"ERC721.sol\":14430:14437   */\n  dup7\n    /* \"ERC721.sol\":14439:14443   */\n  dup7\n    /* \"ERC721.sol\":14373:14444   */\n  mload(0x40)\n  dup6\n  0xffffffff\n  and\n  0xe0\n  shl\n  dup2\n  mstore\n  0x04\n  add\n  tag_63\n  swap5\n  swap4\n  swap3\n  swap2\n  swap1\n  tag_64\n  jump\t// in\ntag_63:\n  0x20\n  mload(0x40)\n  dup1\n  dup4\n  sub\n  dup2\n  0x00\n  dup8\n  gas\n  call\n  swap3\n  pop\n  pop\n  pop\n  dup1\n  iszero\n  tag_65\n  jumpi\n  pop\n  mload(0x40)\n  returndatasize\n  not(0x1f)\n  0x1f\n  dup3\n  add\n  and\n  dup3\n  add\n  dup1\n  0x40\n  mstore\n  pop\n  dup2\n  add\n  swap1\n  tag_66\n  swap2\n  swap1\n  tag_67\n  jump\t// in\ntag_66:\n  0x01\ntag_65:\n    /* \"ERC721.sol\":14369:14953   */\n  tag_68\n  jumpi\n  returndatasize\n  dup1\n  0x00\n  dup2\n  eq\n  tag_73\n  jumpi\n  mload(0x40)\n  swap2\n  pop\n  and(add(returndatasize, 0x3f), not(0x1f))\n  dup3\n  add\n  0x40\n  mstore\n  returndatasize\n  dup3\n  mstore\n  returndatasize\n  0x00\n  0x20\n  dup5\n  add\n  returndatacopy\n  jump(tag_72)\ntag_73:\n  0x60\n  swap2\n  pop\ntag_72:\n  pop\n    /* \"ERC721.sol\":14631:14632   */\n  0x00\n    /* \"ERC721.sol\":14614:14620   */\n  dup2\n    /* \"ERC721.sol\":14614:14627   */\n  mload\n    /* \"ERC721.sol\":14614:14632   */\n  sub\n    /* \"ERC721.sol\":14610:14938   */\n  tag_74\n  jumpi\n    /* \"ERC721.sol\":14657:14717   */\n  mload(0x40)\n  0x08c379a000000000000000000000000000000000000000000000000000000000\n  dup2\n  mstore\n  0x04\n  add\n  tag_75\n  swap1\n  tag_41\n  jump\t// in\ntag_75:\n  mload(0x40)\n  dup1\n  swap2\n  sub\n  swap1\n  revert\n    /* \"ERC721.sol\":14610:14938   */\ntag_74:\n    /* \"ERC721.sol\":14888:14894   */\n  dup1\n    /* \"ERC721.sol\":14882:14895   */\n  mload\n    /* \"ERC721.sol\":14873:14879   */\n  dup2\n    /* \"ERC721.sol\":14869:14871   */\n  0x20\n    /* \"ERC721.sol\":14865:14880   */\n  add\n    /* \"ERC721.sol\":14858:14896   */\n  revert\n    /* \"ERC721.sol\":14369:14953   */\ntag_68:\n    /* \"ERC721.sol\":14505:14546   */\n  shl(0xe0, 0x150b7a02)\n    /* \"ERC721.sol\":14495:14546   */\n  not(0xffffffffffffffffffffffffffffffffffffffffffffffffffffffff)\n  and\n    /* \"ERC721.sol\":14495:14501   */\n  dup2\n    /* \"ERC721.sol\":14495:14546   */\n  not(0xffffffffffffffffffffffffffffffffffffffffffffffffffffffff)\n  and\n  eq\n    /* \"ERC721.sol\":14488:14546   */\n  swap2\n  pop\n  pop\n  jump(tag_58)\n    /* \"ERC721.sol\":14333:15008   */\ntag_61:\n    /* \"ERC721.sol\":14992:14996   */\n  0x01\n    /* \"ERC721.sol\":14985:14996   */\n  swap1\n  pop\n    /* \"ERC721.sol\":14162:15015   */\ntag_58:\n  swap5\n  swap4\n  pop\n  pop\n  pop\n  pop\n  jump\t// out\n    /* \"ERC721.sol\":7252:7380   */\ntag_47:\n    /* \"ERC721.sol\":7317:7321   */\n  0x00\n    /* \"ERC721.sol\":7370:7371   */\n  dup1\n    /* \"ERC721.sol\":7341:7372   */\n  0xffffffffffffffffffffffffffffffffffffffff\n  and\n    /* \"ERC721.sol\":7341:7358   */\n  tag_80\n    /* \"ERC721.sol\":7350:7357   */\n  dup4\n    /* \"ERC721.sol\":7341:7349   */\n  shl(0x20, tag_81)\n    /* \"ERC721.sol\":7341:7358   */\n  0x20\n  shr\n  jump\t// in\ntag_80:\n    /* \"ERC721.sol\":7341:7372   */\n  0xffffffffffffffffffffffffffffffffffffffff\n  and\n  eq\n  iszero\n    /* \"ERC721.sol\":7334:7372   */\n  swap1\n  pop\n    /* \"ERC721.sol\":7252:7380   */\n  swap2\n  swap1\n  pop\n  jump\t// out\n    /* \"ERC721.sol\":15747:16157   */\ntag_52:\n    /* \"ERC721.sol\":15937:15938   */\n  0x01\n    /* \"ERC721.sol\":15925:15934   */\n  dup2\n    /* \"ERC721.sol\":15925:15938   */\n  gt\n    /* \"ERC721.sol\":15921:16150   */\n  iszero\n  tag_83\n  jumpi\n    /* \"ERC721.sol\":15975:15976   */\n  0x00\n    /* \"ERC721.sol\":15959:15977   */\n  0xffffffffffffffffffffffffffffffffffffffff\n  and\n    /* \"ERC721.sol\":15959:15963   */\n  dup5\n    /* \"ERC721.sol\":15959:15977   */\n  0xffffffffffffffffffffffffffffffffffffffff\n  and\n  eq\n    /* \"ERC721.sol\":15955:16042   */\n  tag_84\n  jumpi\n    /* \"ERC721.sol\":16017:16026   */\n  dup1\n    /* \"ERC721.sol\":15998:16007   */\n  0x03\n    /* \"ERC721.sol\":15998:16013   */\n  0x00\n    /* \"ERC721.sol\":16008:16012   */\n  dup7\n    /* \"ERC721.sol\":15998:16013   */\n  0xffffffffffffffffffffffffffffffffffffffff\n  and\n  0xffffffffffffffffffffffffffffffffffffffff\n  and\n  dup2\n  mstore\n  0x20\n  add\n  swap1\n  dup2\n  mstore\n  0x20\n  add\n  0x00\n  keccak256\n  0x00\n    /* \"ERC721.sol\":15998:16026   */\n  dup3\n  dup3\n  sload\n  tag_85\n  swap2\n  swap1\n  tag_86\n  jump\t// in\ntag_85:\n  swap3\n  pop\n  pop\n  dup2\n  swap1\n  sstore\n  pop\n    /* \"ERC721.sol\":15955:16042   */\ntag_84:\n    /* \"ERC721.sol\":16074:16075   */\n  0x00\n    /* \"ERC721.sol\":16060:16076   */\n  0xffffffffffffffffffffffffffffffffffffffff\n  and\n    /* \"ERC721.sol\":16060:16062   */\n  dup4\n    /* \"ERC721.sol\":16060:16076   */\n  0xffffffffffffffffffffffffffffffffffffffff\n  and\n  eq\n    /* \"ERC721.sol\":16056:16139   */\n  tag_87\n  jumpi\n    /* \"ERC721.sol\":16114:16123   */\n  dup1\n    /* \"ERC721.sol\":16097:16106   */\n  0x03\n    /* \"ERC721.sol\":16097:16110   */\n  0x00\n    /* \"ERC721.sol\":16107:16109   */\n  dup6\n    /* \"ERC721.sol\":16097:16110   */\n  0xffffffffffffffffffffffffffffffffffffffff\n  and\n  0xffffffffffffffffffffffffffffffffffffffff\n  and\n  dup2\n  mstore\n  0x20\n  add\n  swap1\n  dup2\n  mstore\n  0x20\n  add\n  0x00\n  keccak256\n  0x00\n    /* \"ERC721.sol\":16097:16123   */\n  dup3\n  dup3\n  sload\n  tag_88\n  swap2\n  swap1\n  tag_89\n  jump\t// in\ntag_88:\n  swap3\n  pop\n  pop\n  dup2\n  swap1\n  sstore\n  pop\n    /* \"ERC721.sol\":16056:16139   */\ntag_87:\n    /* \"ERC721.sol\":15921:16150   */\ntag_83:\n    /* \"ERC721.sol\":15747:16157   */\n  pop\n  pop\n  pop\n  pop\n  jump\t// out\n    /* \"ERC721.sol\":16879:16994   */\ntag_57:\n  pop\n  pop\n  pop\n  pop\n  jump\t// out\n    /* \"Address.sol\":1451:1777   */\ntag_60:\n    /* \"Address.sol\":1511:1515   */\n  0x00\n    /* \"Address.sol\":1768:1769   */\n  dup1\n    /* \"Address.sol\":1746:1753   */\n  dup3\n    /* \"Address.sol\":1746:1765   */\n  0xffffffffffffffffffffffffffffffffffffffff\n  and\n  extcodesize\n    /* \"Address.sol\":1746:1769   */\n  gt\n    /* \"Address.sol\":1739:1769   */\n  swap1\n  pop\n    /* \"Address.sol\":1451:1777   */\n  swap2\n  swap1\n  pop\n  jump\t// out\n    /* \"ERC721.sol\":6822:6939   */\ntag_81:\n    /* \"ERC721.sol\":6888:6895   */\n  0x00\n    /* \"ERC721.sol\":6915:6922   */\n  0x02\n    /* \"ERC721.sol\":6915:6931   */\n  0x00\n    /* \"ERC721.sol\":6923:6930   */\n  dup4\n    /* \"ERC721.sol\":6915:6931   */\n  dup2\n  mstore\n  0x20\n  add\n  swap1\n  dup2\n  mstore\n  0x20\n  add\n  0x00\n  keccak256\n  0x00\n  swap1\n  sload\n  swap1\n  0x0100\n  exp\n  swap1\n  div\n  0xffffffffffffffffffffffffffffffffffffffff\n  and\n    /* \"ERC721.sol\":6908:6931   */\n  swap1\n  pop\n    /* \"ERC721.sol\":6822:6939   */\n  swap2\n  swap1\n  pop\n  jump\t// out\n    /* \"#utility.yul\":7:106   */\ntag_93:\n    /* \"#utility.yul\":59:65   */\n  0x00\n    /* \"#utility.yul\":93:98   */\n  dup2\n    /* \"#utility.yul\":87:99   */\n  mload\n    /* \"#utility.yul\":77:99   */\n  swap1\n  pop\n    /* \"#utility.yul\":7:106   */\n  swap2\n  swap1\n  pop\n  jump\t// out\n    /* \"#utility.yul\":112:292   */\ntag_94:\n    /* \"#utility.yul\":160:237   */\n  0x4e487b7100000000000000000000000000000000000000000000000000000000\n    /* \"#utility.yul\":157:158   */\n  0x00\n    /* \"#utility.yul\":150:238   */\n  mstore\n    /* \"#utility.yul\":257:261   */\n  0x41\n    /* \"#utility.yul\":254:255   */\n  0x04\n    /* \"#utility.yul\":247:262   */\n  mstore\n    /* \"#utility.yul\":281:285   */\n  0x24\n    /* \"#utility.yul\":278:279   */\n  0x00\n    /* \"#utility.yul\":271:286   */\n  revert\n    /* \"#utility.yul\":298:478   */\ntag_95:\n    /* \"#utility.yul\":346:423   */\n  0x4e487b7100000000000000000000000000000000000000000000000000000000\n    /* \"#utility.yul\":343:344   */\n  0x00\n    /* \"#utility.yul\":336:424   */\n  mstore\n    /* \"#utility.yul\":443:447   */\n  0x22\n    /* \"#utility.yul\":440:441   */\n  0x04\n    /* \"#utility.yul\":433:448   */\n  mstore\n    /* \"#utility.yul\":467:471   */\n  0x24\n    /* \"#utility.yul\":464:465   */\n  0x00\n    /* \"#utility.yul\":457:472   */\n  revert\n    /* \"#utility.yul\":484:804   */\ntag_96:\n    /* \"#utility.yul\":528:534   */\n  0x00\n    /* \"#utility.yul\":565:566   */\n  0x02\n    /* \"#utility.yul\":559:563   */\n  dup3\n    /* \"#utility.yul\":555:567   */\n  div\n    /* \"#utility.yul\":545:567   */\n  swap1\n  pop\n    /* \"#utility.yul\":612:613   */\n  0x01\n    /* \"#utility.yul\":606:610   */\n  dup3\n    /* \"#utility.yul\":602:614   */\n  and\n    /* \"#utility.yul\":633:651   */\n  dup1\n    /* \"#utility.yul\":623:704   */\n  tag_152\n  jumpi\n    /* \"#utility.yul\":689:693   */\n  0x7f\n    /* \"#utility.yul\":681:687   */\n  dup3\n    /* \"#utility.yul\":677:694   */\n  and\n    /* \"#utility.yul\":667:694   */\n  swap2\n  pop\n    /* \"#utility.yul\":623:704   */\ntag_152:\n    /* \"#utility.yul\":751:753   */\n  0x20\n    /* \"#utility.yul\":743:749   */\n  dup3\n    /* \"#utility.yul\":740:754   */\n  lt\n    /* \"#utility.yul\":720:738   */\n  dup2\n    /* \"#utility.yul\":717:755   */\n  sub\n    /* \"#utility.yul\":714:798   */\n  tag_153\n  jumpi\n    /* \"#utility.yul\":770:788   */\n  tag_154\n  tag_95\n  jump\t// in\ntag_154:\n    /* \"#utility.yul\":714:798   */\ntag_153:\n    /* \"#utility.yul\":535:804   */\n  pop\n    /* \"#utility.yul\":484:804   */\n  swap2\n  swap1\n  pop\n  jump\t// out\n    /* \"#utility.yul\":810:951   */\ntag_97:\n    /* \"#utility.yul\":859:863   */\n  0x00\n    /* \"#utility.yul\":882:885   */\n  dup2\n    /* \"#utility.yul\":874:885   */\n  swap1\n  pop\n    /* \"#utility.yul\":905:908   */\n  dup2\n    /* \"#utility.yul\":902:903   */\n  0x00\n    /* \"#utility.yul\":895:909   */\n  mstore\n    /* \"#utility.yul\":939:943   */\n  0x20\n    /* \"#utility.yul\":936:937   */\n  0x00\n    /* \"#utility.yul\":926:944   */\n  keccak256\n    /* \"#utility.yul\":918:944   */\n  swap1\n  pop\n    /* \"#utility.yul\":810:951   */\n  swap2\n  swap1\n  pop\n  jump\t// out\n    /* \"#utility.yul\":957:1050   */\ntag_98:\n    /* \"#utility.yul\":994:1000   */\n  0x00\n    /* \"#utility.yul\":1041:1043   */\n  0x20\n    /* \"#utility.yul\":1036:1038   */\n  0x1f\n    /* \"#utility.yul\":1029:1034   */\n  dup4\n    /* \"#utility.yul\":1025:1039   */\n  add\n    /* \"#utility.yul\":1021:1044   */\n  div\n    /* \"#utility.yul\":1011:1044   */\n  swap1\n  pop\n    /* \"#utility.yul\":957:1050   */\n  swap2\n  swap1\n  pop\n  jump\t// out\n    /* \"#utility.yul\":1056:1163   */\ntag_99:\n    /* \"#utility.yul\":1100:1108   */\n  0x00\n    /* \"#utility.yul\":1150:1155   */\n  dup3\n    /* \"#utility.yul\":1144:1148   */\n  dup3\n    /* \"#utility.yul\":1140:1156   */\n  shl\n    /* \"#utility.yul\":1119:1156   */\n  swap1\n  pop\n    /* \"#utility.yul\":1056:1163   */\n  swap3\n  swap2\n  pop\n  pop\n  jump\t// out\n    /* \"#utility.yul\":1169:1562   */\ntag_100:\n    /* \"#utility.yul\":1238:1244   */\n  0x00\n    /* \"#utility.yul\":1288:1289   */\n  0x08\n    /* \"#utility.yul\":1276:1286   */\n  dup4\n    /* \"#utility.yul\":1272:1290   */\n  mul\n    /* \"#utility.yul\":1311:1408   */\n  tag_159\n    /* \"#utility.yul\":1341:1407   */\n  0xffffffffffffffffffffffffffffffffffffffffffffffffffffffffffffffff\n    /* \"#utility.yul\":1330:1339   */\n  dup3\n    /* \"#utility.yul\":1311:1408   */\n  tag_99\n  jump\t// in\ntag_159:\n    /* \"#utility.yul\":1429:1468   */\n  tag_160\n    /* \"#utility.yul\":1459:1467   */\n  dup7\n    /* \"#utility.yul\":1448:1457   */\n  dup4\n    /* \"#utility.yul\":1429:1468   */\n  tag_99\n  jump\t// in\ntag_160:\n    /* \"#utility.yul\":1417:1468   */\n  swap6\n  pop\n    /* \"#utility.yul\":1501:1505   */\n  dup1\n    /* \"#utility.yul\":1497:1506   */\n  not\n    /* \"#utility.yul\":1490:1495   */\n  dup5\n    /* \"#utility.yul\":1486:1507   */\n  and\n    /* \"#utility.yul\":1477:1507   */\n  swap4\n  pop\n    /* \"#utility.yul\":1550:1554   */\n  dup1\n    /* \"#utility.yul\":1540:1548   */\n  dup7\n    /* \"#utility.yul\":1536:1555   */\n  and\n    /* \"#utility.yul\":1529:1534   */\n  dup5\n    /* \"#utility.yul\":1526:1556   */\n  or\n    /* \"#utility.yul\":1516:1556   */\n  swap3\n  pop\n    /* \"#utility.yul\":1245:1562   */\n  pop\n  pop\n    /* \"#utility.yul\":1169:1562   */\n  swap4\n  swap3\n  pop\n  pop\n  pop\n  jump\t// out\n    /* \"#utility.yul\":1568:1645   */\ntag_101:\n    /* \"#utility.yul\":1605:1612   */\n  0x00\n    /* \"#utility.yul\":1634:1639   */\n  dup2\n    /* \"#utility.yul\":1623:1639   */\n  swap1\n  pop\n    /* \"#utility.yul\":1568:1645   */\n  swap2\n  swap1\n  pop\n  jump\t// out\n    /* \"#utility.yul\":1651:1711   */\ntag_102:\n    /* \"#utility.yul\":1679:1682   */\n  0x00\n    /* \"#utility.yul\":1700:1705   */\n  dup2\n    /* \"#utility.yul\":1693:1705   */\n  swap1\n  pop\n    /* \"#utility.yul\":1651:1711   */\n  swap2\n  swap1\n  pop\n  jump\t// out\n    /* \"#utility.yul\":1717:1859   */\ntag_103:\n    /* \"#utility.yul\":1767:1776   */\n  0x00\n    /* \"#utility.yul\":1800:1853   */\n  tag_164\n    /* \"#utility.yul\":1818:1852   */\n  tag_165\n    /* \"#utility.yul\":1827:1851   */\n  tag_166\n    /* \"#utility.yul\":1845:1850   */\n  dup5\n    /* \"#utility.yul\":1827:1851   */\n  tag_101\n  jump\t// in\ntag_166:\n    /* \"#utility.yul\":1818:1852   */\n  tag_102\n  jump\t// in\ntag_165:\n    /* \"#utility.yul\":1800:1853   */\n  tag_101\n  jump\t// in\ntag_164:\n    /* \"#utility.yul\":1787:1853   */\n  swap1\n  pop\n    /* \"#utility.yul\":1717:1859   */\n  swap2\n  swap1\n  pop\n  jump\t// out\n    /* \"#utility.yul\":1865:1940   */\ntag_104:\n    /* \"#utility.yul\":1908:1911   */\n  0x00\n    /* \"#utility.yul\":1929:1934   */\n  dup2\n    /* \"#utility.yul\":1922:1934   */\n  swap1\n  pop\n    /* \"#utility.yul\":1865:1940   */\n  swap2\n  swap1\n  pop\n  jump\t// out\n    /* \"#utility.yul\":1946:2215   */\ntag_105:\n    /* \"#utility.yul\":2056:2095   */\n  tag_169\n    /* \"#utility.yul\":2087:2094   */\n  dup4\n    /* \"#utility.yul\":2056:2095   */\n  tag_103\n  jump\t// in\ntag_169:\n    /* \"#utility.yul\":2117:2208   */\n  tag_170\n    /* \"#utility.yul\":2166:2207   */\n  tag_171\n    /* \"#utility.yul\":2190:2206   */\n  dup3\n    /* \"#utility.yul\":2166:2207   */\n  tag_104\n  jump\t// in\ntag_171:\n    /* \"#utility.yul\":2158:2164   */\n  dup5\n    /* \"#utility.yul\":2151:2155   */\n  dup5\n    /* \"#utility.yul\":2145:2156   */\n  sload\n    /* \"#utility.yul\":2117:2208   */\n  tag_100\n  jump\t// in\ntag_170:\n    /* \"#utility.yul\":2111:2115   */\n  dup3\n    /* \"#utility.yul\":2104:2209   */\n  sstore\n    /* \"#utility.yul\":2022:2215   */\n  pop\n    /* \"#utility.yul\":1946:2215   */\n  pop\n  pop\n  pop\n  jump\t// out\n    /* \"#utility.yul\":2221:2294   */\ntag_106:\n    /* \"#utility.yul\":2266:2269   */\n  0x00\n    /* \"#utility.yul\":2221:2294   */\n  swap1\n  jump\t// out\n    /* \"#utility.yul\":2300:2489   */\ntag_107:\n    /* \"#utility.yul\":2377:2409   */\n  tag_174\n  tag_106\n  jump\t// in\ntag_174:\n    /* \"#utility.yul\":2418:2483   */\n  tag_175\n    /* \"#utility.yul\":2476:2482   */\n  dup2\n    /* \"#utility.yul\":2468:2474   */\n  dup5\n    /* \"#utility.yul\":2462:2466   */\n  dup5\n    /* \"#utility.yul\":2418:2483   */\n  tag_105\n  jump\t// in\ntag_175:\n    /* \"#utility.yul\":2353:2489   */\n  pop\n    /* \"#utility.yul\":2300:2489   */\n  pop\n  pop\n  jump\t// out\n    /* \"#utility.yul\":2495:2681   */\ntag_108:\n    /* \"#utility.yul\":2555:2675   */\ntag_177:\n    /* \"#utility.yul\":2572:2575   */\n  dup2\n    /* \"#utility.yul\":2565:2570   */\n  dup2\n    /* \"#utility.yul\":2562:2576   */\n  lt\n    /* \"#utility.yul\":2555:2675   */\n  iszero\n  tag_179\n  jumpi\n    /* \"#utility.yul\":2626:2665   */\n  tag_180\n    /* \"#utility.yul\":2663:2664   */\n  0x00\n    /* \"#utility.yul\":2656:2661   */\n  dup3\n    /* \"#utility.yul\":2626:2665   */\n  tag_107\n  jump\t// in\ntag_180:\n    /* \"#utility.yul\":2599:2600   */\n  0x01\n    /* \"#utility.yul\":2592:2597   */\n  dup2\n    /* \"#utility.yul\":2588:2601   */\n  add\n    /* \"#utility.yul\":2579:2601   */\n  swap1\n  pop\n    /* \"#utility.yul\":2555:2675   */\n  jump(tag_177)\ntag_179:\n    /* \"#utility.yul\":2495:2681   */\n  pop\n  pop\n  jump\t// out\n    /* \"#utility.yul\":2687:3230   */\ntag_109:\n    /* \"#utility.yul\":2788:2790   */\n  0x1f\n    /* \"#utility.yul\":2783:2786   */\n  dup3\n    /* \"#utility.yul\":2780:2791   */\n  gt\n    /* \"#utility.yul\":2777:3223   */\n  iszero\n  tag_182\n  jumpi\n    /* \"#utility.yul\":2822:2860   */\n  tag_183\n    /* \"#utility.yul\":2854:2859   */\n  dup2\n    /* \"#utility.yul\":2822:2860   */\n  tag_97\n  jump\t// in\ntag_183:\n    /* \"#utility.yul\":2906:2935   */\n  tag_184\n    /* \"#utility.yul\":2924:2934   */\n  dup5\n    /* \"#utility.yul\":2906:2935   */\n  tag_98\n  jump\t// in\ntag_184:\n    /* \"#utility.yul\":2896:2904   */\n  dup2\n    /* \"#utility.yul\":2892:2936   */\n  add\n    /* \"#utility.yul\":3089:3091   */\n  0x20\n    /* \"#utility.yul\":3077:3087   */\n  dup6\n    /* \"#utility.yul\":3074:3092   */\n  lt\n    /* \"#utility.yul\":3071:3120   */\n  iszero\n  tag_185\n  jumpi\n    /* \"#utility.yul\":3110:3118   */\n  dup2\n    /* \"#utility.yul\":3095:3118   */\n  swap1\n  pop\n    /* \"#utility.yul\":3071:3120   */\ntag_185:\n    /* \"#utility.yul\":3133:3213   */\n  tag_186\n    /* \"#utility.yul\":3189:3211   */\n  tag_187\n    /* \"#utility.yul\":3207:3210   */\n  dup6\n    /* \"#utility.yul\":3189:3211   */\n  tag_98\n  jump\t// in\ntag_187:\n    /* \"#utility.yul\":3179:3187   */\n  dup4\n    /* \"#utility.yul\":3175:3212   */\n  add\n    /* \"#utility.yul\":3162:3173   */\n  dup3\n    /* \"#utility.yul\":3133:3213   */\n  tag_108\n  jump\t// in\ntag_186:\n    /* \"#utility.yul\":2792:3223   */\n  pop\n  pop\n    /* \"#utility.yul\":2777:3223   */\ntag_182:\n    /* \"#utility.yul\":2687:3230   */\n  pop\n  pop\n  pop\n  jump\t// out\n    /* \"#utility.yul\":3236:3353   */\ntag_110:\n    /* \"#utility.yul\":3290:3298   */\n  0x00\n    /* \"#utility.yul\":3340:3345   */\n  dup3\n    /* \"#utility.yul\":3334:3338   */\n  dup3\n    /* \"#utility.yul\":3330:3346   */\n  shr\n    /* \"#utility.yul\":3309:3346   */\n  swap1\n  pop\n    /* \"#utility.yul\":3236:3353   */\n  swap3\n  swap2\n  pop\n  pop\n  jump\t// out\n    /* \"#utility.yul\":3359:3528   */\ntag_111:\n    /* \"#utility.yul\":3403:3409   */\n  0x00\n    /* \"#utility.yul\":3436:3487   */\n  tag_190\n    /* \"#utility.yul\":3484:3485   */\n  0x00\n    /* \"#utility.yul\":3480:3486   */\n  not\n    /* \"#utility.yul\":3472:3477   */\n  dup5\n    /* \"#utility.yul\":3469:3470   */\n  0x08\n    /* \"#utility.yul\":3465:3478   */\n  mul\n    /* \"#utility.yul\":3436:3487   */\n  tag_110\n  jump\t// in\ntag_190:\n    /* \"#utility.yul\":3432:3488   */\n  not\n    /* \"#utility.yul\":3517:3521   */\n  dup1\n    /* \"#utility.yul\":3511:3515   */\n  dup4\n    /* \"#utility.yul\":3507:3522   */\n  and\n    /* \"#utility.yul\":3497:3522   */\n  swap2\n  pop\n    /* \"#utility.yul\":3410:3528   */\n  pop\n    /* \"#utility.yul\":3359:3528   */\n  swap3\n  swap2\n  pop\n  pop\n  jump\t// out\n    /* \"#utility.yul\":3533:3828   */\ntag_112:\n    /* \"#utility.yul\":3609:3613   */\n  0x00\n    /* \"#utility.yul\":3755:3784   */\n  tag_192\n    /* \"#utility.yul\":3780:3783   */\n  dup4\n    /* \"#utility.yul\":3774:3778   */\n  dup4\n    /* \"#utility.yul\":3755:3784   */\n  tag_111\n  jump\t// in\ntag_192:\n    /* \"#utility.yul\":3747:3784   */\n  swap2\n  pop\n    /* \"#utility.yul\":3817:3820   */\n  dup3\n    /* \"#utility.yul\":3814:3815   */\n  0x02\n    /* \"#utility.yul\":3810:3821   */\n  mul\n    /* \"#utility.yul\":3804:3808   */\n  dup3\n    /* \"#utility.yul\":3801:3822   */\n  or\n    /* \"#utility.yul\":3793:3822   */\n  swap1\n  pop\n    /* \"#utility.yul\":3533:3828   */\n  swap3\n  swap2\n  pop\n  pop\n  jump\t// out\n    /* \"#utility.yul\":3833:5228   */\ntag_2:\n    /* \"#utility.yul\":3950:3987   */\n  tag_194\n    /* \"#utility.yul\":3983:3986   */\n  dup3\n    /* \"#utility.yul\":3950:3987   */\n  tag_93\n  jump\t// in\ntag_194:\n    /* \"#utility.yul\":4052:4070   */\n  0xffffffffffffffff\n    /* \"#utility.yul\":4044:4050   */\n  dup2\n    /* \"#utility.yul\":4041:4071   */\n  gt\n    /* \"#utility.yul\":4038:4094   */\n  iszero\n  tag_195\n  jumpi\n    /* \"#utility.yul\":4074:4092   */\n  tag_196\n  tag_94\n  jump\t// in\ntag_196:\n    /* \"#utility.yul\":4038:4094   */\ntag_195:\n    /* \"#utility.yul\":4118:4156   */\n  tag_197\n    /* \"#utility.yul\":4150:4154   */\n  dup3\n    /* \"#utility.yul\":4144:4155   */\n  sload\n    /* \"#utility.yul\":4118:4156   */\n  tag_96\n  jump\t// in\ntag_197:\n    /* \"#utility.yul\":4203:4270   */\n  tag_198\n    /* \"#utility.yul\":4263:4269   */\n  dup3\n    /* \"#utility.yul\":4255:4261   */\n  dup3\n    /* \"#utility.yul\":4249:4253   */\n  dup6\n    /* \"#utility.yul\":4203:4270   */\n  tag_109\n  jump\t// in\ntag_198:\n    /* \"#utility.yul\":4297:4298   */\n  0x00\n    /* \"#utility.yul\":4321:4325   */\n  0x20\n    /* \"#utility.yul\":4308:4325   */\n  swap1\n  pop\n    /* \"#utility.yul\":4353:4355   */\n  0x1f\n    /* \"#utility.yul\":4345:4351   */\n  dup4\n    /* \"#utility.yul\":4342:4356   */\n  gt\n    /* \"#utility.yul\":4370:4371   */\n  0x01\n    /* \"#utility.yul\":4365:4983   */\n  dup2\n  eq\n  tag_200\n  jumpi\n    /* \"#utility.yul\":5027:5028   */\n  0x00\n    /* \"#utility.yul\":5044:5050   */\n  dup5\n    /* \"#utility.yul\":5041:5118   */\n  iszero\n  tag_201\n  jumpi\n    /* \"#utility.yul\":5093:5102   */\n  dup3\n    /* \"#utility.yul\":5088:5091   */\n  dup8\n    /* \"#utility.yul\":5084:5103   */\n  add\n    /* \"#utility.yul\":5078:5104   */\n  mload\n    /* \"#utility.yul\":5069:5104   */\n  swap1\n  pop\n    /* \"#utility.yul\":5041:5118   */\ntag_201:\n    /* \"#utility.yul\":5144:5211   */\n  tag_202\n    /* \"#utility.yul\":5204:5210   */\n  dup6\n    /* \"#utility.yul\":5197:5202   */\n  dup3\n    /* \"#utility.yul\":5144:5211   */\n  tag_112\n  jump\t// in\ntag_202:\n    /* \"#utility.yul\":5138:5142   */\n  dup7\n    /* \"#utility.yul\":5131:5212   */\n  sstore\n    /* \"#utility.yul\":5000:5222   */\n  pop\n    /* \"#utility.yul\":4335:5222   */\n  jump(tag_199)\n    /* \"#utility.yul\":4365:4983   */\ntag_200:\n    /* \"#utility.yul\":4417:4421   */\n  0x1f\n    /* \"#utility.yul\":4413:4422   */\n  not\n    /* \"#utility.yul\":4405:4411   */\n  dup5\n    /* \"#utility.yul\":4401:4423   */\n  and\n    /* \"#utility.yul\":4451:4488   */\n  tag_203\n    /* \"#utility.yul\":4483:4487   */\n  dup7\n    /* \"#utility.yul\":4451:4488   */\n  tag_97\n  jump\t// in\ntag_203:\n    /* \"#utility.yul\":4510:4511   */\n  0x00\n    /* \"#utility.yul\":4524:4732   */\ntag_204:\n    /* \"#utility.yul\":4538:4545   */\n  dup3\n    /* \"#utility.yul\":4535:4536   */\n  dup2\n    /* \"#utility.yul\":4532:4546   */\n  lt\n    /* \"#utility.yul\":4524:4732   */\n  iszero\n  tag_206\n  jumpi\n    /* \"#utility.yul\":4617:4626   */\n  dup5\n    /* \"#utility.yul\":4612:4615   */\n  dup10\n    /* \"#utility.yul\":4608:4627   */\n  add\n    /* \"#utility.yul\":4602:4628   */\n  mload\n    /* \"#utility.yul\":4594:4600   */\n  dup3\n    /* \"#utility.yul\":4587:4629   */\n  sstore\n    /* \"#utility.yul\":4668:4669   */\n  0x01\n    /* \"#utility.yul\":4660:4666   */\n  dup3\n    /* \"#utility.yul\":4656:4670   */\n  add\n    /* \"#utility.yul\":4646:4670   */\n  swap2\n  pop\n    /* \"#utility.yul\":4715:4717   */\n  0x20\n    /* \"#utility.yul\":4704:4713   */\n  dup6\n    /* \"#utility.yul\":4700:4718   */\n  add\n    /* \"#utility.yul\":4687:4718   */\n  swap5\n  pop\n    /* \"#utility.yul\":4561:4565   */\n  0x20\n    /* \"#utility.yul\":4558:4559   */\n  dup2\n    /* \"#utility.yul\":4554:4566   */\n  add\n    /* \"#utility.yul\":4549:4566   */\n  swap1\n  pop\n    /* \"#utility.yul\":4524:4732   */\n  jump(tag_204)\ntag_206:\n    /* \"#utility.yul\":4760:4766   */\n  dup7\n    /* \"#utility.yul\":4751:4758   */\n  dup4\n    /* \"#utility.yul\":4748:4767   */\n  lt\n    /* \"#utility.yul\":4745:4924   */\n  iszero\n  tag_207\n  jumpi\n    /* \"#utility.yul\":4818:4827   */\n  dup5\n    /* \"#utility.yul\":4813:4816   */\n  dup10\n    /* \"#utility.yul\":4809:4828   */\n  add\n    /* \"#utility.yul\":4803:4829   */\n  mload\n    /* \"#utility.yul\":4861:4909   */\n  tag_208\n    /* \"#utility.yul\":4903:4907   */\n  0x1f\n    /* \"#utility.yul\":4895:4901   */\n  dup10\n    /* \"#utility.yul\":4891:4908   */\n  and\n    /* \"#utility.yul\":4880:4889   */\n  dup3\n    /* \"#utility.yul\":4861:4909   */\n  tag_111\n  jump\t// in\ntag_208:\n    /* \"#utility.yul\":4853:4859   */\n  dup4\n    /* \"#utility.yul\":4846:4910   */\n  sstore\n    /* \"#utility.yul\":4768:4924   */\n  pop\n    /* \"#utility.yul\":4745:4924   */\ntag_207:\n    /* \"#utility.yul\":4970:4971   */\n  0x01\n    /* \"#utility.yul\":4966:4967   */\n  0x02\n    /* \"#utility.yul\":4958:4964   */\n  dup9\n    /* \"#utility.yul\":4954:4968   */\n  mul\n    /* \"#utility.yul\":4950:4972   */\n  add\n    /* \"#utility.yul\":4944:4948   */\n  dup9\n    /* \"#utility.yul\":4937:4973   */\n  sstore\n    /* \"#utility.yul\":4372:4983   */\n  pop\n  pop\n  pop\n    /* \"#utility.yul\":4335:5222   */\ntag_199:\n  pop\n    /* \"#utility.yul\":3925:5228   */\n  pop\n  pop\n  pop\n    /* \"#utility.yul\":3833:5228   */\n  pop\n  pop\n  jump\t// out\n    /* \"#utility.yul\":5234:5309   */\ntag_113:\n    /* \"#utility.yul\":5267:5273   */\n  0x00\n    /* \"#utility.yul\":5300:5302   */\n  0x40\n    /* \"#utility.yul\":5294:5303   */\n  mload\n    /* \"#utility.yul\":5284:5303   */\n  swap1\n  pop\n    /* \"#utility.yul\":5234:5309   */\n  swap1\n  jump\t// out\n    /* \"#utility.yul\":5315:5432   */\ntag_114:\n    /* \"#utility.yul\":5424:5425   */\n  0x00\n    /* \"#utility.yul\":5421:5422   */\n  dup1\n    /* \"#utility.yul\":5414:5426   */\n  revert\n    /* \"#utility.yul\":5438:5555   */\ntag_115:\n    /* \"#utility.yul\":5547:5548   */\n  0x00\n    /* \"#utility.yul\":5544:5545   */\n  dup1\n    /* \"#utility.yul\":5537:5549   */\n  revert\n    /* \"#utility.yul\":5561:5687   */\ntag_116:\n    /* \"#utility.yul\":5598:5605   */\n  0x00\n    /* \"#utility.yul\":5638:5680   */\n  0xffffffffffffffffffffffffffffffffffffffff\n    /* \"#utility.yul\":5631:5636   */\n  dup3\n    /* \"#utility.yul\":5627:5681   */\n  and\n    /* \"#utility.yul\":5616:5681   */\n  swap1\n  pop\n    /* \"#utility.yul\":5561:5687   */\n  swap2\n  swap1\n  pop\n  jump\t// out\n    /* \"#utility.yul\":5693:5789   */\ntag_117:\n    /* \"#utility.yul\":5730:5737   */\n  0x00\n    /* \"#utility.yul\":5759:5783   */\n  tag_214\n    /* \"#utility.yul\":5777:5782   */\n  dup3\n    /* \"#utility.yul\":5759:5783   */\n  tag_116\n  jump\t// in\ntag_214:\n    /* \"#utility.yul\":5748:5783   */\n  swap1\n  pop\n    /* \"#utility.yul\":5693:5789   */\n  swap2\n  swap1\n  pop\n  jump\t// out\n    /* \"#utility.yul\":5795:5917   */\ntag_118:\n    /* \"#utility.yul\":5868:5892   */\n  tag_216\n    /* \"#utility.yul\":5886:5891   */\n  dup2\n    /* \"#utility.yul\":5868:5892   */\n  tag_117\n  jump\t// in\ntag_216:\n    /* \"#utility.yul\":5861:5866   */\n  dup2\n    /* \"#utility.yul\":5858:5893   */\n  eq\n    /* \"#utility.yul\":5848:5911   */\n  tag_217\n  jumpi\n    /* \"#utility.yul\":5907:5908   */\n  0x00\n    /* \"#utility.yul\":5904:5905   */\n  dup1\n    /* \"#utility.yul\":5897:5909   */\n  revert\n    /* \"#utility.yul\":5848:5911   */\ntag_217:\n    /* \"#utility.yul\":5795:5917   */\n  pop\n  jump\t// out\n    /* \"#utility.yul\":5923:6066   */\ntag_119:\n    /* \"#utility.yul\":5980:5985   */\n  0x00\n    /* \"#utility.yul\":6011:6017   */\n  dup2\n    /* \"#utility.yul\":6005:6018   */\n  mload\n    /* \"#utility.yul\":5996:6018   */\n  swap1\n  pop\n    /* \"#utility.yul\":6027:6060   */\n  tag_219\n    /* \"#utility.yul\":6054:6059   */\n  dup2\n    /* \"#utility.yul\":6027:6060   */\n  tag_118\n  jump\t// in\ntag_219:\n    /* \"#utility.yul\":5923:6066   */\n  swap3\n  swap2\n  pop\n  pop\n  jump\t// out\n    /* \"#utility.yul\":6072:6189   */\ntag_120:\n    /* \"#utility.yul\":6181:6182   */\n  0x00\n    /* \"#utility.yul\":6178:6179   */\n  dup1\n    /* \"#utility.yul\":6171:6183   */\n  revert\n    /* \"#utility.yul\":6195:6312   */\ntag_121:\n    /* \"#utility.yul\":6304:6305   */\n  0x00\n    /* \"#utility.yul\":6301:6302   */\n  dup1\n    /* \"#utility.yul\":6294:6306   */\n  revert\n    /* \"#utility.yul\":6318:6420   */\ntag_122:\n    /* \"#utility.yul\":6359:6365   */\n  0x00\n    /* \"#utility.yul\":6410:6412   */\n  0x1f\n    /* \"#utility.yul\":6406:6413   */\n  not\n    /* \"#utility.yul\":6401:6403   */\n  0x1f\n    /* \"#utility.yul\":6394:6399   */\n  dup4\n    /* \"#utility.yul\":6390:6404   */\n  add\n    /* \"#utility.yul\":6386:6414   */\n  and\n    /* \"#utility.yul\":6376:6414   */\n  swap1\n  pop\n    /* \"#utility.yul\":6318:6420   */\n  swap2\n  swap1\n  pop\n  jump\t// out\n    /* \"#utility.yul\":6426:6707   */\ntag_123:\n    /* \"#utility.yul\":6509:6536   */\n  tag_224\n    /* \"#utility.yul\":6531:6535   */\n  dup3\n    /* \"#utility.yul\":6509:6536   */\n  tag_122\n  jump\t// in\ntag_224:\n    /* \"#utility.yul\":6501:6507   */\n  dup2\n    /* \"#utility.yul\":6497:6537   */\n  add\n    /* \"#utility.yul\":6639:6645   */\n  dup2\n    /* \"#utility.yul\":6627:6637   */\n  dup2\n    /* \"#utility.yul\":6624:6646   */\n  lt\n    /* \"#utility.yul\":6603:6621   */\n  0xffffffffffffffff\n    /* \"#utility.yul\":6591:6601   */\n  dup3\n    /* \"#utility.yul\":6588:6622   */\n  gt\n    /* \"#utility.yul\":6585:6647   */\n  or\n    /* \"#utility.yul\":6582:6670   */\n  iszero\n  tag_225\n  jumpi\n    /* \"#utility.yul\":6650:6668   */\n  tag_226\n  tag_94\n  jump\t// in\ntag_226:\n    /* \"#utility.yul\":6582:6670   */\ntag_225:\n    /* \"#utility.yul\":6690:6700   */\n  dup1\n    /* \"#utility.yul\":6686:6688   */\n  0x40\n    /* \"#utility.yul\":6679:6701   */\n  mstore\n    /* \"#utility.yul\":6469:6707   */\n  pop\n    /* \"#utility.yul\":6426:6707   */\n  pop\n  pop\n  jump\t// out\n    /* \"#utility.yul\":6713:6842   */\ntag_124:\n    /* \"#utility.yul\":6747:6753   */\n  0x00\n    /* \"#utility.yul\":6774:6794   */\n  tag_228\n  tag_113\n  jump\t// in\ntag_228:\n    /* \"#utility.yul\":6764:6794   */\n  swap1\n  pop\n    /* \"#utility.yul\":6803:6836   */\n  tag_229\n    /* \"#utility.yul\":6831:6835   */\n  dup3\n    /* \"#utility.yul\":6823:6829   */\n  dup3\n    /* \"#utility.yul\":6803:6836   */\n  tag_123\n  jump\t// in\ntag_229:\n    /* \"#utility.yul\":6713:6842   */\n  swap2\n  swap1\n  pop\n  jump\t// out\n    /* \"#utility.yul\":6848:7156   */\ntag_125:\n    /* \"#utility.yul\":6910:6914   */\n  0x00\n    /* \"#utility.yul\":7000:7018   */\n  0xffffffffffffffff\n    /* \"#utility.yul\":6992:6998   */\n  dup3\n    /* \"#utility.yul\":6989:7019   */\n  gt\n    /* \"#utility.yul\":6986:7042   */\n  iszero\n  tag_231\n  jumpi\n    /* \"#utility.yul\":7022:7040   */\n  tag_232\n  tag_94\n  jump\t// in\ntag_232:\n    /* \"#utility.yul\":6986:7042   */\ntag_231:\n    /* \"#utility.yul\":7060:7089   */\n  tag_233\n    /* \"#utility.yul\":7082:7088   */\n  dup3\n    /* \"#utility.yul\":7060:7089   */\n  tag_122\n  jump\t// in\ntag_233:\n    /* \"#utility.yul\":7052:7089   */\n  swap1\n  pop\n    /* \"#utility.yul\":7144:7148   */\n  0x20\n    /* \"#utility.yul\":7138:7142   */\n  dup2\n    /* \"#utility.yul\":7134:7149   */\n  add\n    /* \"#utility.yul\":7126:7149   */\n  swap1\n  pop\n    /* \"#utility.yul\":6848:7156   */\n  swap2\n  swap1\n  pop\n  jump\t// out\n    /* \"#utility.yul\":7162:7408   */\ntag_126:\n    /* \"#utility.yul\":7243:7244   */\n  0x00\n    /* \"#utility.yul\":7253:7366   */\ntag_235:\n    /* \"#utility.yul\":7267:7273   */\n  dup4\n    /* \"#utility.yul\":7264:7265   */\n  dup2\n    /* \"#utility.yul\":7261:7274   */\n  lt\n    /* \"#utility.yul\":7253:7366   */\n  iszero\n  tag_237\n  jumpi\n    /* \"#utility.yul\":7352:7353   */\n  dup1\n    /* \"#utility.yul\":7347:7350   */\n  dup3\n    /* \"#utility.yul\":7343:7354   */\n  add\n    /* \"#utility.yul\":7337:7355   */\n  mload\n    /* \"#utility.yul\":7333:7334   */\n  dup2\n    /* \"#utility.yul\":7328:7331   */\n  dup5\n    /* \"#utility.yul\":7324:7335   */\n  add\n    /* \"#utility.yul\":7317:7356   */\n  mstore\n    /* \"#utility.yul\":7289:7291   */\n  0x20\n    /* \"#utility.yul\":7286:7287   */\n  dup2\n    /* \"#utility.yul\":7282:7292   */\n  add\n    /* \"#utility.yul\":7277:7292   */\n  swap1\n  pop\n    /* \"#utility.yul\":7253:7366   */\n  jump(tag_235)\ntag_237:\n    /* \"#utility.yul\":7400:7401   */\n  0x00\n    /* \"#utility.yul\":7391:7397   */\n  dup5\n    /* \"#utility.yul\":7386:7389   */\n  dup5\n    /* \"#utility.yul\":7382:7398   */\n  add\n    /* \"#utility.yul\":7375:7402   */\n  mstore\n    /* \"#utility.yul\":7224:7408   */\n  pop\n    /* \"#utility.yul\":7162:7408   */\n  pop\n  pop\n  pop\n  jump\t// out\n    /* \"#utility.yul\":7414:7848   */\ntag_127:\n    /* \"#utility.yul\":7503:7508   */\n  0x00\n    /* \"#utility.yul\":7528:7594   */\n  tag_239\n    /* \"#utility.yul\":7544:7593   */\n  tag_240\n    /* \"#utility.yul\":7586:7592   */\n  dup5\n    /* \"#utility.yul\":7544:7593   */\n  tag_125\n  jump\t// in\ntag_240:\n    /* \"#utility.yul\":7528:7594   */\n  tag_124\n  jump\t// in\ntag_239:\n    /* \"#utility.yul\":7519:7594   */\n  swap1\n  pop\n    /* \"#utility.yul\":7617:7623   */\n  dup3\n    /* \"#utility.yul\":7610:7615   */\n  dup2\n    /* \"#utility.yul\":7603:7624   */\n  mstore\n    /* \"#utility.yul\":7655:7659   */\n  0x20\n    /* \"#utility.yul\":7648:7653   */\n  dup2\n    /* \"#utility.yul\":7644:7660   */\n  add\n    /* \"#utility.yul\":7693:7696   */\n  dup5\n    /* \"#utility.yul\":7684:7690   */\n  dup5\n    /* \"#utility.yul\":7679:7682   */\n  dup5\n    /* \"#utility.yul\":7675:7691   */\n  add\n    /* \"#utility.yul\":7672:7697   */\n  gt\n    /* \"#utility.yul\":7669:7781   */\n  iszero\n  tag_241\n  jumpi\n    /* \"#utility.yul\":7700:7779   */\n  tag_242\n  tag_121\n  jump\t// in\ntag_242:\n    /* \"#utility.yul\":7669:7781   */\ntag_241:\n    /* \"#utility.yul\":7790:7842   */\n  tag_243\n    /* \"#utility.yul\":7835:7841   */\n  dup5\n    /* \"#utility.yul\":7830:7833   */\n  dup3\n    /* \"#utility.yul\":7825:7828   */\n  dup6\n    /* \"#utility.yul\":7790:7842   */\n  tag_126\n  jump\t// in\ntag_243:\n    /* \"#utility.yul\":7509:7848   */\n  pop\n    /* \"#utility.yul\":7414:7848   */\n  swap4\n  swap3\n  pop\n  pop\n  pop\n  jump\t// out\n    /* \"#utility.yul\":7868:8223   */\ntag_128:\n    /* \"#utility.yul\":7935:7940   */\n  0x00\n    /* \"#utility.yul\":7984:7987   */\n  dup3\n    /* \"#utility.yul\":7977:7981   */\n  0x1f\n    /* \"#utility.yul\":7969:7975   */\n  dup4\n    /* \"#utility.yul\":7965:7982   */\n  add\n    /* \"#utility.yul\":7961:7988   */\n  slt\n    /* \"#utility.yul\":7951:8073   */\n  tag_245\n  jumpi\n    /* \"#utility.yul\":7992:8071   */\n  tag_246\n  tag_120\n  jump\t// in\ntag_246:\n    /* \"#utility.yul\":7951:8073   */\ntag_245:\n    /* \"#utility.yul\":8102:8108   */\n  dup2\n    /* \"#utility.yul\":8096:8109   */\n  mload\n    /* \"#utility.yul\":8127:8217   */\n  tag_247\n    /* \"#utility.yul\":8213:8216   */\n  dup5\n    /* \"#utility.yul\":8205:8211   */\n  dup3\n    /* \"#utility.yul\":8198:8202   */\n  0x20\n    /* \"#utility.yul\":8190:8196   */\n  dup7\n    /* \"#utility.yul\":8186:8203   */\n  add\n    /* \"#utility.yul\":8127:8217   */\n  tag_127\n  jump\t// in\ntag_247:\n    /* \"#utility.yul\":8118:8217   */\n  swap2\n  pop\n    /* \"#utility.yul\":7941:8223   */\n  pop\n    /* \"#utility.yul\":7868:8223   */\n  swap3\n  swap2\n  pop\n  pop\n  jump\t// out\n    /* \"#utility.yul\":8229:8351   */\ntag_129:\n    /* \"#utility.yul\":8302:8326   */\n  tag_249\n    /* \"#utility.yul\":8320:8325   */\n  dup2\n    /* \"#utility.yul\":8302:8326   */\n  tag_101\n  jump\t// in\ntag_249:\n    /* \"#utility.yul\":8295:8300   */\n  dup2\n    /* \"#utility.yul\":8292:8327   */\n  eq\n    /* \"#utility.yul\":8282:8345   */\n  tag_250\n  jumpi\n    /* \"#utility.yul\":8341:8342   */\n  0x00\n    /* \"#utility.yul\":8338:8339   */\n  dup1\n    /* \"#utility.yul\":8331:8343   */\n  revert\n    /* \"#utility.yul\":8282:8345   */\ntag_250:\n    /* \"#utility.yul\":8229:8351   */\n  pop\n  jump\t// out\n    /* \"#utility.yul\":8357:8500   */\ntag_130:\n    /* \"#utility.yul\":8414:8419   */\n  0x00\n    /* \"#utility.yul\":8445:8451   */\n  dup2\n    /* \"#utility.yul\":8439:8452   */\n  mload\n    /* \"#utility.yul\":8430:8452   */\n  swap1\n  pop\n    /* \"#utility.yul\":8461:8494   */\n  tag_252\n    /* \"#utility.yul\":8488:8493   */\n  dup2\n    /* \"#utility.yul\":8461:8494   */\n  tag_129\n  jump\t// in\ntag_252:\n    /* \"#utility.yul\":8357:8500   */\n  swap3\n  swap2\n  pop\n  pop\n  jump\t// out\n    /* \"#utility.yul\":8506:10630   */\ntag_5:\n    /* \"#utility.yul\":8678:8684   */\n  0x00\n    /* \"#utility.yul\":8686:8692   */\n  dup1\n    /* \"#utility.yul\":8694:8700   */\n  0x00\n    /* \"#utility.yul\":8702:8708   */\n  dup1\n    /* \"#utility.yul\":8710:8716   */\n  0x00\n    /* \"#utility.yul\":8718:8724   */\n  dup1\n    /* \"#utility.yul\":8726:8732   */\n  0x00\n    /* \"#utility.yul\":8734:8740   */\n  dup1\n    /* \"#utility.yul\":8742:8748   */\n  0x00\n    /* \"#utility.yul\":8791:8794   */\n  0x0120\n    /* \"#utility.yul\":8779:8788   */\n  dup11\n    /* \"#utility.yul\":8770:8777   */\n  dup13\n    /* \"#utility.yul\":8766:8789   */\n  sub\n    /* \"#utility.yul\":8762:8795   */\n  slt\n    /* \"#utility.yul\":8759:8879   */\n  iszero\n  tag_254\n  jumpi\n    /* \"#utility.yul\":8798:8877   */\n  tag_255\n  tag_114\n  jump\t// in\ntag_255:\n    /* \"#utility.yul\":8759:8879   */\ntag_254:\n    /* \"#utility.yul\":8918:8919   */\n  0x00\n    /* \"#utility.yul\":8943:9007   */\n  tag_256\n    /* \"#utility.yul\":8999:9006   */\n  dup13\n    /* \"#utility.yul\":8990:8996   */\n  dup3\n    /* \"#utility.yul\":8979:8988   */\n  dup14\n    /* \"#utility.yul\":8975:8997   */\n  add\n    /* \"#utility.yul\":8943:9007   */\n  tag_119\n  jump\t// in\ntag_256:\n    /* \"#utility.yul\":8933:9007   */\n  swap10\n  pop\n    /* \"#utility.yul\":8889:9017   */\n  pop\n    /* \"#utility.yul\":9077:9079   */\n  0x20\n    /* \"#utility.yul\":9066:9075   */\n  dup11\n    /* \"#utility.yul\":9062:9080   */\n  add\n    /* \"#utility.yul\":9056:9081   */\n  mload\n    /* \"#utility.yul\":9108:9126   */\n  0xffffffffffffffff\n    /* \"#utility.yul\":9100:9106   */\n  dup2\n    /* \"#utility.yul\":9097:9127   */\n  gt\n    /* \"#utility.yul\":9094:9211   */\n  iszero\n  tag_257\n  jumpi\n    /* \"#utility.yul\":9130:9209   */\n  tag_258\n  tag_115\n  jump\t// in\ntag_258:\n    /* \"#utility.yul\":9094:9211   */\ntag_257:\n    /* \"#utility.yul\":9235:9309   */\n  tag_259\n    /* \"#utility.yul\":9301:9308   */\n  dup13\n    /* \"#utility.yul\":9292:9298   */\n  dup3\n    /* \"#utility.yul\":9281:9290   */\n  dup14\n    /* \"#utility.yul\":9277:9299   */\n  add\n    /* \"#utility.yul\":9235:9309   */\n  tag_128\n  jump\t// in\ntag_259:\n    /* \"#utility.yul\":9225:9309   */\n  swap9\n  pop\n    /* \"#utility.yul\":9027:9319   */\n  pop\n    /* \"#utility.yul\":9379:9381   */\n  0x40\n    /* \"#utility.yul\":9368:9377   */\n  dup11\n    /* \"#utility.yul\":9364:9382   */\n  add\n    /* \"#utility.yul\":9358:9383   */\n  mload\n    /* \"#utility.yul\":9410:9428   */\n  0xffffffffffffffff\n    /* \"#utility.yul\":9402:9408   */\n  dup2\n    /* \"#utility.yul\":9399:9429   */\n  gt\n    /* \"#utility.yul\":9396:9513   */\n  iszero\n  tag_260\n  jumpi\n    /* \"#utility.yul\":9432:9511   */\n  tag_261\n  tag_115\n  jump\t// in\ntag_261:\n    /* \"#utility.yul\":9396:9513   */\ntag_260:\n    /* \"#utility.yul\":9537:9611   */\n  tag_262\n    /* \"#utility.yul\":9603:9610   */\n  dup13\n    /* \"#utility.yul\":9594:9600   */\n  dup3\n    /* \"#utility.yul\":9583:9592   */\n  dup14\n    /* \"#utility.yul\":9579:9601   */\n  add\n    /* \"#utility.yul\":9537:9611   */\n  tag_128\n  jump\t// in\ntag_262:\n    /* \"#utility.yul\":9527:9611   */\n  swap8\n  pop\n    /* \"#utility.yul\":9329:9621   */\n  pop\n    /* \"#utility.yul\":9660:9662   */\n  0x60\n    /* \"#utility.yul\":9686:9750   */\n  tag_263\n    /* \"#utility.yul\":9742:9749   */\n  dup13\n    /* \"#utility.yul\":9733:9739   */\n  dup3\n    /* \"#utility.yul\":9722:9731   */\n  dup14\n    /* \"#utility.yul\":9718:9740   */\n  add\n    /* \"#utility.yul\":9686:9750   */\n  tag_130\n  jump\t// in\ntag_263:\n    /* \"#utility.yul\":9676:9750   */\n  swap7\n  pop\n    /* \"#utility.yul\":9631:9760   */\n  pop\n    /* \"#utility.yul\":9799:9802   */\n  0x80\n    /* \"#utility.yul\":9826:9890   */\n  tag_264\n    /* \"#utility.yul\":9882:9889   */\n  dup13\n    /* \"#utility.yul\":9873:9879   */\n  dup3\n    /* \"#utility.yul\":9862:9871   */\n  dup14\n    /* \"#utility.yul\":9858:9880   */\n  add\n    /* \"#utility.yul\":9826:9890   */\n  tag_130\n  jump\t// in\ntag_264:\n    /* \"#utility.yul\":9816:9890   */\n  swap6\n  pop\n    /* \"#utility.yul\":9770:9900   */\n  pop\n    /* \"#utility.yul\":9939:9942   */\n  0xa0\n    /* \"#utility.yul\":9966:10030   */\n  tag_265\n    /* \"#utility.yul\":10022:10029   */\n  dup13\n    /* \"#utility.yul\":10013:10019   */\n  dup3\n    /* \"#utility.yul\":10002:10011   */\n  dup14\n    /* \"#utility.yul\":9998:10020   */\n  add\n    /* \"#utility.yul\":9966:10030   */\n  tag_130\n  jump\t// in\ntag_265:\n    /* \"#utility.yul\":9956:10030   */\n  swap5\n  pop\n    /* \"#utility.yul\":9910:10040   */\n  pop\n    /* \"#utility.yul\":10100:10103   */\n  0xc0\n    /* \"#utility.yul\":10089:10098   */\n  dup11\n    /* \"#utility.yul\":10085:10104   */\n  add\n    /* \"#utility.yul\":10079:10105   */\n  mload\n    /* \"#utility.yul\":10132:10150   */\n  0xffffffffffffffff\n    /* \"#utility.yul\":10124:10130   */\n  dup2\n    /* \"#utility.yul\":10121:10151   */\n  gt\n    /* \"#utility.yul\":10118:10235   */\n  iszero\n  tag_266\n  jumpi\n    /* \"#utility.yul\":10154:10233   */\n  tag_267\n  tag_115\n  jump\t// in\ntag_267:\n    /* \"#utility.yul\":10118:10235   */\ntag_266:\n    /* \"#utility.yul\":10259:10333   */\n  tag_268\n    /* \"#utility.yul\":10325:10332   */\n  dup13\n    /* \"#utility.yul\":10316:10322   */\n  dup3\n    /* \"#utility.yul\":10305:10314   */\n  dup14\n    /* \"#utility.yul\":10301:10323   */\n  add\n    /* \"#utility.yul\":10259:10333   */\n  tag_128\n  jump\t// in\ntag_268:\n    /* \"#utility.yul\":10249:10333   */\n  swap4\n  pop\n    /* \"#utility.yul\":10050:10343   */\n  pop\n    /* \"#utility.yul\":10382:10385   */\n  0xe0\n    /* \"#utility.yul\":10409:10473   */\n  tag_269\n    /* \"#utility.yul\":10465:10472   */\n  dup13\n    /* \"#utility.yul\":10456:10462   */\n  dup3\n    /* \"#utility.yul\":10445:10454   */\n  dup14\n    /* \"#utility.yul\":10441:10463   */\n  add\n    /* \"#utility.yul\":10409:10473   */\n  tag_130\n  jump\t// in\ntag_269:\n    /* \"#utility.yul\":10399:10473   */\n  swap3\n  pop\n    /* \"#utility.yul\":10353:10483   */\n  pop\n    /* \"#utility.yul\":10522:10525   */\n  0x0100\n    /* \"#utility.yul\":10549:10613   */\n  tag_270\n    /* \"#utility.yul\":10605:10612   */\n  dup13\n    /* \"#utility.yul\":10596:10602   */\n  dup3\n    /* \"#utility.yul\":10585:10594   */\n  dup14\n    /* \"#utility.yul\":10581:10603   */\n  add\n    /* \"#utility.yul\":10549:10613   */\n  tag_130\n  jump\t// in\ntag_270:\n    /* \"#utility.yul\":10539:10613   */\n  swap2\n  pop\n    /* \"#utility.yul\":10493:10623   */\n  pop\n    /* \"#utility.yul\":8506:10630   */\n  swap3\n  swap6\n  swap9\n  pop\n  swap3\n  swap6\n  swap9\n  pop\n  swap3\n  swap6\n  swap9\n  jump\t// out\n    /* \"#utility.yul\":10636:10816   */\ntag_131:\n    /* \"#utility.yul\":10684:10761   */\n  0x4e487b7100000000000000000000000000000000000000000000000000000000\n    /* \"#utility.yul\":10681:10682   */\n  0x00\n    /* \"#utility.yul\":10674:10762   */\n  mstore\n    /* \"#utility.yul\":10781:10785   */\n  0x11\n    /* \"#utility.yul\":10778:10779   */\n  0x04\n    /* \"#utility.yul\":10771:10786   */\n  mstore\n    /* \"#utility.yul\":10805:10809   */\n  0x24\n    /* \"#utility.yul\":10802:10803   */\n  0x00\n    /* \"#utility.yul\":10795:10810   */\n  revert\n    /* \"#utility.yul\":10822:11055   */\ntag_27:\n    /* \"#utility.yul\":10861:10864   */\n  0x00\n    /* \"#utility.yul\":10884:10908   */\n  tag_273\n    /* \"#utility.yul\":10902:10907   */\n  dup3\n    /* \"#utility.yul\":10884:10908   */\n  tag_101\n  jump\t// in\ntag_273:\n    /* \"#utility.yul\":10875:10908   */\n  swap2\n  pop\n    /* \"#utility.yul\":10930:10996   */\n  0xffffffffffffffffffffffffffffffffffffffffffffffffffffffffffffffff\n    /* \"#utility.yul\":10923:10928   */\n  dup3\n    /* \"#utility.yul\":10920:10997   */\n  sub\n    /* \"#utility.yul\":10917:11020   */\n  tag_274\n  jumpi\n    /* \"#utility.yul\":11000:11018   */\n  tag_275\n  tag_131\n  jump\t// in\ntag_275:\n    /* \"#utility.yul\":10917:11020   */\ntag_274:\n    /* \"#utility.yul\":11047:11048   */\n  0x01\n    /* \"#utility.yul\":11040:11045   */\n  dup3\n    /* \"#utility.yul\":11036:11049   */\n  add\n    /* \"#utility.yul\":11029:11049   */\n  swap1\n  pop\n    /* \"#utility.yul\":10822:11055   */\n  swap2\n  swap1\n  pop\n  jump\t// out\n    /* \"#utility.yul\":11061:11230   */\ntag_132:\n    /* \"#utility.yul\":11145:11156   */\n  0x00\n    /* \"#utility.yul\":11179:11185   */\n  dup3\n    /* \"#utility.yul\":11174:11177   */\n  dup3\n    /* \"#utility.yul\":11167:11186   */\n  mstore\n    /* \"#utility.yul\":11219:11223   */\n  0x20\n    /* \"#utility.yul\":11214:11217   */\n  dup3\n    /* \"#utility.yul\":11210:11224   */\n  add\n    /* \"#utility.yul\":11195:11224   */\n  swap1\n  pop\n    /* \"#utility.yul\":11061:11230   */\n  swap3\n  swap2\n  pop\n  pop\n  jump\t// out\n    /* \"#utility.yul\":11236:11473   */\ntag_133:\n    /* \"#utility.yul\":11376:11410   */\n  0x4552433732313a207472616e7366657220746f206e6f6e204552433732315265\n    /* \"#utility.yul\":11372:11373   */\n  0x00\n    /* \"#utility.yul\":11364:11370   */\n  dup3\n    /* \"#utility.yul\":11360:11374   */\n  add\n    /* \"#utility.yul\":11353:11411   */\n  mstore\n    /* \"#utility.yul\":11445:11465   */\n  0x63656976657220696d706c656d656e7465720000000000000000000000000000\n    /* \"#utility.yul\":11440:11442   */\n  0x20\n    /* \"#utility.yul\":11432:11438   */\n  dup3\n    /* \"#utility.yul\":11428:11443   */\n  add\n    /* \"#utility.yul\":11421:11466   */\n  mstore\n    /* \"#utility.yul\":11236:11473   */\n  pop\n  jump\t// out\n    /* \"#utility.yul\":11479:11845   */\ntag_134:\n    /* \"#utility.yul\":11621:11624   */\n  0x00\n    /* \"#utility.yul\":11642:11709   */\n  tag_279\n    /* \"#utility.yul\":11706:11708   */\n  0x32\n    /* \"#utility.yul\":11701:11704   */\n  dup4\n    /* \"#utility.yul\":11642:11709   */\n  tag_132\n  jump\t// in\ntag_279:\n    /* \"#utility.yul\":11635:11709   */\n  swap2\n  pop\n    /* \"#utility.yul\":11718:11811   */\n  tag_280\n    /* \"#utility.yul\":11807:11810   */\n  dup3\n    /* \"#utility.yul\":11718:11811   */\n  tag_133\n  jump\t// in\ntag_280:\n    /* \"#utility.yul\":11836:11838   */\n  0x40\n    /* \"#utility.yul\":11831:11834   */\n  dup3\n    /* \"#utility.yul\":11827:11839   */\n  add\n    /* \"#utility.yul\":11820:11839   */\n  swap1\n  pop\n    /* \"#utility.yul\":11479:11845   */\n  swap2\n  swap1\n  pop\n  jump\t// out\n    /* \"#utility.yul\":11851:12270   */\ntag_41:\n    /* \"#utility.yul\":12017:12021   */\n  0x00\n    /* \"#utility.yul\":12055:12057   */\n  0x20\n    /* \"#utility.yul\":12044:12053   */\n  dup3\n    /* \"#utility.yul\":12040:12058   */\n  add\n    /* \"#utility.yul\":12032:12058   */\n  swap1\n  pop\n    /* \"#utility.yul\":12104:12113   */\n  dup2\n    /* \"#utility.yul\":12098:12102   */\n  dup2\n    /* \"#utility.yul\":12094:12114   */\n  sub\n    /* \"#utility.yul\":12090:12091   */\n  0x00\n    /* \"#utility.yul\":12079:12088   */\n  dup4\n    /* \"#utility.yul\":12075:12092   */\n  add\n    /* \"#utility.yul\":12068:12115   */\n  mstore\n    /* \"#utility.yul\":12132:12263   */\n  tag_282\n    /* \"#utility.yul\":12258:12262   */\n  dup2\n    /* \"#utility.yul\":12132:12263   */\n  tag_134\n  jump\t// in\ntag_282:\n    /* \"#utility.yul\":12124:12263   */\n  swap1\n  pop\n    /* \"#utility.yul\":11851:12270   */\n  swap2\n  swap1\n  pop\n  jump\t// out\n    /* \"#utility.yul\":12276:12458   */\ntag_135:\n    /* \"#utility.yul\":12416:12450   */\n  0x4552433732313a206d696e7420746f20746865207a65726f2061646472657373\n    /* \"#utility.yul\":12412:12413   */\n  0x00\n    /* \"#utility.yul\":12404:12410   */\n  dup3\n    /* \"#utility.yul\":12400:12414   */\n  add\n    /* \"#utility.yul\":12393:12451   */\n  mstore\n    /* \"#utility.yul\":12276:12458   */\n  pop\n  jump\t// out\n    /* \"#utility.yul\":12464:12830   */\ntag_136:\n    /* \"#utility.yul\":12606:12609   */\n  0x00\n    /* \"#utility.yul\":12627:12694   */\n  tag_285\n    /* \"#utility.yul\":12691:12693   */\n  0x20\n    /* \"#utility.yul\":12686:12689   */\n  dup4\n    /* \"#utility.yul\":12627:12694   */\n  tag_132\n  jump\t// in\ntag_285:\n    /* \"#utility.yul\":12620:12694   */\n  swap2\n  pop\n    /* \"#utility.yul\":12703:12796   */\n  tag_286\n    /* \"#utility.yul\":12792:12795   */\n  dup3\n    /* \"#utility.yul\":12703:12796   */\n  tag_135\n  jump\t// in\ntag_286:\n    /* \"#utility.yul\":12821:12823   */\n  0x20\n    /* \"#utility.yul\":12816:12819   */\n  dup3\n    /* \"#utility.yul\":12812:12824   */\n  add\n    /* \"#utility.yul\":12805:12824   */\n  swap1\n  pop\n    /* \"#utility.yul\":12464:12830   */\n  swap2\n  swap1\n  pop\n  jump\t// out\n    /* \"#utility.yul\":12836:13255   */\ntag_45:\n    /* \"#utility.yul\":13002:13006   */\n  0x00\n    /* \"#utility.yul\":13040:13042   */\n  0x20\n    /* \"#utility.yul\":13029:13038   */\n  dup3\n    /* \"#utility.yul\":13025:13043   */\n  add\n    /* \"#utility.yul\":13017:13043   */\n  swap1\n  pop\n    /* \"#utility.yul\":13089:13098   */\n  dup2\n    /* \"#utility.yul\":13083:13087   */\n  dup2\n    /* \"#utility.yul\":13079:13099   */\n  sub\n    /* \"#utility.yul\":13075:13076   */\n  0x00\n    /* \"#utility.yul\":13064:13073   */\n  dup4\n    /* \"#utility.yul\":13060:13077   */\n  add\n    /* \"#utility.yul\":13053:13100   */\n  mstore\n    /* \"#utility.yul\":13117:13248   */\n  tag_288\n    /* \"#utility.yul\":13243:13247   */\n  dup2\n    /* \"#utility.yul\":13117:13248   */\n  tag_136\n  jump\t// in\ntag_288:\n    /* \"#utility.yul\":13109:13248   */\n  swap1\n  pop\n    /* \"#utility.yul\":12836:13255   */\n  swap2\n  swap1\n  pop\n  jump\t// out\n    /* \"#utility.yul\":13261:13439   */\ntag_137:\n    /* \"#utility.yul\":13401:13431   */\n  0x4552433732313a20746f6b656e20616c7265616479206d696e74656400000000\n    /* \"#utility.yul\":13397:13398   */\n  0x00\n    /* \"#utility.yul\":13389:13395   */\n  dup3\n    /* \"#utility.yul\":13385:13399   */\n  add\n    /* \"#utility.yul\":13378:13432   */\n  mstore\n    /* \"#utility.yul\":13261:13439   */\n  pop\n  jump\t// out\n    /* \"#utility.yul\":13445:13811   */\ntag_138:\n    /* \"#utility.yul\":13587:13590   */\n  0x00\n    /* \"#utility.yul\":13608:13675   */\n  tag_291\n    /* \"#utility.yul\":13672:13674   */\n  0x1c\n    /* \"#utility.yul\":13667:13670   */\n  dup4\n    /* \"#utility.yul\":13608:13675   */\n  tag_132\n  jump\t// in\ntag_291:\n    /* \"#utility.yul\":13601:13675   */\n  swap2\n  pop\n    /* \"#utility.yul\":13684:13777   */\n  tag_292\n    /* \"#utility.yul\":13773:13776   */\n  dup3\n    /* \"#utility.yul\":13684:13777   */\n  tag_137\n  jump\t// in\ntag_292:\n    /* \"#utility.yul\":13802:13804   */\n  0x20\n    /* \"#utility.yul\":13797:13800   */\n  dup3\n    /* \"#utility.yul\":13793:13805   */\n  add\n    /* \"#utility.yul\":13786:13805   */\n  swap1\n  pop\n    /* \"#utility.yul\":13445:13811   */\n  swap2\n  swap1\n  pop\n  jump\t// out\n    /* \"#utility.yul\":13817:14236   */\ntag_50:\n    /* \"#utility.yul\":13983:13987   */\n  0x00\n    /* \"#utility.yul\":14021:14023   */\n  0x20\n    /* \"#utility.yul\":14010:14019   */\n  dup3\n    /* \"#utility.yul\":14006:14024   */\n  add\n    /* \"#utility.yul\":13998:14024   */\n  swap1\n  pop\n    /* \"#utility.yul\":14070:14079   */\n  dup2\n    /* \"#utility.yul\":14064:14068   */\n  dup2\n    /* \"#utility.yul\":14060:14080   */\n  sub\n    /* \"#utility.yul\":14056:14057   */\n  0x00\n    /* \"#utility.yul\":14045:14054   */\n  dup4\n    /* \"#utility.yul\":14041:14058   */\n  add\n    /* \"#utility.yul\":14034:14081   */\n  mstore\n    /* \"#utility.yul\":14098:14229   */\n  tag_294\n    /* \"#utility.yul\":14224:14228   */\n  dup2\n    /* \"#utility.yul\":14098:14229   */\n  tag_138\n  jump\t// in\ntag_294:\n    /* \"#utility.yul\":14090:14229   */\n  swap1\n  pop\n    /* \"#utility.yul\":13817:14236   */\n  swap2\n  swap1\n  pop\n  jump\t// out\n    /* \"#utility.yul\":14242:14360   */\ntag_139:\n    /* \"#utility.yul\":14329:14353   */\n  tag_296\n    /* \"#utility.yul\":14347:14352   */\n  dup2\n    /* \"#utility.yul\":14329:14353   */\n  tag_117\n  jump\t// in\ntag_296:\n    /* \"#utility.yul\":14324:14327   */\n  dup3\n    /* \"#utility.yul\":14317:14354   */\n  mstore\n    /* \"#utility.yul\":14242:14360   */\n  pop\n  pop\n  jump\t// out\n    /* \"#utility.yul\":14366:14484   */\ntag_140:\n    /* \"#utility.yul\":14453:14477   */\n  tag_298\n    /* \"#utility.yul\":14471:14476   */\n  dup2\n    /* \"#utility.yul\":14453:14477   */\n  tag_101\n  jump\t// in\ntag_298:\n    /* \"#utility.yul\":14448:14451   */\n  dup3\n    /* \"#utility.yul\":14441:14478   */\n  mstore\n    /* \"#utility.yul\":14366:14484   */\n  pop\n  pop\n  jump\t// out\n    /* \"#utility.yul\":14490:14588   */\ntag_141:\n    /* \"#utility.yul\":14541:14547   */\n  0x00\n    /* \"#utility.yul\":14575:14580   */\n  dup2\n    /* \"#utility.yul\":14569:14581   */\n  mload\n    /* \"#utility.yul\":14559:14581   */\n  swap1\n  pop\n    /* \"#utility.yul\":14490:14588   */\n  swap2\n  swap1\n  pop\n  jump\t// out\n    /* \"#utility.yul\":14594:14762   */\ntag_142:\n    /* \"#utility.yul\":14677:14688   */\n  0x00\n    /* \"#utility.yul\":14711:14717   */\n  dup3\n    /* \"#utility.yul\":14706:14709   */\n  dup3\n    /* \"#utility.yul\":14699:14718   */\n  mstore\n    /* \"#utility.yul\":14751:14755   */\n  0x20\n    /* \"#utility.yul\":14746:14749   */\n  dup3\n    /* \"#utility.yul\":14742:14756   */\n  add\n    /* \"#utility.yul\":14727:14756   */\n  swap1\n  pop\n    /* \"#utility.yul\":14594:14762   */\n  swap3\n  swap2\n  pop\n  pop\n  jump\t// out\n    /* \"#utility.yul\":14768:15141   */\ntag_143:\n    /* \"#utility.yul\":14854:14857   */\n  0x00\n    /* \"#utility.yul\":14882:14920   */\n  tag_302\n    /* \"#utility.yul\":14914:14919   */\n  dup3\n    /* \"#utility.yul\":14882:14920   */\n  tag_141\n  jump\t// in\ntag_302:\n    /* \"#utility.yul\":14936:15006   */\n  tag_303\n    /* \"#utility.yul\":14999:15005   */\n  dup2\n    /* \"#utility.yul\":14994:14997   */\n  dup6\n    /* \"#utility.yul\":14936:15006   */\n  tag_142\n  jump\t// in\ntag_303:\n    /* \"#utility.yul\":14929:15006   */\n  swap4\n  pop\n    /* \"#utility.yul\":15015:15080   */\n  tag_304\n    /* \"#utility.yul\":15073:15079   */\n  dup2\n    /* \"#utility.yul\":15068:15071   */\n  dup6\n    /* \"#utility.yul\":15061:15065   */\n  0x20\n    /* \"#utility.yul\":15054:15059   */\n  dup7\n    /* \"#utility.yul\":15050:15066   */\n  add\n    /* \"#utility.yul\":15015:15080   */\n  tag_126\n  jump\t// in\ntag_304:\n    /* \"#utility.yul\":15105:15134   */\n  tag_305\n    /* \"#utility.yul\":15127:15133   */\n  dup2\n    /* \"#utility.yul\":15105:15134   */\n  tag_122\n  jump\t// in\ntag_305:\n    /* \"#utility.yul\":15100:15103   */\n  dup5\n    /* \"#utility.yul\":15096:15135   */\n  add\n    /* \"#utility.yul\":15089:15135   */\n  swap2\n  pop\n    /* \"#utility.yul\":14858:15141   */\n  pop\n    /* \"#utility.yul\":14768:15141   */\n  swap3\n  swap2\n  pop\n  pop\n  jump\t// out\n    /* \"#utility.yul\":15147:15787   */\ntag_64:\n    /* \"#utility.yul\":15342:15346   */\n  0x00\n    /* \"#utility.yul\":15380:15383   */\n  0x80\n    /* \"#utility.yul\":15369:15378   */\n  dup3\n    /* \"#utility.yul\":15365:15384   */\n  add\n    /* \"#utility.yul\":15357:15384   */\n  swap1\n  pop\n    /* \"#utility.yul\":15394:15465   */\n  tag_307\n    /* \"#utility.yul\":15462:15463   */\n  0x00\n    /* \"#utility.yul\":15451:15460   */\n  dup4\n    /* \"#utility.yul\":15447:15464   */\n  add\n    /* \"#utility.yul\":15438:15444   */\n  dup8\n    /* \"#utility.yul\":15394:15465   */\n  tag_139\n  jump\t// in\ntag_307:\n    /* \"#utility.yul\":15475:15547   */\n  tag_308\n    /* \"#utility.yul\":15543:15545   */\n  0x20\n    /* \"#utility.yul\":15532:15541   */\n  dup4\n    /* \"#utility.yul\":15528:15546   */\n  add\n    /* \"#utility.yul\":15519:15525   */\n  dup7\n    /* \"#utility.yul\":15475:15547   */\n  tag_139\n  jump\t// in\ntag_308:\n    /* \"#utility.yul\":15557:15629   */\n  tag_309\n    /* \"#utility.yul\":15625:15627   */\n  0x40\n    /* \"#utility.yul\":15614:15623   */\n  dup4\n    /* \"#utility.yul\":15610:15628   */\n  add\n    /* \"#utility.yul\":15601:15607   */\n  dup6\n    /* \"#utility.yul\":15557:15629   */\n  tag_140\n  jump\t// in\ntag_309:\n    /* \"#utility.yul\":15676:15685   */\n  dup2\n    /* \"#utility.yul\":15670:15674   */\n  dup2\n    /* \"#utility.yul\":15666:15686   */\n  sub\n    /* \"#utility.yul\":15661:15663   */\n  0x60\n    /* \"#utility.yul\":15650:15659   */\n  dup4\n    /* \"#utility.yul\":15646:15664   */\n  add\n    /* \"#utility.yul\":15639:15687   */\n  mstore\n    /* \"#utility.yul\":15704:15780   */\n  tag_310\n    /* \"#utility.yul\":15775:15779   */\n  dup2\n    /* \"#utility.yul\":15766:15772   */\n  dup5\n    /* \"#utility.yul\":15704:15780   */\n  tag_143\n  jump\t// in\ntag_310:\n    /* \"#utility.yul\":15696:15780   */\n  swap1\n  pop\n    /* \"#utility.yul\":15147:15787   */\n  swap6\n  swap5\n  pop\n  pop\n  pop\n  pop\n  pop\n  jump\t// out\n    /* \"#utility.yul\":15793:15942   */\ntag_144:\n    /* \"#utility.yul\":15829:15836   */\n  0x00\n    /* \"#utility.yul\":15869:15935   */\n  0xffffffff00000000000000000000000000000000000000000000000000000000\n    /* \"#utility.yul\":15862:15867   */\n  dup3\n    /* \"#utility.yul\":15858:15936   */\n  and\n    /* \"#utility.yul\":15847:15936   */\n  swap1\n  pop\n    /* \"#utility.yul\":15793:15942   */\n  swap2\n  swap1\n  pop\n  jump\t// out\n    /* \"#utility.yul\":15948:16068   */\ntag_145:\n    /* \"#utility.yul\":16020:16043   */\n  tag_313\n    /* \"#utility.yul\":16037:16042   */\n  dup2\n    /* \"#utility.yul\":16020:16043   */\n  tag_144\n  jump\t// in\ntag_313:\n    /* \"#utility.yul\":16013:16018   */\n  dup2\n    /* \"#utility.yul\":16010:16044   */\n  eq\n    /* \"#utility.yul\":16000:16062   */\n  tag_314\n  jumpi\n    /* \"#utility.yul\":16058:16059   */\n  0x00\n    /* \"#utility.yul\":16055:16056   */\n  dup1\n    /* \"#utility.yul\":16048:16060   */\n  revert\n    /* \"#utility.yul\":16000:16062   */\ntag_314:\n    /* \"#utility.yul\":15948:16068   */\n  pop\n  jump\t// out\n    /* \"#utility.yul\":16074:16215   */\ntag_146:\n    /* \"#utility.yul\":16130:16135   */\n  0x00\n    /* \"#utility.yul\":16161:16167   */\n  dup2\n    /* \"#utility.yul\":16155:16168   */\n  mload\n    /* \"#utility.yul\":16146:16168   */\n  swap1\n  pop\n    /* \"#utility.yul\":16177:16209   */\n  tag_316\n    /* \"#utility.yul\":16203:16208   */\n  dup2\n    /* \"#utility.yul\":16177:16209   */\n  tag_145\n  jump\t// in\ntag_316:\n    /* \"#utility.yul\":16074:16215   */\n  swap3\n  swap2\n  pop\n  pop\n  jump\t// out\n    /* \"#utility.yul\":16221:16570   */\ntag_67:\n    /* \"#utility.yul\":16290:16296   */\n  0x00\n    /* \"#utility.yul\":16339:16341   */\n  0x20\n    /* \"#utility.yul\":16327:16336   */\n  dup3\n    /* \"#utility.yul\":16318:16325   */\n  dup5\n    /* \"#utility.yul\":16314:16337   */\n  sub\n    /* \"#utility.yul\":16310:16342   */\n  slt\n    /* \"#utility.yul\":16307:16426   */\n  iszero\n  tag_318\n  jumpi\n    /* \"#utility.yul\":16345:16424   */\n  tag_319\n  tag_114\n  jump\t// in\ntag_319:\n    /* \"#utility.yul\":16307:16426   */\ntag_318:\n    /* \"#utility.yul\":16465:16466   */\n  0x00\n    /* \"#utility.yul\":16490:16553   */\n  tag_320\n    /* \"#utility.yul\":16545:16552   */\n  dup5\n    /* \"#utility.yul\":16536:16542   */\n  dup3\n    /* \"#utility.yul\":16525:16534   */\n  dup6\n    /* \"#utility.yul\":16521:16543   */\n  add\n    /* \"#utility.yul\":16490:16553   */\n  tag_146\n  jump\t// in\ntag_320:\n    /* \"#utility.yul\":16480:16553   */\n  swap2\n  pop\n    /* \"#utility.yul\":16436:16563   */\n  pop\n    /* \"#utility.yul\":16221:16570   */\n  swap3\n  swap2\n  pop\n  pop\n  jump\t// out\n    /* \"#utility.yul\":16576:16770   */\ntag_86:\n    /* \"#utility.yul\":16616:16620   */\n  0x00\n    /* \"#utility.yul\":16636:16656   */\n  tag_322\n    /* \"#utility.yul\":16654:16655   */\n  dup3\n    /* \"#utility.yul\":16636:16656   */\n  tag_101\n  jump\t// in\ntag_322:\n    /* \"#utility.yul\":16631:16656   */\n  swap2\n  pop\n    /* \"#utility.yul\":16670:16690   */\n  tag_323\n    /* \"#utility.yul\":16688:16689   */\n  dup4\n    /* \"#utility.yul\":16670:16690   */\n  tag_101\n  jump\t// in\ntag_323:\n    /* \"#utility.yul\":16665:16690   */\n  swap3\n  pop\n    /* \"#utility.yul\":16714:16715   */\n  dup3\n    /* \"#utility.yul\":16711:16712   */\n  dup3\n    /* \"#utility.yul\":16707:16716   */\n  sub\n    /* \"#utility.yul\":16699:16716   */\n  swap1\n  pop\n    /* \"#utility.yul\":16738:16739   */\n  dup2\n    /* \"#utility.yul\":16732:16736   */\n  dup2\n    /* \"#utility.yul\":16729:16740   */\n  gt\n    /* \"#utility.yul\":16726:16763   */\n  iszero\n  tag_324\n  jumpi\n    /* \"#utility.yul\":16743:16761   */\n  tag_325\n  tag_131\n  jump\t// in\ntag_325:\n    /* \"#utility.yul\":16726:16763   */\ntag_324:\n    /* \"#utility.yul\":16576:16770   */\n  swap3\n  swap2\n  pop\n  pop\n  jump\t// out\n    /* \"#utility.yul\":16776:16967   */\ntag_89:\n    /* \"#utility.yul\":16816:16819   */\n  0x00\n    /* \"#utility.yul\":16835:16855   */\n  tag_327\n    /* \"#utility.yul\":16853:16854   */\n  dup3\n    /* \"#utility.yul\":16835:16855   */\n  tag_101\n  jump\t// in\ntag_327:\n    /* \"#utility.yul\":16830:16855   */\n  swap2\n  pop\n    /* \"#utility.yul\":16869:16889   */\n  tag_328\n    /* \"#utility.yul\":16887:16888   */\n  dup4\n    /* \"#utility.yul\":16869:16889   */\n  tag_101\n  jump\t// in\ntag_328:\n    /* \"#utility.yul\":16864:16889   */\n  swap3\n  pop\n    /* \"#utility.yul\":16912:16913   */\n  dup3\n    /* \"#utility.yul\":16909:16910   */\n  dup3\n    /* \"#utility.yul\":16905:16914   */\n  add\n    /* \"#utility.yul\":16898:16914   */\n  swap1\n  pop\n    /* \"#utility.yul\":16933:16936   */\n  dup1\n    /* \"#utility.yul\":16930:16931   */\n  dup3\n    /* \"#utility.yul\":16927:16937   */\n  gt\n    /* \"#utility.yul\":16924:16960   */\n  iszero\n  tag_329\n  jumpi\n    /* \"#utility.yul\":16940:16958   */\n  tag_330\n  tag_131\n  jump\t// in\ntag_330:\n    /* \"#utility.yul\":16924:16960   */\ntag_329:\n    /* \"#utility.yul\":16776:16967   */\n  swap3\n  swap2\n  pop\n  pop\n  jump\t// out\n    /* \"contract.sol\":712:4265  contract NFT is ERC721URIStorage, Ownable {... */\ntag_28:\n  dataSize(sub_0)\n  dup1\n  dataOffset(sub_0)\n  0x00\n  codecopy\n  0x00\n  return\nstop\n\nsub_0: assembly {\n        /* \"contract.sol\":712:4265  contract NFT is ERC721URIStorage, Ownable {... */\n      mstore(0x40, 0x80)\n      jumpi(tag_1, lt(calldatasize, 0x04))\n      shr(0xe0, calldataload(0x00))\n      dup1\n      0x853828b6\n      gt\n      tag_35\n      jumpi\n      dup1\n      0xa42d20ae\n      gt\n      tag_36\n      jumpi\n      dup1\n      0xc87b56dd\n      gt\n      tag_37\n      jumpi\n      dup1\n      0xc87b56dd\n      eq\n      tag_30\n      jumpi\n      dup1\n      0xdb83694c\n      eq\n      tag_31\n      jumpi\n      dup1\n      0xe985e9c5\n      eq\n      tag_32\n      jumpi\n      dup1\n      0xf2fde38b\n      eq\n      tag_33\n      jumpi\n      dup1\n      0xf47c84c5\n      eq\n      tag_34\n      jumpi\n      jump(tag_1)\n    tag_37:\n      dup1\n      0xa42d20ae\n      eq\n      tag_26\n      jumpi\n      dup1\n      0xb19960e6\n      eq\n      tag_27\n      jumpi\n      dup1\n      0xb88d4fde\n      eq\n      tag_28\n      jumpi\n      dup1\n      0xc6682862\n      eq\n      tag_29\n      jumpi\n      jump(tag_1)\n    tag_36:\n      dup1\n      0x95d89b41\n      gt\n      tag_38\n      jumpi\n      dup1\n      0x95d89b41\n      eq\n      tag_22\n      jumpi\n      dup1\n      0xa035b1fe\n      eq\n      tag_23\n      jumpi\n      dup1\n      0xa0712d68\n      eq\n      tag_24\n      jumpi\n      dup1\n      0xa22cb465\n      eq\n      tag_25\n      jumpi\n      jump(tag_1)\n    tag_38:\n      dup1\n      0x853828b6\n      eq\n      tag_18\n      jumpi\n      dup1\n      0x8da5cb5b\n      eq\n      tag_19\n      jumpi\n      dup1\n      0x8ecad721\n      eq\n      tag_20\n      jumpi\n      dup1\n      0x94f4e679\n      eq\n      tag_21\n      jumpi\n      jump(tag_1)\n    tag_35:\n      dup1\n      0x3bb3a24d\n      gt\n      tag_39\n      jumpi\n      dup1\n      0x6352211e\n      gt\n      tag_40\n      jumpi\n      dup1\n      0x6352211e\n      eq\n      tag_14\n      jumpi\n      dup1\n      0x6c0360eb\n      eq\n      tag_15\n      jumpi\n      dup1\n      0x70a08231\n      eq\n      tag_16\n      jumpi\n      dup1\n      0x715018a6\n      eq\n      tag_17\n      jumpi\n      jump(tag_1)\n    tag_40:\n      dup1\n      0x3bb3a24d\n      eq\n      tag_10\n      jumpi\n      dup1\n      0x42842e0e\n      eq\n      tag_11\n      jumpi\n      dup1\n      0x55f804b3\n      eq\n      tag_12\n      jumpi\n      dup1\n      0x564566a8\n      eq\n      tag_13\n      jumpi\n      jump(tag_1)\n    tag_39:\n      dup1\n      0x18160ddd\n      gt\n      tag_41\n      jumpi\n      dup1\n      0x18160ddd\n      eq\n      tag_6\n      jumpi\n      dup1\n      0x18bee97e\n      eq\n      tag_7\n      jumpi\n      dup1\n      0x23b872dd\n      eq\n      tag_8\n      jumpi\n      dup1\n      0x34918dfd\n      eq\n      tag_9\n      jumpi\n      jump(tag_1)\n    tag_41:\n      dup1\n      0x01ffc9a7\n      eq\n      tag_2\n      jumpi\n      dup1\n      0x06fdde03\n      eq\n      tag_3\n      jumpi\n      dup1\n      0x081812fc\n      eq\n      tag_4\n      jumpi\n      dup1\n      0x095ea7b3\n      eq\n      tag_5\n      jumpi\n    tag_1:\n      0x00\n      dup1\n      revert\n        /* \"ERC721.sol\":1556:1849   */\n    tag_2:\n      callvalue\n      dup1\n      iszero\n      tag_42\n      jumpi\n      0x00\n      dup1\n      revert\n    tag_42:\n      pop\n      tag_43\n      0x04\n      dup1\n      calldatasize\n      sub\n      dup2\n      add\n      swap1\n      tag_44\n      swap2\n      swap1\n      tag_45\n      jump\t// in\n    tag_44:\n      tag_46\n      jump\t// in\n    tag_43:\n      mload(0x40)\n      tag_47\n      swap2\n      swap1\n      tag_48\n      jump\t// in\n    tag_47:\n      mload(0x40)\n      dup1\n      swap2\n      sub\n      swap1\n      return\n        /* \"ERC721.sol\":2472:2572   */\n    tag_3:\n      callvalue\n      dup1\n      iszero\n      tag_49\n      jumpi\n      0x00\n      dup1\n      revert\n    tag_49:\n      pop\n      tag_50\n      tag_51\n      jump\t// in\n    tag_50:\n      mload(0x40)\n      tag_52\n      swap2\n      swap1\n      tag_53\n      jump\t// in\n    tag_52:\n      mload(0x40)\n      dup1\n      swap2\n      sub\n      swap1\n      return\n        /* \"ERC721.sol\":3984:4155   */\n    tag_4:\n      callvalue\n      dup1\n      iszero\n      tag_54\n      jumpi\n      0x00\n      dup1\n      revert\n    tag_54:\n      pop\n      tag_55\n      0x04\n      dup1\n      calldatasize\n      sub\n      dup2\n      add\n      swap1\n      tag_56\n      swap2\n      swap1\n      tag_57\n      jump\t// in\n    tag_56:\n      tag_58\n      jump\t// in\n    tag_55:\n      mload(0x40)\n      tag_59\n      swap2\n      swap1\n      tag_60\n      jump\t// in\n    tag_59:\n      mload(0x40)\n      dup1\n      swap2\n      sub\n      swap1\n      return\n        /* \"ERC721.sol\":3502:3918   */\n    tag_5:\n      callvalue\n      dup1\n      iszero\n      tag_61\n      jumpi\n      0x00\n      dup1\n      revert\n    tag_61:\n      pop\n      tag_62\n      0x04\n      dup1\n      calldatasize\n      sub\n      dup2\n      add\n      swap1\n      tag_63\n      swap2\n      swap1\n      tag_64\n      jump\t// in\n    tag_63:\n      tag_65\n      jump\t// in\n    tag_62:\n      stop\n        /* \"contract.sol\":1094:1120  uint256 public totalSupply */\n    tag_6:\n      callvalue\n      dup1\n      iszero\n      tag_66\n      jumpi\n      0x00\n      dup1\n      revert\n    tag_66:\n      pop\n      tag_67\n      tag_68\n      jump\t// in\n    tag_67:\n      mload(0x40)\n      tag_69\n      swap2\n      swap1\n      tag_70\n      jump\t// in\n    tag_69:\n      mload(0x40)\n      dup1\n      swap2\n      sub\n      swap1\n      return\n        /* \"contract.sol\":797:819  address public Creator */\n    tag_7:\n      callvalue\n      dup1\n      iszero\n      tag_71\n      jumpi\n      0x00\n      dup1\n      revert\n    tag_71:\n      pop\n      tag_72\n      tag_73\n      jump\t// in\n    tag_72:\n      mload(0x40)\n      tag_74\n      swap2\n      swap1\n      tag_60\n      jump\t// in\n    tag_74:\n      mload(0x40)\n      dup1\n      swap2\n      sub\n      swap1\n      return\n        /* \"ERC721.sol\":4684:4985   */\n    tag_8:\n      callvalue\n      dup1\n      iszero\n      tag_75\n      jumpi\n      0x00\n      dup1\n      revert\n    tag_75:\n      pop\n      tag_76\n      0x04\n      dup1\n      calldatasize\n      sub\n      dup2\n      add\n      swap1\n      tag_77\n      swap2\n      swap1\n      tag_78\n      jump\t// in\n    tag_77:\n      tag_79\n      jump\t// in\n    tag_76:\n      stop\n        /* \"contract.sol\":2914:3007  function flipSaleState() external onlyCreator {... */\n    tag_9:\n      callvalue\n      dup1\n      iszero\n      tag_80\n      jumpi\n      0x00\n      dup1\n      revert\n    tag_80:\n      pop\n      tag_81\n      tag_82\n      jump\t// in\n    tag_81:\n      stop\n        /* \"contract.sol\":2790:2906  function getTokenURI(uint256 tokenID) public view returns(string memory) {... */\n    tag_10:\n      callvalue\n      dup1\n      iszero\n      tag_83\n      jumpi\n      0x00\n      dup1\n      revert\n    tag_83:\n      pop\n      tag_84\n      0x04\n      dup1\n      calldatasize\n      sub\n      dup2\n      add\n      swap1\n      tag_85\n      swap2\n      swap1\n      tag_57\n      jump\t// in\n    tag_85:\n      tag_86\n      jump\t// in\n    tag_84:\n      mload(0x40)\n      tag_87\n      swap2\n      swap1\n      tag_53\n      jump\t// in\n    tag_87:\n      mload(0x40)\n      dup1\n      swap2\n      sub\n      swap1\n      return\n        /* \"ERC721.sol\":5056:5207   */\n    tag_11:\n      callvalue\n      dup1\n      iszero\n      tag_88\n      jumpi\n      0x00\n      dup1\n      revert\n    tag_88:\n      pop\n      tag_89\n      0x04\n      dup1\n      calldatasize\n      sub\n      dup2\n      add\n      swap1\n      tag_90\n      swap2\n      swap1\n      tag_78\n      jump\t// in\n    tag_90:\n      tag_91\n      jump\t// in\n    tag_89:\n      stop\n        /* \"contract.sol\":3015:3117  function setBaseURI(string memory _baseURI) external onlyCreator {... */\n    tag_12:\n      callvalue\n      dup1\n      iszero\n      tag_92\n      jumpi\n      0x00\n      dup1\n      revert\n    tag_92:\n      pop\n      tag_93\n      0x04\n      dup1\n      calldatasize\n      sub\n      dup2\n      add\n      swap1\n      tag_94\n      swap2\n      swap1\n      tag_95\n      jump\t// in\n    tag_94:\n      tag_96\n      jump\t// in\n    tag_93:\n      stop\n        /* \"contract.sol\":1063:1087  bool public isSaleActive */\n    tag_13:\n      callvalue\n      dup1\n      iszero\n      tag_97\n      jumpi\n      0x00\n      dup1\n      revert\n    tag_97:\n      pop\n      tag_98\n      tag_99\n      jump\t// in\n    tag_98:\n      mload(0x40)\n      tag_100\n      swap2\n      swap1\n      tag_48\n      jump\t// in\n    tag_100:\n      mload(0x40)\n      dup1\n      swap2\n      sub\n      swap1\n      return\n        /* \"ERC721.sol\":2182:2405   */\n    tag_14:\n      callvalue\n      dup1\n      iszero\n      tag_101\n      jumpi\n      0x00\n      dup1\n      revert\n    tag_101:\n      pop\n      tag_102\n      0x04\n      dup1\n      calldatasize\n      sub\n      dup2\n      add\n      swap1\n      tag_103\n      swap2\n      swap1\n      tag_57\n      jump\t// in\n    tag_103:\n      tag_104\n      jump\t// in\n    tag_102:\n      mload(0x40)\n      tag_105\n      swap2\n      swap1\n      tag_60\n      jump\t// in\n    tag_105:\n      mload(0x40)\n      dup1\n      swap2\n      sub\n      swap1\n      return\n        /* \"contract.sol\":1188:1209  string public baseURI */\n    tag_15:\n      callvalue\n      dup1\n      iszero\n      tag_106\n      jumpi\n      0x00\n      dup1\n      revert\n    tag_106:\n      pop\n      tag_107\n      tag_108\n      jump\t// in\n    tag_107:\n      mload(0x40)\n      tag_109\n      swap2\n      swap1\n      tag_53\n      jump\t// in\n    tag_109:\n      mload(0x40)\n      dup1\n      swap2\n      sub\n      swap1\n      return\n        /* \"ERC721.sol\":1913:2120   */\n    tag_16:\n      callvalue\n      dup1\n      iszero\n      tag_110\n      jumpi\n      0x00\n      dup1\n      revert\n    tag_110:\n      pop\n      tag_111\n      0x04\n      dup1\n      calldatasize\n      sub\n      dup2\n      add\n      swap1\n      tag_112\n      swap2\n      swap1\n      tag_113\n      jump\t// in\n    tag_112:\n      tag_114\n      jump\t// in\n    tag_111:\n      mload(0x40)\n      tag_115\n      swap2\n      swap1\n      tag_70\n      jump\t// in\n    tag_115:\n      mload(0x40)\n      dup1\n      swap2\n      sub\n      swap1\n      return\n        /* \"Ownable.sol\":1884:1987   */\n    tag_17:\n      callvalue\n      dup1\n      iszero\n      tag_116\n      jumpi\n      0x00\n      dup1\n      revert\n    tag_116:\n      pop\n      tag_117\n      tag_118\n      jump\t// in\n    tag_117:\n      stop\n        /* \"contract.sol\":3125:3339  function withdrawAll() external payable onlyCreator {... */\n    tag_18:\n      tag_119\n      tag_120\n      jump\t// in\n    tag_119:\n      stop\n        /* \"Ownable.sol\":1236:1323   */\n    tag_19:\n      callvalue\n      dup1\n      iszero\n      tag_121\n      jumpi\n      0x00\n      dup1\n      revert\n    tag_121:\n      pop\n      tag_122\n      tag_123\n      jump\t// in\n    tag_122:\n      mload(0x40)\n      tag_124\n      swap2\n      swap1\n      tag_60\n      jump\t// in\n    tag_124:\n      mload(0x40)\n      dup1\n      swap2\n      sub\n      swap1\n      return\n        /* \"contract.sol\":923:953  uint256 public MAX_MINT_PER_TX */\n    tag_20:\n      callvalue\n      dup1\n      iszero\n      tag_125\n      jumpi\n      0x00\n      dup1\n      revert\n    tag_125:\n      pop\n      tag_126\n      tag_127\n      jump\t// in\n    tag_126:\n      mload(0x40)\n      tag_128\n      swap2\n      swap1\n      tag_70\n      jump\t// in\n    tag_128:\n      mload(0x40)\n      dup1\n      swap2\n      sub\n      swap1\n      return\n        /* \"contract.sol\":1001:1022  string public NFTName */\n    tag_21:\n      callvalue\n      dup1\n      iszero\n      tag_129\n      jumpi\n      0x00\n      dup1\n      revert\n    tag_129:\n      pop\n      tag_130\n      tag_131\n      jump\t// in\n    tag_130:\n      mload(0x40)\n      tag_132\n      swap2\n      swap1\n      tag_53\n      jump\t// in\n    tag_132:\n      mload(0x40)\n      dup1\n      swap2\n      sub\n      swap1\n      return\n        /* \"ERC721.sol\":2641:2745   */\n    tag_22:\n      callvalue\n      dup1\n      iszero\n      tag_133\n      jumpi\n      0x00\n      dup1\n      revert\n    tag_133:\n      pop\n      tag_134\n      tag_135\n      jump\t// in\n    tag_134:\n      mload(0x40)\n      tag_136\n      swap2\n      swap1\n      tag_53\n      jump\t// in\n    tag_136:\n      mload(0x40)\n      dup1\n      swap2\n      sub\n      swap1\n      return\n        /* \"contract.sol\":896:916  uint256 public price */\n    tag_23:\n      callvalue\n      dup1\n      iszero\n      tag_137\n      jumpi\n      0x00\n      dup1\n      revert\n    tag_137:\n      pop\n      tag_138\n      tag_139\n      jump\t// in\n    tag_138:\n      mload(0x40)\n      tag_140\n      swap2\n      swap1\n      tag_70\n      jump\t// in\n    tag_140:\n      mload(0x40)\n      dup1\n      swap2\n      sub\n      swap1\n      return\n        /* \"contract.sol\":2049:2782  function mint(uint256 _numTokens) external payable {... */\n    tag_24:\n      tag_141\n      0x04\n      dup1\n      calldatasize\n      sub\n      dup2\n      add\n      swap1\n      tag_142\n      swap2\n      swap1\n      tag_57\n      jump\t// in\n    tag_142:\n      tag_143\n      jump\t// in\n    tag_141:\n      stop\n        /* \"ERC721.sol\":4227:4382   */\n    tag_25:\n      callvalue\n      dup1\n      iszero\n      tag_144\n      jumpi\n      0x00\n      dup1\n      revert\n    tag_144:\n      pop\n      tag_145\n      0x04\n      dup1\n      calldatasize\n      sub\n      dup2\n      add\n      swap1\n      tag_146\n      swap2\n      swap1\n      tag_147\n      jump\t// in\n    tag_146:\n      tag_148\n      jump\t// in\n    tag_145:\n      stop\n        /* \"contract.sol\":1029:1052  string public NFTSymbol */\n    tag_26:\n      callvalue\n      dup1\n      iszero\n      tag_149\n      jumpi\n      0x00\n      dup1\n      revert\n    tag_149:\n      pop\n      tag_150\n      tag_151\n      jump\t// in\n    tag_150:\n      mload(0x40)\n      tag_152\n      swap2\n      swap1\n      tag_53\n      jump\t// in\n    tag_152:\n      mload(0x40)\n      dup1\n      swap2\n      sub\n      swap1\n      return\n        /* \"contract.sol\":960:994  uint256 public MAX_MINT_PER_WALLET */\n    tag_27:\n      callvalue\n      dup1\n      iszero\n      tag_153\n      jumpi\n      0x00\n      dup1\n      revert\n    tag_153:\n      pop\n      tag_154\n      tag_155\n      jump\t// in\n    tag_154:\n      mload(0x40)\n      tag_156\n      swap2\n      swap1\n      tag_70\n      jump\t// in\n    tag_156:\n      mload(0x40)\n      dup1\n      swap2\n      sub\n      swap1\n      return\n        /* \"ERC721.sol\":5278:5557   */\n    tag_28:\n      callvalue\n      dup1\n      iszero\n      tag_157\n      jumpi\n      0x00\n      dup1\n      revert\n    tag_157:\n      pop\n      tag_158\n      0x04\n      dup1\n      calldatasize\n      sub\n      dup2\n      add\n      swap1\n      tag_159\n      swap2\n      swap1\n      tag_160\n      jump\t// in\n    tag_159:\n      tag_161\n      jump\t// in\n    tag_158:\n      stop\n        /* \"contract.sol\":1216:1253  string public baseExtension = \".json\" */\n    tag_29:\n      callvalue\n      dup1\n      iszero\n      tag_162\n      jumpi\n      0x00\n      dup1\n      revert\n    tag_162:\n      pop\n      tag_163\n      tag_164\n      jump\t// in\n    tag_163:\n      mload(0x40)\n      tag_165\n      swap2\n      swap1\n      tag_53\n      jump\t// in\n    tag_165:\n      mload(0x40)\n      dup1\n      swap2\n      sub\n      swap1\n      return\n        /* \"contract.sol\":3347:3738  function tokenURI(uint256 tokenId) public view virtual override returns (string memory) {... */\n    tag_30:\n      callvalue\n      dup1\n      iszero\n      tag_166\n      jumpi\n      0x00\n      dup1\n      revert\n    tag_166:\n      pop\n      tag_167\n      0x04\n      dup1\n      calldatasize\n      sub\n      dup2\n      add\n      swap1\n      tag_168\n      swap2\n      swap1\n      tag_57\n      jump\t// in\n    tag_168:\n      tag_169\n      jump\t// in\n    tag_167:\n      mload(0x40)\n      tag_170\n      swap2\n      swap1\n      tag_53\n      jump\t// in\n    tag_170:\n      mload(0x40)\n      dup1\n      swap2\n      sub\n      swap1\n      return\n        /* \"contract.sol\":3863:4262  function getSaleInfo() public view returns (address, uint256, uint256, uint256, uint256, string memory, string memory, string memory, bool, uint256 ) {... */\n    tag_31:\n      callvalue\n      dup1\n      iszero\n      tag_171\n      jumpi\n      0x00\n      dup1\n      revert\n    tag_171:\n      pop\n      tag_172\n      tag_173\n      jump\t// in\n    tag_172:\n      mload(0x40)\n      tag_174\n      swap11\n      swap10\n      swap9\n      swap8\n      swap7\n      swap6\n      swap5\n      swap4\n      swap3\n      swap2\n      swap1\n      tag_175\n      jump\t// in\n    tag_174:\n      mload(0x40)\n      dup1\n      swap2\n      sub\n      swap1\n      return\n        /* \"ERC721.sol\":4453:4617   */\n    tag_32:\n      callvalue\n      dup1\n      iszero\n      tag_176\n      jumpi\n      0x00\n      dup1\n      revert\n    tag_176:\n      pop\n      tag_177\n      0x04\n      dup1\n      calldatasize\n      sub\n      dup2\n      add\n      swap1\n      tag_178\n      swap2\n      swap1\n      tag_179\n      jump\t// in\n    tag_178:\n      tag_180\n      jump\t// in\n    tag_177:\n      mload(0x40)\n      tag_181\n      swap2\n      swap1\n      tag_48\n      jump\t// in\n    tag_181:\n      mload(0x40)\n      dup1\n      swap2\n      sub\n      swap1\n      return\n        /* \"Ownable.sol\":2142:2343   */\n    tag_33:\n      callvalue\n      dup1\n      iszero\n      tag_182\n      jumpi\n      0x00\n      dup1\n      revert\n    tag_182:\n      pop\n      tag_183\n      0x04\n      dup1\n      calldatasize\n      sub\n      dup2\n      add\n      swap1\n      tag_184\n      swap2\n      swap1\n      tag_113\n      jump\t// in\n    tag_184:\n      tag_185\n      jump\t// in\n    tag_183:\n      stop\n        /* \"contract.sol\":826:851  uint256 public MAX_TOKENS */\n    tag_34:\n      callvalue\n      dup1\n      iszero\n      tag_186\n      jumpi\n      0x00\n      dup1\n      revert\n    tag_186:\n      pop\n      tag_187\n      tag_188\n      jump\t// in\n    tag_187:\n      mload(0x40)\n      tag_189\n      swap2\n      swap1\n      tag_70\n      jump\t// in\n    tag_189:\n      mload(0x40)\n      dup1\n      swap2\n      sub\n      swap1\n      return\n        /* \"ERC721.sol\":1556:1849   */\n    tag_46:\n        /* \"ERC721.sol\":1658:1662   */\n      0x00\n        /* \"ERC721.sol\":1706:1731   */\n      0x80ac58cd00000000000000000000000000000000000000000000000000000000\n        /* \"ERC721.sol\":1691:1731   */\n      not(0xffffffffffffffffffffffffffffffffffffffffffffffffffffffff)\n      and\n        /* \"ERC721.sol\":1691:1702   */\n      dup3\n        /* \"ERC721.sol\":1691:1731   */\n      not(0xffffffffffffffffffffffffffffffffffffffffffffffffffffffff)\n      and\n      eq\n        /* \"ERC721.sol\":1691:1792   */\n      dup1\n      tag_192\n      jumpi\n      pop\n        /* \"ERC721.sol\":1759:1792   */\n      0x5b5e139f00000000000000000000000000000000000000000000000000000000\n        /* \"ERC721.sol\":1744:1792   */\n      not(0xffffffffffffffffffffffffffffffffffffffffffffffffffffffff)\n      and\n        /* \"ERC721.sol\":1744:1755   */\n      dup3\n        /* \"ERC721.sol\":1744:1792   */\n      not(0xffffffffffffffffffffffffffffffffffffffffffffffffffffffff)\n      and\n      eq\n        /* \"ERC721.sol\":1691:1792   */\n    tag_192:\n        /* \"ERC721.sol\":1691:1841   */\n      dup1\n      tag_193\n      jumpi\n      pop\n        /* \"ERC721.sol\":1805:1841   */\n      tag_194\n        /* \"ERC721.sol\":1829:1840   */\n      dup3\n        /* \"ERC721.sol\":1805:1828   */\n      tag_195\n        /* \"ERC721.sol\":1805:1841   */\n      jump\t// in\n    tag_194:\n        /* \"ERC721.sol\":1691:1841   */\n    tag_193:\n        /* \"ERC721.sol\":1675:1841   */\n      swap1\n      pop\n        /* \"ERC721.sol\":1556:1849   */\n      swap2\n      swap1\n      pop\n      jump\t// out\n        /* \"ERC721.sol\":2472:2572   */\n    tag_51:\n        /* \"ERC721.sol\":2526:2539   */\n      0x60\n        /* \"ERC721.sol\":2559:2564   */\n      0x00\n        /* \"ERC721.sol\":2552:2564   */\n      dup1\n      sload\n      tag_197\n      swap1\n      tag_198\n      jump\t// in\n    tag_197:\n      dup1\n      0x1f\n      add\n      0x20\n      dup1\n      swap2\n      div\n      mul\n      0x20\n      add\n      mload(0x40)\n      swap1\n      dup2\n      add\n      0x40\n      mstore\n      dup1\n      swap3\n      swap2\n      swap1\n      dup2\n      dup2\n      mstore\n      0x20\n      add\n      dup3\n      dup1\n      sload\n      tag_199\n      swap1\n      tag_198\n      jump\t// in\n    tag_199:\n      dup1\n      iszero\n      tag_200\n      jumpi\n      dup1\n      0x1f\n      lt\n      tag_201\n      jumpi\n      0x0100\n      dup1\n      dup4\n      sload\n      div\n      mul\n      dup4\n      mstore\n      swap2\n      0x20\n      add\n      swap2\n      jump(tag_200)\n    tag_201:\n      dup3\n      add\n      swap2\n      swap1\n      0x00\n      mstore\n      keccak256(0x00, 0x20)\n      swap1\n    tag_202:\n      dup2\n      sload\n      dup2\n      mstore\n      swap1\n      0x01\n      add\n      swap1\n      0x20\n      add\n      dup1\n      dup4\n      gt\n      tag_202\n      jumpi\n      dup3\n      swap1\n      sub\n      0x1f\n      and\n      dup3\n      add\n      swap2\n    tag_200:\n      pop\n      pop\n      pop\n      pop\n      pop\n      swap1\n      pop\n        /* \"ERC721.sol\":2472:2572   */\n      swap1\n      jump\t// out\n        /* \"ERC721.sol\":3984:4155   */\n    tag_58:\n        /* \"ERC721.sol\":4060:4067   */\n      0x00\n        /* \"ERC721.sol\":4080:4103   */\n      tag_204\n        /* \"ERC721.sol\":4095:4102   */\n      dup3\n        /* \"ERC721.sol\":4080:4094   */\n      tag_205\n        /* \"ERC721.sol\":4080:4103   */\n      jump\t// in\n    tag_204:\n        /* \"ERC721.sol\":4123:4138   */\n      0x04\n        /* \"ERC721.sol\":4123:4147   */\n      0x00\n        /* \"ERC721.sol\":4139:4146   */\n      dup4\n        /* \"ERC721.sol\":4123:4147   */\n      dup2\n      mstore\n      0x20\n      add\n      swap1\n      dup2\n      mstore\n      0x20\n      add\n      0x00\n      keccak256\n      0x00\n      swap1\n      sload\n      swap1\n      0x0100\n      exp\n      swap1\n      div\n      0xffffffffffffffffffffffffffffffffffffffff\n      and\n        /* \"ERC721.sol\":4116:4147   */\n      swap1\n      pop\n        /* \"ERC721.sol\":3984:4155   */\n      swap2\n      swap1\n      pop\n      jump\t// out\n        /* \"ERC721.sol\":3502:3918   */\n    tag_65:\n        /* \"ERC721.sol\":3583:3596   */\n      0x00\n        /* \"ERC721.sol\":3599:3622   */\n      tag_207\n        /* \"ERC721.sol\":3614:3621   */\n      dup3\n        /* \"ERC721.sol\":3599:3613   */\n      tag_104\n        /* \"ERC721.sol\":3599:3622   */\n      jump\t// in\n    tag_207:\n        /* \"ERC721.sol\":3583:3622   */\n      swap1\n      pop\n        /* \"ERC721.sol\":3647:3652   */\n      dup1\n        /* \"ERC721.sol\":3641:3652   */\n      0xffffffffffffffffffffffffffffffffffffffff\n      and\n        /* \"ERC721.sol\":3641:3643   */\n      dup4\n        /* \"ERC721.sol\":3641:3652   */\n      0xffffffffffffffffffffffffffffffffffffffff\n      and\n      sub\n        /* \"ERC721.sol\":3633:3690   */\n      tag_208\n      jumpi\n      mload(0x40)\n      0x08c379a000000000000000000000000000000000000000000000000000000000\n      dup2\n      mstore\n      0x04\n      add\n      tag_209\n      swap1\n      tag_210\n      jump\t// in\n    tag_209:\n      mload(0x40)\n      dup1\n      swap2\n      sub\n      swap1\n      revert\n    tag_208:\n        /* \"ERC721.sol\":3741:3746   */\n      dup1\n        /* \"ERC721.sol\":3725:3746   */\n      0xffffffffffffffffffffffffffffffffffffffff\n      and\n        /* \"ERC721.sol\":3725:3737   */\n      tag_211\n        /* \"ERC721.sol\":3725:3735   */\n      tag_212\n        /* \"ERC721.sol\":3725:3737   */\n      jump\t// in\n    tag_211:\n        /* \"ERC721.sol\":3725:3746   */\n      0xffffffffffffffffffffffffffffffffffffffff\n      and\n      eq\n        /* \"ERC721.sol\":3725:3787   */\n      dup1\n      tag_213\n      jumpi\n      pop\n        /* \"ERC721.sol\":3750:3787   */\n      tag_214\n        /* \"ERC721.sol\":3767:3772   */\n      dup2\n        /* \"ERC721.sol\":3774:3786   */\n      tag_215\n        /* \"ERC721.sol\":3774:3784   */\n      tag_212\n        /* \"ERC721.sol\":3774:3786   */\n      jump\t// in\n    tag_215:\n        /* \"ERC721.sol\":3750:3766   */\n      tag_180\n        /* \"ERC721.sol\":3750:3787   */\n      jump\t// in\n    tag_214:\n        /* \"ERC721.sol\":3725:3787   */\n    tag_213:\n        /* \"ERC721.sol\":3703:3876   */\n      tag_216\n      jumpi\n      mload(0x40)\n      0x08c379a000000000000000000000000000000000000000000000000000000000\n      dup2\n      mstore\n      0x04\n      add\n      tag_217\n      swap1\n      tag_218\n      jump\t// in\n    tag_217:\n      mload(0x40)\n      dup1\n      swap2\n      sub\n      swap1\n      revert\n    tag_216:\n        /* \"ERC721.sol\":3889:3910   */\n      tag_219\n        /* \"ERC721.sol\":3898:3900   */\n      dup4\n        /* \"ERC721.sol\":3902:3909   */\n      dup4\n        /* \"ERC721.sol\":3889:3897   */\n      tag_220\n        /* \"ERC721.sol\":3889:3910   */\n      jump\t// in\n    tag_219:\n        /* \"ERC721.sol\":3572:3918   */\n      pop\n        /* \"ERC721.sol\":3502:3918   */\n      pop\n      pop\n      jump\t// out\n        /* \"contract.sol\":1094:1120  uint256 public totalSupply */\n    tag_68:\n      sload(0x11)\n      dup2\n      jump\t// out\n        /* \"contract.sol\":797:819  address public Creator */\n    tag_73:\n      0x08\n      0x00\n      swap1\n      sload\n      swap1\n      0x0100\n      exp\n      swap1\n      div\n      0xffffffffffffffffffffffffffffffffffffffff\n      and\n      dup2\n      jump\t// out\n        /* \"ERC721.sol\":4684:4985   */\n    tag_79:\n        /* \"ERC721.sol\":4845:4886   */\n      tag_222\n        /* \"ERC721.sol\":4864:4876   */\n      tag_223\n        /* \"ERC721.sol\":4864:4874   */\n      tag_212\n        /* \"ERC721.sol\":4864:4876   */\n      jump\t// in\n    tag_223:\n        /* \"ERC721.sol\":4878:4885   */\n      dup3\n        /* \"ERC721.sol\":4845:4863   */\n      tag_224\n        /* \"ERC721.sol\":4845:4886   */\n      jump\t// in\n    tag_222:\n        /* \"ERC721.sol\":4837:4936   */\n      tag_225\n      jumpi\n      mload(0x40)\n      0x08c379a000000000000000000000000000000000000000000000000000000000\n      dup2\n      mstore\n      0x04\n      add\n      tag_226\n      swap1\n      tag_227\n      jump\t// in\n    tag_226:\n      mload(0x40)\n      dup1\n      swap2\n      sub\n      swap1\n      revert\n    tag_225:\n        /* \"ERC721.sol\":4949:4977   */\n      tag_228\n        /* \"ERC721.sol\":4959:4963   */\n      dup4\n        /* \"ERC721.sol\":4965:4967   */\n      dup4\n        /* \"ERC721.sol\":4969:4976   */\n      dup4\n        /* \"ERC721.sol\":4949:4958   */\n      tag_229\n        /* \"ERC721.sol\":4949:4977   */\n      jump\t// in\n    tag_228:\n        /* \"ERC721.sol\":4684:4985   */\n      pop\n      pop\n      pop\n      jump\t// out\n        /* \"contract.sol\":2914:3007  function flipSaleState() external onlyCreator {... */\n    tag_82:\n        /* \"contract.sol\":1318:1325  Creator */\n      0x08\n      0x00\n      swap1\n      sload\n      swap1\n      0x0100\n      exp\n      swap1\n      div\n      0xffffffffffffffffffffffffffffffffffffffff\n      and\n        /* \"contract.sol\":1304:1325  msg.sender == Creator */\n      0xffffffffffffffffffffffffffffffffffffffff\n      and\n        /* \"contract.sol\":1304:1314  msg.sender */\n      caller\n        /* \"contract.sol\":1304:1325  msg.sender == Creator */\n      0xffffffffffffffffffffffffffffffffffffffff\n      and\n      eq\n        /* \"contract.sol\":1296:1326  require(msg.sender == Creator) */\n      tag_231\n      jumpi\n      0x00\n      dup1\n      revert\n    tag_231:\n        /* \"contract.sol\":2987:2999  isSaleActive */\n      0x10\n      0x00\n      swap1\n      sload\n      swap1\n      0x0100\n      exp\n      swap1\n      div\n      0xff\n      and\n        /* \"contract.sol\":2986:2999  !isSaleActive */\n      iszero\n        /* \"contract.sol\":2971:2983  isSaleActive */\n      0x10\n      0x00\n        /* \"contract.sol\":2971:2999  isSaleActive = !isSaleActive */\n      0x0100\n      exp\n      dup2\n      sload\n      dup2\n      0xff\n      mul\n      not\n      and\n      swap1\n      dup4\n      iszero\n      iszero\n      mul\n      or\n      swap1\n      sstore\n      pop\n        /* \"contract.sol\":2914:3007  function flipSaleState() external onlyCreator {... */\n      jump\t// out\n        /* \"contract.sol\":2790:2906  function getTokenURI(uint256 tokenID) public view returns(string memory) {... */\n    tag_86:\n        /* \"contract.sol\":2848:2861  string memory */\n      0x60\n        /* \"contract.sol\":2881:2898  tokenURI(tokenID) */\n      tag_234\n        /* \"contract.sol\":2890:2897  tokenID */\n      dup3\n        /* \"contract.sol\":2881:2889  tokenURI */\n      tag_169\n        /* \"contract.sol\":2881:2898  tokenURI(tokenID) */\n      jump\t// in\n    tag_234:\n        /* \"contract.sol\":2874:2898  return tokenURI(tokenID) */\n      swap1\n      pop\n        /* \"contract.sol\":2790:2906  function getTokenURI(uint256 tokenID) public view returns(string memory) {... */\n      swap2\n      swap1\n      pop\n      jump\t// out\n        /* \"ERC721.sol\":5056:5207   */\n    tag_91:\n        /* \"ERC721.sol\":5160:5199   */\n      tag_236\n        /* \"ERC721.sol\":5177:5181   */\n      dup4\n        /* \"ERC721.sol\":5183:5185   */\n      dup4\n        /* \"ERC721.sol\":5187:5194   */\n      dup4\n        /* \"ERC721.sol\":5160:5199   */\n      mload(0x40)\n      dup1\n      0x20\n      add\n      0x40\n      mstore\n      dup1\n      0x00\n      dup2\n      mstore\n      pop\n        /* \"ERC721.sol\":5160:5176   */\n      tag_161\n        /* \"ERC721.sol\":5160:5199   */\n      jump\t// in\n    tag_236:\n        /* \"ERC721.sol\":5056:5207   */\n      pop\n      pop\n      pop\n      jump\t// out\n        /* \"contract.sol\":3015:3117  function setBaseURI(string memory _baseURI) external onlyCreator {... */\n    tag_96:\n        /* \"contract.sol\":1318:1325  Creator */\n      0x08\n      0x00\n      swap1\n      sload\n      swap1\n      0x0100\n      exp\n      swap1\n      div\n      0xffffffffffffffffffffffffffffffffffffffff\n      and\n        /* \"contract.sol\":1304:1325  msg.sender == Creator */\n      0xffffffffffffffffffffffffffffffffffffffff\n      and\n        /* \"contract.sol\":1304:1314  msg.sender */\n      caller\n        /* \"contract.sol\":1304:1325  msg.sender == Creator */\n      0xffffffffffffffffffffffffffffffffffffffff\n      and\n      eq\n        /* \"contract.sol\":1296:1326  require(msg.sender == Creator) */\n      tag_238\n      jumpi\n      0x00\n      dup1\n      revert\n    tag_238:\n        /* \"contract.sol\":3101:3109  _baseURI */\n      dup1\n        /* \"contract.sol\":3091:3098  baseURI */\n      0x13\n        /* \"contract.sol\":3091:3109  baseURI = _baseURI */\n      swap1\n      dup2\n      tag_240\n      swap2\n      swap1\n      tag_241\n      jump\t// in\n    tag_240:\n      pop\n        /* \"contract.sol\":3015:3117  function setBaseURI(string memory _baseURI) external onlyCreator {... */\n      pop\n      jump\t// out\n        /* \"contract.sol\":1063:1087  bool public isSaleActive */\n    tag_99:\n      0x10\n      0x00\n      swap1\n      sload\n      swap1\n      0x0100\n      exp\n      swap1\n      div\n      0xff\n      and\n      dup2\n      jump\t// out\n        /* \"ERC721.sol\":2182:2405   */\n    tag_104:\n        /* \"ERC721.sol\":2254:2261   */\n      0x00\n        /* \"ERC721.sol\":2274:2287   */\n      dup1\n        /* \"ERC721.sol\":2290:2307   */\n      tag_243\n        /* \"ERC721.sol\":2299:2306   */\n      dup4\n        /* \"ERC721.sol\":2290:2298   */\n      tag_244\n        /* \"ERC721.sol\":2290:2307   */\n      jump\t// in\n    tag_243:\n        /* \"ERC721.sol\":2274:2307   */\n      swap1\n      pop\n        /* \"ERC721.sol\":2343:2344   */\n      0x00\n        /* \"ERC721.sol\":2326:2345   */\n      0xffffffffffffffffffffffffffffffffffffffff\n      and\n        /* \"ERC721.sol\":2326:2331   */\n      dup2\n        /* \"ERC721.sol\":2326:2345   */\n      0xffffffffffffffffffffffffffffffffffffffff\n      and\n      sub\n        /* \"ERC721.sol\":2318:2374   */\n      tag_245\n      jumpi\n      mload(0x40)\n      0x08c379a000000000000000000000000000000000000000000000000000000000\n      dup2\n      mstore\n      0x04\n      add\n      tag_246\n      swap1\n      tag_247\n      jump\t// in\n    tag_246:\n      mload(0x40)\n      dup1\n      swap2\n      sub\n      swap1\n      revert\n    tag_245:\n        /* \"ERC721.sol\":2392:2397   */\n      dup1\n        /* \"ERC721.sol\":2385:2397   */\n      swap2\n      pop\n      pop\n        /* \"ERC721.sol\":2182:2405   */\n      swap2\n      swap1\n      pop\n      jump\t// out\n        /* \"contract.sol\":1188:1209  string public baseURI */\n    tag_108:\n      0x13\n      dup1\n      sload\n      tag_248\n      swap1\n      tag_198\n      jump\t// in\n    tag_248:\n      dup1\n      0x1f\n      add\n      0x20\n      dup1\n      swap2\n      div\n      mul\n      0x20\n      add\n      mload(0x40)\n      swap1\n      dup2\n      add\n      0x40\n      mstore\n      dup1\n      swap3\n      swap2\n      swap1\n      dup2\n      dup2\n      mstore\n      0x20\n      add\n      dup3\n      dup1\n      sload\n      tag_249\n      swap1\n      tag_198\n      jump\t// in\n    tag_249:\n      dup1\n      iszero\n      tag_250\n      jumpi\n      dup1\n      0x1f\n      lt\n      tag_251\n      jumpi\n      0x0100\n      dup1\n      dup4\n      sload\n      div\n      mul\n      dup4\n      mstore\n      swap2\n      0x20\n      add\n      swap2\n      jump(tag_250)\n    tag_251:\n      dup3\n      add\n      swap2\n      swap1\n      0x00\n      mstore\n      keccak256(0x00, 0x20)\n      swap1\n    tag_252:\n      dup2\n      sload\n      dup2\n      mstore\n      swap1\n      0x01\n      add\n      swap1\n      0x20\n      add\n      dup1\n      dup4\n      gt\n      tag_252\n      jumpi\n      dup3\n      swap1\n      sub\n      0x1f\n      and\n      dup3\n      add\n      swap2\n    tag_250:\n      pop\n      pop\n      pop\n      pop\n      pop\n      dup2\n      jump\t// out\n        /* \"ERC721.sol\":1913:2120   */\n    tag_114:\n        /* \"ERC721.sol\":1985:1992   */\n      0x00\n        /* \"ERC721.sol\":2030:2031   */\n      dup1\n        /* \"ERC721.sol\":2013:2032   */\n      0xffffffffffffffffffffffffffffffffffffffff\n      and\n        /* \"ERC721.sol\":2013:2018   */\n      dup3\n        /* \"ERC721.sol\":2013:2032   */\n      0xffffffffffffffffffffffffffffffffffffffff\n      and\n      sub\n        /* \"ERC721.sol\":2005:2078   */\n      tag_254\n      jumpi\n      mload(0x40)\n      0x08c379a000000000000000000000000000000000000000000000000000000000\n      dup2\n      mstore\n      0x04\n      add\n      tag_255\n      swap1\n      tag_256\n      jump\t// in\n    tag_255:\n      mload(0x40)\n      dup1\n      swap2\n      sub\n      swap1\n      revert\n    tag_254:\n        /* \"ERC721.sol\":2096:2105   */\n      0x03\n        /* \"ERC721.sol\":2096:2112   */\n      0x00\n        /* \"ERC721.sol\":2106:2111   */\n      dup4\n        /* \"ERC721.sol\":2096:2112   */\n      0xffffffffffffffffffffffffffffffffffffffff\n      and\n      0xffffffffffffffffffffffffffffffffffffffff\n      and\n      dup2\n      mstore\n      0x20\n      add\n      swap1\n      dup2\n      mstore\n      0x20\n      add\n      0x00\n      keccak256\n      sload\n        /* \"ERC721.sol\":2089:2112   */\n      swap1\n      pop\n        /* \"ERC721.sol\":1913:2120   */\n      swap2\n      swap1\n      pop\n      jump\t// out\n        /* \"Ownable.sol\":1884:1987   */\n    tag_118:\n        /* \"Ownable.sol\":1122:1135   */\n      tag_258\n        /* \"Ownable.sol\":1122:1133   */\n      tag_259\n        /* \"Ownable.sol\":1122:1135   */\n      jump\t// in\n    tag_258:\n        /* \"Ownable.sol\":1949:1979   */\n      tag_261\n        /* \"Ownable.sol\":1976:1977   */\n      0x00\n        /* \"Ownable.sol\":1949:1967   */\n      tag_262\n        /* \"Ownable.sol\":1949:1979   */\n      jump\t// in\n    tag_261:\n        /* \"Ownable.sol\":1884:1987   */\n      jump\t// out\n        /* \"contract.sol\":3125:3339  function withdrawAll() external payable onlyCreator {... */\n    tag_120:\n        /* \"contract.sol\":1318:1325  Creator */\n      0x08\n      0x00\n      swap1\n      sload\n      swap1\n      0x0100\n      exp\n      swap1\n      div\n      0xffffffffffffffffffffffffffffffffffffffff\n      and\n        /* \"contract.sol\":1304:1325  msg.sender == Creator */\n      0xffffffffffffffffffffffffffffffffffffffff\n      and\n        /* \"contract.sol\":1304:1314  msg.sender */\n      caller\n        /* \"contract.sol\":1304:1325  msg.sender == Creator */\n      0xffffffffffffffffffffffffffffffffffffffff\n      and\n      eq\n        /* \"contract.sol\":1296:1326  require(msg.sender == Creator) */\n      tag_264\n      jumpi\n      0x00\n      dup1\n      revert\n    tag_264:\n        /* \"contract.sol\":3188:3203  uint256 balance */\n      0x00\n        /* \"contract.sol\":3206:3227  address(this).balance */\n      selfbalance\n        /* \"contract.sol\":3188:3227  uint256 balance = address(this).balance */\n      swap1\n      pop\n        /* \"contract.sol\":3239:3252  bool transfer */\n      0x00\n        /* \"contract.sol\":3265:3275  msg.sender */\n      caller\n        /* \"contract.sol\":3257:3281  payable(msg.sender).call */\n      0xffffffffffffffffffffffffffffffffffffffff\n      and\n        /* \"contract.sol\":3289:3296  balance */\n      dup3\n        /* \"contract.sol\":3257:3301  payable(msg.sender).call{value: balance}(\"\") */\n      mload(0x40)\n      tag_266\n      swap1\n      tag_267\n      jump\t// in\n    tag_266:\n      0x00\n      mload(0x40)\n      dup1\n      dup4\n      sub\n      dup2\n      dup6\n      dup8\n      gas\n      call\n      swap3\n      pop\n      pop\n      pop\n      returndatasize\n      dup1\n      0x00\n      dup2\n      eq\n      tag_270\n      jumpi\n      mload(0x40)\n      swap2\n      pop\n      and(add(returndatasize, 0x3f), not(0x1f))\n      dup3\n      add\n      0x40\n      mstore\n      returndatasize\n      dup3\n      mstore\n      returndatasize\n      0x00\n      0x20\n      dup5\n      add\n      returndatacopy\n      jump(tag_269)\n    tag_270:\n      0x60\n      swap2\n      pop\n    tag_269:\n      pop\n        /* \"contract.sol\":3238:3301  (bool transfer,) = payable(msg.sender).call{value: balance}(\"\") */\n      pop\n      swap1\n      pop\n        /* \"contract.sol\":3322:3330  transfer */\n      dup1\n        /* \"contract.sol\":3314:3331  require(transfer) */\n      tag_271\n      jumpi\n      0x00\n      dup1\n      revert\n    tag_271:\n        /* \"contract.sol\":3177:3339  {... */\n      pop\n      pop\n        /* \"contract.sol\":3125:3339  function withdrawAll() external payable onlyCreator {... */\n      jump\t// out\n        /* \"Ownable.sol\":1236:1323   */\n    tag_123:\n        /* \"Ownable.sol\":1282:1289   */\n      0x00\n        /* \"Ownable.sol\":1309:1315   */\n      0x07\n      0x00\n      swap1\n      sload\n      swap1\n      0x0100\n      exp\n      swap1\n      div\n      0xffffffffffffffffffffffffffffffffffffffff\n      and\n        /* \"Ownable.sol\":1302:1315   */\n      swap1\n      pop\n        /* \"Ownable.sol\":1236:1323   */\n      swap1\n      jump\t// out\n        /* \"contract.sol\":923:953  uint256 public MAX_MINT_PER_TX */\n    tag_127:\n      sload(0x0c)\n      dup2\n      jump\t// out\n        /* \"contract.sol\":1001:1022  string public NFTName */\n    tag_131:\n      0x0e\n      dup1\n      sload\n      tag_273\n      swap1\n      tag_198\n      jump\t// in\n    tag_273:\n      dup1\n      0x1f\n      add\n      0x20\n      dup1\n      swap2\n      div\n      mul\n      0x20\n      add\n      mload(0x40)\n      swap1\n      dup2\n      add\n      0x40\n      mstore\n      dup1\n      swap3\n      swap2\n      swap1\n      dup2\n      dup2\n      mstore\n      0x20\n      add\n      dup3\n      dup1\n      sload\n      tag_274\n      swap1\n      tag_198\n      jump\t// in\n    tag_274:\n      dup1\n      iszero\n      tag_275\n      jumpi\n      dup1\n      0x1f\n      lt\n      tag_276\n      jumpi\n      0x0100\n      dup1\n      dup4\n      sload\n      div\n      mul\n      dup4\n      mstore\n      swap2\n      0x20\n      add\n      swap2\n      jump(tag_275)\n    tag_276:\n      dup3\n      add\n      swap2\n      swap1\n      0x00\n      mstore\n      keccak256(0x00, 0x20)\n      swap1\n    tag_277:\n      dup2\n      sload\n      dup2\n      mstore\n      swap1\n      0x01\n      add\n      swap1\n      0x20\n      add\n      dup1\n      dup4\n      gt\n      tag_277\n      jumpi\n      dup3\n      swap1\n      sub\n      0x1f\n      and\n      dup3\n      add\n      swap2\n    tag_275:\n      pop\n      pop\n      pop\n      pop\n      pop\n      dup2\n      jump\t// out\n        /* \"ERC721.sol\":2641:2745   */\n    tag_135:\n        /* \"ERC721.sol\":2697:2710   */\n      0x60\n        /* \"ERC721.sol\":2730:2737   */\n      0x01\n        /* \"ERC721.sol\":2723:2737   */\n      dup1\n      sload\n      tag_279\n      swap1\n      tag_198\n      jump\t// in\n    tag_279:\n      dup1\n      0x1f\n      add\n      0x20\n      dup1\n      swap2\n      div\n      mul\n      0x20\n      add\n      mload(0x40)\n      swap1\n      dup2\n      add\n      0x40\n      mstore\n      dup1\n      swap3\n      swap2\n      swap1\n      dup2\n      dup2\n      mstore\n      0x20\n      add\n      dup3\n      dup1\n      sload\n      tag_280\n      swap1\n      tag_198\n      jump\t// in\n    tag_280:\n      dup1\n      iszero\n      tag_281\n      jumpi\n      dup1\n      0x1f\n      lt\n      tag_282\n      jumpi\n      0x0100\n      dup1\n      dup4\n      sload\n      div\n      mul\n      dup4\n      mstore\n      swap2\n      0x20\n      add\n      swap2\n      jump(tag_281)\n    tag_282:\n      dup3\n      add\n      swap2\n      swap1\n      0x00\n      mstore\n      keccak256(0x00, 0x20)\n      swap1\n    tag_283:\n      dup2\n      sload\n      dup2\n      mstore\n      swap1\n      0x01\n      add\n      swap1\n      0x20\n      add\n      dup1\n      dup4\n      gt\n      tag_283\n      jumpi\n      dup3\n      swap1\n      sub\n      0x1f\n      and\n      dup3\n      add\n      swap2\n    tag_281:\n      pop\n      pop\n      pop\n      pop\n      pop\n      swap1\n      pop\n        /* \"ERC721.sol\":2641:2745   */\n      swap1\n      jump\t// out\n        /* \"contract.sol\":896:916  uint256 public price */\n    tag_139:\n      sload(0x0b)\n      dup2\n      jump\t// out\n        /* \"contract.sol\":2049:2782  function mint(uint256 _numTokens) external payable {... */\n    tag_143:\n        /* \"contract.sol\":2119:2131  isSaleActive */\n      0x10\n      0x00\n      swap1\n      sload\n      swap1\n      0x0100\n      exp\n      swap1\n      div\n      0xff\n      and\n        /* \"contract.sol\":2111:2142  require(isSaleActive, \"Paused\") */\n      tag_285\n      jumpi\n      mload(0x40)\n      0x08c379a000000000000000000000000000000000000000000000000000000000\n      dup2\n      mstore\n      0x04\n      add\n      tag_286\n      swap1\n      tag_287\n      jump\t// in\n    tag_286:\n      mload(0x40)\n      dup1\n      swap2\n      sub\n      swap1\n      revert\n    tag_285:\n        /* \"contract.sol\":2175:2190  MAX_MINT_PER_TX */\n      sload(0x0c)\n        /* \"contract.sol\":2161:2171  _numTokens */\n      dup2\n        /* \"contract.sol\":2161:2190  _numTokens <= MAX_MINT_PER_TX */\n      gt\n      iszero\n        /* \"contract.sol\":2153:2203  require(_numTokens <= MAX_MINT_PER_TX, \"Bad amnt\") */\n      tag_288\n      jumpi\n      mload(0x40)\n      0x08c379a000000000000000000000000000000000000000000000000000000000\n      dup2\n      mstore\n      0x04\n      add\n      tag_289\n      swap1\n      tag_290\n      jump\t// in\n    tag_289:\n      mload(0x40)\n      dup1\n      swap2\n      sub\n      swap1\n      revert\n    tag_288:\n        /* \"contract.sol\":2266:2285  MAX_MINT_PER_WALLET */\n      sload(0x0d)\n        /* \"contract.sol\":2252:2262  _numTokens */\n      dup2\n        /* \"contract.sol\":2222:2237  mintedPerWallet */\n      0x12\n        /* \"contract.sol\":2222:2249  mintedPerWallet[msg.sender] */\n      0x00\n        /* \"contract.sol\":2238:2248  msg.sender */\n      caller\n        /* \"contract.sol\":2222:2249  mintedPerWallet[msg.sender] */\n      0xffffffffffffffffffffffffffffffffffffffff\n      and\n      0xffffffffffffffffffffffffffffffffffffffff\n      and\n      dup2\n      mstore\n      0x20\n      add\n      swap1\n      dup2\n      mstore\n      0x20\n      add\n      0x00\n      keccak256\n      sload\n        /* \"contract.sol\":2222:2262  mintedPerWallet[msg.sender] + _numTokens */\n      tag_291\n      swap2\n      swap1\n      tag_292\n      jump\t// in\n    tag_291:\n        /* \"contract.sol\":2222:2285  mintedPerWallet[msg.sender] + _numTokens <= MAX_MINT_PER_WALLET */\n      gt\n      iszero\n        /* \"contract.sol\":2214:2286  require(mintedPerWallet[msg.sender] + _numTokens <= MAX_MINT_PER_WALLET) */\n      tag_293\n      jumpi\n      0x00\n      dup1\n      revert\n    tag_293:\n        /* \"contract.sol\":2297:2319  uint256 curTotalSupply */\n      0x00\n        /* \"contract.sol\":2322:2333  totalSupply */\n      sload(0x11)\n        /* \"contract.sol\":2297:2333  uint256 curTotalSupply = totalSupply */\n      swap1\n      pop\n        /* \"contract.sol\":2383:2393  MAX_TOKENS */\n      sload(0x09)\n        /* \"contract.sol\":2369:2379  _numTokens */\n      dup3\n        /* \"contract.sol\":2352:2366  curTotalSupply */\n      dup3\n        /* \"contract.sol\":2352:2379  curTotalSupply + _numTokens */\n      tag_294\n      swap2\n      swap1\n      tag_292\n      jump\t// in\n    tag_294:\n        /* \"contract.sol\":2352:2393  curTotalSupply + _numTokens <= MAX_TOKENS */\n      gt\n      iszero\n        /* \"contract.sol\":2344:2394  require(curTotalSupply + _numTokens <= MAX_TOKENS) */\n      tag_295\n      jumpi\n      0x00\n      dup1\n      revert\n    tag_295:\n        /* \"contract.sol\":2435:2444  msg.value */\n      callvalue\n        /* \"contract.sol\":2426:2431  price */\n      sload(0x0b)\n        /* \"contract.sol\":2413:2423  _numTokens */\n      dup4\n        /* \"contract.sol\":2413:2431  _numTokens * price */\n      tag_296\n      swap2\n      swap1\n      tag_297\n      jump\t// in\n    tag_296:\n        /* \"contract.sol\":2413:2444  _numTokens * price <= msg.value */\n      gt\n      iszero\n        /* \"contract.sol\":2405:2459  require(_numTokens * price <= msg.value, \"No balance\") */\n      tag_298\n      jumpi\n      mload(0x40)\n      0x08c379a000000000000000000000000000000000000000000000000000000000\n      dup2\n      mstore\n      0x04\n      add\n      tag_299\n      swap1\n      tag_300\n      jump\t// in\n    tag_299:\n      mload(0x40)\n      dup1\n      swap2\n      sub\n      swap1\n      revert\n    tag_298:\n        /* \"contract.sol\":2477:2486  uint256 i */\n      0x00\n        /* \"contract.sol\":2489:2490  1 */\n      0x01\n        /* \"contract.sol\":2477:2490  uint256 i = 1 */\n      swap1\n      pop\n        /* \"contract.sol\":2472:2687  for (uint256 i = 1; i<=_numTokens; ++i) {... */\n    tag_301:\n        /* \"contract.sol\":2495:2505  _numTokens */\n      dup3\n        /* \"contract.sol\":2492:2493  i */\n      dup2\n        /* \"contract.sol\":2492:2505  i<=_numTokens */\n      gt\n        /* \"contract.sol\":2472:2687  for (uint256 i = 1; i<=_numTokens; ++i) {... */\n      tag_302\n      jumpi\n        /* \"contract.sol\":2527:2545  uint256 newTokenID */\n      0x00\n        /* \"contract.sol\":2565:2566  i */\n      dup2\n        /* \"contract.sol\":2548:2562  curTotalSupply */\n      dup4\n        /* \"contract.sol\":2548:2566  curTotalSupply + i */\n      tag_304\n      swap2\n      swap1\n      tag_292\n      jump\t// in\n    tag_304:\n        /* \"contract.sol\":2527:2566  uint256 newTokenID = curTotalSupply + i */\n      swap1\n      pop\n        /* \"contract.sol\":2581:2614  _safeMint(msg.sender, newTokenID) */\n      tag_305\n        /* \"contract.sol\":2591:2601  msg.sender */\n      caller\n        /* \"contract.sol\":2603:2613  newTokenID */\n      dup3\n        /* \"contract.sol\":2581:2590  _safeMint */\n      tag_306\n        /* \"contract.sol\":2581:2614  _safeMint(msg.sender, newTokenID) */\n      jump\t// in\n    tag_305:\n        /* \"contract.sol\":2629:2675  _setTokenURI(newTokenID, tokenURI(newTokenID)) */\n      tag_307\n        /* \"contract.sol\":2642:2652  newTokenID */\n      dup2\n        /* \"contract.sol\":2654:2674  tokenURI(newTokenID) */\n      tag_308\n        /* \"contract.sol\":2663:2673  newTokenID */\n      dup4\n        /* \"contract.sol\":2654:2662  tokenURI */\n      tag_169\n        /* \"contract.sol\":2654:2674  tokenURI(newTokenID) */\n      jump\t// in\n    tag_308:\n        /* \"contract.sol\":2629:2641  _setTokenURI */\n      tag_309\n        /* \"contract.sol\":2629:2675  _setTokenURI(newTokenID, tokenURI(newTokenID)) */\n      jump\t// in\n    tag_307:\n        /* \"contract.sol\":2512:2687  {... */\n      pop\n        /* \"contract.sol\":2507:2510  ++i */\n      dup1\n      tag_310\n      swap1\n      tag_311\n      jump\t// in\n    tag_310:\n      swap1\n      pop\n        /* \"contract.sol\":2472:2687  for (uint256 i = 1; i<=_numTokens; ++i) {... */\n      jump(tag_301)\n    tag_302:\n      pop\n        /* \"contract.sol\":2728:2738  _numTokens */\n      dup2\n        /* \"contract.sol\":2697:2712  mintedPerWallet */\n      0x12\n        /* \"contract.sol\":2697:2724  mintedPerWallet[msg.sender] */\n      0x00\n        /* \"contract.sol\":2713:2723  msg.sender */\n      caller\n        /* \"contract.sol\":2697:2724  mintedPerWallet[msg.sender] */\n      0xffffffffffffffffffffffffffffffffffffffff\n      and\n      0xffffffffffffffffffffffffffffffffffffffff\n      and\n      dup2\n      mstore\n      0x20\n      add\n      swap1\n      dup2\n      mstore\n      0x20\n      add\n      0x00\n      keccak256\n      0x00\n        /* \"contract.sol\":2697:2738  mintedPerWallet[msg.sender] += _numTokens */\n      dup3\n      dup3\n      sload\n      tag_312\n      swap2\n      swap1\n      tag_292\n      jump\t// in\n    tag_312:\n      swap3\n      pop\n      pop\n      dup2\n      swap1\n      sstore\n      pop\n        /* \"contract.sol\":2764:2774  _numTokens */\n      dup2\n        /* \"contract.sol\":2749:2760  totalSupply */\n      0x11\n      0x00\n        /* \"contract.sol\":2749:2774  totalSupply += _numTokens */\n      dup3\n      dup3\n      sload\n      tag_313\n      swap2\n      swap1\n      tag_292\n      jump\t// in\n    tag_313:\n      swap3\n      pop\n      pop\n      dup2\n      swap1\n      sstore\n      pop\n        /* \"contract.sol\":2100:2782  {... */\n      pop\n        /* \"contract.sol\":2049:2782  function mint(uint256 _numTokens) external payable {... */\n      pop\n      jump\t// out\n        /* \"ERC721.sol\":4227:4382   */\n    tag_148:\n        /* \"ERC721.sol\":4322:4374   */\n      tag_315\n        /* \"ERC721.sol\":4341:4353   */\n      tag_316\n        /* \"ERC721.sol\":4341:4351   */\n      tag_212\n        /* \"ERC721.sol\":4341:4353   */\n      jump\t// in\n    tag_316:\n        /* \"ERC721.sol\":4355:4363   */\n      dup4\n        /* \"ERC721.sol\":4365:4373   */\n      dup4\n        /* \"ERC721.sol\":4322:4340   */\n      tag_317\n        /* \"ERC721.sol\":4322:4374   */\n      jump\t// in\n    tag_315:\n        /* \"ERC721.sol\":4227:4382   */\n      pop\n      pop\n      jump\t// out\n        /* \"contract.sol\":1029:1052  string public NFTSymbol */\n    tag_151:\n      0x0f\n      dup1\n      sload\n      tag_318\n      swap1\n      tag_198\n      jump\t// in\n    tag_318:\n      dup1\n      0x1f\n      add\n      0x20\n      dup1\n      swap2\n      div\n      mul\n      0x20\n      add\n      mload(0x40)\n      swap1\n      dup2\n      add\n      0x40\n      mstore\n      dup1\n      swap3\n      swap2\n      swap1\n      dup2\n      dup2\n      mstore\n      0x20\n      add\n      dup3\n      dup1\n      sload\n      tag_319\n      swap1\n      tag_198\n      jump\t// in\n    tag_319:\n      dup1\n      iszero\n      tag_320\n      jumpi\n      dup1\n      0x1f\n      lt\n      tag_321\n      jumpi\n      0x0100\n      dup1\n      dup4\n      sload\n      div\n      mul\n      dup4\n      mstore\n      swap2\n      0x20\n      add\n      swap2\n      jump(tag_320)\n    tag_321:\n      dup3\n      add\n      swap2\n      swap1\n      0x00\n      mstore\n      keccak256(0x00, 0x20)\n      swap1\n    tag_322:\n      dup2\n      sload\n      dup2\n      mstore\n      swap1\n      0x01\n      add\n      swap1\n      0x20\n      add\n      dup1\n      dup4\n      gt\n      tag_322\n      jumpi\n      dup3\n      swap1\n      sub\n      0x1f\n      and\n      dup3\n      add\n      swap2\n    tag_320:\n      pop\n      pop\n      pop\n      pop\n      pop\n      dup2\n      jump\t// out\n        /* \"contract.sol\":960:994  uint256 public MAX_MINT_PER_WALLET */\n    tag_155:\n      sload(0x0d)\n      dup2\n      jump\t// out\n        /* \"ERC721.sol\":5278:5557   */\n    tag_161:\n        /* \"ERC721.sol\":5409:5450   */\n      tag_324\n        /* \"ERC721.sol\":5428:5440   */\n      tag_325\n        /* \"ERC721.sol\":5428:5438   */\n      tag_212\n        /* \"ERC721.sol\":5428:5440   */\n      jump\t// in\n    tag_325:\n        /* \"ERC721.sol\":5442:5449   */\n      dup4\n        /* \"ERC721.sol\":5409:5427   */\n      tag_224\n        /* \"ERC721.sol\":5409:5450   */\n      jump\t// in\n    tag_324:\n        /* \"ERC721.sol\":5401:5500   */\n      tag_326\n      jumpi\n      mload(0x40)\n      0x08c379a000000000000000000000000000000000000000000000000000000000\n      dup2\n      mstore\n      0x04\n      add\n      tag_327\n      swap1\n      tag_227\n      jump\t// in\n    tag_327:\n      mload(0x40)\n      dup1\n      swap2\n      sub\n      swap1\n      revert\n    tag_326:\n        /* \"ERC721.sol\":5511:5549   */\n      tag_328\n        /* \"ERC721.sol\":5525:5529   */\n      dup5\n        /* \"ERC721.sol\":5531:5533   */\n      dup5\n        /* \"ERC721.sol\":5535:5542   */\n      dup5\n        /* \"ERC721.sol\":5544:5548   */\n      dup5\n        /* \"ERC721.sol\":5511:5524   */\n      tag_329\n        /* \"ERC721.sol\":5511:5549   */\n      jump\t// in\n    tag_328:\n        /* \"ERC721.sol\":5278:5557   */\n      pop\n      pop\n      pop\n      pop\n      jump\t// out\n        /* \"contract.sol\":1216:1253  string public baseExtension = \".json\" */\n    tag_164:\n      0x14\n      dup1\n      sload\n      tag_330\n      swap1\n      tag_198\n      jump\t// in\n    tag_330:\n      dup1\n      0x1f\n      add\n      0x20\n      dup1\n      swap2\n      div\n      mul\n      0x20\n      add\n      mload(0x40)\n      swap1\n      dup2\n      add\n      0x40\n      mstore\n      dup1\n      swap3\n      swap2\n      swap1\n      dup2\n      dup2\n      mstore\n      0x20\n      add\n      dup3\n      dup1\n      sload\n      tag_331\n      swap1\n      tag_198\n      jump\t// in\n    tag_331:\n      dup1\n      iszero\n      tag_332\n      jumpi\n      dup1\n      0x1f\n      lt\n      tag_333\n      jumpi\n      0x0100\n      dup1\n      dup4\n      sload\n      div\n      mul\n      dup4\n      mstore\n      swap2\n      0x20\n      add\n      swap2\n      jump(tag_332)\n    tag_333:\n      dup3\n      add\n      swap2\n      swap1\n      0x00\n      mstore\n      keccak256(0x00, 0x20)\n      swap1\n    tag_334:\n      dup2\n      sload\n      dup2\n      mstore\n      swap1\n      0x01\n      add\n      swap1\n      0x20\n      add\n      dup1\n      dup4\n      gt\n      tag_334\n      jumpi\n      dup3\n      swap1\n      sub\n      0x1f\n      and\n      dup3\n      add\n      swap2\n    tag_332:\n      pop\n      pop\n      pop\n      pop\n      pop\n      dup2\n      jump\t// out\n        /* \"contract.sol\":3347:3738  function tokenURI(uint256 tokenId) public view virtual override returns (string memory) {... */\n    tag_169:\n        /* \"contract.sol\":3420:3433  string memory */\n      0x60\n        /* \"contract.sol\":3468:3484  _exists(tokenId) */\n      tag_336\n        /* \"contract.sol\":3476:3483  tokenId */\n      dup3\n        /* \"contract.sol\":3468:3475  _exists */\n      tag_337\n        /* \"contract.sol\":3468:3484  _exists(tokenId) */\n      jump\t// in\n    tag_336:\n        /* \"contract.sol\":3446:3520  require(... */\n      tag_338\n      jumpi\n      mload(0x40)\n      0x08c379a000000000000000000000000000000000000000000000000000000000\n      dup2\n      mstore\n      0x04\n      add\n      tag_339\n      swap1\n      tag_340\n      jump\t// in\n    tag_339:\n      mload(0x40)\n      dup1\n      swap2\n      sub\n      swap1\n      revert\n    tag_338:\n        /* \"contract.sol\":3533:3561  string memory currentBaseURI */\n      0x00\n        /* \"contract.sol\":3564:3574  _baseURI() */\n      tag_341\n        /* \"contract.sol\":3564:3572  _baseURI */\n      tag_342\n        /* \"contract.sol\":3564:3574  _baseURI() */\n      jump\t// in\n    tag_341:\n        /* \"contract.sol\":3533:3574  string memory currentBaseURI = _baseURI() */\n      swap1\n      pop\n        /* \"contract.sol\":3623:3624  0 */\n      0x00\n        /* \"contract.sol\":3598:3612  currentBaseURI */\n      dup2\n        /* \"contract.sol\":3592:3620  bytes(currentBaseURI).length */\n      mload\n        /* \"contract.sol\":3592:3624  bytes(currentBaseURI).length > 0 */\n      gt\n        /* \"contract.sol\":3592:3728  bytes(currentBaseURI).length > 0... */\n      tag_343\n      jumpi\n      mload(0x40)\n      dup1\n      0x20\n      add\n      0x40\n      mstore\n      dup1\n      0x00\n      dup2\n      mstore\n      pop\n      jump(tag_344)\n    tag_343:\n        /* \"contract.sol\":3663:3677  currentBaseURI */\n      dup1\n        /* \"contract.sol\":3679:3697  tokenId.toString() */\n      tag_345\n        /* \"contract.sol\":3679:3686  tokenId */\n      dup5\n        /* \"contract.sol\":3679:3695  tokenId.toString */\n      tag_346\n        /* \"contract.sol\":3679:3697  tokenId.toString() */\n      jump\t// in\n    tag_345:\n        /* \"contract.sol\":3699:3712  baseExtension */\n      0x14\n        /* \"contract.sol\":3646:3713  abi.encodePacked(currentBaseURI, tokenId.toString(), baseExtension) */\n      add(0x20, mload(0x40))\n      tag_347\n      swap4\n      swap3\n      swap2\n      swap1\n      tag_348\n      jump\t// in\n    tag_347:\n      mload(0x40)\n      0x20\n      dup2\n      dup4\n      sub\n      sub\n      dup2\n      mstore\n      swap1\n      0x40\n      mstore\n        /* \"contract.sol\":3592:3728  bytes(currentBaseURI).length > 0... */\n    tag_344:\n        /* \"contract.sol\":3585:3728  return bytes(currentBaseURI).length > 0... */\n      swap2\n      pop\n      pop\n        /* \"contract.sol\":3347:3738  function tokenURI(uint256 tokenId) public view virtual override returns (string memory) {... */\n      swap2\n      swap1\n      pop\n      jump\t// out\n        /* \"contract.sol\":3863:4262  function getSaleInfo() public view returns (address, uint256, uint256, uint256, uint256, string memory, string memory, string memory, bool, uint256 ) {... */\n    tag_173:\n        /* \"contract.sol\":3907:3914  address */\n      0x00\n        /* \"contract.sol\":3916:3923  uint256 */\n      dup1\n        /* \"contract.sol\":3925:3932  uint256 */\n      0x00\n        /* \"contract.sol\":3934:3941  uint256 */\n      dup1\n        /* \"contract.sol\":3943:3950  uint256 */\n      0x00\n        /* \"contract.sol\":3952:3965  string memory */\n      0x60\n        /* \"contract.sol\":3967:3980  string memory */\n      dup1\n        /* \"contract.sol\":3982:3995  string memory */\n      0x60\n        /* \"contract.sol\":3997:4001  bool */\n      0x00\n        /* \"contract.sol\":4003:4010  uint256 */\n      dup1\n        /* \"contract.sol\":4042:4049  Creator */\n      0x08\n      0x00\n      swap1\n      sload\n      swap1\n      0x0100\n      exp\n      swap1\n      div\n      0xffffffffffffffffffffffffffffffffffffffff\n      and\n        /* \"contract.sol\":4060:4070  MAX_TOKENS */\n      sload(0x09)\n        /* \"contract.sol\":4081:4086  price */\n      sload(0x0b)\n        /* \"contract.sol\":4097:4112  MAX_MINT_PER_TX */\n      sload(0x0c)\n        /* \"contract.sol\":4123:4142  MAX_MINT_PER_WALLET */\n      sload(0x0d)\n        /* \"contract.sol\":4153:4160  NFTName */\n      0x0e\n        /* \"contract.sol\":4171:4180  NFTSymbol */\n      0x0f\n        /* \"contract.sol\":4191:4198  baseURI */\n      0x13\n        /* \"contract.sol\":4209:4221  isSaleActive */\n      0x10\n      0x00\n      swap1\n      sload\n      swap1\n      0x0100\n      exp\n      swap1\n      div\n      0xff\n      and\n        /* \"contract.sol\":4232:4243  totalSupply */\n      sload(0x11)\n        /* \"contract.sol\":4024:4254  return (... */\n      dup5\n      dup1\n      sload\n      tag_350\n      swap1\n      tag_198\n      jump\t// in\n    tag_350:\n      dup1\n      0x1f\n      add\n      0x20\n      dup1\n      swap2\n      div\n      mul\n      0x20\n      add\n      mload(0x40)\n      swap1\n      dup2\n      add\n      0x40\n      mstore\n      dup1\n      swap3\n      swap2\n      swap1\n      dup2\n      dup2\n      mstore\n      0x20\n      add\n      dup3\n      dup1\n      sload\n      tag_351\n      swap1\n      tag_198\n      jump\t// in\n    tag_351:\n      dup1\n      iszero\n      tag_352\n      jumpi\n      dup1\n      0x1f\n      lt\n      tag_353\n      jumpi\n      0x0100\n      dup1\n      dup4\n      sload\n      div\n      mul\n      dup4\n      mstore\n      swap2\n      0x20\n      add\n      swap2\n      jump(tag_352)\n    tag_353:\n      dup3\n      add\n      swap2\n      swap1\n      0x00\n      mstore\n      keccak256(0x00, 0x20)\n      swap1\n    tag_354:\n      dup2\n      sload\n      dup2\n      mstore\n      swap1\n      0x01\n      add\n      swap1\n      0x20\n      add\n      dup1\n      dup4\n      gt\n      tag_354\n      jumpi\n      dup3\n      swap1\n      sub\n      0x1f\n      and\n      dup3\n      add\n      swap2\n    tag_352:\n      pop\n      pop\n      pop\n      pop\n      pop\n      swap5\n      pop\n      dup4\n      dup1\n      sload\n      tag_355\n      swap1\n      tag_198\n      jump\t// in\n    tag_355:\n      dup1\n      0x1f\n      add\n      0x20\n      dup1\n      swap2\n      div\n      mul\n      0x20\n      add\n      mload(0x40)\n      swap1\n      dup2\n      add\n      0x40\n      mstore\n      dup1\n      swap3\n      swap2\n      swap1\n      dup2\n      dup2\n      mstore\n      0x20\n      add\n      dup3\n      dup1\n      sload\n      tag_356\n      swap1\n      tag_198\n      jump\t// in\n    tag_356:\n      dup1\n      iszero\n      tag_357\n      jumpi\n      dup1\n      0x1f\n      lt\n      tag_358\n      jumpi\n      0x0100\n      dup1\n      dup4\n      sload\n      div\n      mul\n      dup4\n      mstore\n      swap2\n      0x20\n      add\n      swap2\n      jump(tag_357)\n    tag_358:\n      dup3\n      add\n      swap2\n      swap1\n      0x00\n      mstore\n      keccak256(0x00, 0x20)\n      swap1\n    tag_359:\n      dup2\n      sload\n      dup2\n      mstore\n      swap1\n      0x01\n      add\n      swap1\n      0x20\n      add\n      dup1\n      dup4\n      gt\n      tag_359\n      jumpi\n      dup3\n      swap1\n      sub\n      0x1f\n      and\n      dup3\n      add\n      swap2\n    tag_357:\n      pop\n      pop\n      pop\n      pop\n      pop\n      swap4\n      pop\n      dup3\n      dup1\n      sload\n      tag_360\n      swap1\n      tag_198\n      jump\t// in\n    tag_360:\n      dup1\n      0x1f\n      add\n      0x20\n      dup1\n      swap2\n      div\n      mul\n      0x20\n      add\n      mload(0x40)\n      swap1\n      dup2\n      add\n      0x40\n      mstore\n      dup1\n      swap3\n      swap2\n      swap1\n      dup2\n      dup2\n      mstore\n      0x20\n      add\n      dup3\n      dup1\n      sload\n      tag_361\n      swap1\n      tag_198\n      jump\t// in\n    tag_361:\n      dup1\n      iszero\n      tag_362\n      jumpi\n      dup1\n      0x1f\n      lt\n      tag_363\n      jumpi\n      0x0100\n      dup1\n      dup4\n      sload\n      div\n      mul\n      dup4\n      mstore\n      swap2\n      0x20\n      add\n      swap2\n      jump(tag_362)\n    tag_363:\n      dup3\n      add\n      swap2\n      swap1\n      0x00\n      mstore\n      keccak256(0x00, 0x20)\n      swap1\n    tag_364:\n      dup2\n      sload\n      dup2\n      mstore\n      swap1\n      0x01\n      add\n      swap1\n      0x20\n      add\n      dup1\n      dup4\n      gt\n      tag_364\n      jumpi\n      dup3\n      swap1\n      sub\n      0x1f\n      and\n      dup3\n      add\n      swap2\n    tag_362:\n      pop\n      pop\n      pop\n      pop\n      pop\n      swap3\n      pop\n      swap10\n      pop\n      swap10\n      pop\n      swap10\n      pop\n      swap10\n      pop\n      swap10\n      pop\n      swap10\n      pop\n      swap10\n      pop\n      swap10\n      pop\n      swap10\n      pop\n      swap10\n      pop\n        /* \"contract.sol\":3863:4262  function getSaleInfo() public view returns (address, uint256, uint256, uint256, uint256, string memory, string memory, string memory, bool, uint256 ) {... */\n      swap1\n      swap2\n      swap3\n      swap4\n      swap5\n      swap6\n      swap7\n      swap8\n      swap9\n      swap10\n      jump\t// out\n        /* \"ERC721.sol\":4453:4617   */\n    tag_180:\n        /* \"ERC721.sol\":4550:4554   */\n      0x00\n        /* \"ERC721.sol\":4574:4592   */\n      0x05\n        /* \"ERC721.sol\":4574:4599   */\n      0x00\n        /* \"ERC721.sol\":4593:4598   */\n      dup5\n        /* \"ERC721.sol\":4574:4599   */\n      0xffffffffffffffffffffffffffffffffffffffff\n      and\n      0xffffffffffffffffffffffffffffffffffffffff\n      and\n      dup2\n      mstore\n      0x20\n      add\n      swap1\n      dup2\n      mstore\n      0x20\n      add\n      0x00\n      keccak256\n        /* \"ERC721.sol\":4574:4609   */\n      0x00\n        /* \"ERC721.sol\":4600:4608   */\n      dup4\n        /* \"ERC721.sol\":4574:4609   */\n      0xffffffffffffffffffffffffffffffffffffffff\n      and\n      0xffffffffffffffffffffffffffffffffffffffff\n      and\n      dup2\n      mstore\n      0x20\n      add\n      swap1\n      dup2\n      mstore\n      0x20\n      add\n      0x00\n      keccak256\n      0x00\n      swap1\n      sload\n      swap1\n      0x0100\n      exp\n      swap1\n      div\n      0xff\n      and\n        /* \"ERC721.sol\":4567:4609   */\n      swap1\n      pop\n        /* \"ERC721.sol\":4453:4617   */\n      swap3\n      swap2\n      pop\n      pop\n      jump\t// out\n        /* \"Ownable.sol\":2142:2343   */\n    tag_185:\n        /* \"Ownable.sol\":1122:1135   */\n      tag_367\n        /* \"Ownable.sol\":1122:1133   */\n      tag_259\n        /* \"Ownable.sol\":1122:1135   */\n      jump\t// in\n    tag_367:\n        /* \"Ownable.sol\":2251:2252   */\n      0x00\n        /* \"Ownable.sol\":2231:2253   */\n      0xffffffffffffffffffffffffffffffffffffffff\n      and\n        /* \"Ownable.sol\":2231:2239   */\n      dup2\n        /* \"Ownable.sol\":2231:2253   */\n      0xffffffffffffffffffffffffffffffffffffffff\n      and\n      sub\n        /* \"Ownable.sol\":2223:2296   */\n      tag_369\n      jumpi\n      mload(0x40)\n      0x08c379a000000000000000000000000000000000000000000000000000000000\n      dup2\n      mstore\n      0x04\n      add\n      tag_370\n      swap1\n      tag_371\n      jump\t// in\n    tag_370:\n      mload(0x40)\n      dup1\n      swap2\n      sub\n      swap1\n      revert\n    tag_369:\n        /* \"Ownable.sol\":2307:2335   */\n      tag_372\n        /* \"Ownable.sol\":2326:2334   */\n      dup2\n        /* \"Ownable.sol\":2307:2325   */\n      tag_262\n        /* \"Ownable.sol\":2307:2335   */\n      jump\t// in\n    tag_372:\n        /* \"Ownable.sol\":2142:2343   */\n      pop\n      jump\t// out\n        /* \"contract.sol\":826:851  uint256 public MAX_TOKENS */\n    tag_188:\n      sload(0x09)\n      dup2\n      jump\t// out\n        /* \"Address.sol\":1451:1777   */\n    tag_190:\n        /* \"Address.sol\":1511:1515   */\n      0x00\n        /* \"Address.sol\":1768:1769   */\n      dup1\n        /* \"Address.sol\":1746:1753   */\n      dup3\n        /* \"Address.sol\":1746:1765   */\n      0xffffffffffffffffffffffffffffffffffffffff\n      and\n      extcodesize\n        /* \"Address.sol\":1746:1769   */\n      gt\n        /* \"Address.sol\":1739:1769   */\n      swap1\n      pop\n        /* \"Address.sol\":1451:1777   */\n      swap2\n      swap1\n      pop\n      jump\t// out\n        /* \"ERC165.sol\":854:1011   */\n    tag_195:\n        /* \"ERC165.sol\":939:943   */\n      0x00\n        /* \"ERC165.sol\":978:1003   */\n      0x01ffc9a700000000000000000000000000000000000000000000000000000000\n        /* \"ERC165.sol\":963:1003   */\n      not(0xffffffffffffffffffffffffffffffffffffffffffffffffffffffff)\n      and\n        /* \"ERC165.sol\":963:974   */\n      dup3\n        /* \"ERC165.sol\":963:1003   */\n      not(0xffffffffffffffffffffffffffffffffffffffffffffffffffffffff)\n      and\n      eq\n        /* \"ERC165.sol\":956:1003   */\n      swap1\n      pop\n        /* \"ERC165.sol\":854:1011   */\n      swap2\n      swap1\n      pop\n      jump\t// out\n        /* \"ERC721.sol\":13463:13598   */\n    tag_205:\n        /* \"ERC721.sol\":13545:13561   */\n      tag_376\n        /* \"ERC721.sol\":13553:13560   */\n      dup2\n        /* \"ERC721.sol\":13545:13552   */\n      tag_337\n        /* \"ERC721.sol\":13545:13561   */\n      jump\t// in\n    tag_376:\n        /* \"ERC721.sol\":13537:13590   */\n      tag_377\n      jumpi\n      mload(0x40)\n      0x08c379a000000000000000000000000000000000000000000000000000000000\n      dup2\n      mstore\n      0x04\n      add\n      tag_378\n      swap1\n      tag_247\n      jump\t// in\n    tag_378:\n      mload(0x40)\n      dup1\n      swap2\n      sub\n      swap1\n      revert\n    tag_377:\n        /* \"ERC721.sol\":13463:13598   */\n      pop\n      jump\t// out\n        /* \"Context.sol\":656:754   */\n    tag_212:\n        /* \"Context.sol\":709:716   */\n      0x00\n        /* \"Context.sol\":736:746   */\n      caller\n        /* \"Context.sol\":729:746   */\n      swap1\n      pop\n        /* \"Context.sol\":656:754   */\n      swap1\n      jump\t// out\n        /* \"ERC721.sol\":12776:12950   */\n    tag_220:\n        /* \"ERC721.sol\":12878:12880   */\n      dup2\n        /* \"ERC721.sol\":12851:12866   */\n      0x04\n        /* \"ERC721.sol\":12851:12875   */\n      0x00\n        /* \"ERC721.sol\":12867:12874   */\n      dup4\n        /* \"ERC721.sol\":12851:12875   */\n      dup2\n      mstore\n      0x20\n      add\n      swap1\n      dup2\n      mstore\n      0x20\n      add\n      0x00\n      keccak256\n      0x00\n        /* \"ERC721.sol\":12851:12880   */\n      0x0100\n      exp\n      dup2\n      sload\n      dup2\n      0xffffffffffffffffffffffffffffffffffffffff\n      mul\n      not\n      and\n      swap1\n      dup4\n      0xffffffffffffffffffffffffffffffffffffffff\n      and\n      mul\n      or\n      swap1\n      sstore\n      pop\n        /* \"ERC721.sol\":12934:12941   */\n      dup1\n        /* \"ERC721.sol\":12930:12932   */\n      dup3\n        /* \"ERC721.sol\":12896:12942   */\n      0xffffffffffffffffffffffffffffffffffffffff\n      and\n        /* \"ERC721.sol\":12905:12928   */\n      tag_381\n        /* \"ERC721.sol\":12920:12927   */\n      dup4\n        /* \"ERC721.sol\":12905:12919   */\n      tag_104\n        /* \"ERC721.sol\":12905:12928   */\n      jump\t// in\n    tag_381:\n        /* \"ERC721.sol\":12896:12942   */\n      0xffffffffffffffffffffffffffffffffffffffff\n      and\n      0x8c5be1e5ebec7d5bd14f71427d1e84f3dd0314c0f7b2291e5b200ac8c7c3b925\n      mload(0x40)\n      mload(0x40)\n      dup1\n      swap2\n      sub\n      swap1\n      log4\n        /* \"ERC721.sol\":12776:12950   */\n      pop\n      pop\n      jump\t// out\n        /* \"ERC721.sol\":7547:7811   */\n    tag_224:\n        /* \"ERC721.sol\":7640:7644   */\n      0x00\n        /* \"ERC721.sol\":7657:7670   */\n      dup1\n        /* \"ERC721.sol\":7673:7696   */\n      tag_383\n        /* \"ERC721.sol\":7688:7695   */\n      dup4\n        /* \"ERC721.sol\":7673:7687   */\n      tag_104\n        /* \"ERC721.sol\":7673:7696   */\n      jump\t// in\n    tag_383:\n        /* \"ERC721.sol\":7657:7696   */\n      swap1\n      pop\n        /* \"ERC721.sol\":7726:7731   */\n      dup1\n        /* \"ERC721.sol\":7715:7731   */\n      0xffffffffffffffffffffffffffffffffffffffff\n      and\n        /* \"ERC721.sol\":7715:7722   */\n      dup5\n        /* \"ERC721.sol\":7715:7731   */\n      0xffffffffffffffffffffffffffffffffffffffff\n      and\n      eq\n        /* \"ERC721.sol\":7715:7767   */\n      dup1\n      tag_384\n      jumpi\n      pop\n        /* \"ERC721.sol\":7735:7767   */\n      tag_385\n        /* \"ERC721.sol\":7752:7757   */\n      dup2\n        /* \"ERC721.sol\":7759:7766   */\n      dup6\n        /* \"ERC721.sol\":7735:7751   */\n      tag_180\n        /* \"ERC721.sol\":7735:7767   */\n      jump\t// in\n    tag_385:\n        /* \"ERC721.sol\":7715:7767   */\n    tag_384:\n        /* \"ERC721.sol\":7715:7802   */\n      dup1\n      tag_386\n      jumpi\n      pop\n        /* \"ERC721.sol\":7795:7802   */\n      dup4\n        /* \"ERC721.sol\":7771:7802   */\n      0xffffffffffffffffffffffffffffffffffffffff\n      and\n        /* \"ERC721.sol\":7771:7791   */\n      tag_387\n        /* \"ERC721.sol\":7783:7790   */\n      dup5\n        /* \"ERC721.sol\":7771:7782   */\n      tag_58\n        /* \"ERC721.sol\":7771:7791   */\n      jump\t// in\n    tag_387:\n        /* \"ERC721.sol\":7771:7802   */\n      0xffffffffffffffffffffffffffffffffffffffff\n      and\n      eq\n        /* \"ERC721.sol\":7715:7802   */\n    tag_386:\n        /* \"ERC721.sol\":7707:7803   */\n      swap2\n      pop\n      pop\n        /* \"ERC721.sol\":7547:7811   */\n      swap3\n      swap2\n      pop\n      pop\n      jump\t// out\n        /* \"ERC721.sol\":11464:12657   */\n    tag_229:\n        /* \"ERC721.sol\":11589:11593   */\n      dup3\n        /* \"ERC721.sol\":11562:11593   */\n      0xffffffffffffffffffffffffffffffffffffffff\n      and\n        /* \"ERC721.sol\":11562:11585   */\n      tag_389\n        /* \"ERC721.sol\":11577:11584   */\n      dup3\n        /* \"ERC721.sol\":11562:11576   */\n      tag_104\n        /* \"ERC721.sol\":11562:11585   */\n      jump\t// in\n    tag_389:\n        /* \"ERC721.sol\":11562:11593   */\n      0xffffffffffffffffffffffffffffffffffffffff\n      and\n      eq\n        /* \"ERC721.sol\":11554:11635   */\n      tag_390\n      jumpi\n      mload(0x40)\n      0x08c379a000000000000000000000000000000000000000000000000000000000\n      dup2\n      mstore\n      0x04\n      add\n      tag_391\n      swap1\n      tag_392\n      jump\t// in\n    tag_391:\n      mload(0x40)\n      dup1\n      swap2\n      sub\n      swap1\n      revert\n    tag_390:\n        /* \"ERC721.sol\":11668:11669   */\n      0x00\n        /* \"ERC721.sol\":11654:11670   */\n      0xffffffffffffffffffffffffffffffffffffffff\n      and\n        /* \"ERC721.sol\":11654:11656   */\n      dup3\n        /* \"ERC721.sol\":11654:11670   */\n      0xffffffffffffffffffffffffffffffffffffffff\n      and\n      sub\n        /* \"ERC721.sol\":11646:11711   */\n      tag_393\n      jumpi\n      mload(0x40)\n      0x08c379a000000000000000000000000000000000000000000000000000000000\n      dup2\n      mstore\n      0x04\n      add\n      tag_394\n      swap1\n      tag_395\n      jump\t// in\n    tag_394:\n      mload(0x40)\n      dup1\n      swap2\n      sub\n      swap1\n      revert\n    tag_393:\n        /* \"ERC721.sol\":11724:11766   */\n      tag_396\n        /* \"ERC721.sol\":11745:11749   */\n      dup4\n        /* \"ERC721.sol\":11751:11753   */\n      dup4\n        /* \"ERC721.sol\":11755:11762   */\n      dup4\n        /* \"ERC721.sol\":11764:11765   */\n      0x01\n        /* \"ERC721.sol\":11724:11744   */\n      tag_397\n        /* \"ERC721.sol\":11724:11766   */\n      jump\t// in\n    tag_396:\n        /* \"ERC721.sol\":11896:11900   */\n      dup3\n        /* \"ERC721.sol\":11869:11900   */\n      0xffffffffffffffffffffffffffffffffffffffff\n      and\n        /* \"ERC721.sol\":11869:11892   */\n      tag_398\n        /* \"ERC721.sol\":11884:11891   */\n      dup3\n        /* \"ERC721.sol\":11869:11883   */\n      tag_104\n        /* \"ERC721.sol\":11869:11892   */\n      jump\t// in\n    tag_398:\n        /* \"ERC721.sol\":11869:11900   */\n      0xffffffffffffffffffffffffffffffffffffffff\n      and\n      eq\n        /* \"ERC721.sol\":11861:11942   */\n      tag_399\n      jumpi\n      mload(0x40)\n      0x08c379a000000000000000000000000000000000000000000000000000000000\n      dup2\n      mstore\n      0x04\n      add\n      tag_400\n      swap1\n      tag_392\n      jump\t// in\n    tag_400:\n      mload(0x40)\n      dup1\n      swap2\n      sub\n      swap1\n      revert\n    tag_399:\n        /* \"ERC721.sol\":12014:12029   */\n      0x04\n        /* \"ERC721.sol\":12014:12038   */\n      0x00\n        /* \"ERC721.sol\":12030:12037   */\n      dup3\n        /* \"ERC721.sol\":12014:12038   */\n      dup2\n      mstore\n      0x20\n      add\n      swap1\n      dup2\n      mstore\n      0x20\n      add\n      0x00\n      keccak256\n      0x00\n        /* \"ERC721.sol\":12007:12038   */\n      0x0100\n      exp\n      dup2\n      sload\n      swap1\n      0xffffffffffffffffffffffffffffffffffffffff\n      mul\n      not\n      and\n      swap1\n      sstore\n        /* \"ERC721.sol\":12481:12482   */\n      0x01\n        /* \"ERC721.sol\":12462:12471   */\n      0x03\n        /* \"ERC721.sol\":12462:12477   */\n      0x00\n        /* \"ERC721.sol\":12472:12476   */\n      dup6\n        /* \"ERC721.sol\":12462:12477   */\n      0xffffffffffffffffffffffffffffffffffffffff\n      and\n      0xffffffffffffffffffffffffffffffffffffffff\n      and\n      dup2\n      mstore\n      0x20\n      add\n      swap1\n      dup2\n      mstore\n      0x20\n      add\n      0x00\n      keccak256\n      0x00\n        /* \"ERC721.sol\":12462:12482   */\n      dup3\n      dup3\n      sload\n      sub\n      swap3\n      pop\n      pop\n      dup2\n      swap1\n      sstore\n      pop\n        /* \"ERC721.sol\":12510:12511   */\n      0x01\n        /* \"ERC721.sol\":12493:12502   */\n      0x03\n        /* \"ERC721.sol\":12493:12506   */\n      0x00\n        /* \"ERC721.sol\":12503:12505   */\n      dup5\n        /* \"ERC721.sol\":12493:12506   */\n      0xffffffffffffffffffffffffffffffffffffffff\n      and\n      0xffffffffffffffffffffffffffffffffffffffff\n      and\n      dup2\n      mstore\n      0x20\n      add\n      swap1\n      dup2\n      mstore\n      0x20\n      add\n      0x00\n      keccak256\n      0x00\n        /* \"ERC721.sol\":12493:12511   */\n      dup3\n      dup3\n      sload\n      add\n      swap3\n      pop\n      pop\n      dup2\n      swap1\n      sstore\n      pop\n        /* \"ERC721.sol\":12548:12550   */\n      dup2\n        /* \"ERC721.sol\":12529:12536   */\n      0x02\n        /* \"ERC721.sol\":12529:12545   */\n      0x00\n        /* \"ERC721.sol\":12537:12544   */\n      dup4\n        /* \"ERC721.sol\":12529:12545   */\n      dup2\n      mstore\n      0x20\n      add\n      swap1\n      dup2\n      mstore\n      0x20\n      add\n      0x00\n      keccak256\n      0x00\n        /* \"ERC721.sol\":12529:12550   */\n      0x0100\n      exp\n      dup2\n      sload\n      dup2\n      0xffffffffffffffffffffffffffffffffffffffff\n      mul\n      not\n      and\n      swap1\n      dup4\n      0xffffffffffffffffffffffffffffffffffffffff\n      and\n      mul\n      or\n      swap1\n      sstore\n      pop\n        /* \"ERC721.sol\":12587:12594   */\n      dup1\n        /* \"ERC721.sol\":12583:12585   */\n      dup3\n        /* \"ERC721.sol\":12568:12595   */\n      0xffffffffffffffffffffffffffffffffffffffff\n      and\n        /* \"ERC721.sol\":12577:12581   */\n      dup5\n        /* \"ERC721.sol\":12568:12595   */\n      0xffffffffffffffffffffffffffffffffffffffff\n      and\n      0xddf252ad1be2c89b69c2b068fc378daa952ba7f163c4a11628f55a4df523b3ef\n      mload(0x40)\n      mload(0x40)\n      dup1\n      swap2\n      sub\n      swap1\n      log4\n        /* \"ERC721.sol\":12608:12649   */\n      tag_401\n        /* \"ERC721.sol\":12628:12632   */\n      dup4\n        /* \"ERC721.sol\":12634:12636   */\n      dup4\n        /* \"ERC721.sol\":12638:12645   */\n      dup4\n        /* \"ERC721.sol\":12647:12648   */\n      0x01\n        /* \"ERC721.sol\":12608:12627   */\n      tag_402\n        /* \"ERC721.sol\":12608:12649   */\n      jump\t// in\n    tag_401:\n        /* \"ERC721.sol\":11464:12657   */\n      pop\n      pop\n      pop\n      jump\t// out\n        /* \"ERC721.sol\":6822:6939   */\n    tag_244:\n        /* \"ERC721.sol\":6888:6895   */\n      0x00\n        /* \"ERC721.sol\":6915:6922   */\n      0x02\n        /* \"ERC721.sol\":6915:6931   */\n      0x00\n        /* \"ERC721.sol\":6923:6930   */\n      dup4\n        /* \"ERC721.sol\":6915:6931   */\n      dup2\n      mstore\n      0x20\n      add\n      swap1\n      dup2\n      mstore\n      0x20\n      add\n      0x00\n      keccak256\n      0x00\n      swap1\n      sload\n      swap1\n      0x0100\n      exp\n      swap1\n      div\n      0xffffffffffffffffffffffffffffffffffffffff\n      and\n        /* \"ERC721.sol\":6908:6931   */\n      swap1\n      pop\n        /* \"ERC721.sol\":6822:6939   */\n      swap2\n      swap1\n      pop\n      jump\t// out\n        /* \"Ownable.sol\":1401:1533   */\n    tag_259:\n        /* \"Ownable.sol\":1476:1488   */\n      tag_405\n        /* \"Ownable.sol\":1476:1486   */\n      tag_212\n        /* \"Ownable.sol\":1476:1488   */\n      jump\t// in\n    tag_405:\n        /* \"Ownable.sol\":1465:1488   */\n      0xffffffffffffffffffffffffffffffffffffffff\n      and\n        /* \"Ownable.sol\":1465:1472   */\n      tag_406\n        /* \"Ownable.sol\":1465:1470   */\n      tag_123\n        /* \"Ownable.sol\":1465:1472   */\n      jump\t// in\n    tag_406:\n        /* \"Ownable.sol\":1465:1488   */\n      0xffffffffffffffffffffffffffffffffffffffff\n      and\n      eq\n        /* \"Ownable.sol\":1457:1525   */\n      tag_407\n      jumpi\n      mload(0x40)\n      0x08c379a000000000000000000000000000000000000000000000000000000000\n      dup2\n      mstore\n      0x04\n      add\n      tag_408\n      swap1\n      tag_409\n      jump\t// in\n    tag_408:\n      mload(0x40)\n      dup1\n      swap2\n      sub\n      swap1\n      revert\n    tag_407:\n        /* \"Ownable.sol\":1401:1533   */\n      jump\t// out\n        /* \"Ownable.sol\":2503:2694   */\n    tag_262:\n        /* \"Ownable.sol\":2577:2593   */\n      0x00\n        /* \"Ownable.sol\":2596:2602   */\n      0x07\n      0x00\n      swap1\n      sload\n      swap1\n      0x0100\n      exp\n      swap1\n      div\n      0xffffffffffffffffffffffffffffffffffffffff\n      and\n        /* \"Ownable.sol\":2577:2602   */\n      swap1\n      pop\n        /* \"Ownable.sol\":2622:2630   */\n      dup2\n        /* \"Ownable.sol\":2613:2619   */\n      0x07\n      0x00\n        /* \"Ownable.sol\":2613:2630   */\n      0x0100\n      exp\n      dup2\n      sload\n      dup2\n      0xffffffffffffffffffffffffffffffffffffffff\n      mul\n      not\n      and\n      swap1\n      dup4\n      0xffffffffffffffffffffffffffffffffffffffff\n      and\n      mul\n      or\n      swap1\n      sstore\n      pop\n        /* \"Ownable.sol\":2677:2685   */\n      dup2\n        /* \"Ownable.sol\":2646:2686   */\n      0xffffffffffffffffffffffffffffffffffffffff\n      and\n        /* \"Ownable.sol\":2667:2675   */\n      dup2\n        /* \"Ownable.sol\":2646:2686   */\n      0xffffffffffffffffffffffffffffffffffffffff\n      and\n      0x8be0079c531659141344cd1fd0a4f28419497f9722a3daafe3b4186f6b6457e0\n      mload(0x40)\n      mload(0x40)\n      dup1\n      swap2\n      sub\n      swap1\n      log3\n        /* \"Ownable.sol\":2566:2694   */\n      pop\n        /* \"Ownable.sol\":2503:2694   */\n      pop\n      jump\t// out\n        /* \"ERC721.sol\":8153:8263   */\n    tag_306:\n        /* \"ERC721.sol\":8229:8255   */\n      tag_412\n        /* \"ERC721.sol\":8239:8241   */\n      dup3\n        /* \"ERC721.sol\":8243:8250   */\n      dup3\n        /* \"ERC721.sol\":8229:8255   */\n      mload(0x40)\n      dup1\n      0x20\n      add\n      0x40\n      mstore\n      dup1\n      0x00\n      dup2\n      mstore\n      pop\n        /* \"ERC721.sol\":8229:8238   */\n      tag_413\n        /* \"ERC721.sol\":8229:8255   */\n      jump\t// in\n    tag_412:\n        /* \"ERC721.sol\":8153:8263   */\n      pop\n      pop\n      jump\t// out\n        /* \"ERC721URIStorage.sol\":1280:1497   */\n    tag_309:\n        /* \"ERC721URIStorage.sol\":1380:1396   */\n      tag_415\n        /* \"ERC721URIStorage.sol\":1388:1395   */\n      dup3\n        /* \"ERC721URIStorage.sol\":1380:1387   */\n      tag_337\n        /* \"ERC721URIStorage.sol\":1380:1396   */\n      jump\t// in\n    tag_415:\n        /* \"ERC721URIStorage.sol\":1372:1447   */\n      tag_416\n      jumpi\n      mload(0x40)\n      0x08c379a000000000000000000000000000000000000000000000000000000000\n      dup2\n      mstore\n      0x04\n      add\n      tag_417\n      swap1\n      tag_418\n      jump\t// in\n    tag_417:\n      mload(0x40)\n      dup1\n      swap2\n      sub\n      swap1\n      revert\n    tag_416:\n        /* \"ERC721URIStorage.sol\":1480:1489   */\n      dup1\n        /* \"ERC721URIStorage.sol\":1458:1468   */\n      0x06\n        /* \"ERC721URIStorage.sol\":1458:1477   */\n      0x00\n        /* \"ERC721URIStorage.sol\":1469:1476   */\n      dup5\n        /* \"ERC721URIStorage.sol\":1458:1477   */\n      dup2\n      mstore\n      0x20\n      add\n      swap1\n      dup2\n      mstore\n      0x20\n      add\n      0x00\n      keccak256\n        /* \"ERC721URIStorage.sol\":1458:1489   */\n      swap1\n      dup2\n      tag_419\n      swap2\n      swap1\n      tag_241\n      jump\t// in\n    tag_419:\n      pop\n        /* \"ERC721URIStorage.sol\":1280:1497   */\n      pop\n      pop\n      jump\t// out\n        /* \"ERC721.sol\":13093:13374   */\n    tag_317:\n        /* \"ERC721.sol\":13214:13222   */\n      dup2\n        /* \"ERC721.sol\":13205:13222   */\n      0xffffffffffffffffffffffffffffffffffffffff\n      and\n        /* \"ERC721.sol\":13205:13210   */\n      dup4\n        /* \"ERC721.sol\":13205:13222   */\n      0xffffffffffffffffffffffffffffffffffffffff\n      and\n      sub\n        /* \"ERC721.sol\":13197:13252   */\n      tag_421\n      jumpi\n      mload(0x40)\n      0x08c379a000000000000000000000000000000000000000000000000000000000\n      dup2\n      mstore\n      0x04\n      add\n      tag_422\n      swap1\n      tag_423\n      jump\t// in\n    tag_422:\n      mload(0x40)\n      dup1\n      swap2\n      sub\n      swap1\n      revert\n    tag_421:\n        /* \"ERC721.sol\":13301:13309   */\n      dup1\n        /* \"ERC721.sol\":13263:13281   */\n      0x05\n        /* \"ERC721.sol\":13263:13288   */\n      0x00\n        /* \"ERC721.sol\":13282:13287   */\n      dup6\n        /* \"ERC721.sol\":13263:13288   */\n      0xffffffffffffffffffffffffffffffffffffffff\n      and\n      0xffffffffffffffffffffffffffffffffffffffff\n      and\n      dup2\n      mstore\n      0x20\n      add\n      swap1\n      dup2\n      mstore\n      0x20\n      add\n      0x00\n      keccak256\n        /* \"ERC721.sol\":13263:13298   */\n      0x00\n        /* \"ERC721.sol\":13289:13297   */\n      dup5\n        /* \"ERC721.sol\":13263:13298   */\n      0xffffffffffffffffffffffffffffffffffffffff\n      and\n      0xffffffffffffffffffffffffffffffffffffffff\n      and\n      dup2\n      mstore\n      0x20\n      add\n      swap1\n      dup2\n      mstore\n      0x20\n      add\n      0x00\n      keccak256\n      0x00\n        /* \"ERC721.sol\":13263:13309   */\n      0x0100\n      exp\n      dup2\n      sload\n      dup2\n      0xff\n      mul\n      not\n      and\n      swap1\n      dup4\n      iszero\n      iszero\n      mul\n      or\n      swap1\n      sstore\n      pop\n        /* \"ERC721.sol\":13347:13355   */\n      dup2\n        /* \"ERC721.sol\":13325:13366   */\n      0xffffffffffffffffffffffffffffffffffffffff\n      and\n        /* \"ERC721.sol\":13340:13345   */\n      dup4\n        /* \"ERC721.sol\":13325:13366   */\n      0xffffffffffffffffffffffffffffffffffffffff\n      and\n      0x17307eab39ab6107e8899845ad3d59bd9653f200f220920489ca2b5937696c31\n        /* \"ERC721.sol\":13357:13365   */\n      dup4\n        /* \"ERC721.sol\":13325:13366   */\n      mload(0x40)\n      tag_424\n      swap2\n      swap1\n      tag_48\n      jump\t// in\n    tag_424:\n      mload(0x40)\n      dup1\n      swap2\n      sub\n      swap1\n      log3\n        /* \"ERC721.sol\":13093:13374   */\n      pop\n      pop\n      pop\n      jump\t// out\n        /* \"ERC721.sol\":6438:6708   */\n    tag_329:\n        /* \"ERC721.sol\":6551:6579   */\n      tag_426\n        /* \"ERC721.sol\":6561:6565   */\n      dup5\n        /* \"ERC721.sol\":6567:6569   */\n      dup5\n        /* \"ERC721.sol\":6571:6578   */\n      dup5\n        /* \"ERC721.sol\":6551:6560   */\n      tag_229\n        /* \"ERC721.sol\":6551:6579   */\n      jump\t// in\n    tag_426:\n        /* \"ERC721.sol\":6598:6645   */\n      tag_427\n        /* \"ERC721.sol\":6621:6625   */\n      dup5\n        /* \"ERC721.sol\":6627:6629   */\n      dup5\n        /* \"ERC721.sol\":6631:6638   */\n      dup5\n        /* \"ERC721.sol\":6640:6644   */\n      dup5\n        /* \"ERC721.sol\":6598:6620   */\n      tag_428\n        /* \"ERC721.sol\":6598:6645   */\n      jump\t// in\n    tag_427:\n        /* \"ERC721.sol\":6590:6700   */\n      tag_429\n      jumpi\n      mload(0x40)\n      0x08c379a000000000000000000000000000000000000000000000000000000000\n      dup2\n      mstore\n      0x04\n      add\n      tag_430\n      swap1\n      tag_431\n      jump\t// in\n    tag_430:\n      mload(0x40)\n      dup1\n      swap2\n      sub\n      swap1\n      revert\n    tag_429:\n        /* \"ERC721.sol\":6438:6708   */\n      pop\n      pop\n      pop\n      pop\n      jump\t// out\n        /* \"ERC721.sol\":7252:7380   */\n    tag_337:\n        /* \"ERC721.sol\":7317:7321   */\n      0x00\n        /* \"ERC721.sol\":7370:7371   */\n      dup1\n        /* \"ERC721.sol\":7341:7372   */\n      0xffffffffffffffffffffffffffffffffffffffff\n      and\n        /* \"ERC721.sol\":7341:7358   */\n      tag_433\n        /* \"ERC721.sol\":7350:7357   */\n      dup4\n        /* \"ERC721.sol\":7341:7349   */\n      tag_244\n        /* \"ERC721.sol\":7341:7358   */\n      jump\t// in\n    tag_433:\n        /* \"ERC721.sol\":7341:7372   */\n      0xffffffffffffffffffffffffffffffffffffffff\n      and\n      eq\n      iszero\n        /* \"ERC721.sol\":7334:7372   */\n      swap1\n      pop\n        /* \"ERC721.sol\":7252:7380   */\n      swap2\n      swap1\n      pop\n      jump\t// out\n        /* \"contract.sol\":3746:3855  function _baseURI() internal view  virtual override returns (string memory) {... */\n    tag_342:\n        /* \"contract.sol\":3807:3820  string memory */\n      0x60\n        /* \"contract.sol\":3840:3847  baseURI */\n      0x13\n        /* \"contract.sol\":3833:3847  return baseURI */\n      dup1\n      sload\n      tag_435\n      swap1\n      tag_198\n      jump\t// in\n    tag_435:\n      dup1\n      0x1f\n      add\n      0x20\n      dup1\n      swap2\n      div\n      mul\n      0x20\n      add\n      mload(0x40)\n      swap1\n      dup2\n      add\n      0x40\n      mstore\n      dup1\n      swap3\n      swap2\n      swap1\n      dup2\n      dup2\n      mstore\n      0x20\n      add\n      dup3\n      dup1\n      sload\n      tag_436\n      swap1\n      tag_198\n      jump\t// in\n    tag_436:\n      dup1\n      iszero\n      tag_437\n      jumpi\n      dup1\n      0x1f\n      lt\n      tag_438\n      jumpi\n      0x0100\n      dup1\n      dup4\n      sload\n      div\n      mul\n      dup4\n      mstore\n      swap2\n      0x20\n      add\n      swap2\n      jump(tag_437)\n    tag_438:\n      dup3\n      add\n      swap2\n      swap1\n      0x00\n      mstore\n      keccak256(0x00, 0x20)\n      swap1\n    tag_439:\n      dup2\n      sload\n      dup2\n      mstore\n      swap1\n      0x01\n      add\n      swap1\n      0x20\n      add\n      dup1\n      dup4\n      gt\n      tag_439\n      jumpi\n      dup3\n      swap1\n      sub\n      0x1f\n      and\n      dup3\n      add\n      swap2\n    tag_437:\n      pop\n      pop\n      pop\n      pop\n      pop\n      swap1\n      pop\n        /* \"contract.sol\":3746:3855  function _baseURI() internal view  virtual override returns (string memory) {... */\n      swap1\n      jump\t// out\n        /* \"Strings.sol\":455:1095   */\n    tag_346:\n        /* \"Strings.sol\":511:524   */\n      0x60\n        /* \"Strings.sol\":554:568   */\n      0x00\n        /* \"Strings.sol\":591:592   */\n      0x01\n        /* \"Strings.sol\":571:588   */\n      tag_441\n        /* \"Strings.sol\":582:587   */\n      dup5\n        /* \"Strings.sol\":571:581   */\n      tag_442\n        /* \"Strings.sol\":571:588   */\n      jump\t// in\n    tag_441:\n        /* \"Strings.sol\":571:592   */\n      add\n        /* \"Strings.sol\":554:592   */\n      swap1\n      pop\n        /* \"Strings.sol\":603:623   */\n      0x00\n        /* \"Strings.sol\":637:643   */\n      dup2\n        /* \"Strings.sol\":626:644   */\n      0xffffffffffffffff\n      dup2\n      gt\n      iszero\n      tag_443\n      jumpi\n      tag_444\n      tag_445\n      jump\t// in\n    tag_444:\n    tag_443:\n      mload(0x40)\n      swap1\n      dup1\n      dup3\n      mstore\n      dup1\n      0x1f\n      add\n      not(0x1f)\n      and\n      0x20\n      add\n      dup3\n      add\n      0x40\n      mstore\n      dup1\n      iszero\n      tag_446\n      jumpi\n      dup2\n      0x20\n      add\n      0x01\n      dup3\n      mul\n      dup1\n      calldatasize\n      dup4\n      calldatacopy\n      dup1\n      dup3\n      add\n      swap2\n      pop\n      pop\n      swap1\n      pop\n    tag_446:\n      pop\n        /* \"Strings.sol\":603:644   */\n      swap1\n      pop\n        /* \"Strings.sol\":655:666   */\n      0x00\n        /* \"Strings.sol\":772:778   */\n      dup3\n        /* \"Strings.sol\":768:770   */\n      0x20\n        /* \"Strings.sol\":764:779   */\n      add\n        /* \"Strings.sol\":756:762   */\n      dup3\n        /* \"Strings.sol\":752:780   */\n      add\n        /* \"Strings.sol\":745:780   */\n      swap1\n      pop\n        /* \"Strings.sol\":801:1057   */\n    tag_447:\n        /* \"Strings.sol\":808:812   */\n      0x01\n        /* \"Strings.sol\":801:1057   */\n      iszero\n      tag_448\n      jumpi\n        /* \"Strings.sol\":829:834   */\n      dup1\n      dup1\n      0x01\n      swap1\n      sub\n      swap2\n      pop\n      pop\n        /* \"Strings.sol\":959:967   */\n      0x3031323334353637383961626364656600000000000000000000000000000000\n        /* \"Strings.sol\":954:956   */\n      0x0a\n        /* \"Strings.sol\":947:952   */\n      dup7\n        /* \"Strings.sol\":943:957   */\n      mod\n        /* \"Strings.sol\":938:968   */\n      byte\n        /* \"Strings.sol\":933:936   */\n      dup2\n        /* \"Strings.sol\":925:969   */\n      mstore8\n        /* \"Strings.sol\":1007:1009   */\n      0x0a\n        /* \"Strings.sol\":998:1009   */\n      dup6\n      dup2\n      tag_449\n      jumpi\n      tag_450\n      tag_451\n      jump\t// in\n    tag_450:\n    tag_449:\n      div\n      swap5\n      pop\n        /* \"Strings.sol\":1037:1038   */\n      0x00\n        /* \"Strings.sol\":1028:1033   */\n      dup6\n        /* \"Strings.sol\":1028:1038   */\n      sub\n        /* \"Strings.sol\":801:1057   */\n      tag_447\n        /* \"Strings.sol\":1024:1045   */\n      jumpi\n        /* \"Strings.sol\":801:1057   */\n    tag_448:\n        /* \"Strings.sol\":1074:1080   */\n      dup2\n        /* \"Strings.sol\":1067:1080   */\n      swap4\n      pop\n      pop\n      pop\n      pop\n        /* \"Strings.sol\":455:1095   */\n      swap2\n      swap1\n      pop\n      jump\t// out\n        /* \"ERC721.sol\":15747:16157   */\n    tag_397:\n        /* \"ERC721.sol\":15937:15938   */\n      0x01\n        /* \"ERC721.sol\":15925:15934   */\n      dup2\n        /* \"ERC721.sol\":15925:15938   */\n      gt\n        /* \"ERC721.sol\":15921:16150   */\n      iszero\n      tag_454\n      jumpi\n        /* \"ERC721.sol\":15975:15976   */\n      0x00\n        /* \"ERC721.sol\":15959:15977   */\n      0xffffffffffffffffffffffffffffffffffffffff\n      and\n        /* \"ERC721.sol\":15959:15963   */\n      dup5\n        /* \"ERC721.sol\":15959:15977   */\n      0xffffffffffffffffffffffffffffffffffffffff\n      and\n      eq\n        /* \"ERC721.sol\":15955:16042   */\n      tag_455\n      jumpi\n        /* \"ERC721.sol\":16017:16026   */\n      dup1\n        /* \"ERC721.sol\":15998:16007   */\n      0x03\n        /* \"ERC721.sol\":15998:16013   */\n      0x00\n        /* \"ERC721.sol\":16008:16012   */\n      dup7\n        /* \"ERC721.sol\":15998:16013   */\n      0xffffffffffffffffffffffffffffffffffffffff\n      and\n      0xffffffffffffffffffffffffffffffffffffffff\n      and\n      dup2\n      mstore\n      0x20\n      add\n      swap1\n      dup2\n      mstore\n      0x20\n      add\n      0x00\n      keccak256\n      0x00\n        /* \"ERC721.sol\":15998:16026   */\n      dup3\n      dup3\n      sload\n      tag_456\n      swap2\n      swap1\n      tag_457\n      jump\t// in\n    tag_456:\n      swap3\n      pop\n      pop\n      dup2\n      swap1\n      sstore\n      pop\n        /* \"ERC721.sol\":15955:16042   */\n    tag_455:\n        /* \"ERC721.sol\":16074:16075   */\n      0x00\n        /* \"ERC721.sol\":16060:16076   */\n      0xffffffffffffffffffffffffffffffffffffffff\n      and\n        /* \"ERC721.sol\":16060:16062   */\n      dup4\n        /* \"ERC721.sol\":16060:16076   */\n      0xffffffffffffffffffffffffffffffffffffffff\n      and\n      eq\n        /* \"ERC721.sol\":16056:16139   */\n      tag_458\n      jumpi\n        /* \"ERC721.sol\":16114:16123   */\n      dup1\n        /* \"ERC721.sol\":16097:16106   */\n      0x03\n        /* \"ERC721.sol\":16097:16110   */\n      0x00\n        /* \"ERC721.sol\":16107:16109   */\n      dup6\n        /* \"ERC721.sol\":16097:16110   */\n      0xffffffffffffffffffffffffffffffffffffffff\n      and\n      0xffffffffffffffffffffffffffffffffffffffff\n      and\n      dup2\n      mstore\n      0x20\n      add\n      swap1\n      dup2\n      mstore\n      0x20\n      add\n      0x00\n      keccak256\n      0x00\n        /* \"ERC721.sol\":16097:16123   */\n      dup3\n      dup3\n      sload\n      tag_459\n      swap2\n      swap1\n      tag_292\n      jump\t// in\n    tag_459:\n      swap3\n      pop\n      pop\n      dup2\n      swap1\n      sstore\n      pop\n        /* \"ERC721.sol\":16056:16139   */\n    tag_458:\n        /* \"ERC721.sol\":15921:16150   */\n    tag_454:\n        /* \"ERC721.sol\":15747:16157   */\n      pop\n      pop\n      pop\n      pop\n      jump\t// out\n        /* \"ERC721.sol\":16879:16994   */\n    tag_402:\n      pop\n      pop\n      pop\n      pop\n      jump\t// out\n        /* \"ERC721.sol\":8490:8775   */\n    tag_413:\n        /* \"ERC721.sol\":8585:8603   */\n      tag_462\n        /* \"ERC721.sol\":8591:8593   */\n      dup4\n        /* \"ERC721.sol\":8595:8602   */\n      dup4\n        /* \"ERC721.sol\":8585:8590   */\n      tag_463\n        /* \"ERC721.sol\":8585:8603   */\n      jump\t// in\n    tag_462:\n        /* \"ERC721.sol\":8636:8689   */\n      tag_464\n        /* \"ERC721.sol\":8667:8668   */\n      0x00\n        /* \"ERC721.sol\":8671:8673   */\n      dup5\n        /* \"ERC721.sol\":8675:8682   */\n      dup5\n        /* \"ERC721.sol\":8684:8688   */\n      dup5\n        /* \"ERC721.sol\":8636:8658   */\n      tag_428\n        /* \"ERC721.sol\":8636:8689   */\n      jump\t// in\n    tag_464:\n        /* \"ERC721.sol\":8614:8767   */\n      tag_465\n      jumpi\n      mload(0x40)\n      0x08c379a000000000000000000000000000000000000000000000000000000000\n      dup2\n      mstore\n      0x04\n      add\n      tag_466\n      swap1\n      tag_431\n      jump\t// in\n    tag_466:\n      mload(0x40)\n      dup1\n      swap2\n      sub\n      swap1\n      revert\n    tag_465:\n        /* \"ERC721.sol\":8490:8775   */\n      pop\n      pop\n      pop\n      jump\t// out\n        /* \"ERC721.sol\":14162:15015   */\n    tag_428:\n        /* \"ERC721.sol\":14316:14320   */\n      0x00\n        /* \"ERC721.sol\":14337:14352   */\n      tag_468\n        /* \"ERC721.sol\":14337:14339   */\n      dup5\n        /* \"ERC721.sol\":14337:14350   */\n      0xffffffffffffffffffffffffffffffffffffffff\n      and\n      tag_190\n        /* \"ERC721.sol\":14337:14352   */\n      jump\t// in\n    tag_468:\n        /* \"ERC721.sol\":14333:15008   */\n      iszero\n      tag_469\n      jumpi\n        /* \"ERC721.sol\":14389:14391   */\n      dup4\n        /* \"ERC721.sol\":14373:14409   */\n      0xffffffffffffffffffffffffffffffffffffffff\n      and\n      0x150b7a02\n        /* \"ERC721.sol\":14410:14422   */\n      tag_470\n        /* \"ERC721.sol\":14410:14420   */\n      tag_212\n        /* \"ERC721.sol\":14410:14422   */\n      jump\t// in\n    tag_470:\n        /* \"ERC721.sol\":14424:14428   */\n      dup8\n        /* \"ERC721.sol\":14430:14437   */\n      dup7\n        /* \"ERC721.sol\":14439:14443   */\n      dup7\n        /* \"ERC721.sol\":14373:14444   */\n      mload(0x40)\n      dup6\n      0xffffffff\n      and\n      0xe0\n      shl\n      dup2\n      mstore\n      0x04\n      add\n      tag_471\n      swap5\n      swap4\n      swap3\n      swap2\n      swap1\n      tag_472\n      jump\t// in\n    tag_471:\n      0x20\n      mload(0x40)\n      dup1\n      dup4\n      sub\n      dup2\n      0x00\n      dup8\n      gas\n      call\n      swap3\n      pop\n      pop\n      pop\n      dup1\n      iszero\n      tag_473\n      jumpi\n      pop\n      mload(0x40)\n      returndatasize\n      not(0x1f)\n      0x1f\n      dup3\n      add\n      and\n      dup3\n      add\n      dup1\n      0x40\n      mstore\n      pop\n      dup2\n      add\n      swap1\n      tag_474\n      swap2\n      swap1\n      tag_475\n      jump\t// in\n    tag_474:\n      0x01\n    tag_473:\n        /* \"ERC721.sol\":14369:14953   */\n      tag_476\n      jumpi\n      returndatasize\n      dup1\n      0x00\n      dup2\n      eq\n      tag_481\n      jumpi\n      mload(0x40)\n      swap2\n      pop\n      and(add(returndatasize, 0x3f), not(0x1f))\n      dup3\n      add\n      0x40\n      mstore\n      returndatasize\n      dup3\n      mstore\n      returndatasize\n      0x00\n      0x20\n      dup5\n      add\n      returndatacopy\n      jump(tag_480)\n    tag_481:\n      0x60\n      swap2\n      pop\n    tag_480:\n      pop\n        /* \"ERC721.sol\":14631:14632   */\n      0x00\n        /* \"ERC721.sol\":14614:14620   */\n      dup2\n        /* \"ERC721.sol\":14614:14627   */\n      mload\n        /* \"ERC721.sol\":14614:14632   */\n      sub\n        /* \"ERC721.sol\":14610:14938   */\n      tag_482\n      jumpi\n        /* \"ERC721.sol\":14657:14717   */\n      mload(0x40)\n      0x08c379a000000000000000000000000000000000000000000000000000000000\n      dup2\n      mstore\n      0x04\n      add\n      tag_483\n      swap1\n      tag_431\n      jump\t// in\n    tag_483:\n      mload(0x40)\n      dup1\n      swap2\n      sub\n      swap1\n      revert\n        /* \"ERC721.sol\":14610:14938   */\n    tag_482:\n        /* \"ERC721.sol\":14888:14894   */\n      dup1\n        /* \"ERC721.sol\":14882:14895   */\n      mload\n        /* \"ERC721.sol\":14873:14879   */\n      dup2\n        /* \"ERC721.sol\":14869:14871   */\n      0x20\n        /* \"ERC721.sol\":14865:14880   */\n      add\n        /* \"ERC721.sol\":14858:14896   */\n      revert\n        /* \"ERC721.sol\":14369:14953   */\n    tag_476:\n        /* \"ERC721.sol\":14505:14546   */\n      shl(0xe0, 0x150b7a02)\n        /* \"ERC721.sol\":14495:14546   */\n      not(0xffffffffffffffffffffffffffffffffffffffffffffffffffffffff)\n      and\n        /* \"ERC721.sol\":14495:14501   */\n      dup2\n        /* \"ERC721.sol\":14495:14546   */\n      not(0xffffffffffffffffffffffffffffffffffffffffffffffffffffffff)\n      and\n      eq\n        /* \"ERC721.sol\":14488:14546   */\n      swap2\n      pop\n      pop\n      jump(tag_467)\n        /* \"ERC721.sol\":14333:15008   */\n    tag_469:\n        /* \"ERC721.sol\":14992:14996   */\n      0x01\n        /* \"ERC721.sol\":14985:14996   */\n      swap1\n      pop\n        /* \"ERC721.sol\":14162:15015   */\n    tag_467:\n      swap5\n      swap4\n      pop\n      pop\n      pop\n      pop\n      jump\t// out\n        /* \"Math.sol\":9622:10454   */\n    tag_442:\n        /* \"Math.sol\":9675:9682   */\n      0x00\n        /* \"Math.sol\":9695:9709   */\n      dup1\n        /* \"Math.sol\":9712:9713   */\n      0x00\n        /* \"Math.sol\":9695:9713   */\n      swap1\n      pop\n        /* \"Math.sol\":9754:9762   */\n      0x184f03e93ff9f4daa797ed6e38ed64bf6a1f010000000000000000\n        /* \"Math.sol\":9745:9750   */\n      dup4\n        /* \"Math.sol\":9745:9762   */\n      lt\n        /* \"Math.sol\":9741:9835   */\n      tag_488\n      jumpi\n        /* \"Math.sol\":9788:9796   */\n      0x184f03e93ff9f4daa797ed6e38ed64bf6a1f010000000000000000\n        /* \"Math.sol\":9779:9796   */\n      dup4\n      dup2\n      tag_489\n      jumpi\n      tag_490\n      tag_451\n      jump\t// in\n    tag_490:\n    tag_489:\n      div\n      swap3\n      pop\n        /* \"Math.sol\":9821:9823   */\n      0x40\n        /* \"Math.sol\":9811:9823   */\n      dup2\n      add\n      swap1\n      pop\n        /* \"Math.sol\":9741:9835   */\n    tag_488:\n        /* \"Math.sol\":9858:9866   */\n      0x04ee2d6d415b85acef8100000000\n        /* \"Math.sol\":9849:9854   */\n      dup4\n        /* \"Math.sol\":9849:9866   */\n      lt\n        /* \"Math.sol\":9845:9939   */\n      tag_491\n      jumpi\n        /* \"Math.sol\":9892:9900   */\n      0x04ee2d6d415b85acef8100000000\n        /* \"Math.sol\":9883:9900   */\n      dup4\n      dup2\n      tag_492\n      jumpi\n      tag_493\n      tag_451\n      jump\t// in\n    tag_493:\n    tag_492:\n      div\n      swap3\n      pop\n        /* \"Math.sol\":9925:9927   */\n      0x20\n        /* \"Math.sol\":9915:9927   */\n      dup2\n      add\n      swap1\n      pop\n        /* \"Math.sol\":9845:9939   */\n    tag_491:\n        /* \"Math.sol\":9962:9970   */\n      0x2386f26fc10000\n        /* \"Math.sol\":9953:9958   */\n      dup4\n        /* \"Math.sol\":9953:9970   */\n      lt\n        /* \"Math.sol\":9949:10043   */\n      tag_494\n      jumpi\n        /* \"Math.sol\":9996:10004   */\n      0x2386f26fc10000\n        /* \"Math.sol\":9987:10004   */\n      dup4\n      dup2\n      tag_495\n      jumpi\n      tag_496\n      tag_451\n      jump\t// in\n    tag_496:\n    tag_495:\n      div\n      swap3\n      pop\n        /* \"Math.sol\":10029:10031   */\n      0x10\n        /* \"Math.sol\":10019:10031   */\n      dup2\n      add\n      swap1\n      pop\n        /* \"Math.sol\":9949:10043   */\n    tag_494:\n        /* \"Math.sol\":10066:10073   */\n      0x05f5e100\n        /* \"Math.sol\":10057:10062   */\n      dup4\n        /* \"Math.sol\":10057:10073   */\n      lt\n        /* \"Math.sol\":10053:10144   */\n      tag_497\n      jumpi\n        /* \"Math.sol\":10099:10106   */\n      0x05f5e100\n        /* \"Math.sol\":10090:10106   */\n      dup4\n      dup2\n      tag_498\n      jumpi\n      tag_499\n      tag_451\n      jump\t// in\n    tag_499:\n    tag_498:\n      div\n      swap3\n      pop\n        /* \"Math.sol\":10131:10132   */\n      0x08\n        /* \"Math.sol\":10121:10132   */\n      dup2\n      add\n      swap1\n      pop\n        /* \"Math.sol\":10053:10144   */\n    tag_497:\n        /* \"Math.sol\":10167:10174   */\n      0x2710\n        /* \"Math.sol\":10158:10163   */\n      dup4\n        /* \"Math.sol\":10158:10174   */\n      lt\n        /* \"Math.sol\":10154:10245   */\n      tag_500\n      jumpi\n        /* \"Math.sol\":10200:10207   */\n      0x2710\n        /* \"Math.sol\":10191:10207   */\n      dup4\n      dup2\n      tag_501\n      jumpi\n      tag_502\n      tag_451\n      jump\t// in\n    tag_502:\n    tag_501:\n      div\n      swap3\n      pop\n        /* \"Math.sol\":10232:10233   */\n      0x04\n        /* \"Math.sol\":10222:10233   */\n      dup2\n      add\n      swap1\n      pop\n        /* \"Math.sol\":10154:10245   */\n    tag_500:\n        /* \"Math.sol\":10268:10275   */\n      0x64\n        /* \"Math.sol\":10259:10264   */\n      dup4\n        /* \"Math.sol\":10259:10275   */\n      lt\n        /* \"Math.sol\":10255:10346   */\n      tag_503\n      jumpi\n        /* \"Math.sol\":10301:10308   */\n      0x64\n        /* \"Math.sol\":10292:10308   */\n      dup4\n      dup2\n      tag_504\n      jumpi\n      tag_505\n      tag_451\n      jump\t// in\n    tag_505:\n    tag_504:\n      div\n      swap3\n      pop\n        /* \"Math.sol\":10333:10334   */\n      0x02\n        /* \"Math.sol\":10323:10334   */\n      dup2\n      add\n      swap1\n      pop\n        /* \"Math.sol\":10255:10346   */\n    tag_503:\n        /* \"Math.sol\":10369:10376   */\n      0x0a\n        /* \"Math.sol\":10360:10365   */\n      dup4\n        /* \"Math.sol\":10360:10376   */\n      lt\n        /* \"Math.sol\":10356:10416   */\n      tag_506\n      jumpi\n        /* \"Math.sol\":10403:10404   */\n      0x01\n        /* \"Math.sol\":10393:10404   */\n      dup2\n      add\n      swap1\n      pop\n        /* \"Math.sol\":10356:10416   */\n    tag_506:\n        /* \"Math.sol\":10440:10446   */\n      dup1\n        /* \"Math.sol\":10433:10446   */\n      swap2\n      pop\n      pop\n        /* \"Math.sol\":9622:10454   */\n      swap2\n      swap1\n      pop\n      jump\t// out\n        /* \"ERC721.sol\":9111:10025   */\n    tag_463:\n        /* \"ERC721.sol\":9205:9206   */\n      0x00\n        /* \"ERC721.sol\":9191:9207   */\n      0xffffffffffffffffffffffffffffffffffffffff\n      and\n        /* \"ERC721.sol\":9191:9193   */\n      dup3\n        /* \"ERC721.sol\":9191:9207   */\n      0xffffffffffffffffffffffffffffffffffffffff\n      and\n      sub\n        /* \"ERC721.sol\":9183:9244   */\n      tag_508\n      jumpi\n      mload(0x40)\n      0x08c379a000000000000000000000000000000000000000000000000000000000\n      dup2\n      mstore\n      0x04\n      add\n      tag_509\n      swap1\n      tag_510\n      jump\t// in\n    tag_509:\n      mload(0x40)\n      dup1\n      swap2\n      sub\n      swap1\n      revert\n    tag_508:\n        /* \"ERC721.sol\":9264:9280   */\n      tag_511\n        /* \"ERC721.sol\":9272:9279   */\n      dup2\n        /* \"ERC721.sol\":9264:9271   */\n      tag_337\n        /* \"ERC721.sol\":9264:9280   */\n      jump\t// in\n    tag_511:\n        /* \"ERC721.sol\":9263:9280   */\n      iszero\n        /* \"ERC721.sol\":9255:9313   */\n      tag_512\n      jumpi\n      mload(0x40)\n      0x08c379a000000000000000000000000000000000000000000000000000000000\n      dup2\n      mstore\n      0x04\n      add\n      tag_513\n      swap1\n      tag_514\n      jump\t// in\n    tag_513:\n      mload(0x40)\n      dup1\n      swap2\n      sub\n      swap1\n      revert\n    tag_512:\n        /* \"ERC721.sol\":9326:9374   */\n      tag_515\n        /* \"ERC721.sol\":9355:9356   */\n      0x00\n        /* \"ERC721.sol\":9359:9361   */\n      dup4\n        /* \"ERC721.sol\":9363:9370   */\n      dup4\n        /* \"ERC721.sol\":9372:9373   */\n      0x01\n        /* \"ERC721.sol\":9326:9346   */\n      tag_397\n        /* \"ERC721.sol\":9326:9374   */\n      jump\t// in\n    tag_515:\n        /* \"ERC721.sol\":9473:9489   */\n      tag_516\n        /* \"ERC721.sol\":9481:9488   */\n      dup2\n        /* \"ERC721.sol\":9473:9480   */\n      tag_337\n        /* \"ERC721.sol\":9473:9489   */\n      jump\t// in\n    tag_516:\n        /* \"ERC721.sol\":9472:9489   */\n      iszero\n        /* \"ERC721.sol\":9464:9522   */\n      tag_517\n      jumpi\n      mload(0x40)\n      0x08c379a000000000000000000000000000000000000000000000000000000000\n      dup2\n      mstore\n      0x04\n      add\n      tag_518\n      swap1\n      tag_514\n      jump\t// in\n    tag_518:\n      mload(0x40)\n      dup1\n      swap2\n      sub\n      swap1\n      revert\n    tag_517:\n        /* \"ERC721.sol\":9864:9865   */\n      0x01\n        /* \"ERC721.sol\":9847:9856   */\n      0x03\n        /* \"ERC721.sol\":9847:9860   */\n      0x00\n        /* \"ERC721.sol\":9857:9859   */\n      dup5\n        /* \"ERC721.sol\":9847:9860   */\n      0xffffffffffffffffffffffffffffffffffffffff\n      and\n      0xffffffffffffffffffffffffffffffffffffffff\n      and\n      dup2\n      mstore\n      0x20\n      add\n      swap1\n      dup2\n      mstore\n      0x20\n      add\n      0x00\n      keccak256\n      0x00\n        /* \"ERC721.sol\":9847:9865   */\n      dup3\n      dup3\n      sload\n      add\n      swap3\n      pop\n      pop\n      dup2\n      swap1\n      sstore\n      pop\n        /* \"ERC721.sol\":9904:9906   */\n      dup2\n        /* \"ERC721.sol\":9885:9892   */\n      0x02\n        /* \"ERC721.sol\":9885:9901   */\n      0x00\n        /* \"ERC721.sol\":9893:9900   */\n      dup4\n        /* \"ERC721.sol\":9885:9901   */\n      dup2\n      mstore\n      0x20\n      add\n      swap1\n      dup2\n      mstore\n      0x20\n      add\n      0x00\n      keccak256\n      0x00\n        /* \"ERC721.sol\":9885:9906   */\n      0x0100\n      exp\n      dup2\n      sload\n      dup2\n      0xffffffffffffffffffffffffffffffffffffffff\n      mul\n      not\n      and\n      swap1\n      dup4\n      0xffffffffffffffffffffffffffffffffffffffff\n      and\n      mul\n      or\n      swap1\n      sstore\n      pop\n        /* \"ERC721.sol\":9949:9956   */\n      dup1\n        /* \"ERC721.sol\":9945:9947   */\n      dup3\n        /* \"ERC721.sol\":9924:9957   */\n      0xffffffffffffffffffffffffffffffffffffffff\n      and\n        /* \"ERC721.sol\":9941:9942   */\n      0x00\n        /* \"ERC721.sol\":9924:9957   */\n      0xffffffffffffffffffffffffffffffffffffffff\n      and\n      0xddf252ad1be2c89b69c2b068fc378daa952ba7f163c4a11628f55a4df523b3ef\n      mload(0x40)\n      mload(0x40)\n      dup1\n      swap2\n      sub\n      swap1\n      log4\n        /* \"ERC721.sol\":9970:10017   */\n      tag_519\n        /* \"ERC721.sol\":9998:9999   */\n      0x00\n        /* \"ERC721.sol\":10002:10004   */\n      dup4\n        /* \"ERC721.sol\":10006:10013   */\n      dup4\n        /* \"ERC721.sol\":10015:10016   */\n      0x01\n        /* \"ERC721.sol\":9970:9989   */\n      tag_402\n        /* \"ERC721.sol\":9970:10017   */\n      jump\t// in\n    tag_519:\n        /* \"ERC721.sol\":9111:10025   */\n      pop\n      pop\n      jump\t// out\n        /* \"#utility.yul\":7:82   */\n    tag_520:\n        /* \"#utility.yul\":40:46   */\n      0x00\n        /* \"#utility.yul\":73:75   */\n      0x40\n        /* \"#utility.yul\":67:76   */\n      mload\n        /* \"#utility.yul\":57:76   */\n      swap1\n      pop\n        /* \"#utility.yul\":7:82   */\n      swap1\n      jump\t// out\n        /* \"#utility.yul\":88:205   */\n    tag_521:\n        /* \"#utility.yul\":197:198   */\n      0x00\n        /* \"#utility.yul\":194:195   */\n      dup1\n        /* \"#utility.yul\":187:199   */\n      revert\n        /* \"#utility.yul\":211:328   */\n    tag_522:\n        /* \"#utility.yul\":320:321   */\n      0x00\n        /* \"#utility.yul\":317:318   */\n      dup1\n        /* \"#utility.yul\":310:322   */\n      revert\n        /* \"#utility.yul\":334:483   */\n    tag_523:\n        /* \"#utility.yul\":370:377   */\n      0x00\n        /* \"#utility.yul\":410:476   */\n      0xffffffff00000000000000000000000000000000000000000000000000000000\n        /* \"#utility.yul\":403:408   */\n      dup3\n        /* \"#utility.yul\":399:477   */\n      and\n        /* \"#utility.yul\":388:477   */\n      swap1\n      pop\n        /* \"#utility.yul\":334:483   */\n      swap2\n      swap1\n      pop\n      jump\t// out\n        /* \"#utility.yul\":489:609   */\n    tag_524:\n        /* \"#utility.yul\":561:584   */\n      tag_624\n        /* \"#utility.yul\":578:583   */\n      dup2\n        /* \"#utility.yul\":561:584   */\n      tag_523\n      jump\t// in\n    tag_624:\n        /* \"#utility.yul\":554:559   */\n      dup2\n        /* \"#utility.yul\":551:585   */\n      eq\n        /* \"#utility.yul\":541:603   */\n      tag_625\n      jumpi\n        /* \"#utility.yul\":599:600   */\n      0x00\n        /* \"#utility.yul\":596:597   */\n      dup1\n        /* \"#utility.yul\":589:601   */\n      revert\n        /* \"#utility.yul\":541:603   */\n    tag_625:\n        /* \"#utility.yul\":489:609   */\n      pop\n      jump\t// out\n        /* \"#utility.yul\":615:752   */\n    tag_525:\n        /* \"#utility.yul\":660:665   */\n      0x00\n        /* \"#utility.yul\":698:704   */\n      dup2\n        /* \"#utility.yul\":685:705   */\n      calldataload\n        /* \"#utility.yul\":676:705   */\n      swap1\n      pop\n        /* \"#utility.yul\":714:746   */\n      tag_627\n        /* \"#utility.yul\":740:745   */\n      dup2\n        /* \"#utility.yul\":714:746   */\n      tag_524\n      jump\t// in\n    tag_627:\n        /* \"#utility.yul\":615:752   */\n      swap3\n      swap2\n      pop\n      pop\n      jump\t// out\n        /* \"#utility.yul\":758:1085   */\n    tag_45:\n        /* \"#utility.yul\":816:822   */\n      0x00\n        /* \"#utility.yul\":865:867   */\n      0x20\n        /* \"#utility.yul\":853:862   */\n      dup3\n        /* \"#utility.yul\":844:851   */\n      dup5\n        /* \"#utility.yul\":840:863   */\n      sub\n        /* \"#utility.yul\":836:868   */\n      slt\n        /* \"#utility.yul\":833:952   */\n      iszero\n      tag_629\n      jumpi\n        /* \"#utility.yul\":871:950   */\n      tag_630\n      tag_521\n      jump\t// in\n    tag_630:\n        /* \"#utility.yul\":833:952   */\n    tag_629:\n        /* \"#utility.yul\":991:992   */\n      0x00\n        /* \"#utility.yul\":1016:1068   */\n      tag_631\n        /* \"#utility.yul\":1060:1067   */\n      dup5\n        /* \"#utility.yul\":1051:1057   */\n      dup3\n        /* \"#utility.yul\":1040:1049   */\n      dup6\n        /* \"#utility.yul\":1036:1058   */\n      add\n        /* \"#utility.yul\":1016:1068   */\n      tag_525\n      jump\t// in\n    tag_631:\n        /* \"#utility.yul\":1006:1068   */\n      swap2\n      pop\n        /* \"#utility.yul\":962:1078   */\n      pop\n        /* \"#utility.yul\":758:1085   */\n      swap3\n      swap2\n      pop\n      pop\n      jump\t// out\n        /* \"#utility.yul\":1091:1181   */\n    tag_526:\n        /* \"#utility.yul\":1125:1132   */\n      0x00\n        /* \"#utility.yul\":1168:1173   */\n      dup2\n        /* \"#utility.yul\":1161:1174   */\n      iszero\n        /* \"#utility.yul\":1154:1175   */\n      iszero\n        /* \"#utility.yul\":1143:1175   */\n      swap1\n      pop\n        /* \"#utility.yul\":1091:1181   */\n      swap2\n      swap1\n      pop\n      jump\t// out\n        /* \"#utility.yul\":1187:1296   */\n    tag_527:\n        /* \"#utility.yul\":1268:1289   */\n      tag_634\n        /* \"#utility.yul\":1283:1288   */\n      dup2\n        /* \"#utility.yul\":1268:1289   */\n      tag_526\n      jump\t// in\n    tag_634:\n        /* \"#utility.yul\":1263:1266   */\n      dup3\n        /* \"#utility.yul\":1256:1290   */\n      mstore\n        /* \"#utility.yul\":1187:1296   */\n      pop\n      pop\n      jump\t// out\n        /* \"#utility.yul\":1302:1512   */\n    tag_48:\n        /* \"#utility.yul\":1389:1393   */\n      0x00\n        /* \"#utility.yul\":1427:1429   */\n      0x20\n        /* \"#utility.yul\":1416:1425   */\n      dup3\n        /* \"#utility.yul\":1412:1430   */\n      add\n        /* \"#utility.yul\":1404:1430   */\n      swap1\n      pop\n        /* \"#utility.yul\":1440:1505   */\n      tag_636\n        /* \"#utility.yul\":1502:1503   */\n      0x00\n        /* \"#utility.yul\":1491:1500   */\n      dup4\n        /* \"#utility.yul\":1487:1504   */\n      add\n        /* \"#utility.yul\":1478:1484   */\n      dup5\n        /* \"#utility.yul\":1440:1505   */\n      tag_527\n      jump\t// in\n    tag_636:\n        /* \"#utility.yul\":1302:1512   */\n      swap3\n      swap2\n      pop\n      pop\n      jump\t// out\n        /* \"#utility.yul\":1518:1617   */\n    tag_528:\n        /* \"#utility.yul\":1570:1576   */\n      0x00\n        /* \"#utility.yul\":1604:1609   */\n      dup2\n        /* \"#utility.yul\":1598:1610   */\n      mload\n        /* \"#utility.yul\":1588:1610   */\n      swap1\n      pop\n        /* \"#utility.yul\":1518:1617   */\n      swap2\n      swap1\n      pop\n      jump\t// out\n        /* \"#utility.yul\":1623:1792   */\n    tag_529:\n        /* \"#utility.yul\":1707:1718   */\n      0x00\n        /* \"#utility.yul\":1741:1747   */\n      dup3\n        /* \"#utility.yul\":1736:1739   */\n      dup3\n        /* \"#utility.yul\":1729:1748   */\n      mstore\n        /* \"#utility.yul\":1781:1785   */\n      0x20\n        /* \"#utility.yul\":1776:1779   */\n      dup3\n        /* \"#utility.yul\":1772:1786   */\n      add\n        /* \"#utility.yul\":1757:1786   */\n      swap1\n      pop\n        /* \"#utility.yul\":1623:1792   */\n      swap3\n      swap2\n      pop\n      pop\n      jump\t// out\n        /* \"#utility.yul\":1798:2044   */\n    tag_530:\n        /* \"#utility.yul\":1879:1880   */\n      0x00\n        /* \"#utility.yul\":1889:2002   */\n    tag_640:\n        /* \"#utility.yul\":1903:1909   */\n      dup4\n        /* \"#utility.yul\":1900:1901   */\n      dup2\n        /* \"#utility.yul\":1897:1910   */\n      lt\n        /* \"#utility.yul\":1889:2002   */\n      iszero\n      tag_642\n      jumpi\n        /* \"#utility.yul\":1988:1989   */\n      dup1\n        /* \"#utility.yul\":1983:1986   */\n      dup3\n        /* \"#utility.yul\":1979:1990   */\n      add\n        /* \"#utility.yul\":1973:1991   */\n      mload\n        /* \"#utility.yul\":1969:1970   */\n      dup2\n        /* \"#utility.yul\":1964:1967   */\n      dup5\n        /* \"#utility.yul\":1960:1971   */\n      add\n        /* \"#utility.yul\":1953:1992   */\n      mstore\n        /* \"#utility.yul\":1925:1927   */\n      0x20\n        /* \"#utility.yul\":1922:1923   */\n      dup2\n        /* \"#utility.yul\":1918:1928   */\n      add\n        /* \"#utility.yul\":1913:1928   */\n      swap1\n      pop\n        /* \"#utility.yul\":1889:2002   */\n      jump(tag_640)\n    tag_642:\n        /* \"#utility.yul\":2036:2037   */\n      0x00\n        /* \"#utility.yul\":2027:2033   */\n      dup5\n        /* \"#utility.yul\":2022:2025   */\n      dup5\n        /* \"#utility.yul\":2018:2034   */\n      add\n        /* \"#utility.yul\":2011:2038   */\n      mstore\n        /* \"#utility.yul\":1860:2044   */\n      pop\n        /* \"#utility.yul\":1798:2044   */\n      pop\n      pop\n      pop\n      jump\t// out\n        /* \"#utility.yul\":2050:2152   */\n    tag_531:\n        /* \"#utility.yul\":2091:2097   */\n      0x00\n        /* \"#utility.yul\":2142:2144   */\n      0x1f\n        /* \"#utility.yul\":2138:2145   */\n      not\n        /* \"#utility.yul\":2133:2135   */\n      0x1f\n        /* \"#utility.yul\":2126:2131   */\n      dup4\n        /* \"#utility.yul\":2122:2136   */\n      add\n        /* \"#utility.yul\":2118:2146   */\n      and\n        /* \"#utility.yul\":2108:2146   */\n      swap1\n      pop\n        /* \"#utility.yul\":2050:2152   */\n      swap2\n      swap1\n      pop\n      jump\t// out\n        /* \"#utility.yul\":2158:2535   */\n    tag_532:\n        /* \"#utility.yul\":2246:2249   */\n      0x00\n        /* \"#utility.yul\":2274:2313   */\n      tag_645\n        /* \"#utility.yul\":2307:2312   */\n      dup3\n        /* \"#utility.yul\":2274:2313   */\n      tag_528\n      jump\t// in\n    tag_645:\n        /* \"#utility.yul\":2329:2400   */\n      tag_646\n        /* \"#utility.yul\":2393:2399   */\n      dup2\n        /* \"#utility.yul\":2388:2391   */\n      dup6\n        /* \"#utility.yul\":2329:2400   */\n      tag_529\n      jump\t// in\n    tag_646:\n        /* \"#utility.yul\":2322:2400   */\n      swap4\n      pop\n        /* \"#utility.yul\":2409:2474   */\n      tag_647\n        /* \"#utility.yul\":2467:2473   */\n      dup2\n        /* \"#utility.yul\":2462:2465   */\n      dup6\n        /* \"#utility.yul\":2455:2459   */\n      0x20\n        /* \"#utility.yul\":2448:2453   */\n      dup7\n        /* \"#utility.yul\":2444:2460   */\n      add\n        /* \"#utility.yul\":2409:2474   */\n      tag_530\n      jump\t// in\n    tag_647:\n        /* \"#utility.yul\":2499:2528   */\n      tag_648\n        /* \"#utility.yul\":2521:2527   */\n      dup2\n        /* \"#utility.yul\":2499:2528   */\n      tag_531\n      jump\t// in\n    tag_648:\n        /* \"#utility.yul\":2494:2497   */\n      dup5\n        /* \"#utility.yul\":2490:2529   */\n      add\n        /* \"#utility.yul\":2483:2529   */\n      swap2\n      pop\n        /* \"#utility.yul\":2250:2535   */\n      pop\n        /* \"#utility.yul\":2158:2535   */\n      swap3\n      swap2\n      pop\n      pop\n      jump\t// out\n        /* \"#utility.yul\":2541:2854   */\n    tag_53:\n        /* \"#utility.yul\":2654:2658   */\n      0x00\n        /* \"#utility.yul\":2692:2694   */\n      0x20\n        /* \"#utility.yul\":2681:2690   */\n      dup3\n        /* \"#utility.yul\":2677:2695   */\n      add\n        /* \"#utility.yul\":2669:2695   */\n      swap1\n      pop\n        /* \"#utility.yul\":2741:2750   */\n      dup2\n        /* \"#utility.yul\":2735:2739   */\n      dup2\n        /* \"#utility.yul\":2731:2751   */\n      sub\n        /* \"#utility.yul\":2727:2728   */\n      0x00\n        /* \"#utility.yul\":2716:2725   */\n      dup4\n        /* \"#utility.yul\":2712:2729   */\n      add\n        /* \"#utility.yul\":2705:2752   */\n      mstore\n        /* \"#utility.yul\":2769:2847   */\n      tag_650\n        /* \"#utility.yul\":2842:2846   */\n      dup2\n        /* \"#utility.yul\":2833:2839   */\n      dup5\n        /* \"#utility.yul\":2769:2847   */\n      tag_532\n      jump\t// in\n    tag_650:\n        /* \"#utility.yul\":2761:2847   */\n      swap1\n      pop\n        /* \"#utility.yul\":2541:2854   */\n      swap3\n      swap2\n      pop\n      pop\n      jump\t// out\n        /* \"#utility.yul\":2860:2937   */\n    tag_533:\n        /* \"#utility.yul\":2897:2904   */\n      0x00\n        /* \"#utility.yul\":2926:2931   */\n      dup2\n        /* \"#utility.yul\":2915:2931   */\n      swap1\n      pop\n        /* \"#utility.yul\":2860:2937   */\n      swap2\n      swap1\n      pop\n      jump\t// out\n        /* \"#utility.yul\":2943:3065   */\n    tag_534:\n        /* \"#utility.yul\":3016:3040   */\n      tag_653\n        /* \"#utility.yul\":3034:3039   */\n      dup2\n        /* \"#utility.yul\":3016:3040   */\n      tag_533\n      jump\t// in\n    tag_653:\n        /* \"#utility.yul\":3009:3014   */\n      dup2\n        /* \"#utility.yul\":3006:3041   */\n      eq\n        /* \"#utility.yul\":2996:3059   */\n      tag_654\n      jumpi\n        /* \"#utility.yul\":3055:3056   */\n      0x00\n        /* \"#utility.yul\":3052:3053   */\n      dup1\n        /* \"#utility.yul\":3045:3057   */\n      revert\n        /* \"#utility.yul\":2996:3059   */\n    tag_654:\n        /* \"#utility.yul\":2943:3065   */\n      pop\n      jump\t// out\n        /* \"#utility.yul\":3071:3210   */\n    tag_535:\n        /* \"#utility.yul\":3117:3122   */\n      0x00\n        /* \"#utility.yul\":3155:3161   */\n      dup2\n        /* \"#utility.yul\":3142:3162   */\n      calldataload\n        /* \"#utility.yul\":3133:3162   */\n      swap1\n      pop\n        /* \"#utility.yul\":3171:3204   */\n      tag_656\n        /* \"#utility.yul\":3198:3203   */\n      dup2\n        /* \"#utility.yul\":3171:3204   */\n      tag_534\n      jump\t// in\n    tag_656:\n        /* \"#utility.yul\":3071:3210   */\n      swap3\n      swap2\n      pop\n      pop\n      jump\t// out\n        /* \"#utility.yul\":3216:3545   */\n    tag_57:\n        /* \"#utility.yul\":3275:3281   */\n      0x00\n        /* \"#utility.yul\":3324:3326   */\n      0x20\n        /* \"#utility.yul\":3312:3321   */\n      dup3\n        /* \"#utility.yul\":3303:3310   */\n      dup5\n        /* \"#utility.yul\":3299:3322   */\n      sub\n        /* \"#utility.yul\":3295:3327   */\n      slt\n        /* \"#utility.yul\":3292:3411   */\n      iszero\n      tag_658\n      jumpi\n        /* \"#utility.yul\":3330:3409   */\n      tag_659\n      tag_521\n      jump\t// in\n    tag_659:\n        /* \"#utility.yul\":3292:3411   */\n    tag_658:\n        /* \"#utility.yul\":3450:3451   */\n      0x00\n        /* \"#utility.yul\":3475:3528   */\n      tag_660\n        /* \"#utility.yul\":3520:3527   */\n      dup5\n        /* \"#utility.yul\":3511:3517   */\n      dup3\n        /* \"#utility.yul\":3500:3509   */\n      dup6\n        /* \"#utility.yul\":3496:3518   */\n      add\n        /* \"#utility.yul\":3475:3528   */\n      tag_535\n      jump\t// in\n    tag_660:\n        /* \"#utility.yul\":3465:3528   */\n      swap2\n      pop\n        /* \"#utility.yul\":3421:3538   */\n      pop\n        /* \"#utility.yul\":3216:3545   */\n      swap3\n      swap2\n      pop\n      pop\n      jump\t// out\n        /* \"#utility.yul\":3551:3677   */\n    tag_536:\n        /* \"#utility.yul\":3588:3595   */\n      0x00\n        /* \"#utility.yul\":3628:3670   */\n      0xffffffffffffffffffffffffffffffffffffffff\n        /* \"#utility.yul\":3621:3626   */\n      dup3\n        /* \"#utility.yul\":3617:3671   */\n      and\n        /* \"#utility.yul\":3606:3671   */\n      swap1\n      pop\n        /* \"#utility.yul\":3551:3677   */\n      swap2\n      swap1\n      pop\n      jump\t// out\n        /* \"#utility.yul\":3683:3779   */\n    tag_537:\n        /* \"#utility.yul\":3720:3727   */\n      0x00\n        /* \"#utility.yul\":3749:3773   */\n      tag_663\n        /* \"#utility.yul\":3767:3772   */\n      dup3\n        /* \"#utility.yul\":3749:3773   */\n      tag_536\n      jump\t// in\n    tag_663:\n        /* \"#utility.yul\":3738:3773   */\n      swap1\n      pop\n        /* \"#utility.yul\":3683:3779   */\n      swap2\n      swap1\n      pop\n      jump\t// out\n        /* \"#utility.yul\":3785:3903   */\n    tag_538:\n        /* \"#utility.yul\":3872:3896   */\n      tag_665\n        /* \"#utility.yul\":3890:3895   */\n      dup2\n        /* \"#utility.yul\":3872:3896   */\n      tag_537\n      jump\t// in\n    tag_665:\n        /* \"#utility.yul\":3867:3870   */\n      dup3\n        /* \"#utility.yul\":3860:3897   */\n      mstore\n        /* \"#utility.yul\":3785:3903   */\n      pop\n      pop\n      jump\t// out\n        /* \"#utility.yul\":3909:4131   */\n    tag_60:\n        /* \"#utility.yul\":4002:4006   */\n      0x00\n        /* \"#utility.yul\":4040:4042   */\n      0x20\n        /* \"#utility.yul\":4029:4038   */\n      dup3\n        /* \"#utility.yul\":4025:4043   */\n      add\n        /* \"#utility.yul\":4017:4043   */\n      swap1\n      pop\n        /* \"#utility.yul\":4053:4124   */\n      tag_667\n        /* \"#utility.yul\":4121:4122   */\n      0x00\n        /* \"#utility.yul\":4110:4119   */\n      dup4\n        /* \"#utility.yul\":4106:4123   */\n      add\n        /* \"#utility.yul\":4097:4103   */\n      dup5\n        /* \"#utility.yul\":4053:4124   */\n      tag_538\n      jump\t// in\n    tag_667:\n        /* \"#utility.yul\":3909:4131   */\n      swap3\n      swap2\n      pop\n      pop\n      jump\t// out\n        /* \"#utility.yul\":4137:4259   */\n    tag_539:\n        /* \"#utility.yul\":4210:4234   */\n      tag_669\n        /* \"#utility.yul\":4228:4233   */\n      dup2\n        /* \"#utility.yul\":4210:4234   */\n      tag_537\n      jump\t// in\n    tag_669:\n        /* \"#utility.yul\":4203:4208   */\n      dup2\n        /* \"#utility.yul\":4200:4235   */\n      eq\n        /* \"#utility.yul\":4190:4253   */\n      tag_670\n      jumpi\n        /* \"#utility.yul\":4249:4250   */\n      0x00\n        /* \"#utility.yul\":4246:4247   */\n      dup1\n        /* \"#utility.yul\":4239:4251   */\n      revert\n        /* \"#utility.yul\":4190:4253   */\n    tag_670:\n        /* \"#utility.yul\":4137:4259   */\n      pop\n      jump\t// out\n        /* \"#utility.yul\":4265:4404   */\n    tag_540:\n        /* \"#utility.yul\":4311:4316   */\n      0x00\n        /* \"#utility.yul\":4349:4355   */\n      dup2\n        /* \"#utility.yul\":4336:4356   */\n      calldataload\n        /* \"#utility.yul\":4327:4356   */\n      swap1\n      pop\n        /* \"#utility.yul\":4365:4398   */\n      tag_672\n        /* \"#utility.yul\":4392:4397   */\n      dup2\n        /* \"#utility.yul\":4365:4398   */\n      tag_539\n      jump\t// in\n    tag_672:\n        /* \"#utility.yul\":4265:4404   */\n      swap3\n      swap2\n      pop\n      pop\n      jump\t// out\n        /* \"#utility.yul\":4410:4884   */\n    tag_64:\n        /* \"#utility.yul\":4478:4484   */\n      0x00\n        /* \"#utility.yul\":4486:4492   */\n      dup1\n        /* \"#utility.yul\":4535:4537   */\n      0x40\n        /* \"#utility.yul\":4523:4532   */\n      dup4\n        /* \"#utility.yul\":4514:4521   */\n      dup6\n        /* \"#utility.yul\":4510:4533   */\n      sub\n        /* \"#utility.yul\":4506:4538   */\n      slt\n        /* \"#utility.yul\":4503:4622   */\n      iszero\n      tag_674\n      jumpi\n        /* \"#utility.yul\":4541:4620   */\n      tag_675\n      tag_521\n      jump\t// in\n    tag_675:\n        /* \"#utility.yul\":4503:4622   */\n    tag_674:\n        /* \"#utility.yul\":4661:4662   */\n      0x00\n        /* \"#utility.yul\":4686:4739   */\n      tag_676\n        /* \"#utility.yul\":4731:4738   */\n      dup6\n        /* \"#utility.yul\":4722:4728   */\n      dup3\n        /* \"#utility.yul\":4711:4720   */\n      dup7\n        /* \"#utility.yul\":4707:4729   */\n      add\n        /* \"#utility.yul\":4686:4739   */\n      tag_540\n      jump\t// in\n    tag_676:\n        /* \"#utility.yul\":4676:4739   */\n      swap3\n      pop\n        /* \"#utility.yul\":4632:4749   */\n      pop\n        /* \"#utility.yul\":4788:4790   */\n      0x20\n        /* \"#utility.yul\":4814:4867   */\n      tag_677\n        /* \"#utility.yul\":4859:4866   */\n      dup6\n        /* \"#utility.yul\":4850:4856   */\n      dup3\n        /* \"#utility.yul\":4839:4848   */\n      dup7\n        /* \"#utility.yul\":4835:4857   */\n      add\n        /* \"#utility.yul\":4814:4867   */\n      tag_535\n      jump\t// in\n    tag_677:\n        /* \"#utility.yul\":4804:4867   */\n      swap2\n      pop\n        /* \"#utility.yul\":4759:4877   */\n      pop\n        /* \"#utility.yul\":4410:4884   */\n      swap3\n      pop\n      swap3\n      swap1\n      pop\n      jump\t// out\n        /* \"#utility.yul\":4890:5008   */\n    tag_541:\n        /* \"#utility.yul\":4977:5001   */\n      tag_679\n        /* \"#utility.yul\":4995:5000   */\n      dup2\n        /* \"#utility.yul\":4977:5001   */\n      tag_533\n      jump\t// in\n    tag_679:\n        /* \"#utility.yul\":4972:4975   */\n      dup3\n        /* \"#utility.yul\":4965:5002   */\n      mstore\n        /* \"#utility.yul\":4890:5008   */\n      pop\n      pop\n      jump\t// out\n        /* \"#utility.yul\":5014:5236   */\n    tag_70:\n        /* \"#utility.yul\":5107:5111   */\n      0x00\n        /* \"#utility.yul\":5145:5147   */\n      0x20\n        /* \"#utility.yul\":5134:5143   */\n      dup3\n        /* \"#utility.yul\":5130:5148   */\n      add\n        /* \"#utility.yul\":5122:5148   */\n      swap1\n      pop\n        /* \"#utility.yul\":5158:5229   */\n      tag_681\n        /* \"#utility.yul\":5226:5227   */\n      0x00\n        /* \"#utility.yul\":5215:5224   */\n      dup4\n        /* \"#utility.yul\":5211:5228   */\n      add\n        /* \"#utility.yul\":5202:5208   */\n      dup5\n        /* \"#utility.yul\":5158:5229   */\n      tag_541\n      jump\t// in\n    tag_681:\n        /* \"#utility.yul\":5014:5236   */\n      swap3\n      swap2\n      pop\n      pop\n      jump\t// out\n        /* \"#utility.yul\":5242:5861   */\n    tag_78:\n        /* \"#utility.yul\":5319:5325   */\n      0x00\n        /* \"#utility.yul\":5327:5333   */\n      dup1\n        /* \"#utility.yul\":5335:5341   */\n      0x00\n        /* \"#utility.yul\":5384:5386   */\n      0x60\n        /* \"#utility.yul\":5372:5381   */\n      dup5\n        /* \"#utility.yul\":5363:5370   */\n      dup7\n        /* \"#utility.yul\":5359:5382   */\n      sub\n        /* \"#utility.yul\":5355:5387   */\n      slt\n        /* \"#utility.yul\":5352:5471   */\n      iszero\n      tag_683\n      jumpi\n        /* \"#utility.yul\":5390:5469   */\n      tag_684\n      tag_521\n      jump\t// in\n    tag_684:\n        /* \"#utility.yul\":5352:5471   */\n    tag_683:\n        /* \"#utility.yul\":5510:5511   */\n      0x00\n        /* \"#utility.yul\":5535:5588   */\n      tag_685\n        /* \"#utility.yul\":5580:5587   */\n      dup7\n        /* \"#utility.yul\":5571:5577   */\n      dup3\n        /* \"#utility.yul\":5560:5569   */\n      dup8\n        /* \"#utility.yul\":5556:5578   */\n      add\n        /* \"#utility.yul\":5535:5588   */\n      tag_540\n      jump\t// in\n    tag_685:\n        /* \"#utility.yul\":5525:5588   */\n      swap4\n      pop\n        /* \"#utility.yul\":5481:5598   */\n      pop\n        /* \"#utility.yul\":5637:5639   */\n      0x20\n        /* \"#utility.yul\":5663:5716   */\n      tag_686\n        /* \"#utility.yul\":5708:5715   */\n      dup7\n        /* \"#utility.yul\":5699:5705   */\n      dup3\n        /* \"#utility.yul\":5688:5697   */\n      dup8\n        /* \"#utility.yul\":5684:5706   */\n      add\n        /* \"#utility.yul\":5663:5716   */\n      tag_540\n      jump\t// in\n    tag_686:\n        /* \"#utility.yul\":5653:5716   */\n      swap3\n      pop\n        /* \"#utility.yul\":5608:5726   */\n      pop\n        /* \"#utility.yul\":5765:5767   */\n      0x40\n        /* \"#utility.yul\":5791:5844   */\n      tag_687\n        /* \"#utility.yul\":5836:5843   */\n      dup7\n        /* \"#utility.yul\":5827:5833   */\n      dup3\n        /* \"#utility.yul\":5816:5825   */\n      dup8\n        /* \"#utility.yul\":5812:5834   */\n      add\n        /* \"#utility.yul\":5791:5844   */\n      tag_535\n      jump\t// in\n    tag_687:\n        /* \"#utility.yul\":5781:5844   */\n      swap2\n      pop\n        /* \"#utility.yul\":5736:5854   */\n      pop\n        /* \"#utility.yul\":5242:5861   */\n      swap3\n      pop\n      swap3\n      pop\n      swap3\n      jump\t// out\n        /* \"#utility.yul\":5867:5984   */\n    tag_542:\n        /* \"#utility.yul\":5976:5977   */\n      0x00\n        /* \"#utility.yul\":5973:5974   */\n      dup1\n        /* \"#utility.yul\":5966:5978   */\n      revert\n        /* \"#utility.yul\":5990:6107   */\n    tag_543:\n        /* \"#utility.yul\":6099:6100   */\n      0x00\n        /* \"#utility.yul\":6096:6097   */\n      dup1\n        /* \"#utility.yul\":6089:6101   */\n      revert\n        /* \"#utility.yul\":6113:6293   */\n    tag_445:\n        /* \"#utility.yul\":6161:6238   */\n      0x4e487b7100000000000000000000000000000000000000000000000000000000\n        /* \"#utility.yul\":6158:6159   */\n      0x00\n        /* \"#utility.yul\":6151:6239   */\n      mstore\n        /* \"#utility.yul\":6258:6262   */\n      0x41\n        /* \"#utility.yul\":6255:6256   */\n      0x04\n        /* \"#utility.yul\":6248:6263   */\n      mstore\n        /* \"#utility.yul\":6282:6286   */\n      0x24\n        /* \"#utility.yul\":6279:6280   */\n      0x00\n        /* \"#utility.yul\":6272:6287   */\n      revert\n        /* \"#utility.yul\":6299:6580   */\n    tag_544:\n        /* \"#utility.yul\":6382:6409   */\n      tag_692\n        /* \"#utility.yul\":6404:6408   */\n      dup3\n        /* \"#utility.yul\":6382:6409   */\n      tag_531\n      jump\t// in\n    tag_692:\n        /* \"#utility.yul\":6374:6380   */\n      dup2\n        /* \"#utility.yul\":6370:6410   */\n      add\n        /* \"#utility.yul\":6512:6518   */\n      dup2\n        /* \"#utility.yul\":6500:6510   */\n      dup2\n        /* \"#utility.yul\":6497:6519   */\n      lt\n        /* \"#utility.yul\":6476:6494   */\n      0xffffffffffffffff\n        /* \"#utility.yul\":6464:6474   */\n      dup3\n        /* \"#utility.yul\":6461:6495   */\n      gt\n        /* \"#utility.yul\":6458:6520   */\n      or\n        /* \"#utility.yul\":6455:6543   */\n      iszero\n      tag_693\n      jumpi\n        /* \"#utility.yul\":6523:6541   */\n      tag_694\n      tag_445\n      jump\t// in\n    tag_694:\n        /* \"#utility.yul\":6455:6543   */\n    tag_693:\n        /* \"#utility.yul\":6563:6573   */\n      dup1\n        /* \"#utility.yul\":6559:6561   */\n      0x40\n        /* \"#utility.yul\":6552:6574   */\n      mstore\n        /* \"#utility.yul\":6342:6580   */\n      pop\n        /* \"#utility.yul\":6299:6580   */\n      pop\n      pop\n      jump\t// out\n        /* \"#utility.yul\":6586:6715   */\n    tag_545:\n        /* \"#utility.yul\":6620:6626   */\n      0x00\n        /* \"#utility.yul\":6647:6667   */\n      tag_696\n      tag_520\n      jump\t// in\n    tag_696:\n        /* \"#utility.yul\":6637:6667   */\n      swap1\n      pop\n        /* \"#utility.yul\":6676:6709   */\n      tag_697\n        /* \"#utility.yul\":6704:6708   */\n      dup3\n        /* \"#utility.yul\":6696:6702   */\n      dup3\n        /* \"#utility.yul\":6676:6709   */\n      tag_544\n      jump\t// in\n    tag_697:\n        /* \"#utility.yul\":6586:6715   */\n      swap2\n      swap1\n      pop\n      jump\t// out\n        /* \"#utility.yul\":6721:7029   */\n    tag_546:\n        /* \"#utility.yul\":6783:6787   */\n      0x00\n        /* \"#utility.yul\":6873:6891   */\n      0xffffffffffffffff\n        /* \"#utility.yul\":6865:6871   */\n      dup3\n        /* \"#utility.yul\":6862:6892   */\n      gt\n        /* \"#utility.yul\":6859:6915   */\n      iszero\n      tag_699\n      jumpi\n        /* \"#utility.yul\":6895:6913   */\n      tag_700\n      tag_445\n      jump\t// in\n    tag_700:\n        /* \"#utility.yul\":6859:6915   */\n    tag_699:\n        /* \"#utility.yul\":6933:6962   */\n      tag_701\n        /* \"#utility.yul\":6955:6961   */\n      dup3\n        /* \"#utility.yul\":6933:6962   */\n      tag_531\n      jump\t// in\n    tag_701:\n        /* \"#utility.yul\":6925:6962   */\n      swap1\n      pop\n        /* \"#utility.yul\":7017:7021   */\n      0x20\n        /* \"#utility.yul\":7011:7015   */\n      dup2\n        /* \"#utility.yul\":7007:7022   */\n      add\n        /* \"#utility.yul\":6999:7022   */\n      swap1\n      pop\n        /* \"#utility.yul\":6721:7029   */\n      swap2\n      swap1\n      pop\n      jump\t// out\n        /* \"#utility.yul\":7035:7181   */\n    tag_547:\n        /* \"#utility.yul\":7132:7138   */\n      dup3\n        /* \"#utility.yul\":7127:7130   */\n      dup2\n        /* \"#utility.yul\":7122:7125   */\n      dup4\n        /* \"#utility.yul\":7109:7139   */\n      calldatacopy\n        /* \"#utility.yul\":7173:7174   */\n      0x00\n        /* \"#utility.yul\":7164:7170   */\n      dup4\n        /* \"#utility.yul\":7159:7162   */\n      dup4\n        /* \"#utility.yul\":7155:7171   */\n      add\n        /* \"#utility.yul\":7148:7175   */\n      mstore\n        /* \"#utility.yul\":7035:7181   */\n      pop\n      pop\n      pop\n      jump\t// out\n        /* \"#utility.yul\":7187:7612   */\n    tag_548:\n        /* \"#utility.yul\":7265:7270   */\n      0x00\n        /* \"#utility.yul\":7290:7356   */\n      tag_704\n        /* \"#utility.yul\":7306:7355   */\n      tag_705\n        /* \"#utility.yul\":7348:7354   */\n      dup5\n        /* \"#utility.yul\":7306:7355   */\n      tag_546\n      jump\t// in\n    tag_705:\n        /* \"#utility.yul\":7290:7356   */\n      tag_545\n      jump\t// in\n    tag_704:\n        /* \"#utility.yul\":7281:7356   */\n      swap1\n      pop\n        /* \"#utility.yul\":7379:7385   */\n      dup3\n        /* \"#utility.yul\":7372:7377   */\n      dup2\n        /* \"#utility.yul\":7365:7386   */\n      mstore\n        /* \"#utility.yul\":7417:7421   */\n      0x20\n        /* \"#utility.yul\":7410:7415   */\n      dup2\n        /* \"#utility.yul\":7406:7422   */\n      add\n        /* \"#utility.yul\":7455:7458   */\n      dup5\n        /* \"#utility.yul\":7446:7452   */\n      dup5\n        /* \"#utility.yul\":7441:7444   */\n      dup5\n        /* \"#utility.yul\":7437:7453   */\n      add\n        /* \"#utility.yul\":7434:7459   */\n      gt\n        /* \"#utility.yul\":7431:7543   */\n      iszero\n      tag_706\n      jumpi\n        /* \"#utility.yul\":7462:7541   */\n      tag_707\n      tag_543\n      jump\t// in\n    tag_707:\n        /* \"#utility.yul\":7431:7543   */\n    tag_706:\n        /* \"#utility.yul\":7552:7606   */\n      tag_708\n        /* \"#utility.yul\":7599:7605   */\n      dup5\n        /* \"#utility.yul\":7594:7597   */\n      dup3\n        /* \"#utility.yul\":7589:7592   */\n      dup6\n        /* \"#utility.yul\":7552:7606   */\n      tag_547\n      jump\t// in\n    tag_708:\n        /* \"#utility.yul\":7271:7612   */\n      pop\n        /* \"#utility.yul\":7187:7612   */\n      swap4\n      swap3\n      pop\n      pop\n      pop\n      jump\t// out\n        /* \"#utility.yul\":7632:7972   */\n    tag_549:\n        /* \"#utility.yul\":7688:7693   */\n      0x00\n        /* \"#utility.yul\":7737:7740   */\n      dup3\n        /* \"#utility.yul\":7730:7734   */\n      0x1f\n        /* \"#utility.yul\":7722:7728   */\n      dup4\n        /* \"#utility.yul\":7718:7735   */\n      add\n        /* \"#utility.yul\":7714:7741   */\n      slt\n        /* \"#utility.yul\":7704:7826   */\n      tag_710\n      jumpi\n        /* \"#utility.yul\":7745:7824   */\n      tag_711\n      tag_542\n      jump\t// in\n    tag_711:\n        /* \"#utility.yul\":7704:7826   */\n    tag_710:\n        /* \"#utility.yul\":7862:7868   */\n      dup2\n        /* \"#utility.yul\":7849:7869   */\n      calldataload\n        /* \"#utility.yul\":7887:7966   */\n      tag_712\n        /* \"#utility.yul\":7962:7965   */\n      dup5\n        /* \"#utility.yul\":7954:7960   */\n      dup3\n        /* \"#utility.yul\":7947:7951   */\n      0x20\n        /* \"#utility.yul\":7939:7945   */\n      dup7\n        /* \"#utility.yul\":7935:7952   */\n      add\n        /* \"#utility.yul\":7887:7966   */\n      tag_548\n      jump\t// in\n    tag_712:\n        /* \"#utility.yul\":7878:7966   */\n      swap2\n      pop\n        /* \"#utility.yul\":7694:7972   */\n      pop\n        /* \"#utility.yul\":7632:7972   */\n      swap3\n      swap2\n      pop\n      pop\n      jump\t// out\n        /* \"#utility.yul\":7978:8487   */\n    tag_95:\n        /* \"#utility.yul\":8047:8053   */\n      0x00\n        /* \"#utility.yul\":8096:8098   */\n      0x20\n        /* \"#utility.yul\":8084:8093   */\n      dup3\n        /* \"#utility.yul\":8075:8082   */\n      dup5\n        /* \"#utility.yul\":8071:8094   */\n      sub\n        /* \"#utility.yul\":8067:8099   */\n      slt\n        /* \"#utility.yul\":8064:8183   */\n      iszero\n      tag_714\n      jumpi\n        /* \"#utility.yul\":8102:8181   */\n      tag_715\n      tag_521\n      jump\t// in\n    tag_715:\n        /* \"#utility.yul\":8064:8183   */\n    tag_714:\n        /* \"#utility.yul\":8250:8251   */\n      0x00\n        /* \"#utility.yul\":8239:8248   */\n      dup3\n        /* \"#utility.yul\":8235:8252   */\n      add\n        /* \"#utility.yul\":8222:8253   */\n      calldataload\n        /* \"#utility.yul\":8280:8298   */\n      0xffffffffffffffff\n        /* \"#utility.yul\":8272:8278   */\n      dup2\n        /* \"#utility.yul\":8269:8299   */\n      gt\n        /* \"#utility.yul\":8266:8383   */\n      iszero\n      tag_716\n      jumpi\n        /* \"#utility.yul\":8302:8381   */\n      tag_717\n      tag_522\n      jump\t// in\n    tag_717:\n        /* \"#utility.yul\":8266:8383   */\n    tag_716:\n        /* \"#utility.yul\":8407:8470   */\n      tag_718\n        /* \"#utility.yul\":8462:8469   */\n      dup5\n        /* \"#utility.yul\":8453:8459   */\n      dup3\n        /* \"#utility.yul\":8442:8451   */\n      dup6\n        /* \"#utility.yul\":8438:8460   */\n      add\n        /* \"#utility.yul\":8407:8470   */\n      tag_549\n      jump\t// in\n    tag_718:\n        /* \"#utility.yul\":8397:8470   */\n      swap2\n      pop\n        /* \"#utility.yul\":8193:8480   */\n      pop\n        /* \"#utility.yul\":7978:8487   */\n      swap3\n      swap2\n      pop\n      pop\n      jump\t// out\n        /* \"#utility.yul\":8493:8822   */\n    tag_113:\n        /* \"#utility.yul\":8552:8558   */\n      0x00\n        /* \"#utility.yul\":8601:8603   */\n      0x20\n        /* \"#utility.yul\":8589:8598   */\n      dup3\n        /* \"#utility.yul\":8580:8587   */\n      dup5\n        /* \"#utility.yul\":8576:8599   */\n      sub\n        /* \"#utility.yul\":8572:8604   */\n      slt\n        /* \"#utility.yul\":8569:8688   */\n      iszero\n      tag_720\n      jumpi\n        /* \"#utility.yul\":8607:8686   */\n      tag_721\n      tag_521\n      jump\t// in\n    tag_721:\n        /* \"#utility.yul\":8569:8688   */\n    tag_720:\n        /* \"#utility.yul\":8727:8728   */\n      0x00\n        /* \"#utility.yul\":8752:8805   */\n      tag_722\n        /* \"#utility.yul\":8797:8804   */\n      dup5\n        /* \"#utility.yul\":8788:8794   */\n      dup3\n        /* \"#utility.yul\":8777:8786   */\n      dup6\n        /* \"#utility.yul\":8773:8795   */\n      add\n        /* \"#utility.yul\":8752:8805   */\n      tag_540\n      jump\t// in\n    tag_722:\n        /* \"#utility.yul\":8742:8805   */\n      swap2\n      pop\n        /* \"#utility.yul\":8698:8815   */\n      pop\n        /* \"#utility.yul\":8493:8822   */\n      swap3\n      swap2\n      pop\n      pop\n      jump\t// out\n        /* \"#utility.yul\":8828:8944   */\n    tag_550:\n        /* \"#utility.yul\":8898:8919   */\n      tag_724\n        /* \"#utility.yul\":8913:8918   */\n      dup2\n        /* \"#utility.yul\":8898:8919   */\n      tag_526\n      jump\t// in\n    tag_724:\n        /* \"#utility.yul\":8891:8896   */\n      dup2\n        /* \"#utility.yul\":8888:8920   */\n      eq\n        /* \"#utility.yul\":8878:8938   */\n      tag_725\n      jumpi\n        /* \"#utility.yul\":8934:8935   */\n      0x00\n        /* \"#utility.yul\":8931:8932   */\n      dup1\n        /* \"#utility.yul\":8924:8936   */\n      revert\n        /* \"#utility.yul\":8878:8938   */\n    tag_725:\n        /* \"#utility.yul\":8828:8944   */\n      pop\n      jump\t// out\n        /* \"#utility.yul\":8950:9083   */\n    tag_551:\n        /* \"#utility.yul\":8993:8998   */\n      0x00\n        /* \"#utility.yul\":9031:9037   */\n      dup2\n        /* \"#utility.yul\":9018:9038   */\n      calldataload\n        /* \"#utility.yul\":9009:9038   */\n      swap1\n      pop\n        /* \"#utility.yul\":9047:9077   */\n      tag_727\n        /* \"#utility.yul\":9071:9076   */\n      dup2\n        /* \"#utility.yul\":9047:9077   */\n      tag_550\n      jump\t// in\n    tag_727:\n        /* \"#utility.yul\":8950:9083   */\n      swap3\n      swap2\n      pop\n      pop\n      jump\t// out\n        /* \"#utility.yul\":9089:9557   */\n    tag_147:\n        /* \"#utility.yul\":9154:9160   */\n      0x00\n        /* \"#utility.yul\":9162:9168   */\n      dup1\n        /* \"#utility.yul\":9211:9213   */\n      0x40\n        /* \"#utility.yul\":9199:9208   */\n      dup4\n        /* \"#utility.yul\":9190:9197   */\n      dup6\n        /* \"#utility.yul\":9186:9209   */\n      sub\n        /* \"#utility.yul\":9182:9214   */\n      slt\n        /* \"#utility.yul\":9179:9298   */\n      iszero\n      tag_729\n      jumpi\n        /* \"#utility.yul\":9217:9296   */\n      tag_730\n      tag_521\n      jump\t// in\n    tag_730:\n        /* \"#utility.yul\":9179:9298   */\n    tag_729:\n        /* \"#utility.yul\":9337:9338   */\n      0x00\n        /* \"#utility.yul\":9362:9415   */\n      tag_731\n        /* \"#utility.yul\":9407:9414   */\n      dup6\n        /* \"#utility.yul\":9398:9404   */\n      dup3\n        /* \"#utility.yul\":9387:9396   */\n      dup7\n        /* \"#utility.yul\":9383:9405   */\n      add\n        /* \"#utility.yul\":9362:9415   */\n      tag_540\n      jump\t// in\n    tag_731:\n        /* \"#utility.yul\":9352:9415   */\n      swap3\n      pop\n        /* \"#utility.yul\":9308:9425   */\n      pop\n        /* \"#utility.yul\":9464:9466   */\n      0x20\n        /* \"#utility.yul\":9490:9540   */\n      tag_732\n        /* \"#utility.yul\":9532:9539   */\n      dup6\n        /* \"#utility.yul\":9523:9529   */\n      dup3\n        /* \"#utility.yul\":9512:9521   */\n      dup7\n        /* \"#utility.yul\":9508:9530   */\n      add\n        /* \"#utility.yul\":9490:9540   */\n      tag_551\n      jump\t// in\n    tag_732:\n        /* \"#utility.yul\":9480:9540   */\n      swap2\n      pop\n        /* \"#utility.yul\":9435:9550   */\n      pop\n        /* \"#utility.yul\":9089:9557   */\n      swap3\n      pop\n      swap3\n      swap1\n      pop\n      jump\t// out\n        /* \"#utility.yul\":9563:9870   */\n    tag_552:\n        /* \"#utility.yul\":9624:9628   */\n      0x00\n        /* \"#utility.yul\":9714:9732   */\n      0xffffffffffffffff\n        /* \"#utility.yul\":9706:9712   */\n      dup3\n        /* \"#utility.yul\":9703:9733   */\n      gt\n        /* \"#utility.yul\":9700:9756   */\n      iszero\n      tag_734\n      jumpi\n        /* \"#utility.yul\":9736:9754   */\n      tag_735\n      tag_445\n      jump\t// in\n    tag_735:\n        /* \"#utility.yul\":9700:9756   */\n    tag_734:\n        /* \"#utility.yul\":9774:9803   */\n      tag_736\n        /* \"#utility.yul\":9796:9802   */\n      dup3\n        /* \"#utility.yul\":9774:9803   */\n      tag_531\n      jump\t// in\n    tag_736:\n        /* \"#utility.yul\":9766:9803   */\n      swap1\n      pop\n        /* \"#utility.yul\":9858:9862   */\n      0x20\n        /* \"#utility.yul\":9852:9856   */\n      dup2\n        /* \"#utility.yul\":9848:9863   */\n      add\n        /* \"#utility.yul\":9840:9863   */\n      swap1\n      pop\n        /* \"#utility.yul\":9563:9870   */\n      swap2\n      swap1\n      pop\n      jump\t// out\n        /* \"#utility.yul\":9876:10299   */\n    tag_553:\n        /* \"#utility.yul\":9953:9958   */\n      0x00\n        /* \"#utility.yul\":9978:10043   */\n      tag_738\n        /* \"#utility.yul\":9994:10042   */\n      tag_739\n        /* \"#utility.yul\":10035:10041   */\n      dup5\n        /* \"#utility.yul\":9994:10042   */\n      tag_552\n      jump\t// in\n    tag_739:\n        /* \"#utility.yul\":9978:10043   */\n      tag_545\n      jump\t// in\n    tag_738:\n        /* \"#utility.yul\":9969:10043   */\n      swap1\n      pop\n        /* \"#utility.yul\":10066:10072   */\n      dup3\n        /* \"#utility.yul\":10059:10064   */\n      dup2\n        /* \"#utility.yul\":10052:10073   */\n      mstore\n        /* \"#utility.yul\":10104:10108   */\n      0x20\n        /* \"#utility.yul\":10097:10102   */\n      dup2\n        /* \"#utility.yul\":10093:10109   */\n      add\n        /* \"#utility.yul\":10142:10145   */\n      dup5\n        /* \"#utility.yul\":10133:10139   */\n      dup5\n        /* \"#utility.yul\":10128:10131   */\n      dup5\n        /* \"#utility.yul\":10124:10140   */\n      add\n        /* \"#utility.yul\":10121:10146   */\n      gt\n        /* \"#utility.yul\":10118:10230   */\n      iszero\n      tag_740\n      jumpi\n        /* \"#utility.yul\":10149:10228   */\n      tag_741\n      tag_543\n      jump\t// in\n    tag_741:\n        /* \"#utility.yul\":10118:10230   */\n    tag_740:\n        /* \"#utility.yul\":10239:10293   */\n      tag_742\n        /* \"#utility.yul\":10286:10292   */\n      dup5\n        /* \"#utility.yul\":10281:10284   */\n      dup3\n        /* \"#utility.yul\":10276:10279   */\n      dup6\n        /* \"#utility.yul\":10239:10293   */\n      tag_547\n      jump\t// in\n    tag_742:\n        /* \"#utility.yul\":9959:10299   */\n      pop\n        /* \"#utility.yul\":9876:10299   */\n      swap4\n      swap3\n      pop\n      pop\n      pop\n      jump\t// out\n        /* \"#utility.yul\":10318:10656   */\n    tag_554:\n        /* \"#utility.yul\":10373:10378   */\n      0x00\n        /* \"#utility.yul\":10422:10425   */\n      dup3\n        /* \"#utility.yul\":10415:10419   */\n      0x1f\n        /* \"#utility.yul\":10407:10413   */\n      dup4\n        /* \"#utility.yul\":10403:10420   */\n      add\n        /* \"#utility.yul\":10399:10426   */\n      slt\n        /* \"#utility.yul\":10389:10511   */\n      tag_744\n      jumpi\n        /* \"#utility.yul\":10430:10509   */\n      tag_745\n      tag_542\n      jump\t// in\n    tag_745:\n        /* \"#utility.yul\":10389:10511   */\n    tag_744:\n        /* \"#utility.yul\":10547:10553   */\n      dup2\n        /* \"#utility.yul\":10534:10554   */\n      calldataload\n        /* \"#utility.yul\":10572:10650   */\n      tag_746\n        /* \"#utility.yul\":10646:10649   */\n      dup5\n        /* \"#utility.yul\":10638:10644   */\n      dup3\n        /* \"#utility.yul\":10631:10635   */\n      0x20\n        /* \"#utility.yul\":10623:10629   */\n      dup7\n        /* \"#utility.yul\":10619:10636   */\n      add\n        /* \"#utility.yul\":10572:10650   */\n      tag_553\n      jump\t// in\n    tag_746:\n        /* \"#utility.yul\":10563:10650   */\n      swap2\n      pop\n        /* \"#utility.yul\":10379:10656   */\n      pop\n        /* \"#utility.yul\":10318:10656   */\n      swap3\n      swap2\n      pop\n      pop\n      jump\t// out\n        /* \"#utility.yul\":10662:11605   */\n    tag_160:\n        /* \"#utility.yul\":10757:10763   */\n      0x00\n        /* \"#utility.yul\":10765:10771   */\n      dup1\n        /* \"#utility.yul\":10773:10779   */\n      0x00\n        /* \"#utility.yul\":10781:10787   */\n      dup1\n        /* \"#utility.yul\":10830:10833   */\n      0x80\n        /* \"#utility.yul\":10818:10827   */\n      dup6\n        /* \"#utility.yul\":10809:10816   */\n      dup8\n        /* \"#utility.yul\":10805:10828   */\n      sub\n        /* \"#utility.yul\":10801:10834   */\n      slt\n        /* \"#utility.yul\":10798:10918   */\n      iszero\n      tag_748\n      jumpi\n        /* \"#utility.yul\":10837:10916   */\n      tag_749\n      tag_521\n      jump\t// in\n    tag_749:\n        /* \"#utility.yul\":10798:10918   */\n    tag_748:\n        /* \"#utility.yul\":10957:10958   */\n      0x00\n        /* \"#utility.yul\":10982:11035   */\n      tag_750\n        /* \"#utility.yul\":11027:11034   */\n      dup8\n        /* \"#utility.yul\":11018:11024   */\n      dup3\n        /* \"#utility.yul\":11007:11016   */\n      dup9\n        /* \"#utility.yul\":11003:11025   */\n      add\n        /* \"#utility.yul\":10982:11035   */\n      tag_540\n      jump\t// in\n    tag_750:\n        /* \"#utility.yul\":10972:11035   */\n      swap5\n      pop\n        /* \"#utility.yul\":10928:11045   */\n      pop\n        /* \"#utility.yul\":11084:11086   */\n      0x20\n        /* \"#utility.yul\":11110:11163   */\n      tag_751\n        /* \"#utility.yul\":11155:11162   */\n      dup8\n        /* \"#utility.yul\":11146:11152   */\n      dup3\n        /* \"#utility.yul\":11135:11144   */\n      dup9\n        /* \"#utility.yul\":11131:11153   */\n      add\n        /* \"#utility.yul\":11110:11163   */\n      tag_540\n      jump\t// in\n    tag_751:\n        /* \"#utility.yul\":11100:11163   */\n      swap4\n      pop\n        /* \"#utility.yul\":11055:11173   */\n      pop\n        /* \"#utility.yul\":11212:11214   */\n      0x40\n        /* \"#utility.yul\":11238:11291   */\n      tag_752\n        /* \"#utility.yul\":11283:11290   */\n      dup8\n        /* \"#utility.yul\":11274:11280   */\n      dup3\n        /* \"#utility.yul\":11263:11272   */\n      dup9\n        /* \"#utility.yul\":11259:11281   */\n      add\n        /* \"#utility.yul\":11238:11291   */\n      tag_535\n      jump\t// in\n    tag_752:\n        /* \"#utility.yul\":11228:11291   */\n      swap3\n      pop\n        /* \"#utility.yul\":11183:11301   */\n      pop\n        /* \"#utility.yul\":11368:11370   */\n      0x60\n        /* \"#utility.yul\":11357:11366   */\n      dup6\n        /* \"#utility.yul\":11353:11371   */\n      add\n        /* \"#utility.yul\":11340:11372   */\n      calldataload\n        /* \"#utility.yul\":11399:11417   */\n      0xffffffffffffffff\n        /* \"#utility.yul\":11391:11397   */\n      dup2\n        /* \"#utility.yul\":11388:11418   */\n      gt\n        /* \"#utility.yul\":11385:11502   */\n      iszero\n      tag_753\n      jumpi\n        /* \"#utility.yul\":11421:11500   */\n      tag_754\n      tag_522\n      jump\t// in\n    tag_754:\n        /* \"#utility.yul\":11385:11502   */\n    tag_753:\n        /* \"#utility.yul\":11526:11588   */\n      tag_755\n        /* \"#utility.yul\":11580:11587   */\n      dup8\n        /* \"#utility.yul\":11571:11577   */\n      dup3\n        /* \"#utility.yul\":11560:11569   */\n      dup9\n        /* \"#utility.yul\":11556:11578   */\n      add\n        /* \"#utility.yul\":11526:11588   */\n      tag_554\n      jump\t// in\n    tag_755:\n        /* \"#utility.yul\":11516:11588   */\n      swap2\n      pop\n        /* \"#utility.yul\":11311:11598   */\n      pop\n        /* \"#utility.yul\":10662:11605   */\n      swap3\n      swap6\n      swap2\n      swap5\n      pop\n      swap3\n      pop\n      jump\t// out\n        /* \"#utility.yul\":11611:13091   */\n    tag_175:\n        /* \"#utility.yul\":12010:12014   */\n      0x00\n        /* \"#utility.yul\":12048:12051   */\n      0x0140\n        /* \"#utility.yul\":12037:12046   */\n      dup3\n        /* \"#utility.yul\":12033:12052   */\n      add\n        /* \"#utility.yul\":12025:12052   */\n      swap1\n      pop\n        /* \"#utility.yul\":12062:12133   */\n      tag_757\n        /* \"#utility.yul\":12130:12131   */\n      0x00\n        /* \"#utility.yul\":12119:12128   */\n      dup4\n        /* \"#utility.yul\":12115:12132   */\n      add\n        /* \"#utility.yul\":12106:12112   */\n      dup14\n        /* \"#utility.yul\":12062:12133   */\n      tag_538\n      jump\t// in\n    tag_757:\n        /* \"#utility.yul\":12143:12215   */\n      tag_758\n        /* \"#utility.yul\":12211:12213   */\n      0x20\n        /* \"#utility.yul\":12200:12209   */\n      dup4\n        /* \"#utility.yul\":12196:12214   */\n      add\n        /* \"#utility.yul\":12187:12193   */\n      dup13\n        /* \"#utility.yul\":12143:12215   */\n      tag_541\n      jump\t// in\n    tag_758:\n        /* \"#utility.yul\":12225:12297   */\n      tag_759\n        /* \"#utility.yul\":12293:12295   */\n      0x40\n        /* \"#utility.yul\":12282:12291   */\n      dup4\n        /* \"#utility.yul\":12278:12296   */\n      add\n        /* \"#utility.yul\":12269:12275   */\n      dup12\n        /* \"#utility.yul\":12225:12297   */\n      tag_541\n      jump\t// in\n    tag_759:\n        /* \"#utility.yul\":12307:12379   */\n      tag_760\n        /* \"#utility.yul\":12375:12377   */\n      0x60\n        /* \"#utility.yul\":12364:12373   */\n      dup4\n        /* \"#utility.yul\":12360:12378   */\n      add\n        /* \"#utility.yul\":12351:12357   */\n      dup11\n        /* \"#utility.yul\":12307:12379   */\n      tag_541\n      jump\t// in\n    tag_760:\n        /* \"#utility.yul\":12389:12462   */\n      tag_761\n        /* \"#utility.yul\":12457:12460   */\n      0x80\n        /* \"#utility.yul\":12446:12455   */\n      dup4\n        /* \"#utility.yul\":12442:12461   */\n      add\n        /* \"#utility.yul\":12433:12439   */\n      dup10\n        /* \"#utility.yul\":12389:12462   */\n      tag_541\n      jump\t// in\n    tag_761:\n        /* \"#utility.yul\":12510:12519   */\n      dup2\n        /* \"#utility.yul\":12504:12508   */\n      dup2\n        /* \"#utility.yul\":12500:12520   */\n      sub\n        /* \"#utility.yul\":12494:12497   */\n      0xa0\n        /* \"#utility.yul\":12483:12492   */\n      dup4\n        /* \"#utility.yul\":12479:12498   */\n      add\n        /* \"#utility.yul\":12472:12521   */\n      mstore\n        /* \"#utility.yul\":12538:12616   */\n      tag_762\n        /* \"#utility.yul\":12611:12615   */\n      dup2\n        /* \"#utility.yul\":12602:12608   */\n      dup9\n        /* \"#utility.yul\":12538:12616   */\n      tag_532\n      jump\t// in\n    tag_762:\n        /* \"#utility.yul\":12530:12616   */\n      swap1\n      pop\n        /* \"#utility.yul\":12664:12673   */\n      dup2\n        /* \"#utility.yul\":12658:12662   */\n      dup2\n        /* \"#utility.yul\":12654:12674   */\n      sub\n        /* \"#utility.yul\":12648:12651   */\n      0xc0\n        /* \"#utility.yul\":12637:12646   */\n      dup4\n        /* \"#utility.yul\":12633:12652   */\n      add\n        /* \"#utility.yul\":12626:12675   */\n      mstore\n        /* \"#utility.yul\":12692:12770   */\n      tag_763\n        /* \"#utility.yul\":12765:12769   */\n      dup2\n        /* \"#utility.yul\":12756:12762   */\n      dup8\n        /* \"#utility.yul\":12692:12770   */\n      tag_532\n      jump\t// in\n    tag_763:\n        /* \"#utility.yul\":12684:12770   */\n      swap1\n      pop\n        /* \"#utility.yul\":12818:12827   */\n      dup2\n        /* \"#utility.yul\":12812:12816   */\n      dup2\n        /* \"#utility.yul\":12808:12828   */\n      sub\n        /* \"#utility.yul\":12802:12805   */\n      0xe0\n        /* \"#utility.yul\":12791:12800   */\n      dup4\n        /* \"#utility.yul\":12787:12806   */\n      add\n        /* \"#utility.yul\":12780:12829   */\n      mstore\n        /* \"#utility.yul\":12846:12924   */\n      tag_764\n        /* \"#utility.yul\":12919:12923   */\n      dup2\n        /* \"#utility.yul\":12910:12916   */\n      dup7\n        /* \"#utility.yul\":12846:12924   */\n      tag_532\n      jump\t// in\n    tag_764:\n        /* \"#utility.yul\":12838:12924   */\n      swap1\n      pop\n        /* \"#utility.yul\":12934:13001   */\n      tag_765\n        /* \"#utility.yul\":12996:12999   */\n      0x0100\n        /* \"#utility.yul\":12985:12994   */\n      dup4\n        /* \"#utility.yul\":12981:13000   */\n      add\n        /* \"#utility.yul\":12972:12978   */\n      dup6\n        /* \"#utility.yul\":12934:13001   */\n      tag_527\n      jump\t// in\n    tag_765:\n        /* \"#utility.yul\":13011:13084   */\n      tag_766\n        /* \"#utility.yul\":13079:13082   */\n      0x0120\n        /* \"#utility.yul\":13068:13077   */\n      dup4\n        /* \"#utility.yul\":13064:13083   */\n      add\n        /* \"#utility.yul\":13055:13061   */\n      dup5\n        /* \"#utility.yul\":13011:13084   */\n      tag_541\n      jump\t// in\n    tag_766:\n        /* \"#utility.yul\":11611:13091   */\n      swap12\n      swap11\n      pop\n      pop\n      pop\n      pop\n      pop\n      pop\n      pop\n      pop\n      pop\n      pop\n      pop\n      jump\t// out\n        /* \"#utility.yul\":13097:13571   */\n    tag_179:\n        /* \"#utility.yul\":13165:13171   */\n      0x00\n        /* \"#utility.yul\":13173:13179   */\n      dup1\n        /* \"#utility.yul\":13222:13224   */\n      0x40\n        /* \"#utility.yul\":13210:13219   */\n      dup4\n        /* \"#utility.yul\":13201:13208   */\n      dup6\n        /* \"#utility.yul\":13197:13220   */\n      sub\n        /* \"#utility.yul\":13193:13225   */\n      slt\n        /* \"#utility.yul\":13190:13309   */\n      iszero\n      tag_768\n      jumpi\n        /* \"#utility.yul\":13228:13307   */\n      tag_769\n      tag_521\n      jump\t// in\n    tag_769:\n        /* \"#utility.yul\":13190:13309   */\n    tag_768:\n        /* \"#utility.yul\":13348:13349   */\n      0x00\n        /* \"#utility.yul\":13373:13426   */\n      tag_770\n        /* \"#utility.yul\":13418:13425   */\n      dup6\n        /* \"#utility.yul\":13409:13415   */\n      dup3\n        /* \"#utility.yul\":13398:13407   */\n      dup7\n        /* \"#utility.yul\":13394:13416   */\n      add\n        /* \"#utility.yul\":13373:13426   */\n      tag_540\n      jump\t// in\n    tag_770:\n        /* \"#utility.yul\":13363:13426   */\n      swap3\n      pop\n        /* \"#utility.yul\":13319:13436   */\n      pop\n        /* \"#utility.yul\":13475:13477   */\n      0x20\n        /* \"#utility.yul\":13501:13554   */\n      tag_771\n        /* \"#utility.yul\":13546:13553   */\n      dup6\n        /* \"#utility.yul\":13537:13543   */\n      dup3\n        /* \"#utility.yul\":13526:13535   */\n      dup7\n        /* \"#utility.yul\":13522:13544   */\n      add\n        /* \"#utility.yul\":13501:13554   */\n      tag_540\n      jump\t// in\n    tag_771:\n        /* \"#utility.yul\":13491:13554   */\n      swap2\n      pop\n        /* \"#utility.yul\":13446:13564   */\n      pop\n        /* \"#utility.yul\":13097:13571   */\n      swap3\n      pop\n      swap3\n      swap1\n      pop\n      jump\t// out\n        /* \"#utility.yul\":13577:13757   */\n    tag_555:\n        /* \"#utility.yul\":13625:13702   */\n      0x4e487b7100000000000000000000000000000000000000000000000000000000\n        /* \"#utility.yul\":13622:13623   */\n      0x00\n        /* \"#utility.yul\":13615:13703   */\n      mstore\n        /* \"#utility.yul\":13722:13726   */\n      0x22\n        /* \"#utility.yul\":13719:13720   */\n      0x04\n        /* \"#utility.yul\":13712:13727   */\n      mstore\n        /* \"#utility.yul\":13746:13750   */\n      0x24\n        /* \"#utility.yul\":13743:13744   */\n      0x00\n        /* \"#utility.yul\":13736:13751   */\n      revert\n        /* \"#utility.yul\":13763:14083   */\n    tag_198:\n        /* \"#utility.yul\":13807:13813   */\n      0x00\n        /* \"#utility.yul\":13844:13845   */\n      0x02\n        /* \"#utility.yul\":13838:13842   */\n      dup3\n        /* \"#utility.yul\":13834:13846   */\n      div\n        /* \"#utility.yul\":13824:13846   */\n      swap1\n      pop\n        /* \"#utility.yul\":13891:13892   */\n      0x01\n        /* \"#utility.yul\":13885:13889   */\n      dup3\n        /* \"#utility.yul\":13881:13893   */\n      and\n        /* \"#utility.yul\":13912:13930   */\n      dup1\n        /* \"#utility.yul\":13902:13983   */\n      tag_774\n      jumpi\n        /* \"#utility.yul\":13968:13972   */\n      0x7f\n        /* \"#utility.yul\":13960:13966   */\n      dup3\n        /* \"#utility.yul\":13956:13973   */\n      and\n        /* \"#utility.yul\":13946:13973   */\n      swap2\n      pop\n        /* \"#utility.yul\":13902:13983   */\n    tag_774:\n        /* \"#utility.yul\":14030:14032   */\n      0x20\n        /* \"#utility.yul\":14022:14028   */\n      dup3\n        /* \"#utility.yul\":14019:14033   */\n      lt\n        /* \"#utility.yul\":13999:14017   */\n      dup2\n        /* \"#utility.yul\":13996:14034   */\n      sub\n        /* \"#utility.yul\":13993:14077   */\n      tag_775\n      jumpi\n        /* \"#utility.yul\":14049:14067   */\n      tag_776\n      tag_555\n      jump\t// in\n    tag_776:\n        /* \"#utility.yul\":13993:14077   */\n    tag_775:\n        /* \"#utility.yul\":13814:14083   */\n      pop\n        /* \"#utility.yul\":13763:14083   */\n      swap2\n      swap1\n      pop\n      jump\t// out\n        /* \"#utility.yul\":14089:14309   */\n    tag_556:\n        /* \"#utility.yul\":14229:14263   */\n      0x4552433732313a20617070726f76616c20746f2063757272656e74206f776e65\n        /* \"#utility.yul\":14225:14226   */\n      0x00\n        /* \"#utility.yul\":14217:14223   */\n      dup3\n        /* \"#utility.yul\":14213:14227   */\n      add\n        /* \"#utility.yul\":14206:14264   */\n      mstore\n        /* \"#utility.yul\":14298:14301   */\n      0x7200000000000000000000000000000000000000000000000000000000000000\n        /* \"#utility.yul\":14293:14295   */\n      0x20\n        /* \"#utility.yul\":14285:14291   */\n      dup3\n        /* \"#utility.yul\":14281:14296   */\n      add\n        /* \"#utility.yul\":14274:14302   */\n      mstore\n        /* \"#utility.yul\":14089:14309   */\n      pop\n      jump\t// out\n        /* \"#utility.yul\":14315:14681   */\n    tag_557:\n        /* \"#utility.yul\":14457:14460   */\n      0x00\n        /* \"#utility.yul\":14478:14545   */\n      tag_779\n        /* \"#utility.yul\":14542:14544   */\n      0x21\n        /* \"#utility.yul\":14537:14540   */\n      dup4\n        /* \"#utility.yul\":14478:14545   */\n      tag_529\n      jump\t// in\n    tag_779:\n        /* \"#utility.yul\":14471:14545   */\n      swap2\n      pop\n        /* \"#utility.yul\":14554:14647   */\n      tag_780\n        /* \"#utility.yul\":14643:14646   */\n      dup3\n        /* \"#utility.yul\":14554:14647   */\n      tag_556\n      jump\t// in\n    tag_780:\n        /* \"#utility.yul\":14672:14674   */\n      0x40\n        /* \"#utility.yul\":14667:14670   */\n      dup3\n        /* \"#utility.yul\":14663:14675   */\n      add\n        /* \"#utility.yul\":14656:14675   */\n      swap1\n      pop\n        /* \"#utility.yul\":14315:14681   */\n      swap2\n      swap1\n      pop\n      jump\t// out\n        /* \"#utility.yul\":14687:15106   */\n    tag_210:\n        /* \"#utility.yul\":14853:14857   */\n      0x00\n        /* \"#utility.yul\":14891:14893   */\n      0x20\n        /* \"#utility.yul\":14880:14889   */\n      dup3\n        /* \"#utility.yul\":14876:14894   */\n      add\n        /* \"#utility.yul\":14868:14894   */\n      swap1\n      pop\n        /* \"#utility.yul\":14940:14949   */\n      dup2\n        /* \"#utility.yul\":14934:14938   */\n      dup2\n        /* \"#utility.yul\":14930:14950   */\n      sub\n        /* \"#utility.yul\":14926:14927   */\n      0x00\n        /* \"#utility.yul\":14915:14924   */\n      dup4\n        /* \"#utility.yul\":14911:14928   */\n      add\n        /* \"#utility.yul\":14904:14951   */\n      mstore\n        /* \"#utility.yul\":14968:15099   */\n      tag_782\n        /* \"#utility.yul\":15094:15098   */\n      dup2\n        /* \"#utility.yul\":14968:15099   */\n      tag_557\n      jump\t// in\n    tag_782:\n        /* \"#utility.yul\":14960:15099   */\n      swap1\n      pop\n        /* \"#utility.yul\":14687:15106   */\n      swap2\n      swap1\n      pop\n      jump\t// out\n        /* \"#utility.yul\":15112:15360   */\n    tag_558:\n        /* \"#utility.yul\":15252:15286   */\n      0x4552433732313a20617070726f76652063616c6c6572206973206e6f7420746f\n        /* \"#utility.yul\":15248:15249   */\n      0x00\n        /* \"#utility.yul\":15240:15246   */\n      dup3\n        /* \"#utility.yul\":15236:15250   */\n      add\n        /* \"#utility.yul\":15229:15287   */\n      mstore\n        /* \"#utility.yul\":15321:15352   */\n      0x6b656e206f776e6572206f7220617070726f76656420666f7220616c6c000000\n        /* \"#utility.yul\":15316:15318   */\n      0x20\n        /* \"#utility.yul\":15308:15314   */\n      dup3\n        /* \"#utility.yul\":15304:15319   */\n      add\n        /* \"#utility.yul\":15297:15353   */\n      mstore\n        /* \"#utility.yul\":15112:15360   */\n      pop\n      jump\t// out\n        /* \"#utility.yul\":15366:15732   */\n    tag_559:\n        /* \"#utility.yul\":15508:15511   */\n      0x00\n        /* \"#utility.yul\":15529:15596   */\n      tag_785\n        /* \"#utility.yul\":15593:15595   */\n      0x3d\n        /* \"#utility.yul\":15588:15591   */\n      dup4\n        /* \"#utility.yul\":15529:15596   */\n      tag_529\n      jump\t// in\n    tag_785:\n        /* \"#utility.yul\":15522:15596   */\n      swap2\n      pop\n        /* \"#utility.yul\":15605:15698   */\n      tag_786\n        /* \"#utility.yul\":15694:15697   */\n      dup3\n        /* \"#utility.yul\":15605:15698   */\n      tag_558\n      jump\t// in\n    tag_786:\n        /* \"#utility.yul\":15723:15725   */\n      0x40\n        /* \"#utility.yul\":15718:15721   */\n      dup3\n        /* \"#utility.yul\":15714:15726   */\n      add\n        /* \"#utility.yul\":15707:15726   */\n      swap1\n      pop\n        /* \"#utility.yul\":15366:15732   */\n      swap2\n      swap1\n      pop\n      jump\t// out\n        /* \"#utility.yul\":15738:16157   */\n    tag_218:\n        /* \"#utility.yul\":15904:15908   */\n      0x00\n        /* \"#utility.yul\":15942:15944   */\n      0x20\n        /* \"#utility.yul\":15931:15940   */\n      dup3\n        /* \"#utility.yul\":15927:15945   */\n      add\n        /* \"#utility.yul\":15919:15945   */\n      swap1\n      pop\n        /* \"#utility.yul\":15991:16000   */\n      dup2\n        /* \"#utility.yul\":15985:15989   */\n      dup2\n        /* \"#utility.yul\":15981:16001   */\n      sub\n        /* \"#utility.yul\":15977:15978   */\n      0x00\n        /* \"#utility.yul\":15966:15975   */\n      dup4\n        /* \"#utility.yul\":15962:15979   */\n      add\n        /* \"#utility.yul\":15955:16002   */\n      mstore\n        /* \"#utility.yul\":16019:16150   */\n      tag_788\n        /* \"#utility.yul\":16145:16149   */\n      dup2\n        /* \"#utility.yul\":16019:16150   */\n      tag_559\n      jump\t// in\n    tag_788:\n        /* \"#utility.yul\":16011:16150   */\n      swap1\n      pop\n        /* \"#utility.yul\":15738:16157   */\n      swap2\n      swap1\n      pop\n      jump\t// out\n        /* \"#utility.yul\":16163:16395   */\n    tag_560:\n        /* \"#utility.yul\":16303:16337   */\n      0x4552433732313a2063616c6c6572206973206e6f7420746f6b656e206f776e65\n        /* \"#utility.yul\":16299:16300   */\n      0x00\n        /* \"#utility.yul\":16291:16297   */\n      dup3\n        /* \"#utility.yul\":16287:16301   */\n      add\n        /* \"#utility.yul\":16280:16338   */\n      mstore\n        /* \"#utility.yul\":16372:16387   */\n      0x72206f7220617070726f76656400000000000000000000000000000000000000\n        /* \"#utility.yul\":16367:16369   */\n      0x20\n        /* \"#utility.yul\":16359:16365   */\n      dup3\n        /* \"#utility.yul\":16355:16370   */\n      add\n        /* \"#utility.yul\":16348:16388   */\n      mstore\n        /* \"#utility.yul\":16163:16395   */\n      pop\n      jump\t// out\n        /* \"#utility.yul\":16401:16767   */\n    tag_561:\n        /* \"#utility.yul\":16543:16546   */\n      0x00\n        /* \"#utility.yul\":16564:16631   */\n      tag_791\n        /* \"#utility.yul\":16628:16630   */\n      0x2d\n        /* \"#utility.yul\":16623:16626   */\n      dup4\n        /* \"#utility.yul\":16564:16631   */\n      tag_529\n      jump\t// in\n    tag_791:\n        /* \"#utility.yul\":16557:16631   */\n      swap2\n      pop\n        /* \"#utility.yul\":16640:16733   */\n      tag_792\n        /* \"#utility.yul\":16729:16732   */\n      dup3\n        /* \"#utility.yul\":16640:16733   */\n      tag_560\n      jump\t// in\n    tag_792:\n        /* \"#utility.yul\":16758:16760   */\n      0x40\n        /* \"#utility.yul\":16753:16756   */\n      dup3\n        /* \"#utility.yul\":16749:16761   */\n      add\n        /* \"#utility.yul\":16742:16761   */\n      swap1\n      pop\n        /* \"#utility.yul\":16401:16767   */\n      swap2\n      swap1\n      pop\n      jump\t// out\n        /* \"#utility.yul\":16773:17192   */\n    tag_227:\n        /* \"#utility.yul\":16939:16943   */\n      0x00\n        /* \"#utility.yul\":16977:16979   */\n      0x20\n        /* \"#utility.yul\":16966:16975   */\n      dup3\n        /* \"#utility.yul\":16962:16980   */\n      add\n        /* \"#utility.yul\":16954:16980   */\n      swap1\n      pop\n        /* \"#utility.yul\":17026:17035   */\n      dup2\n        /* \"#utility.yul\":17020:17024   */\n      dup2\n        /* \"#utility.yul\":17016:17036   */\n      sub\n        /* \"#utility.yul\":17012:17013   */\n      0x00\n        /* \"#utility.yul\":17001:17010   */\n      dup4\n        /* \"#utility.yul\":16997:17014   */\n      add\n        /* \"#utility.yul\":16990:17037   */\n      mstore\n        /* \"#utility.yul\":17054:17185   */\n      tag_794\n        /* \"#utility.yul\":17180:17184   */\n      dup2\n        /* \"#utility.yul\":17054:17185   */\n      tag_561\n      jump\t// in\n    tag_794:\n        /* \"#utility.yul\":17046:17185   */\n      swap1\n      pop\n        /* \"#utility.yul\":16773:17192   */\n      swap2\n      swap1\n      pop\n      jump\t// out\n        /* \"#utility.yul\":17198:17339   */\n    tag_562:\n        /* \"#utility.yul\":17247:17251   */\n      0x00\n        /* \"#utility.yul\":17270:17273   */\n      dup2\n        /* \"#utility.yul\":17262:17273   */\n      swap1\n      pop\n        /* \"#utility.yul\":17293:17296   */\n      dup2\n        /* \"#utility.yul\":17290:17291   */\n      0x00\n        /* \"#utility.yul\":17283:17297   */\n      mstore\n        /* \"#utility.yul\":17327:17331   */\n      0x20\n        /* \"#utility.yul\":17324:17325   */\n      0x00\n        /* \"#utility.yul\":17314:17332   */\n      keccak256\n        /* \"#utility.yul\":17306:17332   */\n      swap1\n      pop\n        /* \"#utility.yul\":17198:17339   */\n      swap2\n      swap1\n      pop\n      jump\t// out\n        /* \"#utility.yul\":17345:17438   */\n    tag_563:\n        /* \"#utility.yul\":17382:17388   */\n      0x00\n        /* \"#utility.yul\":17429:17431   */\n      0x20\n        /* \"#utility.yul\":17424:17426   */\n      0x1f\n        /* \"#utility.yul\":17417:17422   */\n      dup4\n        /* \"#utility.yul\":17413:17427   */\n      add\n        /* \"#utility.yul\":17409:17432   */\n      div\n        /* \"#utility.yul\":17399:17432   */\n      swap1\n      pop\n        /* \"#utility.yul\":17345:17438   */\n      swap2\n      swap1\n      pop\n      jump\t// out\n        /* \"#utility.yul\":17444:17551   */\n    tag_564:\n        /* \"#utility.yul\":17488:17496   */\n      0x00\n        /* \"#utility.yul\":17538:17543   */\n      dup3\n        /* \"#utility.yul\":17532:17536   */\n      dup3\n        /* \"#utility.yul\":17528:17544   */\n      shl\n        /* \"#utility.yul\":17507:17544   */\n      swap1\n      pop\n        /* \"#utility.yul\":17444:17551   */\n      swap3\n      swap2\n      pop\n      pop\n      jump\t// out\n        /* \"#utility.yul\":17557:17950   */\n    tag_565:\n        /* \"#utility.yul\":17626:17632   */\n      0x00\n        /* \"#utility.yul\":17676:17677   */\n      0x08\n        /* \"#utility.yul\":17664:17674   */\n      dup4\n        /* \"#utility.yul\":17660:17678   */\n      mul\n        /* \"#utility.yul\":17699:17796   */\n      tag_799\n        /* \"#utility.yul\":17729:17795   */\n      0xffffffffffffffffffffffffffffffffffffffffffffffffffffffffffffffff\n        /* \"#utility.yul\":17718:17727   */\n      dup3\n        /* \"#utility.yul\":17699:17796   */\n      tag_564\n      jump\t// in\n    tag_799:\n        /* \"#utility.yul\":17817:17856   */\n      tag_800\n        /* \"#utility.yul\":17847:17855   */\n      dup7\n        /* \"#utility.yul\":17836:17845   */\n      dup4\n        /* \"#utility.yul\":17817:17856   */\n      tag_564\n      jump\t// in\n    tag_800:\n        /* \"#utility.yul\":17805:17856   */\n      swap6\n      pop\n        /* \"#utility.yul\":17889:17893   */\n      dup1\n        /* \"#utility.yul\":17885:17894   */\n      not\n        /* \"#utility.yul\":17878:17883   */\n      dup5\n        /* \"#utility.yul\":17874:17895   */\n      and\n        /* \"#utility.yul\":17865:17895   */\n      swap4\n      pop\n        /* \"#utility.yul\":17938:17942   */\n      dup1\n        /* \"#utility.yul\":17928:17936   */\n      dup7\n        /* \"#utility.yul\":17924:17943   */\n      and\n        /* \"#utility.yul\":17917:17922   */\n      dup5\n        /* \"#utility.yul\":17914:17944   */\n      or\n        /* \"#utility.yul\":17904:17944   */\n      swap3\n      pop\n        /* \"#utility.yul\":17633:17950   */\n      pop\n      pop\n        /* \"#utility.yul\":17557:17950   */\n      swap4\n      swap3\n      pop\n      pop\n      pop\n      jump\t// out\n        /* \"#utility.yul\":17956:18016   */\n    tag_566:\n        /* \"#utility.yul\":17984:17987   */\n      0x00\n        /* \"#utility.yul\":18005:18010   */\n      dup2\n        /* \"#utility.yul\":17998:18010   */\n      swap1\n      pop\n        /* \"#utility.yul\":17956:18016   */\n      swap2\n      swap1\n      pop\n      jump\t// out\n        /* \"#utility.yul\":18022:18164   */\n    tag_567:\n        /* \"#utility.yul\":18072:18081   */\n      0x00\n        /* \"#utility.yul\":18105:18158   */\n      tag_803\n        /* \"#utility.yul\":18123:18157   */\n      tag_804\n        /* \"#utility.yul\":18132:18156   */\n      tag_805\n        /* \"#utility.yul\":18150:18155   */\n      dup5\n        /* \"#utility.yul\":18132:18156   */\n      tag_533\n      jump\t// in\n    tag_805:\n        /* \"#utility.yul\":18123:18157   */\n      tag_566\n      jump\t// in\n    tag_804:\n        /* \"#utility.yul\":18105:18158   */\n      tag_533\n      jump\t// in\n    tag_803:\n        /* \"#utility.yul\":18092:18158   */\n      swap1\n      pop\n        /* \"#utility.yul\":18022:18164   */\n      swap2\n      swap1\n      pop\n      jump\t// out\n        /* \"#utility.yul\":18170:18245   */\n    tag_568:\n        /* \"#utility.yul\":18213:18216   */\n      0x00\n        /* \"#utility.yul\":18234:18239   */\n      dup2\n        /* \"#utility.yul\":18227:18239   */\n      swap1\n      pop\n        /* \"#utility.yul\":18170:18245   */\n      swap2\n      swap1\n      pop\n      jump\t// out\n        /* \"#utility.yul\":18251:18520   */\n    tag_569:\n        /* \"#utility.yul\":18361:18400   */\n      tag_808\n        /* \"#utility.yul\":18392:18399   */\n      dup4\n        /* \"#utility.yul\":18361:18400   */\n      tag_567\n      jump\t// in\n    tag_808:\n        /* \"#utility.yul\":18422:18513   */\n      tag_809\n        /* \"#utility.yul\":18471:18512   */\n      tag_810\n        /* \"#utility.yul\":18495:18511   */\n      dup3\n        /* \"#utility.yul\":18471:18512   */\n      tag_568\n      jump\t// in\n    tag_810:\n        /* \"#utility.yul\":18463:18469   */\n      dup5\n        /* \"#utility.yul\":18456:18460   */\n      dup5\n        /* \"#utility.yul\":18450:18461   */\n      sload\n        /* \"#utility.yul\":18422:18513   */\n      tag_565\n      jump\t// in\n    tag_809:\n        /* \"#utility.yul\":18416:18420   */\n      dup3\n        /* \"#utility.yul\":18409:18514   */\n      sstore\n        /* \"#utility.yul\":18327:18520   */\n      pop\n        /* \"#utility.yul\":18251:18520   */\n      pop\n      pop\n      pop\n      jump\t// out\n        /* \"#utility.yul\":18526:18599   */\n    tag_570:\n        /* \"#utility.yul\":18571:18574   */\n      0x00\n        /* \"#utility.yul\":18526:18599   */\n      swap1\n      jump\t// out\n        /* \"#utility.yul\":18605:18794   */\n    tag_571:\n        /* \"#utility.yul\":18682:18714   */\n      tag_813\n      tag_570\n      jump\t// in\n    tag_813:\n        /* \"#utility.yul\":18723:18788   */\n      tag_814\n        /* \"#utility.yul\":18781:18787   */\n      dup2\n        /* \"#utility.yul\":18773:18779   */\n      dup5\n        /* \"#utility.yul\":18767:18771   */\n      dup5\n        /* \"#utility.yul\":18723:18788   */\n      tag_569\n      jump\t// in\n    tag_814:\n        /* \"#utility.yul\":18658:18794   */\n      pop\n        /* \"#utility.yul\":18605:18794   */\n      pop\n      pop\n      jump\t// out\n        /* \"#utility.yul\":18800:18986   */\n    tag_572:\n        /* \"#utility.yul\":18860:18980   */\n    tag_816:\n        /* \"#utility.yul\":18877:18880   */\n      dup2\n        /* \"#utility.yul\":18870:18875   */\n      dup2\n        /* \"#utility.yul\":18867:18881   */\n      lt\n        /* \"#utility.yul\":18860:18980   */\n      iszero\n      tag_818\n      jumpi\n        /* \"#utility.yul\":18931:18970   */\n      tag_819\n        /* \"#utility.yul\":18968:18969   */\n      0x00\n        /* \"#utility.yul\":18961:18966   */\n      dup3\n        /* \"#utility.yul\":18931:18970   */\n      tag_571\n      jump\t// in\n    tag_819:\n        /* \"#utility.yul\":18904:18905   */\n      0x01\n        /* \"#utility.yul\":18897:18902   */\n      dup2\n        /* \"#utility.yul\":18893:18906   */\n      add\n        /* \"#utility.yul\":18884:18906   */\n      swap1\n      pop\n        /* \"#utility.yul\":18860:18980   */\n      jump(tag_816)\n    tag_818:\n        /* \"#utility.yul\":18800:18986   */\n      pop\n      pop\n      jump\t// out\n        /* \"#utility.yul\":18992:19535   */\n    tag_573:\n        /* \"#utility.yul\":19093:19095   */\n      0x1f\n        /* \"#utility.yul\":19088:19091   */\n      dup3\n        /* \"#utility.yul\":19085:19096   */\n      gt\n        /* \"#utility.yul\":19082:19528   */\n      iszero\n      tag_821\n      jumpi\n        /* \"#utility.yul\":19127:19165   */\n      tag_822\n        /* \"#utility.yul\":19159:19164   */\n      dup2\n        /* \"#utility.yul\":19127:19165   */\n      tag_562\n      jump\t// in\n    tag_822:\n        /* \"#utility.yul\":19211:19240   */\n      tag_823\n        /* \"#utility.yul\":19229:19239   */\n      dup5\n        /* \"#utility.yul\":19211:19240   */\n      tag_563\n      jump\t// in\n    tag_823:\n        /* \"#utility.yul\":19201:19209   */\n      dup2\n        /* \"#utility.yul\":19197:19241   */\n      add\n        /* \"#utility.yul\":19394:19396   */\n      0x20\n        /* \"#utility.yul\":19382:19392   */\n      dup6\n        /* \"#utility.yul\":19379:19397   */\n      lt\n        /* \"#utility.yul\":19376:19425   */\n      iszero\n      tag_824\n      jumpi\n        /* \"#utility.yul\":19415:19423   */\n      dup2\n        /* \"#utility.yul\":19400:19423   */\n      swap1\n      pop\n        /* \"#utility.yul\":19376:19425   */\n    tag_824:\n        /* \"#utility.yul\":19438:19518   */\n      tag_825\n        /* \"#utility.yul\":19494:19516   */\n      tag_826\n        /* \"#utility.yul\":19512:19515   */\n      dup6\n        /* \"#utility.yul\":19494:19516   */\n      tag_563\n      jump\t// in\n    tag_826:\n        /* \"#utility.yul\":19484:19492   */\n      dup4\n        /* \"#utility.yul\":19480:19517   */\n      add\n        /* \"#utility.yul\":19467:19478   */\n      dup3\n        /* \"#utility.yul\":19438:19518   */\n      tag_572\n      jump\t// in\n    tag_825:\n        /* \"#utility.yul\":19097:19528   */\n      pop\n      pop\n        /* \"#utility.yul\":19082:19528   */\n    tag_821:\n        /* \"#utility.yul\":18992:19535   */\n      pop\n      pop\n      pop\n      jump\t// out\n        /* \"#utility.yul\":19541:19658   */\n    tag_574:\n        /* \"#utility.yul\":19595:19603   */\n      0x00\n        /* \"#utility.yul\":19645:19650   */\n      dup3\n        /* \"#utility.yul\":19639:19643   */\n      dup3\n        /* \"#utility.yul\":19635:19651   */\n      shr\n        /* \"#utility.yul\":19614:19651   */\n      swap1\n      pop\n        /* \"#utility.yul\":19541:19658   */\n      swap3\n      swap2\n      pop\n      pop\n      jump\t// out\n        /* \"#utility.yul\":19664:19833   */\n    tag_575:\n        /* \"#utility.yul\":19708:19714   */\n      0x00\n        /* \"#utility.yul\":19741:19792   */\n      tag_829\n        /* \"#utility.yul\":19789:19790   */\n      0x00\n        /* \"#utility.yul\":19785:19791   */\n      not\n        /* \"#utility.yul\":19777:19782   */\n      dup5\n        /* \"#utility.yul\":19774:19775   */\n      0x08\n        /* \"#utility.yul\":19770:19783   */\n      mul\n        /* \"#utility.yul\":19741:19792   */\n      tag_574\n      jump\t// in\n    tag_829:\n        /* \"#utility.yul\":19737:19793   */\n      not\n        /* \"#utility.yul\":19822:19826   */\n      dup1\n        /* \"#utility.yul\":19816:19820   */\n      dup4\n        /* \"#utility.yul\":19812:19827   */\n      and\n        /* \"#utility.yul\":19802:19827   */\n      swap2\n      pop\n        /* \"#utility.yul\":19715:19833   */\n      pop\n        /* \"#utility.yul\":19664:19833   */\n      swap3\n      swap2\n      pop\n      pop\n      jump\t// out\n        /* \"#utility.yul\":19838:20133   */\n    tag_576:\n        /* \"#utility.yul\":19914:19918   */\n      0x00\n        /* \"#utility.yul\":20060:20089   */\n      tag_831\n        /* \"#utility.yul\":20085:20088   */\n      dup4\n        /* \"#utility.yul\":20079:20083   */\n      dup4\n        /* \"#utility.yul\":20060:20089   */\n      tag_575\n      jump\t// in\n    tag_831:\n        /* \"#utility.yul\":20052:20089   */\n      swap2\n      pop\n        /* \"#utility.yul\":20122:20125   */\n      dup3\n        /* \"#utility.yul\":20119:20120   */\n      0x02\n        /* \"#utility.yul\":20115:20126   */\n      mul\n        /* \"#utility.yul\":20109:20113   */\n      dup3\n        /* \"#utility.yul\":20106:20127   */\n      or\n        /* \"#utility.yul\":20098:20127   */\n      swap1\n      pop\n        /* \"#utility.yul\":19838:20133   */\n      swap3\n      swap2\n      pop\n      pop\n      jump\t// out\n        /* \"#utility.yul\":20138:21533   */\n    tag_241:\n        /* \"#utility.yul\":20255:20292   */\n      tag_833\n        /* \"#utility.yul\":20288:20291   */\n      dup3\n        /* \"#utility.yul\":20255:20292   */\n      tag_528\n      jump\t// in\n    tag_833:\n        /* \"#utility.yul\":20357:20375   */\n      0xffffffffffffffff\n        /* \"#utility.yul\":20349:20355   */\n      dup2\n        /* \"#utility.yul\":20346:20376   */\n      gt\n        /* \"#utility.yul\":20343:20399   */\n      iszero\n      tag_834\n      jumpi\n        /* \"#utility.yul\":20379:20397   */\n      tag_835\n      tag_445\n      jump\t// in\n    tag_835:\n        /* \"#utility.yul\":20343:20399   */\n    tag_834:\n        /* \"#utility.yul\":20423:20461   */\n      tag_836\n        /* \"#utility.yul\":20455:20459   */\n      dup3\n        /* \"#utility.yul\":20449:20460   */\n      sload\n        /* \"#utility.yul\":20423:20461   */\n      tag_198\n      jump\t// in\n    tag_836:\n        /* \"#utility.yul\":20508:20575   */\n      tag_837\n        /* \"#utility.yul\":20568:20574   */\n      dup3\n        /* \"#utility.yul\":20560:20566   */\n      dup3\n        /* \"#utility.yul\":20554:20558   */\n      dup6\n        /* \"#utility.yul\":20508:20575   */\n      tag_573\n      jump\t// in\n    tag_837:\n        /* \"#utility.yul\":20602:20603   */\n      0x00\n        /* \"#utility.yul\":20626:20630   */\n      0x20\n        /* \"#utility.yul\":20613:20630   */\n      swap1\n      pop\n        /* \"#utility.yul\":20658:20660   */\n      0x1f\n        /* \"#utility.yul\":20650:20656   */\n      dup4\n        /* \"#utility.yul\":20647:20661   */\n      gt\n        /* \"#utility.yul\":20675:20676   */\n      0x01\n        /* \"#utility.yul\":20670:21288   */\n      dup2\n      eq\n      tag_839\n      jumpi\n        /* \"#utility.yul\":21332:21333   */\n      0x00\n        /* \"#utility.yul\":21349:21355   */\n      dup5\n        /* \"#utility.yul\":21346:21423   */\n      iszero\n      tag_840\n      jumpi\n        /* \"#utility.yul\":21398:21407   */\n      dup3\n        /* \"#utility.yul\":21393:21396   */\n      dup8\n        /* \"#utility.yul\":21389:21408   */\n      add\n        /* \"#utility.yul\":21383:21409   */\n      mload\n        /* \"#utility.yul\":21374:21409   */\n      swap1\n      pop\n        /* \"#utility.yul\":21346:21423   */\n    tag_840:\n        /* \"#utility.yul\":21449:21516   */\n      tag_841\n        /* \"#utility.yul\":21509:21515   */\n      dup6\n        /* \"#utility.yul\":21502:21507   */\n      dup3\n        /* \"#utility.yul\":21449:21516   */\n      tag_576\n      jump\t// in\n    tag_841:\n        /* \"#utility.yul\":21443:21447   */\n      dup7\n        /* \"#utility.yul\":21436:21517   */\n      sstore\n        /* \"#utility.yul\":21305:21527   */\n      pop\n        /* \"#utility.yul\":20640:21527   */\n      jump(tag_838)\n        /* \"#utility.yul\":20670:21288   */\n    tag_839:\n        /* \"#utility.yul\":20722:20726   */\n      0x1f\n        /* \"#utility.yul\":20718:20727   */\n      not\n        /* \"#utility.yul\":20710:20716   */\n      dup5\n        /* \"#utility.yul\":20706:20728   */\n      and\n        /* \"#utility.yul\":20756:20793   */\n      tag_842\n        /* \"#utility.yul\":20788:20792   */\n      dup7\n        /* \"#utility.yul\":20756:20793   */\n      tag_562\n      jump\t// in\n    tag_842:\n        /* \"#utility.yul\":20815:20816   */\n      0x00\n        /* \"#utility.yul\":20829:21037   */\n    tag_843:\n        /* \"#utility.yul\":20843:20850   */\n      dup3\n        /* \"#utility.yul\":20840:20841   */\n      dup2\n        /* \"#utility.yul\":20837:20851   */\n      lt\n        /* \"#utility.yul\":20829:21037   */\n      iszero\n      tag_845\n      jumpi\n        /* \"#utility.yul\":20922:20931   */\n      dup5\n        /* \"#utility.yul\":20917:20920   */\n      dup10\n        /* \"#utility.yul\":20913:20932   */\n      add\n        /* \"#utility.yul\":20907:20933   */\n      mload\n        /* \"#utility.yul\":20899:20905   */\n      dup3\n        /* \"#utility.yul\":20892:20934   */\n      sstore\n        /* \"#utility.yul\":20973:20974   */\n      0x01\n        /* \"#utility.yul\":20965:20971   */\n      dup3\n        /* \"#utility.yul\":20961:20975   */\n      add\n        /* \"#utility.yul\":20951:20975   */\n      swap2\n      pop\n        /* \"#utility.yul\":21020:21022   */\n      0x20\n        /* \"#utility.yul\":21009:21018   */\n      dup6\n        /* \"#utility.yul\":21005:21023   */\n      add\n        /* \"#utility.yul\":20992:21023   */\n      swap5\n      pop\n        /* \"#utility.yul\":20866:20870   */\n      0x20\n        /* \"#utility.yul\":20863:20864   */\n      dup2\n        /* \"#utility.yul\":20859:20871   */\n      add\n        /* \"#utility.yul\":20854:20871   */\n      swap1\n      pop\n        /* \"#utility.yul\":20829:21037   */\n      jump(tag_843)\n    tag_845:\n        /* \"#utility.yul\":21065:21071   */\n      dup7\n        /* \"#utility.yul\":21056:21063   */\n      dup4\n        /* \"#utility.yul\":21053:21072   */\n      lt\n        /* \"#utility.yul\":21050:21229   */\n      iszero\n      tag_846\n      jumpi\n        /* \"#utility.yul\":21123:21132   */\n      dup5\n        /* \"#utility.yul\":21118:21121   */\n      dup10\n        /* \"#utility.yul\":21114:21133   */\n      add\n        /* \"#utility.yul\":21108:21134   */\n      mload\n        /* \"#utility.yul\":21166:21214   */\n      tag_847\n        /* \"#utility.yul\":21208:21212   */\n      0x1f\n        /* \"#utility.yul\":21200:21206   */\n      dup10\n        /* \"#utility.yul\":21196:21213   */\n      and\n        /* \"#utility.yul\":21185:21194   */\n      dup3\n        /* \"#utility.yul\":21166:21214   */\n      tag_575\n      jump\t// in\n    tag_847:\n        /* \"#utility.yul\":21158:21164   */\n      dup4\n        /* \"#utility.yul\":21151:21215   */\n      sstore\n        /* \"#utility.yul\":21073:21229   */\n      pop\n        /* \"#utility.yul\":21050:21229   */\n    tag_846:\n        /* \"#utility.yul\":21275:21276   */\n      0x01\n        /* \"#utility.yul\":21271:21272   */\n      0x02\n        /* \"#utility.yul\":21263:21269   */\n      dup9\n        /* \"#utility.yul\":21259:21273   */\n      mul\n        /* \"#utility.yul\":21255:21277   */\n      add\n        /* \"#utility.yul\":21249:21253   */\n      dup9\n        /* \"#utility.yul\":21242:21278   */\n      sstore\n        /* \"#utility.yul\":20677:21288   */\n      pop\n      pop\n      pop\n        /* \"#utility.yul\":20640:21527   */\n    tag_838:\n      pop\n        /* \"#utility.yul\":20230:21533   */\n      pop\n      pop\n      pop\n        /* \"#utility.yul\":20138:21533   */\n      pop\n      pop\n      jump\t// out\n        /* \"#utility.yul\":21539:21713   */\n    tag_577:\n        /* \"#utility.yul\":21679:21705   */\n      0x4552433732313a20696e76616c696420746f6b656e2049440000000000000000\n        /* \"#utility.yul\":21675:21676   */\n      0x00\n        /* \"#utility.yul\":21667:21673   */\n      dup3\n        /* \"#utility.yul\":21663:21677   */\n      add\n        /* \"#utility.yul\":21656:21706   */\n      mstore\n        /* \"#utility.yul\":21539:21713   */\n      pop\n      jump\t// out\n        /* \"#utility.yul\":21719:22085   */\n    tag_578:\n        /* \"#utility.yul\":21861:21864   */\n      0x00\n        /* \"#utility.yul\":21882:21949   */\n      tag_850\n        /* \"#utility.yul\":21946:21948   */\n      0x18\n        /* \"#utility.yul\":21941:21944   */\n      dup4\n        /* \"#utility.yul\":21882:21949   */\n      tag_529\n      jump\t// in\n    tag_850:\n        /* \"#utility.yul\":21875:21949   */\n      swap2\n      pop\n        /* \"#utility.yul\":21958:22051   */\n      tag_851\n        /* \"#utility.yul\":22047:22050   */\n      dup3\n        /* \"#utility.yul\":21958:22051   */\n      tag_577\n      jump\t// in\n    tag_851:\n        /* \"#utility.yul\":22076:22078   */\n      0x20\n        /* \"#utility.yul\":22071:22074   */\n      dup3\n        /* \"#utility.yul\":22067:22079   */\n      add\n        /* \"#utility.yul\":22060:22079   */\n      swap1\n      pop\n        /* \"#utility.yul\":21719:22085   */\n      swap2\n      swap1\n      pop\n      jump\t// out\n        /* \"#utility.yul\":22091:22510   */\n    tag_247:\n        /* \"#utility.yul\":22257:22261   */\n      0x00\n        /* \"#utility.yul\":22295:22297   */\n      0x20\n        /* \"#utility.yul\":22284:22293   */\n      dup3\n        /* \"#utility.yul\":22280:22298   */\n      add\n        /* \"#utility.yul\":22272:22298   */\n      swap1\n      pop\n        /* \"#utility.yul\":22344:22353   */\n      dup2\n        /* \"#utility.yul\":22338:22342   */\n      dup2\n        /* \"#utility.yul\":22334:22354   */\n      sub\n        /* \"#utility.yul\":22330:22331   */\n      0x00\n        /* \"#utility.yul\":22319:22328   */\n      dup4\n        /* \"#utility.yul\":22315:22332   */\n      add\n        /* \"#utility.yul\":22308:22355   */\n      mstore\n        /* \"#utility.yul\":22372:22503   */\n      tag_853\n        /* \"#utility.yul\":22498:22502   */\n      dup2\n        /* \"#utility.yul\":22372:22503   */\n      tag_578\n      jump\t// in\n    tag_853:\n        /* \"#utility.yul\":22364:22503   */\n      swap1\n      pop\n        /* \"#utility.yul\":22091:22510   */\n      swap2\n      swap1\n      pop\n      jump\t// out\n        /* \"#utility.yul\":22516:22744   */\n    tag_579:\n        /* \"#utility.yul\":22656:22690   */\n      0x4552433732313a2061646472657373207a65726f206973206e6f742061207661\n        /* \"#utility.yul\":22652:22653   */\n      0x00\n        /* \"#utility.yul\":22644:22650   */\n      dup3\n        /* \"#utility.yul\":22640:22654   */\n      add\n        /* \"#utility.yul\":22633:22691   */\n      mstore\n        /* \"#utility.yul\":22725:22736   */\n      0x6c6964206f776e65720000000000000000000000000000000000000000000000\n        /* \"#utility.yul\":22720:22722   */\n      0x20\n        /* \"#utility.yul\":22712:22718   */\n      dup3\n        /* \"#utility.yul\":22708:22723   */\n      add\n        /* \"#utility.yul\":22701:22737   */\n      mstore\n        /* \"#utility.yul\":22516:22744   */\n      pop\n      jump\t// out\n        /* \"#utility.yul\":22750:23116   */\n    tag_580:\n        /* \"#utility.yul\":22892:22895   */\n      0x00\n        /* \"#utility.yul\":22913:22980   */\n      tag_856\n        /* \"#utility.yul\":22977:22979   */\n      0x29\n        /* \"#utility.yul\":22972:22975   */\n      dup4\n        /* \"#utility.yul\":22913:22980   */\n      tag_529\n      jump\t// in\n    tag_856:\n        /* \"#utility.yul\":22906:22980   */\n      swap2\n      pop\n        /* \"#utility.yul\":22989:23082   */\n      tag_857\n        /* \"#utility.yul\":23078:23081   */\n      dup3\n        /* \"#utility.yul\":22989:23082   */\n      tag_579\n      jump\t// in\n    tag_857:\n        /* \"#utility.yul\":23107:23109   */\n      0x40\n        /* \"#utility.yul\":23102:23105   */\n      dup3\n        /* \"#utility.yul\":23098:23110   */\n      add\n        /* \"#utility.yul\":23091:23110   */\n      swap1\n      pop\n        /* \"#utility.yul\":22750:23116   */\n      swap2\n      swap1\n      pop\n      jump\t// out\n        /* \"#utility.yul\":23122:23541   */\n    tag_256:\n        /* \"#utility.yul\":23288:23292   */\n      0x00\n        /* \"#utility.yul\":23326:23328   */\n      0x20\n        /* \"#utility.yul\":23315:23324   */\n      dup3\n        /* \"#utility.yul\":23311:23329   */\n      add\n        /* \"#utility.yul\":23303:23329   */\n      swap1\n      pop\n        /* \"#utility.yul\":23375:23384   */\n      dup2\n        /* \"#utility.yul\":23369:23373   */\n      dup2\n        /* \"#utility.yul\":23365:23385   */\n      sub\n        /* \"#utility.yul\":23361:23362   */\n      0x00\n        /* \"#utility.yul\":23350:23359   */\n      dup4\n        /* \"#utility.yul\":23346:23363   */\n      add\n        /* \"#utility.yul\":23339:23386   */\n      mstore\n        /* \"#utility.yul\":23403:23534   */\n      tag_859\n        /* \"#utility.yul\":23529:23533   */\n      dup2\n        /* \"#utility.yul\":23403:23534   */\n      tag_580\n      jump\t// in\n    tag_859:\n        /* \"#utility.yul\":23395:23534   */\n      swap1\n      pop\n        /* \"#utility.yul\":23122:23541   */\n      swap2\n      swap1\n      pop\n      jump\t// out\n        /* \"#utility.yul\":23547:23694   */\n    tag_581:\n        /* \"#utility.yul\":23648:23659   */\n      0x00\n        /* \"#utility.yul\":23685:23688   */\n      dup2\n        /* \"#utility.yul\":23670:23688   */\n      swap1\n      pop\n        /* \"#utility.yul\":23547:23694   */\n      swap3\n      swap2\n      pop\n      pop\n      jump\t// out\n        /* \"#utility.yul\":23700:23814   */\n    tag_582:\n      pop\n      jump\t// out\n        /* \"#utility.yul\":23820:24218   */\n    tag_583:\n        /* \"#utility.yul\":23979:23982   */\n      0x00\n        /* \"#utility.yul\":24000:24083   */\n      tag_863\n        /* \"#utility.yul\":24081:24082   */\n      0x00\n        /* \"#utility.yul\":24076:24079   */\n      dup4\n        /* \"#utility.yul\":24000:24083   */\n      tag_581\n      jump\t// in\n    tag_863:\n        /* \"#utility.yul\":23993:24083   */\n      swap2\n      pop\n        /* \"#utility.yul\":24092:24185   */\n      tag_864\n        /* \"#utility.yul\":24181:24184   */\n      dup3\n        /* \"#utility.yul\":24092:24185   */\n      tag_582\n      jump\t// in\n    tag_864:\n        /* \"#utility.yul\":24210:24211   */\n      0x00\n        /* \"#utility.yul\":24205:24208   */\n      dup3\n        /* \"#utility.yul\":24201:24212   */\n      add\n        /* \"#utility.yul\":24194:24212   */\n      swap1\n      pop\n        /* \"#utility.yul\":23820:24218   */\n      swap2\n      swap1\n      pop\n      jump\t// out\n        /* \"#utility.yul\":24224:24603   */\n    tag_267:\n        /* \"#utility.yul\":24408:24411   */\n      0x00\n        /* \"#utility.yul\":24430:24577   */\n      tag_866\n        /* \"#utility.yul\":24573:24576   */\n      dup3\n        /* \"#utility.yul\":24430:24577   */\n      tag_583\n      jump\t// in\n    tag_866:\n        /* \"#utility.yul\":24423:24577   */\n      swap2\n      pop\n        /* \"#utility.yul\":24594:24597   */\n      dup2\n        /* \"#utility.yul\":24587:24597   */\n      swap1\n      pop\n        /* \"#utility.yul\":24224:24603   */\n      swap2\n      swap1\n      pop\n      jump\t// out\n        /* \"#utility.yul\":24609:24765   */\n    tag_584:\n        /* \"#utility.yul\":24749:24757   */\n      0x5061757365640000000000000000000000000000000000000000000000000000\n        /* \"#utility.yul\":24745:24746   */\n      0x00\n        /* \"#utility.yul\":24737:24743   */\n      dup3\n        /* \"#utility.yul\":24733:24747   */\n      add\n        /* \"#utility.yul\":24726:24758   */\n      mstore\n        /* \"#utility.yul\":24609:24765   */\n      pop\n      jump\t// out\n        /* \"#utility.yul\":24771:25136   */\n    tag_585:\n        /* \"#utility.yul\":24913:24916   */\n      0x00\n        /* \"#utility.yul\":24934:25000   */\n      tag_869\n        /* \"#utility.yul\":24998:24999   */\n      0x06\n        /* \"#utility.yul\":24993:24996   */\n      dup4\n        /* \"#utility.yul\":24934:25000   */\n      tag_529\n      jump\t// in\n    tag_869:\n        /* \"#utility.yul\":24927:25000   */\n      swap2\n      pop\n        /* \"#utility.yul\":25009:25102   */\n      tag_870\n        /* \"#utility.yul\":25098:25101   */\n      dup3\n        /* \"#utility.yul\":25009:25102   */\n      tag_584\n      jump\t// in\n    tag_870:\n        /* \"#utility.yul\":25127:25129   */\n      0x20\n        /* \"#utility.yul\":25122:25125   */\n      dup3\n        /* \"#utility.yul\":25118:25130   */\n      add\n        /* \"#utility.yul\":25111:25130   */\n      swap1\n      pop\n        /* \"#utility.yul\":24771:25136   */\n      swap2\n      swap1\n      pop\n      jump\t// out\n        /* \"#utility.yul\":25142:25561   */\n    tag_287:\n        /* \"#utility.yul\":25308:25312   */\n      0x00\n        /* \"#utility.yul\":25346:25348   */\n      0x20\n        /* \"#utility.yul\":25335:25344   */\n      dup3\n        /* \"#utility.yul\":25331:25349   */\n      add\n        /* \"#utility.yul\":25323:25349   */\n      swap1\n      pop\n        /* \"#utility.yul\":25395:25404   */\n      dup2\n        /* \"#utility.yul\":25389:25393   */\n      dup2\n        /* \"#utility.yul\":25385:25405   */\n      sub\n        /* \"#utility.yul\":25381:25382   */\n      0x00\n        /* \"#utility.yul\":25370:25379   */\n      dup4\n        /* \"#utility.yul\":25366:25383   */\n      add\n        /* \"#utility.yul\":25359:25406   */\n      mstore\n        /* \"#utility.yul\":25423:25554   */\n      tag_872\n        /* \"#utility.yul\":25549:25553   */\n      dup2\n        /* \"#utility.yul\":25423:25554   */\n      tag_585\n      jump\t// in\n    tag_872:\n        /* \"#utility.yul\":25415:25554   */\n      swap1\n      pop\n        /* \"#utility.yul\":25142:25561   */\n      swap2\n      swap1\n      pop\n      jump\t// out\n        /* \"#utility.yul\":25567:25725   */\n    tag_586:\n        /* \"#utility.yul\":25707:25717   */\n      0x42616420616d6e74000000000000000000000000000000000000000000000000\n        /* \"#utility.yul\":25703:25704   */\n      0x00\n        /* \"#utility.yul\":25695:25701   */\n      dup3\n        /* \"#utility.yul\":25691:25705   */\n      add\n        /* \"#utility.yul\":25684:25718   */\n      mstore\n        /* \"#utility.yul\":25567:25725   */\n      pop\n      jump\t// out\n        /* \"#utility.yul\":25731:26096   */\n    tag_587:\n        /* \"#utility.yul\":25873:25876   */\n      0x00\n        /* \"#utility.yul\":25894:25960   */\n      tag_875\n        /* \"#utility.yul\":25958:25959   */\n      0x08\n        /* \"#utility.yul\":25953:25956   */\n      dup4\n        /* \"#utility.yul\":25894:25960   */\n      tag_529\n      jump\t// in\n    tag_875:\n        /* \"#utility.yul\":25887:25960   */\n      swap2\n      pop\n        /* \"#utility.yul\":25969:26062   */\n      tag_876\n        /* \"#utility.yul\":26058:26061   */\n      dup3\n        /* \"#utility.yul\":25969:26062   */\n      tag_586\n      jump\t// in\n    tag_876:\n        /* \"#utility.yul\":26087:26089   */\n      0x20\n        /* \"#utility.yul\":26082:26085   */\n      dup3\n        /* \"#utility.yul\":26078:26090   */\n      add\n        /* \"#utility.yul\":26071:26090   */\n      swap1\n      pop\n        /* \"#utility.yul\":25731:26096   */\n      swap2\n      swap1\n      pop\n      jump\t// out\n        /* \"#utility.yul\":26102:26521   */\n    tag_290:\n        /* \"#utility.yul\":26268:26272   */\n      0x00\n        /* \"#utility.yul\":26306:26308   */\n      0x20\n        /* \"#utility.yul\":26295:26304   */\n      dup3\n        /* \"#utility.yul\":26291:26309   */\n      add\n        /* \"#utility.yul\":26283:26309   */\n      swap1\n      pop\n        /* \"#utility.yul\":26355:26364   */\n      dup2\n        /* \"#utility.yul\":26349:26353   */\n      dup2\n        /* \"#utility.yul\":26345:26365   */\n      sub\n        /* \"#utility.yul\":26341:26342   */\n      0x00\n        /* \"#utility.yul\":26330:26339   */\n      dup4\n        /* \"#utility.yul\":26326:26343   */\n      add\n        /* \"#utility.yul\":26319:26366   */\n      mstore\n        /* \"#utility.yul\":26383:26514   */\n      tag_878\n        /* \"#utility.yul\":26509:26513   */\n      dup2\n        /* \"#utility.yul\":26383:26514   */\n      tag_587\n      jump\t// in\n    tag_878:\n        /* \"#utility.yul\":26375:26514   */\n      swap1\n      pop\n        /* \"#utility.yul\":26102:26521   */\n      swap2\n      swap1\n      pop\n      jump\t// out\n        /* \"#utility.yul\":26527:26707   */\n    tag_588:\n        /* \"#utility.yul\":26575:26652   */\n      0x4e487b7100000000000000000000000000000000000000000000000000000000\n        /* \"#utility.yul\":26572:26573   */\n      0x00\n        /* \"#utility.yul\":26565:26653   */\n      mstore\n        /* \"#utility.yul\":26672:26676   */\n      0x11\n        /* \"#utility.yul\":26669:26670   */\n      0x04\n        /* \"#utility.yul\":26662:26677   */\n      mstore\n        /* \"#utility.yul\":26696:26700   */\n      0x24\n        /* \"#utility.yul\":26693:26694   */\n      0x00\n        /* \"#utility.yul\":26686:26701   */\n      revert\n        /* \"#utility.yul\":26713:26904   */\n    tag_292:\n        /* \"#utility.yul\":26753:26756   */\n      0x00\n        /* \"#utility.yul\":26772:26792   */\n      tag_881\n        /* \"#utility.yul\":26790:26791   */\n      dup3\n        /* \"#utility.yul\":26772:26792   */\n      tag_533\n      jump\t// in\n    tag_881:\n        /* \"#utility.yul\":26767:26792   */\n      swap2\n      pop\n        /* \"#utility.yul\":26806:26826   */\n      tag_882\n        /* \"#utility.yul\":26824:26825   */\n      dup4\n        /* \"#utility.yul\":26806:26826   */\n      tag_533\n      jump\t// in\n    tag_882:\n        /* \"#utility.yul\":26801:26826   */\n      swap3\n      pop\n        /* \"#utility.yul\":26849:26850   */\n      dup3\n        /* \"#utility.yul\":26846:26847   */\n      dup3\n        /* \"#utility.yul\":26842:26851   */\n      add\n        /* \"#utility.yul\":26835:26851   */\n      swap1\n      pop\n        /* \"#utility.yul\":26870:26873   */\n      dup1\n        /* \"#utility.yul\":26867:26868   */\n      dup3\n        /* \"#utility.yul\":26864:26874   */\n      gt\n        /* \"#utility.yul\":26861:26897   */\n      iszero\n      tag_883\n      jumpi\n        /* \"#utility.yul\":26877:26895   */\n      tag_884\n      tag_588\n      jump\t// in\n    tag_884:\n        /* \"#utility.yul\":26861:26897   */\n    tag_883:\n        /* \"#utility.yul\":26713:26904   */\n      swap3\n      swap2\n      pop\n      pop\n      jump\t// out\n        /* \"#utility.yul\":26910:27320   */\n    tag_297:\n        /* \"#utility.yul\":26950:26957   */\n      0x00\n        /* \"#utility.yul\":26973:26993   */\n      tag_886\n        /* \"#utility.yul\":26991:26992   */\n      dup3\n        /* \"#utility.yul\":26973:26993   */\n      tag_533\n      jump\t// in\n    tag_886:\n        /* \"#utility.yul\":26968:26993   */\n      swap2\n      pop\n        /* \"#utility.yul\":27007:27027   */\n      tag_887\n        /* \"#utility.yul\":27025:27026   */\n      dup4\n        /* \"#utility.yul\":27007:27027   */\n      tag_533\n      jump\t// in\n    tag_887:\n        /* \"#utility.yul\":27002:27027   */\n      swap3\n      pop\n        /* \"#utility.yul\":27062:27063   */\n      dup3\n        /* \"#utility.yul\":27059:27060   */\n      dup3\n        /* \"#utility.yul\":27055:27064   */\n      mul\n        /* \"#utility.yul\":27084:27114   */\n      tag_888\n        /* \"#utility.yul\":27102:27113   */\n      dup2\n        /* \"#utility.yul\":27084:27114   */\n      tag_533\n      jump\t// in\n    tag_888:\n        /* \"#utility.yul\":27073:27114   */\n      swap2\n      pop\n        /* \"#utility.yul\":27263:27264   */\n      dup3\n        /* \"#utility.yul\":27254:27261   */\n      dup3\n        /* \"#utility.yul\":27250:27265   */\n      div\n        /* \"#utility.yul\":27247:27248   */\n      dup5\n        /* \"#utility.yul\":27244:27266   */\n      eq\n        /* \"#utility.yul\":27224:27225   */\n      dup4\n        /* \"#utility.yul\":27217:27226   */\n      iszero\n        /* \"#utility.yul\":27197:27280   */\n      or\n        /* \"#utility.yul\":27174:27313   */\n      tag_889\n      jumpi\n        /* \"#utility.yul\":27293:27311   */\n      tag_890\n      tag_588\n      jump\t// in\n    tag_890:\n        /* \"#utility.yul\":27174:27313   */\n    tag_889:\n        /* \"#utility.yul\":26958:27320   */\n      pop\n        /* \"#utility.yul\":26910:27320   */\n      swap3\n      swap2\n      pop\n      pop\n      jump\t// out\n        /* \"#utility.yul\":27326:27486   */\n    tag_589:\n        /* \"#utility.yul\":27466:27478   */\n      0x4e6f2062616c616e636500000000000000000000000000000000000000000000\n        /* \"#utility.yul\":27462:27463   */\n      0x00\n        /* \"#utility.yul\":27454:27460   */\n      dup3\n        /* \"#utility.yul\":27450:27464   */\n      add\n        /* \"#utility.yul\":27443:27479   */\n      mstore\n        /* \"#utility.yul\":27326:27486   */\n      pop\n      jump\t// out\n        /* \"#utility.yul\":27492:27858   */\n    tag_590:\n        /* \"#utility.yul\":27634:27637   */\n      0x00\n        /* \"#utility.yul\":27655:27722   */\n      tag_893\n        /* \"#utility.yul\":27719:27721   */\n      0x0a\n        /* \"#utility.yul\":27714:27717   */\n      dup4\n        /* \"#utility.yul\":27655:27722   */\n      tag_529\n      jump\t// in\n    tag_893:\n        /* \"#utility.yul\":27648:27722   */\n      swap2\n      pop\n        /* \"#utility.yul\":27731:27824   */\n      tag_894\n        /* \"#utility.yul\":27820:27823   */\n      dup3\n        /* \"#utility.yul\":27731:27824   */\n      tag_589\n      jump\t// in\n    tag_894:\n        /* \"#utility.yul\":27849:27851   */\n      0x20\n        /* \"#utility.yul\":27844:27847   */\n      dup3\n        /* \"#utility.yul\":27840:27852   */\n      add\n        /* \"#utility.yul\":27833:27852   */\n      swap1\n      pop\n        /* \"#utility.yul\":27492:27858   */\n      swap2\n      swap1\n      pop\n      jump\t// out\n        /* \"#utility.yul\":27864:28283   */\n    tag_300:\n        /* \"#utility.yul\":28030:28034   */\n      0x00\n        /* \"#utility.yul\":28068:28070   */\n      0x20\n        /* \"#utility.yul\":28057:28066   */\n      dup3\n        /* \"#utility.yul\":28053:28071   */\n      add\n        /* \"#utility.yul\":28045:28071   */\n      swap1\n      pop\n        /* \"#utility.yul\":28117:28126   */\n      dup2\n        /* \"#utility.yul\":28111:28115   */\n      dup2\n        /* \"#utility.yul\":28107:28127   */\n      sub\n        /* \"#utility.yul\":28103:28104   */\n      0x00\n        /* \"#utility.yul\":28092:28101   */\n      dup4\n        /* \"#utility.yul\":28088:28105   */\n      add\n        /* \"#utility.yul\":28081:28128   */\n      mstore\n        /* \"#utility.yul\":28145:28276   */\n      tag_896\n        /* \"#utility.yul\":28271:28275   */\n      dup2\n        /* \"#utility.yul\":28145:28276   */\n      tag_590\n      jump\t// in\n    tag_896:\n        /* \"#utility.yul\":28137:28276   */\n      swap1\n      pop\n        /* \"#utility.yul\":27864:28283   */\n      swap2\n      swap1\n      pop\n      jump\t// out\n        /* \"#utility.yul\":28289:28522   */\n    tag_311:\n        /* \"#utility.yul\":28328:28331   */\n      0x00\n        /* \"#utility.yul\":28351:28375   */\n      tag_898\n        /* \"#utility.yul\":28369:28374   */\n      dup3\n        /* \"#utility.yul\":28351:28375   */\n      tag_533\n      jump\t// in\n    tag_898:\n        /* \"#utility.yul\":28342:28375   */\n      swap2\n      pop\n        /* \"#utility.yul\":28397:28463   */\n      0xffffffffffffffffffffffffffffffffffffffffffffffffffffffffffffffff\n        /* \"#utility.yul\":28390:28395   */\n      dup3\n        /* \"#utility.yul\":28387:28464   */\n      sub\n        /* \"#utility.yul\":28384:28487   */\n      tag_899\n      jumpi\n        /* \"#utility.yul\":28467:28485   */\n      tag_900\n      tag_588\n      jump\t// in\n    tag_900:\n        /* \"#utility.yul\":28384:28487   */\n    tag_899:\n        /* \"#utility.yul\":28514:28515   */\n      0x01\n        /* \"#utility.yul\":28507:28512   */\n      dup3\n        /* \"#utility.yul\":28503:28516   */\n      add\n        /* \"#utility.yul\":28496:28516   */\n      swap1\n      pop\n        /* \"#utility.yul\":28289:28522   */\n      swap2\n      swap1\n      pop\n      jump\t// out\n        /* \"#utility.yul\":28528:28686   */\n    tag_591:\n        /* \"#utility.yul\":28668:28678   */\n      0x555249206e6f6e65000000000000000000000000000000000000000000000000\n        /* \"#utility.yul\":28664:28665   */\n      0x00\n        /* \"#utility.yul\":28656:28662   */\n      dup3\n        /* \"#utility.yul\":28652:28666   */\n      add\n        /* \"#utility.yul\":28645:28679   */\n      mstore\n        /* \"#utility.yul\":28528:28686   */\n      pop\n      jump\t// out\n        /* \"#utility.yul\":28692:29057   */\n    tag_592:\n        /* \"#utility.yul\":28834:28837   */\n      0x00\n        /* \"#utility.yul\":28855:28921   */\n      tag_903\n        /* \"#utility.yul\":28919:28920   */\n      0x08\n        /* \"#utility.yul\":28914:28917   */\n      dup4\n        /* \"#utility.yul\":28855:28921   */\n      tag_529\n      jump\t// in\n    tag_903:\n        /* \"#utility.yul\":28848:28921   */\n      swap2\n      pop\n        /* \"#utility.yul\":28930:29023   */\n      tag_904\n        /* \"#utility.yul\":29019:29022   */\n      dup3\n        /* \"#utility.yul\":28930:29023   */\n      tag_591\n      jump\t// in\n    tag_904:\n        /* \"#utility.yul\":29048:29050   */\n      0x20\n        /* \"#utility.yul\":29043:29046   */\n      dup3\n        /* \"#utility.yul\":29039:29051   */\n      add\n        /* \"#utility.yul\":29032:29051   */\n      swap1\n      pop\n        /* \"#utility.yul\":28692:29057   */\n      swap2\n      swap1\n      pop\n      jump\t// out\n        /* \"#utility.yul\":29063:29482   */\n    tag_340:\n        /* \"#utility.yul\":29229:29233   */\n      0x00\n        /* \"#utility.yul\":29267:29269   */\n      0x20\n        /* \"#utility.yul\":29256:29265   */\n      dup3\n        /* \"#utility.yul\":29252:29270   */\n      add\n        /* \"#utility.yul\":29244:29270   */\n      swap1\n      pop\n        /* \"#utility.yul\":29316:29325   */\n      dup2\n        /* \"#utility.yul\":29310:29314   */\n      dup2\n        /* \"#utility.yul\":29306:29326   */\n      sub\n        /* \"#utility.yul\":29302:29303   */\n      0x00\n        /* \"#utility.yul\":29291:29300   */\n      dup4\n        /* \"#utility.yul\":29287:29304   */\n      add\n        /* \"#utility.yul\":29280:29327   */\n      mstore\n        /* \"#utility.yul\":29344:29475   */\n      tag_906\n        /* \"#utility.yul\":29470:29474   */\n      dup2\n        /* \"#utility.yul\":29344:29475   */\n      tag_592\n      jump\t// in\n    tag_906:\n        /* \"#utility.yul\":29336:29475   */\n      swap1\n      pop\n        /* \"#utility.yul\":29063:29482   */\n      swap2\n      swap1\n      pop\n      jump\t// out\n        /* \"#utility.yul\":29488:29636   */\n    tag_593:\n        /* \"#utility.yul\":29590:29601   */\n      0x00\n        /* \"#utility.yul\":29627:29630   */\n      dup2\n        /* \"#utility.yul\":29612:29630   */\n      swap1\n      pop\n        /* \"#utility.yul\":29488:29636   */\n      swap3\n      swap2\n      pop\n      pop\n      jump\t// out\n        /* \"#utility.yul\":29642:30032   */\n    tag_594:\n        /* \"#utility.yul\":29748:29751   */\n      0x00\n        /* \"#utility.yul\":29776:29815   */\n      tag_909\n        /* \"#utility.yul\":29809:29814   */\n      dup3\n        /* \"#utility.yul\":29776:29815   */\n      tag_528\n      jump\t// in\n    tag_909:\n        /* \"#utility.yul\":29831:29920   */\n      tag_910\n        /* \"#utility.yul\":29913:29919   */\n      dup2\n        /* \"#utility.yul\":29908:29911   */\n      dup6\n        /* \"#utility.yul\":29831:29920   */\n      tag_593\n      jump\t// in\n    tag_910:\n        /* \"#utility.yul\":29824:29920   */\n      swap4\n      pop\n        /* \"#utility.yul\":29929:29994   */\n      tag_911\n        /* \"#utility.yul\":29987:29993   */\n      dup2\n        /* \"#utility.yul\":29982:29985   */\n      dup6\n        /* \"#utility.yul\":29975:29979   */\n      0x20\n        /* \"#utility.yul\":29968:29973   */\n      dup7\n        /* \"#utility.yul\":29964:29980   */\n      add\n        /* \"#utility.yul\":29929:29994   */\n      tag_530\n      jump\t// in\n    tag_911:\n        /* \"#utility.yul\":30019:30025   */\n      dup1\n        /* \"#utility.yul\":30014:30017   */\n      dup5\n        /* \"#utility.yul\":30010:30026   */\n      add\n        /* \"#utility.yul\":30003:30026   */\n      swap2\n      pop\n        /* \"#utility.yul\":29752:30032   */\n      pop\n        /* \"#utility.yul\":29642:30032   */\n      swap3\n      swap2\n      pop\n      pop\n      jump\t// out\n        /* \"#utility.yul\":30062:30936   */\n    tag_595:\n        /* \"#utility.yul\":30165:30168   */\n      0x00\n        /* \"#utility.yul\":30202:30207   */\n      dup2\n        /* \"#utility.yul\":30196:30208   */\n      sload\n        /* \"#utility.yul\":30231:30267   */\n      tag_913\n        /* \"#utility.yul\":30257:30266   */\n      dup2\n        /* \"#utility.yul\":30231:30267   */\n      tag_198\n      jump\t// in\n    tag_913:\n        /* \"#utility.yul\":30283:30372   */\n      tag_914\n        /* \"#utility.yul\":30365:30371   */\n      dup2\n        /* \"#utility.yul\":30360:30363   */\n      dup7\n        /* \"#utility.yul\":30283:30372   */\n      tag_593\n      jump\t// in\n    tag_914:\n        /* \"#utility.yul\":30276:30372   */\n      swap5\n      pop\n        /* \"#utility.yul\":30403:30404   */\n      0x01\n        /* \"#utility.yul\":30392:30401   */\n      dup3\n        /* \"#utility.yul\":30388:30405   */\n      and\n        /* \"#utility.yul\":30419:30420   */\n      0x00\n        /* \"#utility.yul\":30414:30580   */\n      dup2\n      eq\n      tag_916\n      jumpi\n        /* \"#utility.yul\":30594:30595   */\n      0x01\n        /* \"#utility.yul\":30589:30930   */\n      dup2\n      eq\n      tag_917\n      jumpi\n        /* \"#utility.yul\":30381:30930   */\n      jump(tag_915)\n        /* \"#utility.yul\":30414:30580   */\n    tag_916:\n        /* \"#utility.yul\":30498:30502   */\n      0xff\n        /* \"#utility.yul\":30494:30503   */\n      not\n        /* \"#utility.yul\":30483:30492   */\n      dup4\n        /* \"#utility.yul\":30479:30504   */\n      and\n        /* \"#utility.yul\":30474:30477   */\n      dup7\n        /* \"#utility.yul\":30467:30505   */\n      mstore\n        /* \"#utility.yul\":30560:30566   */\n      dup2\n        /* \"#utility.yul\":30553:30567   */\n      iszero\n        /* \"#utility.yul\":30546:30568   */\n      iszero\n        /* \"#utility.yul\":30538:30544   */\n      dup3\n        /* \"#utility.yul\":30534:30569   */\n      mul\n        /* \"#utility.yul\":30529:30532   */\n      dup7\n        /* \"#utility.yul\":30525:30570   */\n      add\n        /* \"#utility.yul\":30518:30570   */\n      swap4\n      pop\n        /* \"#utility.yul\":30414:30580   */\n      jump(tag_915)\n        /* \"#utility.yul\":30589:30930   */\n    tag_917:\n        /* \"#utility.yul\":30656:30694   */\n      tag_918\n        /* \"#utility.yul\":30688:30693   */\n      dup6\n        /* \"#utility.yul\":30656:30694   */\n      tag_562\n      jump\t// in\n    tag_918:\n        /* \"#utility.yul\":30716:30717   */\n      0x00\n        /* \"#utility.yul\":30730:30884   */\n    tag_919:\n        /* \"#utility.yul\":30744:30750   */\n      dup4\n        /* \"#utility.yul\":30741:30742   */\n      dup2\n        /* \"#utility.yul\":30738:30751   */\n      lt\n        /* \"#utility.yul\":30730:30884   */\n      iszero\n      tag_921\n      jumpi\n        /* \"#utility.yul\":30818:30825   */\n      dup2\n        /* \"#utility.yul\":30812:30826   */\n      sload\n        /* \"#utility.yul\":30808:30809   */\n      dup2\n        /* \"#utility.yul\":30803:30806   */\n      dup10\n        /* \"#utility.yul\":30799:30810   */\n      add\n        /* \"#utility.yul\":30792:30827   */\n      mstore\n        /* \"#utility.yul\":30868:30869   */\n      0x01\n        /* \"#utility.yul\":30859:30866   */\n      dup3\n        /* \"#utility.yul\":30855:30870   */\n      add\n        /* \"#utility.yul\":30844:30870   */\n      swap2\n      pop\n        /* \"#utility.yul\":30766:30770   */\n      0x20\n        /* \"#utility.yul\":30763:30764   */\n      dup2\n        /* \"#utility.yul\":30759:30771   */\n      add\n        /* \"#utility.yul\":30754:30771   */\n      swap1\n      pop\n        /* \"#utility.yul\":30730:30884   */\n      jump(tag_919)\n    tag_921:\n        /* \"#utility.yul\":30913:30919   */\n      dup4\n        /* \"#utility.yul\":30908:30911   */\n      dup9\n        /* \"#utility.yul\":30904:30920   */\n      add\n        /* \"#utility.yul\":30897:30920   */\n      swap6\n      pop\n        /* \"#utility.yul\":30596:30930   */\n      pop\n      pop\n        /* \"#utility.yul\":30381:30930   */\n    tag_915:\n      pop\n        /* \"#utility.yul\":30169:30936   */\n      pop\n      pop\n        /* \"#utility.yul\":30062:30936   */\n      swap3\n      swap2\n      pop\n      pop\n      jump\t// out\n        /* \"#utility.yul\":30942:31531   */\n    tag_348:\n        /* \"#utility.yul\":31167:31170   */\n      0x00\n        /* \"#utility.yul\":31189:31284   */\n      tag_923\n        /* \"#utility.yul\":31280:31283   */\n      dup3\n        /* \"#utility.yul\":31271:31277   */\n      dup7\n        /* \"#utility.yul\":31189:31284   */\n      tag_594\n      jump\t// in\n    tag_923:\n        /* \"#utility.yul\":31182:31284   */\n      swap2\n      pop\n        /* \"#utility.yul\":31301:31396   */\n      tag_924\n        /* \"#utility.yul\":31392:31395   */\n      dup3\n        /* \"#utility.yul\":31383:31389   */\n      dup6\n        /* \"#utility.yul\":31301:31396   */\n      tag_594\n      jump\t// in\n    tag_924:\n        /* \"#utility.yul\":31294:31396   */\n      swap2\n      pop\n        /* \"#utility.yul\":31413:31505   */\n      tag_925\n        /* \"#utility.yul\":31501:31504   */\n      dup3\n        /* \"#utility.yul\":31492:31498   */\n      dup5\n        /* \"#utility.yul\":31413:31505   */\n      tag_595\n      jump\t// in\n    tag_925:\n        /* \"#utility.yul\":31406:31505   */\n      swap2\n      pop\n        /* \"#utility.yul\":31522:31525   */\n      dup2\n        /* \"#utility.yul\":31515:31525   */\n      swap1\n      pop\n        /* \"#utility.yul\":30942:31531   */\n      swap5\n      swap4\n      pop\n      pop\n      pop\n      pop\n      jump\t// out\n        /* \"#utility.yul\":31537:31762   */\n    tag_596:\n        /* \"#utility.yul\":31677:31711   */\n      0x4f776e61626c653a206e6577206f776e657220697320746865207a65726f2061\n        /* \"#utility.yul\":31673:31674   */\n      0x00\n        /* \"#utility.yul\":31665:31671   */\n      dup3\n        /* \"#utility.yul\":31661:31675   */\n      add\n        /* \"#utility.yul\":31654:31712   */\n      mstore\n        /* \"#utility.yul\":31746:31754   */\n      0x6464726573730000000000000000000000000000000000000000000000000000\n        /* \"#utility.yul\":31741:31743   */\n      0x20\n        /* \"#utility.yul\":31733:31739   */\n      dup3\n        /* \"#utility.yul\":31729:31744   */\n      add\n        /* \"#utility.yul\":31722:31755   */\n      mstore\n        /* \"#utility.yul\":31537:31762   */\n      pop\n      jump\t// out\n        /* \"#utility.yul\":31768:32134   */\n    tag_597:\n        /* \"#utility.yul\":31910:31913   */\n      0x00\n        /* \"#utility.yul\":31931:31998   */\n      tag_928\n        /* \"#utility.yul\":31995:31997   */\n      0x26\n        /* \"#utility.yul\":31990:31993   */\n      dup4\n        /* \"#utility.yul\":31931:31998   */\n      tag_529\n      jump\t// in\n    tag_928:\n        /* \"#utility.yul\":31924:31998   */\n      swap2\n      pop\n        /* \"#utility.yul\":32007:32100   */\n      tag_929\n        /* \"#utility.yul\":32096:32099   */\n      dup3\n        /* \"#utility.yul\":32007:32100   */\n      tag_596\n      jump\t// in\n    tag_929:\n        /* \"#utility.yul\":32125:32127   */\n      0x40\n        /* \"#utility.yul\":32120:32123   */\n      dup3\n        /* \"#utility.yul\":32116:32128   */\n      add\n        /* \"#utility.yul\":32109:32128   */\n      swap1\n      pop\n        /* \"#utility.yul\":31768:32134   */\n      swap2\n      swap1\n      pop\n      jump\t// out\n        /* \"#utility.yul\":32140:32559   */\n    tag_371:\n        /* \"#utility.yul\":32306:32310   */\n      0x00\n        /* \"#utility.yul\":32344:32346   */\n      0x20\n        /* \"#utility.yul\":32333:32342   */\n      dup3\n        /* \"#utility.yul\":32329:32347   */\n      add\n        /* \"#utility.yul\":32321:32347   */\n      swap1\n      pop\n        /* \"#utility.yul\":32393:32402   */\n      dup2\n        /* \"#utility.yul\":32387:32391   */\n      dup2\n        /* \"#utility.yul\":32383:32403   */\n      sub\n        /* \"#utility.yul\":32379:32380   */\n      0x00\n        /* \"#utility.yul\":32368:32377   */\n      dup4\n        /* \"#utility.yul\":32364:32381   */\n      add\n        /* \"#utility.yul\":32357:32404   */\n      mstore\n        /* \"#utility.yul\":32421:32552   */\n      tag_931\n        /* \"#utility.yul\":32547:32551   */\n      dup2\n        /* \"#utility.yul\":32421:32552   */\n      tag_597\n      jump\t// in\n    tag_931:\n        /* \"#utility.yul\":32413:32552   */\n      swap1\n      pop\n        /* \"#utility.yul\":32140:32559   */\n      swap2\n      swap1\n      pop\n      jump\t// out\n        /* \"#utility.yul\":32565:32789   */\n    tag_598:\n        /* \"#utility.yul\":32705:32739   */\n      0x4552433732313a207472616e736665722066726f6d20696e636f727265637420\n        /* \"#utility.yul\":32701:32702   */\n      0x00\n        /* \"#utility.yul\":32693:32699   */\n      dup3\n        /* \"#utility.yul\":32689:32703   */\n      add\n        /* \"#utility.yul\":32682:32740   */\n      mstore\n        /* \"#utility.yul\":32774:32781   */\n      0x6f776e6572000000000000000000000000000000000000000000000000000000\n        /* \"#utility.yul\":32769:32771   */\n      0x20\n        /* \"#utility.yul\":32761:32767   */\n      dup3\n        /* \"#utility.yul\":32757:32772   */\n      add\n        /* \"#utility.yul\":32750:32782   */\n      mstore\n        /* \"#utility.yul\":32565:32789   */\n      pop\n      jump\t// out\n        /* \"#utility.yul\":32795:33161   */\n    tag_599:\n        /* \"#utility.yul\":32937:32940   */\n      0x00\n        /* \"#utility.yul\":32958:33025   */\n      tag_934\n        /* \"#utility.yul\":33022:33024   */\n      0x25\n        /* \"#utility.yul\":33017:33020   */\n      dup4\n        /* \"#utility.yul\":32958:33025   */\n      tag_529\n      jump\t// in\n    tag_934:\n        /* \"#utility.yul\":32951:33025   */\n      swap2\n      pop\n        /* \"#utility.yul\":33034:33127   */\n      tag_935\n        /* \"#utility.yul\":33123:33126   */\n      dup3\n        /* \"#utility.yul\":33034:33127   */\n      tag_598\n      jump\t// in\n    tag_935:\n        /* \"#utility.yul\":33152:33154   */\n      0x40\n        /* \"#utility.yul\":33147:33150   */\n      dup3\n        /* \"#utility.yul\":33143:33155   */\n      add\n        /* \"#utility.yul\":33136:33155   */\n      swap1\n      pop\n        /* \"#utility.yul\":32795:33161   */\n      swap2\n      swap1\n      pop\n      jump\t// out\n        /* \"#utility.yul\":33167:33586   */\n    tag_392:\n        /* \"#utility.yul\":33333:33337   */\n      0x00\n        /* \"#utility.yul\":33371:33373   */\n      0x20\n        /* \"#utility.yul\":33360:33369   */\n      dup3\n        /* \"#utility.yul\":33356:33374   */\n      add\n        /* \"#utility.yul\":33348:33374   */\n      swap1\n      pop\n        /* \"#utility.yul\":33420:33429   */\n      dup2\n        /* \"#utility.yul\":33414:33418   */\n      dup2\n        /* \"#utility.yul\":33410:33430   */\n      sub\n        /* \"#utility.yul\":33406:33407   */\n      0x00\n        /* \"#utility.yul\":33395:33404   */\n      dup4\n        /* \"#utility.yul\":33391:33408   */\n      add\n        /* \"#utility.yul\":33384:33431   */\n      mstore\n        /* \"#utility.yul\":33448:33579   */\n      tag_937\n        /* \"#utility.yul\":33574:33578   */\n      dup2\n        /* \"#utility.yul\":33448:33579   */\n      tag_599\n      jump\t// in\n    tag_937:\n        /* \"#utility.yul\":33440:33579   */\n      swap1\n      pop\n        /* \"#utility.yul\":33167:33586   */\n      swap2\n      swap1\n      pop\n      jump\t// out\n        /* \"#utility.yul\":33592:33815   */\n    tag_600:\n        /* \"#utility.yul\":33732:33766   */\n      0x4552433732313a207472616e7366657220746f20746865207a65726f20616464\n        /* \"#utility.yul\":33728:33729   */\n      0x00\n        /* \"#utility.yul\":33720:33726   */\n      dup3\n        /* \"#utility.yul\":33716:33730   */\n      add\n        /* \"#utility.yul\":33709:33767   */\n      mstore\n        /* \"#utility.yul\":33801:33807   */\n      0x7265737300000000000000000000000000000000000000000000000000000000\n        /* \"#utility.yul\":33796:33798   */\n      0x20\n        /* \"#utility.yul\":33788:33794   */\n      dup3\n        /* \"#utility.yul\":33784:33799   */\n      add\n        /* \"#utility.yul\":33777:33808   */\n      mstore\n        /* \"#utility.yul\":33592:33815   */\n      pop\n      jump\t// out\n        /* \"#utility.yul\":33821:34187   */\n    tag_601:\n        /* \"#utility.yul\":33963:33966   */\n      0x00\n        /* \"#utility.yul\":33984:34051   */\n      tag_940\n        /* \"#utility.yul\":34048:34050   */\n      0x24\n        /* \"#utility.yul\":34043:34046   */\n      dup4\n        /* \"#utility.yul\":33984:34051   */\n      tag_529\n      jump\t// in\n    tag_940:\n        /* \"#utility.yul\":33977:34051   */\n      swap2\n      pop\n        /* \"#utility.yul\":34060:34153   */\n      tag_941\n        /* \"#utility.yul\":34149:34152   */\n      dup3\n        /* \"#utility.yul\":34060:34153   */\n      tag_600\n      jump\t// in\n    tag_941:\n        /* \"#utility.yul\":34178:34180   */\n      0x40\n        /* \"#utility.yul\":34173:34176   */\n      dup3\n        /* \"#utility.yul\":34169:34181   */\n      add\n        /* \"#utility.yul\":34162:34181   */\n      swap1\n      pop\n        /* \"#utility.yul\":33821:34187   */\n      swap2\n      swap1\n      pop\n      jump\t// out\n        /* \"#utility.yul\":34193:34612   */\n    tag_395:\n        /* \"#utility.yul\":34359:34363   */\n      0x00\n        /* \"#utility.yul\":34397:34399   */\n      0x20\n        /* \"#utility.yul\":34386:34395   */\n      dup3\n        /* \"#utility.yul\":34382:34400   */\n      add\n        /* \"#utility.yul\":34374:34400   */\n      swap1\n      pop\n        /* \"#utility.yul\":34446:34455   */\n      dup2\n        /* \"#utility.yul\":34440:34444   */\n      dup2\n        /* \"#utility.yul\":34436:34456   */\n      sub\n        /* \"#utility.yul\":34432:34433   */\n      0x00\n        /* \"#utility.yul\":34421:34430   */\n      dup4\n        /* \"#utility.yul\":34417:34434   */\n      add\n        /* \"#utility.yul\":34410:34457   */\n      mstore\n        /* \"#utility.yul\":34474:34605   */\n      tag_943\n        /* \"#utility.yul\":34600:34604   */\n      dup2\n        /* \"#utility.yul\":34474:34605   */\n      tag_601\n      jump\t// in\n    tag_943:\n        /* \"#utility.yul\":34466:34605   */\n      swap1\n      pop\n        /* \"#utility.yul\":34193:34612   */\n      swap2\n      swap1\n      pop\n      jump\t// out\n        /* \"#utility.yul\":34618:34800   */\n    tag_602:\n        /* \"#utility.yul\":34758:34792   */\n      0x4f776e61626c653a2063616c6c6572206973206e6f7420746865206f776e6572\n        /* \"#utility.yul\":34754:34755   */\n      0x00\n        /* \"#utility.yul\":34746:34752   */\n      dup3\n        /* \"#utility.yul\":34742:34756   */\n      add\n        /* \"#utility.yul\":34735:34793   */\n      mstore\n        /* \"#utility.yul\":34618:34800   */\n      pop\n      jump\t// out\n        /* \"#utility.yul\":34806:35172   */\n    tag_603:\n        /* \"#utility.yul\":34948:34951   */\n      0x00\n        /* \"#utility.yul\":34969:35036   */\n      tag_946\n        /* \"#utility.yul\":35033:35035   */\n      0x20\n        /* \"#utility.yul\":35028:35031   */\n      dup4\n        /* \"#utility.yul\":34969:35036   */\n      tag_529\n      jump\t// in\n    tag_946:\n        /* \"#utility.yul\":34962:35036   */\n      swap2\n      pop\n        /* \"#utility.yul\":35045:35138   */\n      tag_947\n        /* \"#utility.yul\":35134:35137   */\n      dup3\n        /* \"#utility.yul\":35045:35138   */\n      tag_602\n      jump\t// in\n    tag_947:\n        /* \"#utility.yul\":35163:35165   */\n      0x20\n        /* \"#utility.yul\":35158:35161   */\n      dup3\n        /* \"#utility.yul\":35154:35166   */\n      add\n        /* \"#utility.yul\":35147:35166   */\n      swap1\n      pop\n        /* \"#utility.yul\":34806:35172   */\n      swap2\n      swap1\n      pop\n      jump\t// out\n        /* \"#utility.yul\":35178:35597   */\n    tag_409:\n        /* \"#utility.yul\":35344:35348   */\n      0x00\n        /* \"#utility.yul\":35382:35384   */\n      0x20\n        /* \"#utility.yul\":35371:35380   */\n      dup3\n        /* \"#utility.yul\":35367:35385   */\n      add\n        /* \"#utility.yul\":35359:35385   */\n      swap1\n      pop\n        /* \"#utility.yul\":35431:35440   */\n      dup2\n        /* \"#utility.yul\":35425:35429   */\n      dup2\n        /* \"#utility.yul\":35421:35441   */\n      sub\n        /* \"#utility.yul\":35417:35418   */\n      0x00\n        /* \"#utility.yul\":35406:35415   */\n      dup4\n        /* \"#utility.yul\":35402:35419   */\n      add\n        /* \"#utility.yul\":35395:35442   */\n      mstore\n        /* \"#utility.yul\":35459:35590   */\n      tag_949\n        /* \"#utility.yul\":35585:35589   */\n      dup2\n        /* \"#utility.yul\":35459:35590   */\n      tag_603\n      jump\t// in\n    tag_949:\n        /* \"#utility.yul\":35451:35590   */\n      swap1\n      pop\n        /* \"#utility.yul\":35178:35597   */\n      swap2\n      swap1\n      pop\n      jump\t// out\n        /* \"#utility.yul\":35603:35836   */\n    tag_604:\n        /* \"#utility.yul\":35743:35777   */\n      0x45524337323155524953746f726167653a2055524920736574206f66206e6f6e\n        /* \"#utility.yul\":35739:35740   */\n      0x00\n        /* \"#utility.yul\":35731:35737   */\n      dup3\n        /* \"#utility.yul\":35727:35741   */\n      add\n        /* \"#utility.yul\":35720:35778   */\n      mstore\n        /* \"#utility.yul\":35812:35828   */\n      0x6578697374656e7420746f6b656e000000000000000000000000000000000000\n        /* \"#utility.yul\":35807:35809   */\n      0x20\n        /* \"#utility.yul\":35799:35805   */\n      dup3\n        /* \"#utility.yul\":35795:35810   */\n      add\n        /* \"#utility.yul\":35788:35829   */\n      mstore\n        /* \"#utility.yul\":35603:35836   */\n      pop\n      jump\t// out\n        /* \"#utility.yul\":35842:36208   */\n    tag_605:\n        /* \"#utility.yul\":35984:35987   */\n      0x00\n        /* \"#utility.yul\":36005:36072   */\n      tag_952\n        /* \"#utility.yul\":36069:36071   */\n      0x2e\n        /* \"#utility.yul\":36064:36067   */\n      dup4\n        /* \"#utility.yul\":36005:36072   */\n      tag_529\n      jump\t// in\n    tag_952:\n        /* \"#utility.yul\":35998:36072   */\n      swap2\n      pop\n        /* \"#utility.yul\":36081:36174   */\n      tag_953\n        /* \"#utility.yul\":36170:36173   */\n      dup3\n        /* \"#utility.yul\":36081:36174   */\n      tag_604\n      jump\t// in\n    tag_953:\n        /* \"#utility.yul\":36199:36201   */\n      0x40\n        /* \"#utility.yul\":36194:36197   */\n      dup3\n        /* \"#utility.yul\":36190:36202   */\n      add\n        /* \"#utility.yul\":36183:36202   */\n      swap1\n      pop\n        /* \"#utility.yul\":35842:36208   */\n      swap2\n      swap1\n      pop\n      jump\t// out\n        /* \"#utility.yul\":36214:36633   */\n    tag_418:\n        /* \"#utility.yul\":36380:36384   */\n      0x00\n        /* \"#utility.yul\":36418:36420   */\n      0x20\n        /* \"#utility.yul\":36407:36416   */\n      dup3\n        /* \"#utility.yul\":36403:36421   */\n      add\n        /* \"#utility.yul\":36395:36421   */\n      swap1\n      pop\n        /* \"#utility.yul\":36467:36476   */\n      dup2\n        /* \"#utility.yul\":36461:36465   */\n      dup2\n        /* \"#utility.yul\":36457:36477   */\n      sub\n        /* \"#utility.yul\":36453:36454   */\n      0x00\n        /* \"#utility.yul\":36442:36451   */\n      dup4\n        /* \"#utility.yul\":36438:36455   */\n      add\n        /* \"#utility.yul\":36431:36478   */\n      mstore\n        /* \"#utility.yul\":36495:36626   */\n      tag_955\n        /* \"#utility.yul\":36621:36625   */\n      dup2\n        /* \"#utility.yul\":36495:36626   */\n      tag_605\n      jump\t// in\n    tag_955:\n        /* \"#utility.yul\":36487:36626   */\n      swap1\n      pop\n        /* \"#utility.yul\":36214:36633   */\n      swap2\n      swap1\n      pop\n      jump\t// out\n        /* \"#utility.yul\":36639:36814   */\n    tag_606:\n        /* \"#utility.yul\":36779:36806   */\n      0x4552433732313a20617070726f766520746f2063616c6c657200000000000000\n        /* \"#utility.yul\":36775:36776   */\n      0x00\n        /* \"#utility.yul\":36767:36773   */\n      dup3\n        /* \"#utility.yul\":36763:36777   */\n      add\n        /* \"#utility.yul\":36756:36807   */\n      mstore\n        /* \"#utility.yul\":36639:36814   */\n      pop\n      jump\t// out\n        /* \"#utility.yul\":36820:37186   */\n    tag_607:\n        /* \"#utility.yul\":36962:36965   */\n      0x00\n        /* \"#utility.yul\":36983:37050   */\n      tag_958\n        /* \"#utility.yul\":37047:37049   */\n      0x19\n        /* \"#utility.yul\":37042:37045   */\n      dup4\n        /* \"#utility.yul\":36983:37050   */\n      tag_529\n      jump\t// in\n    tag_958:\n        /* \"#utility.yul\":36976:37050   */\n      swap2\n      pop\n        /* \"#utility.yul\":37059:37152   */\n      tag_959\n        /* \"#utility.yul\":37148:37151   */\n      dup3\n        /* \"#utility.yul\":37059:37152   */\n      tag_606\n      jump\t// in\n    tag_959:\n        /* \"#utility.yul\":37177:37179   */\n      0x20\n        /* \"#utility.yul\":37172:37175   */\n      dup3\n        /* \"#utility.yul\":37168:37180   */\n      add\n        /* \"#utility.yul\":37161:37180   */\n      swap1\n      pop\n        /* \"#utility.yul\":36820:37186   */\n      swap2\n      swap1\n      pop\n      jump\t// out\n        /* \"#utility.yul\":37192:37611   */\n    tag_423:\n        /* \"#utility.yul\":37358:37362   */\n      0x00\n        /* \"#utility.yul\":37396:37398   */\n      0x20\n        /* \"#utility.yul\":37385:37394   */\n      dup3\n        /* \"#utility.yul\":37381:37399   */\n      add\n        /* \"#utility.yul\":37373:37399   */\n      swap1\n      pop\n        /* \"#utility.yul\":37445:37454   */\n      dup2\n        /* \"#utility.yul\":37439:37443   */\n      dup2\n        /* \"#utility.yul\":37435:37455   */\n      sub\n        /* \"#utility.yul\":37431:37432   */\n      0x00\n        /* \"#utility.yul\":37420:37429   */\n      dup4\n        /* \"#utility.yul\":37416:37433   */\n      add\n        /* \"#utility.yul\":37409:37456   */\n      mstore\n        /* \"#utility.yul\":37473:37604   */\n      tag_961\n        /* \"#utility.yul\":37599:37603   */\n      dup2\n        /* \"#utility.yul\":37473:37604   */\n      tag_607\n      jump\t// in\n    tag_961:\n        /* \"#utility.yul\":37465:37604   */\n      swap1\n      pop\n        /* \"#utility.yul\":37192:37611   */\n      swap2\n      swap1\n      pop\n      jump\t// out\n        /* \"#utility.yul\":37617:37854   */\n    tag_608:\n        /* \"#utility.yul\":37757:37791   */\n      0x4552433732313a207472616e7366657220746f206e6f6e204552433732315265\n        /* \"#utility.yul\":37753:37754   */\n      0x00\n        /* \"#utility.yul\":37745:37751   */\n      dup3\n        /* \"#utility.yul\":37741:37755   */\n      add\n        /* \"#utility.yul\":37734:37792   */\n      mstore\n        /* \"#utility.yul\":37826:37846   */\n      0x63656976657220696d706c656d656e7465720000000000000000000000000000\n        /* \"#utility.yul\":37821:37823   */\n      0x20\n        /* \"#utility.yul\":37813:37819   */\n      dup3\n        /* \"#utility.yul\":37809:37824   */\n      add\n        /* \"#utility.yul\":37802:37847   */\n      mstore\n        /* \"#utility.yul\":37617:37854   */\n      pop\n      jump\t// out\n        /* \"#utility.yul\":37860:38226   */\n    tag_609:\n        /* \"#utility.yul\":38002:38005   */\n      0x00\n        /* \"#utility.yul\":38023:38090   */\n      tag_964\n        /* \"#utility.yul\":38087:38089   */\n      0x32\n        /* \"#utility.yul\":38082:38085   */\n      dup4\n        /* \"#utility.yul\":38023:38090   */\n      tag_529\n      jump\t// in\n    tag_964:\n        /* \"#utility.yul\":38016:38090   */\n      swap2\n      pop\n        /* \"#utility.yul\":38099:38192   */\n      tag_965\n        /* \"#utility.yul\":38188:38191   */\n      dup3\n        /* \"#utility.yul\":38099:38192   */\n      tag_608\n      jump\t// in\n    tag_965:\n        /* \"#utility.yul\":38217:38219   */\n      0x40\n        /* \"#utility.yul\":38212:38215   */\n      dup3\n        /* \"#utility.yul\":38208:38220   */\n      add\n        /* \"#utility.yul\":38201:38220   */\n      swap1\n      pop\n        /* \"#utility.yul\":37860:38226   */\n      swap2\n      swap1\n      pop\n      jump\t// out\n        /* \"#utility.yul\":38232:38651   */\n    tag_431:\n        /* \"#utility.yul\":38398:38402   */\n      0x00\n        /* \"#utility.yul\":38436:38438   */\n      0x20\n        /* \"#utility.yul\":38425:38434   */\n      dup3\n        /* \"#utility.yul\":38421:38439   */\n      add\n        /* \"#utility.yul\":38413:38439   */\n      swap1\n      pop\n        /* \"#utility.yul\":38485:38494   */\n      dup2\n        /* \"#utility.yul\":38479:38483   */\n      dup2\n        /* \"#utility.yul\":38475:38495   */\n      sub\n        /* \"#utility.yul\":38471:38472   */\n      0x00\n        /* \"#utility.yul\":38460:38469   */\n      dup4\n        /* \"#utility.yul\":38456:38473   */\n      add\n        /* \"#utility.yul\":38449:38496   */\n      mstore\n        /* \"#utility.yul\":38513:38644   */\n      tag_967\n        /* \"#utility.yul\":38639:38643   */\n      dup2\n        /* \"#utility.yul\":38513:38644   */\n      tag_609\n      jump\t// in\n    tag_967:\n        /* \"#utility.yul\":38505:38644   */\n      swap1\n      pop\n        /* \"#utility.yul\":38232:38651   */\n      swap2\n      swap1\n      pop\n      jump\t// out\n        /* \"#utility.yul\":38657:38837   */\n    tag_451:\n        /* \"#utility.yul\":38705:38782   */\n      0x4e487b7100000000000000000000000000000000000000000000000000000000\n        /* \"#utility.yul\":38702:38703   */\n      0x00\n        /* \"#utility.yul\":38695:38783   */\n      mstore\n        /* \"#utility.yul\":38802:38806   */\n      0x12\n        /* \"#utility.yul\":38799:38800   */\n      0x04\n        /* \"#utility.yul\":38792:38807   */\n      mstore\n        /* \"#utility.yul\":38826:38830   */\n      0x24\n        /* \"#utility.yul\":38823:38824   */\n      0x00\n        /* \"#utility.yul\":38816:38831   */\n      revert\n        /* \"#utility.yul\":38843:39037   */\n    tag_457:\n        /* \"#utility.yul\":38883:38887   */\n      0x00\n        /* \"#utility.yul\":38903:38923   */\n      tag_970\n        /* \"#utility.yul\":38921:38922   */\n      dup3\n        /* \"#utility.yul\":38903:38923   */\n      tag_533\n      jump\t// in\n    tag_970:\n        /* \"#utility.yul\":38898:38923   */\n      swap2\n      pop\n        /* \"#utility.yul\":38937:38957   */\n      tag_971\n        /* \"#utility.yul\":38955:38956   */\n      dup4\n        /* \"#utility.yul\":38937:38957   */\n      tag_533\n      jump\t// in\n    tag_971:\n        /* \"#utility.yul\":38932:38957   */\n      swap3\n      pop\n        /* \"#utility.yul\":38981:38982   */\n      dup3\n        /* \"#utility.yul\":38978:38979   */\n      dup3\n        /* \"#utility.yul\":38974:38983   */\n      sub\n        /* \"#utility.yul\":38966:38983   */\n      swap1\n      pop\n        /* \"#utility.yul\":39005:39006   */\n      dup2\n        /* \"#utility.yul\":38999:39003   */\n      dup2\n        /* \"#utility.yul\":38996:39007   */\n      gt\n        /* \"#utility.yul\":38993:39030   */\n      iszero\n      tag_972\n      jumpi\n        /* \"#utility.yul\":39010:39028   */\n      tag_973\n      tag_588\n      jump\t// in\n    tag_973:\n        /* \"#utility.yul\":38993:39030   */\n    tag_972:\n        /* \"#utility.yul\":38843:39037   */\n      swap3\n      swap2\n      pop\n      pop\n      jump\t// out\n        /* \"#utility.yul\":39043:39141   */\n    tag_610:\n        /* \"#utility.yul\":39094:39100   */\n      0x00\n        /* \"#utility.yul\":39128:39133   */\n      dup2\n        /* \"#utility.yul\":39122:39134   */\n      mload\n        /* \"#utility.yul\":39112:39134   */\n      swap1\n      pop\n        /* \"#utility.yul\":39043:39141   */\n      swap2\n      swap1\n      pop\n      jump\t// out\n        /* \"#utility.yul\":39147:39315   */\n    tag_611:\n        /* \"#utility.yul\":39230:39241   */\n      0x00\n        /* \"#utility.yul\":39264:39270   */\n      dup3\n        /* \"#utility.yul\":39259:39262   */\n      dup3\n        /* \"#utility.yul\":39252:39271   */\n      mstore\n        /* \"#utility.yul\":39304:39308   */\n      0x20\n        /* \"#utility.yul\":39299:39302   */\n      dup3\n        /* \"#utility.yul\":39295:39309   */\n      add\n        /* \"#utility.yul\":39280:39309   */\n      swap1\n      pop\n        /* \"#utility.yul\":39147:39315   */\n      swap3\n      swap2\n      pop\n      pop\n      jump\t// out\n        /* \"#utility.yul\":39321:39694   */\n    tag_612:\n        /* \"#utility.yul\":39407:39410   */\n      0x00\n        /* \"#utility.yul\":39435:39473   */\n      tag_977\n        /* \"#utility.yul\":39467:39472   */\n      dup3\n        /* \"#utility.yul\":39435:39473   */\n      tag_610\n      jump\t// in\n    tag_977:\n        /* \"#utility.yul\":39489:39559   */\n      tag_978\n        /* \"#utility.yul\":39552:39558   */\n      dup2\n        /* \"#utility.yul\":39547:39550   */\n      dup6\n        /* \"#utility.yul\":39489:39559   */\n      tag_611\n      jump\t// in\n    tag_978:\n        /* \"#utility.yul\":39482:39559   */\n      swap4\n      pop\n        /* \"#utility.yul\":39568:39633   */\n      tag_979\n        /* \"#utility.yul\":39626:39632   */\n      dup2\n        /* \"#utility.yul\":39621:39624   */\n      dup6\n        /* \"#utility.yul\":39614:39618   */\n      0x20\n        /* \"#utility.yul\":39607:39612   */\n      dup7\n        /* \"#utility.yul\":39603:39619   */\n      add\n        /* \"#utility.yul\":39568:39633   */\n      tag_530\n      jump\t// in\n    tag_979:\n        /* \"#utility.yul\":39658:39687   */\n      tag_980\n        /* \"#utility.yul\":39680:39686   */\n      dup2\n        /* \"#utility.yul\":39658:39687   */\n      tag_531\n      jump\t// in\n    tag_980:\n        /* \"#utility.yul\":39653:39656   */\n      dup5\n        /* \"#utility.yul\":39649:39688   */\n      add\n        /* \"#utility.yul\":39642:39688   */\n      swap2\n      pop\n        /* \"#utility.yul\":39411:39694   */\n      pop\n        /* \"#utility.yul\":39321:39694   */\n      swap3\n      swap2\n      pop\n      pop\n      jump\t// out\n        /* \"#utility.yul\":39700:40340   */\n    tag_472:\n        /* \"#utility.yul\":39895:39899   */\n      0x00\n        /* \"#utility.yul\":39933:39936   */\n      0x80\n        /* \"#utility.yul\":39922:39931   */\n      dup3\n        /* \"#utility.yul\":39918:39937   */\n      add\n        /* \"#utility.yul\":39910:39937   */\n      swap1\n      pop\n        /* \"#utility.yul\":39947:40018   */\n      tag_982\n        /* \"#utility.yul\":40015:40016   */\n      0x00\n        /* \"#utility.yul\":40004:40013   */\n      dup4\n        /* \"#utility.yul\":40000:40017   */\n      add\n        /* \"#utility.yul\":39991:39997   */\n      dup8\n        /* \"#utility.yul\":39947:40018   */\n      tag_538\n      jump\t// in\n    tag_982:\n        /* \"#utility.yul\":40028:40100   */\n      tag_983\n        /* \"#utility.yul\":40096:40098   */\n      0x20\n        /* \"#utility.yul\":40085:40094   */\n      dup4\n        /* \"#utility.yul\":40081:40099   */\n      add\n        /* \"#utility.yul\":40072:40078   */\n      dup7\n        /* \"#utility.yul\":40028:40100   */\n      tag_538\n      jump\t// in\n    tag_983:\n        /* \"#utility.yul\":40110:40182   */\n      tag_984\n        /* \"#utility.yul\":40178:40180   */\n      0x40\n        /* \"#utility.yul\":40167:40176   */\n      dup4\n        /* \"#utility.yul\":40163:40181   */\n      add\n        /* \"#utility.yul\":40154:40160   */\n      dup6\n        /* \"#utility.yul\":40110:40182   */\n      tag_541\n      jump\t// in\n    tag_984:\n        /* \"#utility.yul\":40229:40238   */\n      dup2\n        /* \"#utility.yul\":40223:40227   */\n      dup2\n        /* \"#utility.yul\":40219:40239   */\n      sub\n        /* \"#utility.yul\":40214:40216   */\n      0x60\n        /* \"#utility.yul\":40203:40212   */\n      dup4\n        /* \"#utility.yul\":40199:40217   */\n      add\n        /* \"#utility.yul\":40192:40240   */\n      mstore\n        /* \"#utility.yul\":40257:40333   */\n      tag_985\n        /* \"#utility.yul\":40328:40332   */\n      dup2\n        /* \"#utility.yul\":40319:40325   */\n      dup5\n        /* \"#utility.yul\":40257:40333   */\n      tag_612\n      jump\t// in\n    tag_985:\n        /* \"#utility.yul\":40249:40333   */\n      swap1\n      pop\n        /* \"#utility.yul\":39700:40340   */\n      swap6\n      swap5\n      pop\n      pop\n      pop\n      pop\n      pop\n      jump\t// out\n        /* \"#utility.yul\":40346:40487   */\n    tag_613:\n        /* \"#utility.yul\":40402:40407   */\n      0x00\n        /* \"#utility.yul\":40433:40439   */\n      dup2\n        /* \"#utility.yul\":40427:40440   */\n      mload\n        /* \"#utility.yul\":40418:40440   */\n      swap1\n      pop\n        /* \"#utility.yul\":40449:40481   */\n      tag_987\n        /* \"#utility.yul\":40475:40480   */\n      dup2\n        /* \"#utility.yul\":40449:40481   */\n      tag_524\n      jump\t// in\n    tag_987:\n        /* \"#utility.yul\":40346:40487   */\n      swap3\n      swap2\n      pop\n      pop\n      jump\t// out\n        /* \"#utility.yul\":40493:40842   */\n    tag_475:\n        /* \"#utility.yul\":40562:40568   */\n      0x00\n        /* \"#utility.yul\":40611:40613   */\n      0x20\n        /* \"#utility.yul\":40599:40608   */\n      dup3\n        /* \"#utility.yul\":40590:40597   */\n      dup5\n        /* \"#utility.yul\":40586:40609   */\n      sub\n        /* \"#utility.yul\":40582:40614   */\n      slt\n        /* \"#utility.yul\":40579:40698   */\n      iszero\n      tag_989\n      jumpi\n        /* \"#utility.yul\":40617:40696   */\n      tag_990\n      tag_521\n      jump\t// in\n    tag_990:\n        /* \"#utility.yul\":40579:40698   */\n    tag_989:\n        /* \"#utility.yul\":40737:40738   */\n      0x00\n        /* \"#utility.yul\":40762:40825   */\n      tag_991\n        /* \"#utility.yul\":40817:40824   */\n      dup5\n        /* \"#utility.yul\":40808:40814   */\n      dup3\n        /* \"#utility.yul\":40797:40806   */\n      dup6\n        /* \"#utility.yul\":40793:40815   */\n      add\n        /* \"#utility.yul\":40762:40825   */\n      tag_613\n      jump\t// in\n    tag_991:\n        /* \"#utility.yul\":40752:40825   */\n      swap2\n      pop\n        /* \"#utility.yul\":40708:40835   */\n      pop\n        /* \"#utility.yul\":40493:40842   */\n      swap3\n      swap2\n      pop\n      pop\n      jump\t// out\n        /* \"#utility.yul\":40848:41030   */\n    tag_614:\n        /* \"#utility.yul\":40988:41022   */\n      0x4552433732313a206d696e7420746f20746865207a65726f2061646472657373\n        /* \"#utility.yul\":40984:40985   */\n      0x00\n        /* \"#utility.yul\":40976:40982   */\n      dup3\n        /* \"#utility.yul\":40972:40986   */\n      add\n        /* \"#utility.yul\":40965:41023   */\n      mstore\n        /* \"#utility.yul\":40848:41030   */\n      pop\n      jump\t// out\n        /* \"#utility.yul\":41036:41402   */\n    tag_615:\n        /* \"#utility.yul\":41178:41181   */\n      0x00\n        /* \"#utility.yul\":41199:41266   */\n      tag_994\n        /* \"#utility.yul\":41263:41265   */\n      0x20\n        /* \"#utility.yul\":41258:41261   */\n      dup4\n        /* \"#utility.yul\":41199:41266   */\n      tag_529\n      jump\t// in\n    tag_994:\n        /* \"#utility.yul\":41192:41266   */\n      swap2\n      pop\n        /* \"#utility.yul\":41275:41368   */\n      tag_995\n        /* \"#utility.yul\":41364:41367   */\n      dup3\n        /* \"#utility.yul\":41275:41368   */\n      tag_614\n      jump\t// in\n    tag_995:\n        /* \"#utility.yul\":41393:41395   */\n      0x20\n        /* \"#utility.yul\":41388:41391   */\n      dup3\n        /* \"#utility.yul\":41384:41396   */\n      add\n        /* \"#utility.yul\":41377:41396   */\n      swap1\n      pop\n        /* \"#utility.yul\":41036:41402   */\n      swap2\n      swap1\n      pop\n      jump\t// out\n        /* \"#utility.yul\":41408:41827   */\n    tag_510:\n        /* \"#utility.yul\":41574:41578   */\n      0x00\n        /* \"#utility.yul\":41612:41614   */\n      0x20\n        /* \"#utility.yul\":41601:41610   */\n      dup3\n        /* \"#utility.yul\":41597:41615   */\n      add\n        /* \"#utility.yul\":41589:41615   */\n      swap1\n      pop\n        /* \"#utility.yul\":41661:41670   */\n      dup2\n        /* \"#utility.yul\":41655:41659   */\n      dup2\n        /* \"#utility.yul\":41651:41671   */\n      sub\n        /* \"#utility.yul\":41647:41648   */\n      0x00\n        /* \"#utility.yul\":41636:41645   */\n      dup4\n        /* \"#utility.yul\":41632:41649   */\n      add\n        /* \"#utility.yul\":41625:41672   */\n      mstore\n        /* \"#utility.yul\":41689:41820   */\n      tag_997\n        /* \"#utility.yul\":41815:41819   */\n      dup2\n        /* \"#utility.yul\":41689:41820   */\n      tag_615\n      jump\t// in\n    tag_997:\n        /* \"#utility.yul\":41681:41820   */\n      swap1\n      pop\n        /* \"#utility.yul\":41408:41827   */\n      swap2\n      swap1\n      pop\n      jump\t// out\n        /* \"#utility.yul\":41833:42011   */\n    tag_616:\n        /* \"#utility.yul\":41973:42003   */\n      0x4552433732313a20746f6b656e20616c7265616479206d696e74656400000000\n        /* \"#utility.yul\":41969:41970   */\n      0x00\n        /* \"#utility.yul\":41961:41967   */\n      dup3\n        /* \"#utility.yul\":41957:41971   */\n      add\n        /* \"#utility.yul\":41950:42004   */\n      mstore\n        /* \"#utility.yul\":41833:42011   */\n      pop\n      jump\t// out\n        /* \"#utility.yul\":42017:42383   */\n    tag_617:\n        /* \"#utility.yul\":42159:42162   */\n      0x00\n        /* \"#utility.yul\":42180:42247   */\n      tag_1000\n        /* \"#utility.yul\":42244:42246   */\n      0x1c\n        /* \"#utility.yul\":42239:42242   */\n      dup4\n        /* \"#utility.yul\":42180:42247   */\n      tag_529\n      jump\t// in\n    tag_1000:\n        /* \"#utility.yul\":42173:42247   */\n      swap2\n      pop\n        /* \"#utility.yul\":42256:42349   */\n      tag_1001\n        /* \"#utility.yul\":42345:42348   */\n      dup3\n        /* \"#utility.yul\":42256:42349   */\n      tag_616\n      jump\t// in\n    tag_1001:\n        /* \"#utility.yul\":42374:42376   */\n      0x20\n        /* \"#utility.yul\":42369:42372   */\n      dup3\n        /* \"#utility.yul\":42365:42377   */\n      add\n        /* \"#utility.yul\":42358:42377   */\n      swap1\n      pop\n        /* \"#utility.yul\":42017:42383   */\n      swap2\n      swap1\n      pop\n      jump\t// out\n        /* \"#utility.yul\":42389:42808   */\n    tag_514:\n        /* \"#utility.yul\":42555:42559   */\n      0x00\n        /* \"#utility.yul\":42593:42595   */\n      0x20\n        /* \"#utility.yul\":42582:42591   */\n      dup3\n        /* \"#utility.yul\":42578:42596   */\n      add\n        /* \"#utility.yul\":42570:42596   */\n      swap1\n      pop\n        /* \"#utility.yul\":42642:42651   */\n      dup2\n        /* \"#utility.yul\":42636:42640   */\n      dup2\n        /* \"#utility.yul\":42632:42652   */\n      sub\n        /* \"#utility.yul\":42628:42629   */\n      0x00\n        /* \"#utility.yul\":42617:42626   */\n      dup4\n        /* \"#utility.yul\":42613:42630   */\n      add\n        /* \"#utility.yul\":42606:42653   */\n      mstore\n        /* \"#utility.yul\":42670:42801   */\n      tag_1003\n        /* \"#utility.yul\":42796:42800   */\n      dup2\n        /* \"#utility.yul\":42670:42801   */\n      tag_617\n      jump\t// in\n    tag_1003:\n        /* \"#utility.yul\":42662:42801   */\n      swap1\n      pop\n        /* \"#utility.yul\":42389:42808   */\n      swap2\n      swap1\n      pop\n      jump\t// out\n\n    auxdata: 0xa2646970667358221220a0fd6ee6fde34d4fdde4764c528c7b0cf232e941c0215da8add65f4b9265cfba64736f6c63430008110033\n}\n","bytecode":{"linkReferences":{},"object":"60806040526040518060400160405280600581526020017f2e6a736f6e000000000000000000000000000000000000000000000000000000815250601490816200004a919062000b5a565b503480156200005857600080fd5b506040516200531f3803806200531f83398181016040528101906200007e919062000e3b565b8787816000908162000091919062000b5a565b508060019081620000a3919062000b5a565b505050620000c6620000ba620001b360201b60201c565b620001bb60201b60201c565b8260139081620000d7919062000b5a565b5088600860006101000a81548173ffffffffffffffffffffffffffffffffffffffff021916908373ffffffffffffffffffffffffffffffffffffffff16021790555087600e90816200012a919062000b5a565b5086600f90816200013c919062000b5a565b5085600b8190555083600a81905550600a546011819055508460098190555080600c8190555081600d819055506000600190505b600a54811015620001a3576200018d33826200028160201b60201c565b80806200019a9062000fa6565b91505062000170565b5050505050505050505062001358565b600033905090565b6000600760009054906101000a900473ffffffffffffffffffffffffffffffffffffffff16905081600760006101000a81548173ffffffffffffffffffffffffffffffffffffffff021916908373ffffffffffffffffffffffffffffffffffffffff1602179055508173ffffffffffffffffffffffffffffffffffffffff168173ffffffffffffffffffffffffffffffffffffffff167f8be0079c531659141344cd1fd0a4f28419497f9722a3daafe3b4186f6b6457e060405160405180910390a35050565b620002a3828260405180602001604052806000815250620002a760201b60201c565b5050565b620002b983836200031560201b60201c565b620002ce60008484846200055b60201b60201c565b62000310576040517f08c379a000000000000000000000000000000000000000000000000000000000815260040162000307906200107a565b60405180910390fd5b505050565b600073ffffffffffffffffffffffffffffffffffffffff168273ffffffffffffffffffffffffffffffffffffffff160362000387576040517f08c379a00000000000000000000000000000000000000000000000000000000081526004016200037e90620010ec565b60405180910390fd5b62000398816200070460201b60201c565b15620003db576040517f08c379a0000000000000000000000000000000000000000000000000000000008152600401620003d2906200115e565b60405180910390fd5b620003f16000838360016200074d60201b60201c565b62000402816200070460201b60201c565b1562000445576040517f08c379a00000000000000000000000000000000000000000000000000000000081526004016200043c906200115e565b60405180910390fd5b6001600360008473ffffffffffffffffffffffffffffffffffffffff1673ffffffffffffffffffffffffffffffffffffffff16815260200190815260200160002060008282540192505081905550816002600083815260200190815260200160002060006101000a81548173ffffffffffffffffffffffffffffffffffffffff021916908373ffffffffffffffffffffffffffffffffffffffff160217905550808273ffffffffffffffffffffffffffffffffffffffff16600073ffffffffffffffffffffffffffffffffffffffff167fddf252ad1be2c89b69c2b068fc378daa952ba7f163c4a11628f55a4df523b3ef60405160405180910390a4620005576000838360016200087a60201b60201c565b5050565b6000620005898473ffffffffffffffffffffffffffffffffffffffff166200088060201b620017dd1760201c565b15620006f7578373ffffffffffffffffffffffffffffffffffffffff1663150b7a02620005bb620001b360201b60201c565b8786866040518563ffffffff1660e01b8152600401620005df9493929190620011ff565b6020604051808303816000875af19250505080156200061e57506040513d601f19601f820116820180604052508101906200061b9190620012b0565b60015b620006a6573d806000811462000651576040519150601f19603f3d011682016040523d82523d6000602084013e62000656565b606091505b5060008151036200069e576040517f08c379a000000000000000000000000000000000000000000000000000000000815260040162000695906200107a565b60405180910390fd5b805181602001fd5b63150b7a0260e01b7bffffffffffffffffffffffffffffffffffffffffffffffffffffffff1916817bffffffffffffffffffffffffffffffffffffffffffffffffffffffff191614915050620006fc565b600190505b949350505050565b60008073ffffffffffffffffffffffffffffffffffffffff166200072e83620008a360201b60201c565b73ffffffffffffffffffffffffffffffffffffffff1614159050919050565b60018111156200087457600073ffffffffffffffffffffffffffffffffffffffff168473ffffffffffffffffffffffffffffffffffffffff1614620007e55780600360008673ffffffffffffffffffffffffffffffffffffffff1673ffffffffffffffffffffffffffffffffffffffff1681526020019081526020016000206000828254620007dd9190620012e2565b925050819055505b600073ffffffffffffffffffffffffffffffffffffffff168373ffffffffffffffffffffffffffffffffffffffff1614620008735780600360008573ffffffffffffffffffffffffffffffffffffffff1673ffffffffffffffffffffffffffffffffffffffff16815260200190815260200160002060008282546200086b91906200131d565b925050819055505b5b50505050565b50505050565b6000808273ffffffffffffffffffffffffffffffffffffffff163b119050919050565b60006002600083815260200190815260200160002060009054906101000a900473ffffffffffffffffffffffffffffffffffffffff169050919050565b600081519050919050565b7f4e487b7100000000000000000000000000000000000000000000000000000000600052604160045260246000fd5b7f4e487b7100000000000000000000000000000000000000000000000000000000600052602260045260246000fd5b600060028204905060018216806200096257607f821691505b6020821081036200097857620009776200091a565b5b50919050565b60008190508160005260206000209050919050565b60006020601f8301049050919050565b600082821b905092915050565b600060088302620009e27fffffffffffffffffffffffffffffffffffffffffffffffffffffffffffffffff82620009a3565b620009ee8683620009a3565b95508019841693508086168417925050509392505050565b6000819050919050565b6000819050919050565b600062000a3b62000a3562000a2f8462000a06565b62000a10565b62000a06565b9050919050565b6000819050919050565b62000a578362000a1a565b62000a6f62000a668262000a42565b848454620009b0565b825550505050565b600090565b62000a8662000a77565b62000a9381848462000a4c565b505050565b5b8181101562000abb5762000aaf60008262000a7c565b60018101905062000a99565b5050565b601f82111562000b0a5762000ad4816200097e565b62000adf8462000993565b8101602085101562000aef578190505b62000b0762000afe8562000993565b83018262000a98565b50505b505050565b600082821c905092915050565b600062000b2f6000198460080262000b0f565b1980831691505092915050565b600062000b4a838362000b1c565b9150826002028217905092915050565b62000b6582620008e0565b67ffffffffffffffff81111562000b815762000b80620008eb565b5b62000b8d825462000949565b62000b9a82828562000abf565b600060209050601f83116001811462000bd2576000841562000bbd578287015190505b62000bc9858262000b3c565b86555062000c39565b601f19841662000be2866200097e565b60005b8281101562000c0c5784890151825560018201915060208501945060208101905062000be5565b8683101562000c2c578489015162000c28601f89168262000b1c565b8355505b6001600288020188555050505b505050505050565b6000604051905090565b600080fd5b600080fd5b600073ffffffffffffffffffffffffffffffffffffffff82169050919050565b600062000c828262000c55565b9050919050565b62000c948162000c75565b811462000ca057600080fd5b50565b60008151905062000cb48162000c89565b92915050565b600080fd5b600080fd5b6000601f19601f8301169050919050565b62000ce08262000cc4565b810181811067ffffffffffffffff8211171562000d025762000d01620008eb565b5b80604052505050565b600062000d1762000c41565b905062000d25828262000cd5565b919050565b600067ffffffffffffffff82111562000d485762000d47620008eb565b5b62000d538262000cc4565b9050602081019050919050565b60005b8381101562000d8057808201518184015260208101905062000d63565b60008484015250505050565b600062000da362000d9d8462000d2a565b62000d0b565b90508281526020810184848401111562000dc25762000dc162000cbf565b5b62000dcf84828562000d60565b509392505050565b600082601f83011262000def5762000dee62000cba565b5b815162000e0184826020860162000d8c565b91505092915050565b62000e158162000a06565b811462000e2157600080fd5b50565b60008151905062000e358162000e0a565b92915050565b60008060008060008060008060006101208a8c03121562000e615762000e6062000c4b565b5b600062000e718c828d0162000ca3565b99505060208a015167ffffffffffffffff81111562000e955762000e9462000c50565b5b62000ea38c828d0162000dd7565b98505060408a015167ffffffffffffffff81111562000ec75762000ec662000c50565b5b62000ed58c828d0162000dd7565b975050606062000ee88c828d0162000e24565b965050608062000efb8c828d0162000e24565b95505060a062000f0e8c828d0162000e24565b94505060c08a015167ffffffffffffffff81111562000f325762000f3162000c50565b5b62000f408c828d0162000dd7565b93505060e062000f538c828d0162000e24565b92505061010062000f678c828d0162000e24565b9150509295985092959850929598565b7f4e487b7100000000000000000000000000000000000000000000000000000000600052601160045260246000fd5b600062000fb38262000a06565b91507fffffffffffffffffffffffffffffffffffffffffffffffffffffffffffffffff820362000fe85762000fe762000f77565b5b600182019050919050565b600082825260208201905092915050565b7f4552433732313a207472616e7366657220746f206e6f6e20455243373231526560008201527f63656976657220696d706c656d656e7465720000000000000000000000000000602082015250565b60006200106260328362000ff3565b91506200106f8262001004565b604082019050919050565b60006020820190508181036000830152620010958162001053565b9050919050565b7f4552433732313a206d696e7420746f20746865207a65726f2061646472657373600082015250565b6000620010d460208362000ff3565b9150620010e1826200109c565b602082019050919050565b600060208201905081810360008301526200110781620010c5565b9050919050565b7f4552433732313a20746f6b656e20616c7265616479206d696e74656400000000600082015250565b600062001146601c8362000ff3565b915062001153826200110e565b602082019050919050565b60006020820190508181036000830152620011798162001137565b9050919050565b6200118b8162000c75565b82525050565b6200119c8162000a06565b82525050565b600081519050919050565b600082825260208201905092915050565b6000620011cb82620011a2565b620011d78185620011ad565b9350620011e981856020860162000d60565b620011f48162000cc4565b840191505092915050565b600060808201905062001216600083018762001180565b62001225602083018662001180565b62001234604083018562001191565b8181036060830152620012488184620011be565b905095945050505050565b60007fffffffff0000000000000000000000000000000000000000000000000000000082169050919050565b6200128a8162001253565b81146200129657600080fd5b50565b600081519050620012aa816200127f565b92915050565b600060208284031215620012c957620012c862000c4b565b5b6000620012d98482850162001299565b91505092915050565b6000620012ef8262000a06565b9150620012fc8362000a06565b925082820390508181111562001317576200131662000f77565b5b92915050565b60006200132a8262000a06565b9150620013378362000a06565b925082820190508082111562001352576200135162000f77565b5b92915050565b613fb780620013686000396000f3fe6080604052600436106101ee5760003560e01c8063853828b61161010d578063a42d20ae116100a0578063c87b56dd1161006f578063c87b56dd1461069d578063db83694c146106da578063e985e9c51461070e578063f2fde38b1461074b578063f47c84c514610774576101ee565b8063a42d20ae146105f3578063b19960e61461061e578063b88d4fde14610649578063c668286214610672576101ee565b806395d89b41116100dc57806395d89b4114610558578063a035b1fe14610583578063a0712d68146105ae578063a22cb465146105ca576101ee565b8063853828b6146104cd5780638da5cb5b146104d75780638ecad7211461050257806394f4e6791461052d576101ee565b80633bb3a24d116101855780636352211e116101545780636352211e146104115780636c0360eb1461044e57806370a0823114610479578063715018a6146104b6576101ee565b80633bb3a24d1461035757806342842e0e1461039457806355f804b3146103bd578063564566a8146103e6576101ee565b806318160ddd116101c157806318160ddd146102c157806318bee97e146102ec57806323b872dd1461031757806334918dfd14610340576101ee565b806301ffc9a7146101f357806306fdde0314610230578063081812fc1461025b578063095ea7b314610298575b600080fd5b3480156101ff57600080fd5b5061021a60048036038101906102159190612963565b61079f565b60405161022791906129ab565b60405180910390f35b34801561023c57600080fd5b50610245610881565b6040516102529190612a56565b60405180910390f35b34801561026757600080fd5b50610282600480360381019061027d9190612aae565b610913565b60405161028f9190612b1c565b60405180910390f35b3480156102a457600080fd5b506102bf60048036038101906102ba9190612b63565b610959565b005b3480156102cd57600080fd5b506102d6610a70565b6040516102e39190612bb2565b60405180910390f35b3480156102f857600080fd5b50610301610a76565b60405161030e9190612b1c565b60405180910390f35b34801561032357600080fd5b5061033e60048036038101906103399190612bcd565b610a9c565b005b34801561034c57600080fd5b50610355610afc565b005b34801561036357600080fd5b5061037e60048036038101906103799190612aae565b610b82565b60405161038b9190612a56565b60405180910390f35b3480156103a057600080fd5b506103bb60048036038101906103b69190612bcd565b610b94565b005b3480156103c957600080fd5b506103e460048036038101906103df9190612d55565b610bb4565b005b3480156103f257600080fd5b506103fb610c21565b60405161040891906129ab565b60405180910390f35b34801561041d57600080fd5b5061043860048036038101906104339190612aae565b610c34565b6040516104459190612b1c565b60405180910390f35b34801561045a57600080fd5b50610463610cba565b6040516104709190612a56565b60405180910390f35b34801561048557600080fd5b506104a0600480360381019061049b9190612d9e565b610d48565b6040516104ad9190612bb2565b60405180910390f35b3480156104c257600080fd5b506104cb610dff565b005b6104d5610e13565b005b3480156104e357600080fd5b506104ec610eec565b6040516104f99190612b1c565b60405180910390f35b34801561050e57600080fd5b50610517610f16565b6040516105249190612bb2565b60405180910390f35b34801561053957600080fd5b50610542610f1c565b60405161054f9190612a56565b60405180910390f35b34801561056457600080fd5b5061056d610faa565b60405161057a9190612a56565b60405180910390f35b34801561058f57600080fd5b5061059861103c565b6040516105a59190612bb2565b60405180910390f35b6105c860048036038101906105c39190612aae565b611042565b005b3480156105d657600080fd5b506105f160048036038101906105ec9190612df7565b611260565b005b3480156105ff57600080fd5b50610608611276565b6040516106159190612a56565b60405180910390f35b34801561062a57600080fd5b50610633611304565b6040516106409190612bb2565b60405180910390f35b34801561065557600080fd5b50610670600480360381019061066b9190612ed8565b61130a565b005b34801561067e57600080fd5b5061068761136c565b6040516106949190612a56565b60405180910390f35b3480156106a957600080fd5b506106c460048036038101906106bf9190612aae565b6113fa565b6040516106d19190612a56565b60405180910390f35b3480156106e657600080fd5b506106ef6114a4565b6040516107059a99989796959493929190612f5b565b60405180910390f35b34801561071a57600080fd5b506107356004803603810190610730919061300c565b6116c0565b60405161074291906129ab565b60405180910390f35b34801561075757600080fd5b50610772600480360381019061076d9190612d9e565b611754565b005b34801561078057600080fd5b506107896117d7565b6040516107969190612bb2565b60405180910390f35b60007f80ac58cd000000000000000000000000000000000000000000000000000000007bffffffffffffffffffffffffffffffffffffffffffffffffffffffff1916827bffffffffffffffffffffffffffffffffffffffffffffffffffffffff1916148061086a57507f5b5e139f000000000000000000000000000000000000000000000000000000007bffffffffffffffffffffffffffffffffffffffffffffffffffffffff1916827bffffffffffffffffffffffffffffffffffffffffffffffffffffffff1916145b8061087a575061087982611800565b5b9050919050565b6060600080546108909061307b565b80601f01602080910402602001604051908101604052809291908181526020018280546108bc9061307b565b80156109095780601f106108de57610100808354040283529160200191610909565b820191906000526020600020905b8154815290600101906020018083116108ec57829003601f168201915b5050505050905090565b600061091e8261186a565b6004600083815260200190815260200160002060009054906101000a900473ffffffffffffffffffffffffffffffffffffffff169050919050565b600061096482610c34565b90508073ffffffffffffffffffffffffffffffffffffffff168373ffffffffffffffffffffffffffffffffffffffff16036109d4576040517f08c379a00000000000000000000000000000000000000000000000000000000081526004016109cb9061311e565b60405180910390fd5b8073ffffffffffffffffffffffffffffffffffffffff166109f36118b5565b73ffffffffffffffffffffffffffffffffffffffff161480610a225750610a2181610a1c6118b5565b6116c0565b5b610a61576040517f08c379a0000000000000000000000000000000000000000000000000000000008152600401610a58906131b0565b60405180910390fd5b610a6b83836118bd565b505050565b60115481565b600860009054906101000a900473ffffffffffffffffffffffffffffffffffffffff1681565b610aad610aa76118b5565b82611976565b610aec576040517f08c379a0000000000000000000000000000000000000000000000000000000008152600401610ae390613242565b60405180910390fd5b610af7838383611a0b565b505050565b600860009054906101000a900473ffffffffffffffffffffffffffffffffffffffff1673ffffffffffffffffffffffffffffffffffffffff163373ffffffffffffffffffffffffffffffffffffffff1614610b5657600080fd5b601060009054906101000a900460ff1615601060006101000a81548160ff021916908315150217905550565b6060610b8d826113fa565b9050919050565b610baf8383836040518060200160405280600081525061130a565b505050565b600860009054906101000a900473ffffffffffffffffffffffffffffffffffffffff1673ffffffffffffffffffffffffffffffffffffffff163373ffffffffffffffffffffffffffffffffffffffff1614610c0e57600080fd5b8060139081610c1d919061340e565b5050565b601060009054906101000a900460ff1681565b600080610c4083611d04565b9050600073ffffffffffffffffffffffffffffffffffffffff168173ffffffffffffffffffffffffffffffffffffffff1603610cb1576040517f08c379a0000000000000000000000000000000000000000000000000000000008152600401610ca89061352c565b60405180910390fd5b80915050919050565b60138054610cc79061307b565b80601f0160208091040260200160405190810160405280929190818152602001828054610cf39061307b565b8015610d405780601f10610d1557610100808354040283529160200191610d40565b820191906000526020600020905b815481529060010190602001808311610d2357829003601f168201915b505050505081565b60008073ffffffffffffffffffffffffffffffffffffffff168273ffffffffffffffffffffffffffffffffffffffff1603610db8576040517f08c379a0000000000000000000000000000000000000000000000000000000008152600401610daf906135be565b60405180910390fd5b600360008373ffffffffffffffffffffffffffffffffffffffff1673ffffffffffffffffffffffffffffffffffffffff168152602001908152602001600020549050919050565b610e07611d41565b610e116000611dbf565b565b600860009054906101000a900473ffffffffffffffffffffffffffffffffffffffff1673ffffffffffffffffffffffffffffffffffffffff163373ffffffffffffffffffffffffffffffffffffffff1614610e6d57600080fd5b600047905060003373ffffffffffffffffffffffffffffffffffffffff1682604051610e989061360f565b60006040518083038185875af1925050503d8060008114610ed5576040519150601f19603f3d011682016040523d82523d6000602084013e610eda565b606091505b5050905080610ee857600080fd5b5050565b6000600760009054906101000a900473ffffffffffffffffffffffffffffffffffffffff16905090565b600c5481565b600e8054610f299061307b565b80601f0160208091040260200160405190810160405280929190818152602001828054610f559061307b565b8015610fa25780601f10610f7757610100808354040283529160200191610fa2565b820191906000526020600020905b815481529060010190602001808311610f8557829003601f168201915b505050505081565b606060018054610fb99061307b565b80601f0160208091040260200160405190810160405280929190818152602001828054610fe59061307b565b80156110325780601f1061100757610100808354040283529160200191611032565b820191906000526020600020905b81548152906001019060200180831161101557829003601f168201915b5050505050905090565b600b5481565b601060009054906101000a900460ff16611091576040517f08c379a000000000000000000000000000000000000000000000000000000000815260040161108890613670565b60405180910390fd5b600c548111156110d6576040517f08c379a00000000000000000000000000000000000000000000000000000000081526004016110cd906136dc565b60405180910390fd5b600d5481601260003373ffffffffffffffffffffffffffffffffffffffff1673ffffffffffffffffffffffffffffffffffffffff16815260200190815260200160002054611124919061372b565b111561112f57600080fd5b600060115490506009548282611145919061372b565b111561115057600080fd5b34600b548361115f919061375f565b11156111a0576040517f08c379a0000000000000000000000000000000000000000000000000000000008152600401611197906137ed565b60405180910390fd5b6000600190505b8281116111ec57600081836111bc919061372b565b90506111c83382611e85565b6111da816111d5836113fa565b611ea3565b50806111e59061380d565b90506111a7565b5081601260003373ffffffffffffffffffffffffffffffffffffffff1673ffffffffffffffffffffffffffffffffffffffff168152602001908152602001600020600082825461123c919061372b565b925050819055508160116000828254611255919061372b565b925050819055505050565b61127261126b6118b5565b8383611f10565b5050565b600f80546112839061307b565b80601f01602080910402602001604051908101604052809291908181526020018280546112af9061307b565b80156112fc5780601f106112d1576101008083540402835291602001916112fc565b820191906000526020600020905b8154815290600101906020018083116112df57829003601f168201915b505050505081565b600d5481565b61131b6113156118b5565b83611976565b61135a576040517f08c379a000000000000000000000000000000000000000000000000000000000815260040161135190613242565b60405180910390fd5b6113668484848461207c565b50505050565b601480546113799061307b565b80601f01602080910402602001604051908101604052809291908181526020018280546113a59061307b565b80156113f25780601f106113c7576101008083540402835291602001916113f2565b820191906000526020600020905b8154815290600101906020018083116113d557829003601f168201915b505050505081565b6060611405826120d8565b611444576040517f08c379a000000000000000000000000000000000000000000000000000000000815260040161143b906138a1565b60405180910390fd5b600061144e612119565b9050600081511161146e576040518060200160405280600081525061149c565b80611478846121ab565b601460405160200161148c93929190613980565b6040516020818303038152906040525b915050919050565b60008060008060006060806060600080600860009054906101000a900473ffffffffffffffffffffffffffffffffffffffff16600954600b54600c54600d54600e600f6013601060009054906101000a900460ff166011548480546115089061307b565b80601f01602080910402602001604051908101604052809291908181526020018280546115349061307b565b80156115815780601f1061155657610100808354040283529160200191611581565b820191906000526020600020905b81548152906001019060200180831161156457829003601f168201915b505050505094508380546115949061307b565b80601f01602080910402602001604051908101604052809291908181526020018280546115c09061307b565b801561160d5780601f106115e25761010080835404028352916020019161160d565b820191906000526020600020905b8154815290600101906020018083116115f057829003601f168201915b505050505093508280546116209061307b565b80601f016020809104026020016040519081016040528092919081815260200182805461164c9061307b565b80156116995780601f1061166e57610100808354040283529160200191611699565b820191906000526020600020905b81548152906001019060200180831161167c57829003601f168201915b50505050509250995099509950995099509950995099509950995090919293949596979899565b6000600560008473ffffffffffffffffffffffffffffffffffffffff1673ffffffffffffffffffffffffffffffffffffffff16815260200190815260200160002060008373ffffffffffffffffffffffffffffffffffffffff1673ffffffffffffffffffffffffffffffffffffffff16815260200190815260200160002060009054906101000a900460ff16905092915050565b61175c611d41565b600073ffffffffffffffffffffffffffffffffffffffff168173ffffffffffffffffffffffffffffffffffffffff16036117cb576040517f08c379a00000000000000000000000000000000000000000000000000000000081526004016117c290613a23565b60405180910390fd5b6117d481611dbf565b50565b60095481565b6000808273ffffffffffffffffffffffffffffffffffffffff163b119050919050565b60007f01ffc9a7000000000000000000000000000000000000000000000000000000007bffffffffffffffffffffffffffffffffffffffffffffffffffffffff1916827bffffffffffffffffffffffffffffffffffffffffffffffffffffffff1916149050919050565b611873816120d8565b6118b2576040517f08c379a00000000000000000000000000000000000000000000000000000000081526004016118a99061352c565b60405180910390fd5b50565b600033905090565b816004600083815260200190815260200160002060006101000a81548173ffffffffffffffffffffffffffffffffffffffff021916908373ffffffffffffffffffffffffffffffffffffffff160217905550808273ffffffffffffffffffffffffffffffffffffffff1661193083610c34565b73ffffffffffffffffffffffffffffffffffffffff167f8c5be1e5ebec7d5bd14f71427d1e84f3dd0314c0f7b2291e5b200ac8c7c3b92560405160405180910390a45050565b60008061198283610c34565b90508073ffffffffffffffffffffffffffffffffffffffff168473ffffffffffffffffffffffffffffffffffffffff1614806119c457506119c381856116c0565b5b80611a0257508373ffffffffffffffffffffffffffffffffffffffff166119ea84610913565b73ffffffffffffffffffffffffffffffffffffffff16145b91505092915050565b8273ffffffffffffffffffffffffffffffffffffffff16611a2b82610c34565b73ffffffffffffffffffffffffffffffffffffffff1614611a81576040517f08c379a0000000000000000000000000000000000000000000000000000000008152600401611a7890613ab5565b60405180910390fd5b600073ffffffffffffffffffffffffffffffffffffffff168273ffffffffffffffffffffffffffffffffffffffff1603611af0576040517f08c379a0000000000000000000000000000000000000000000000000000000008152600401611ae790613b47565b60405180910390fd5b611afd8383836001612279565b8273ffffffffffffffffffffffffffffffffffffffff16611b1d82610c34565b73ffffffffffffffffffffffffffffffffffffffff1614611b73576040517f08c379a0000000000000000000000000000000000000000000000000000000008152600401611b6a90613ab5565b60405180910390fd5b6004600082815260200190815260200160002060006101000a81549073ffffffffffffffffffffffffffffffffffffffff02191690556001600360008573ffffffffffffffffffffffffffffffffffffffff1673ffffffffffffffffffffffffffffffffffffffff168152602001908152602001600020600082825403925050819055506001600360008473ffffffffffffffffffffffffffffffffffffffff1673ffffffffffffffffffffffffffffffffffffffff16815260200190815260200160002060008282540192505081905550816002600083815260200190815260200160002060006101000a81548173ffffffffffffffffffffffffffffffffffffffff021916908373ffffffffffffffffffffffffffffffffffffffff160217905550808273ffffffffffffffffffffffffffffffffffffffff168473ffffffffffffffffffffffffffffffffffffffff167fddf252ad1be2c89b69c2b068fc378daa952ba7f163c4a11628f55a4df523b3ef60405160405180910390a4611cff838383600161239f565b505050565b60006002600083815260200190815260200160002060009054906101000a900473ffffffffffffffffffffffffffffffffffffffff169050919050565b611d496118b5565b73ffffffffffffffffffffffffffffffffffffffff16611d67610eec565b73ffffffffffffffffffffffffffffffffffffffff1614611dbd576040517f08c379a0000000000000000000000000000000000000000000000000000000008152600401611db490613bb3565b60405180910390fd5b565b6000600760009054906101000a900473ffffffffffffffffffffffffffffffffffffffff16905081600760006101000a81548173ffffffffffffffffffffffffffffffffffffffff021916908373ffffffffffffffffffffffffffffffffffffffff1602179055508173ffffffffffffffffffffffffffffffffffffffff168173ffffffffffffffffffffffffffffffffffffffff167f8be0079c531659141344cd1fd0a4f28419497f9722a3daafe3b4186f6b6457e060405160405180910390a35050565b611e9f8282604051806020016040528060008152506123a5565b5050565b611eac826120d8565b611eeb576040517f08c379a0000000000000000000000000000000000000000000000000000000008152600401611ee290613c45565b60405180910390fd5b80600660008481526020019081526020016000209081611f0b919061340e565b505050565b8173ffffffffffffffffffffffffffffffffffffffff168373ffffffffffffffffffffffffffffffffffffffff1603611f7e576040517f08c379a0000000000000000000000000000000000000000000000000000000008152600401611f7590613cb1565b60405180910390fd5b80600560008573ffffffffffffffffffffffffffffffffffffffff1673ffffffffffffffffffffffffffffffffffffffff16815260200190815260200160002060008473ffffffffffffffffffffffffffffffffffffffff1673ffffffffffffffffffffffffffffffffffffffff16815260200190815260200160002060006101000a81548160ff0219169083151502179055508173ffffffffffffffffffffffffffffffffffffffff168373ffffffffffffffffffffffffffffffffffffffff167f17307eab39ab6107e8899845ad3d59bd9653f200f220920489ca2b5937696c318360405161206f91906129ab565b60405180910390a3505050565b612087848484611a0b565b61209384848484612400565b6120d2576040517f08c379a00000000000000000000000000000000000000000000000000000000081526004016120c990613d43565b60405180910390fd5b50505050565b60008073ffffffffffffffffffffffffffffffffffffffff166120fa83611d04565b73ffffffffffffffffffffffffffffffffffffffff1614159050919050565b6060601380546121289061307b565b80601f01602080910402602001604051908101604052809291908181526020018280546121549061307b565b80156121a15780601f10612176576101008083540402835291602001916121a1565b820191906000526020600020905b81548152906001019060200180831161218457829003601f168201915b5050505050905090565b6060600060016121ba84612587565b01905060008167ffffffffffffffff8111156121d9576121d8612c2a565b5b6040519080825280601f01601f19166020018201604052801561220b5781602001600182028036833780820191505090505b509050600082602001820190505b60011561226e578080600190039150507f3031323334353637383961626364656600000000000000000000000000000000600a86061a8153600a858161226257612261613d63565b5b04945060008503612219575b819350505050919050565b600181111561239957600073ffffffffffffffffffffffffffffffffffffffff168473ffffffffffffffffffffffffffffffffffffffff161461230d5780600360008673ffffffffffffffffffffffffffffffffffffffff1673ffffffffffffffffffffffffffffffffffffffff16815260200190815260200160002060008282546123059190613d92565b925050819055505b600073ffffffffffffffffffffffffffffffffffffffff168373ffffffffffffffffffffffffffffffffffffffff16146123985780600360008573ffffffffffffffffffffffffffffffffffffffff1673ffffffffffffffffffffffffffffffffffffffff1681526020019081526020016000206000828254612390919061372b565b925050819055505b5b50505050565b50505050565b6123af83836126da565b6123bc6000848484612400565b6123fb576040517f08c379a00000000000000000000000000000000000000000000000000000000081526004016123f290613d43565b60405180910390fd5b505050565b60006124218473ffffffffffffffffffffffffffffffffffffffff166117dd565b1561257a578373ffffffffffffffffffffffffffffffffffffffff1663150b7a0261244a6118b5565b8786866040518563ffffffff1660e01b815260040161246c9493929190613e1b565b6020604051808303816000875af19250505080156124a857506040513d601f19601f820116820180604052508101906124a59190613e7c565b60015b61252a573d80600081146124d8576040519150601f19603f3d011682016040523d82523d6000602084013e6124dd565b606091505b506000815103612522576040517f08c379a000000000000000000000000000000000000000000000000000000000815260040161251990613d43565b60405180910390fd5b805181602001fd5b63150b7a0260e01b7bffffffffffffffffffffffffffffffffffffffffffffffffffffffff1916817bffffffffffffffffffffffffffffffffffffffffffffffffffffffff19161491505061257f565b600190505b949350505050565b600080600090507a184f03e93ff9f4daa797ed6e38ed64bf6a1f01000000000000000083106125e5577a184f03e93ff9f4daa797ed6e38ed64bf6a1f01000000000000000083816125db576125da613d63565b5b0492506040810190505b6d04ee2d6d415b85acef81000000008310612622576d04ee2d6d415b85acef8100000000838161261857612617613d63565b5b0492506020810190505b662386f26fc10000831061265157662386f26fc10000838161264757612646613d63565b5b0492506010810190505b6305f5e100831061267a576305f5e10083816126705761266f613d63565b5b0492506008810190505b612710831061269f57612710838161269557612694613d63565b5b0492506004810190505b606483106126c257606483816126b8576126b7613d63565b5b0492506002810190505b600a83106126d1576001810190505b80915050919050565b600073ffffffffffffffffffffffffffffffffffffffff168273ffffffffffffffffffffffffffffffffffffffff1603612749576040517f08c379a000000000000000000000000000000000000000000000000000000000815260040161274090613ef5565b60405180910390fd5b612752816120d8565b15612792576040517f08c379a000000000000000000000000000000000000000000000000000000000815260040161278990613f61565b60405180910390fd5b6127a0600083836001612279565b6127a9816120d8565b156127e9576040517f08c379a00000000000000000000000000000000000000000000000000000000081526004016127e090613f61565b60405180910390fd5b6001600360008473ffffffffffffffffffffffffffffffffffffffff1673ffffffffffffffffffffffffffffffffffffffff16815260200190815260200160002060008282540192505081905550816002600083815260200190815260200160002060006101000a81548173ffffffffffffffffffffffffffffffffffffffff021916908373ffffffffffffffffffffffffffffffffffffffff160217905550808273ffffffffffffffffffffffffffffffffffffffff16600073ffffffffffffffffffffffffffffffffffffffff167fddf252ad1be2c89b69c2b068fc378daa952ba7f163c4a11628f55a4df523b3ef60405160405180910390a46128f360008383600161239f565b5050565b6000604051905090565b600080fd5b600080fd5b60007fffffffff0000000000000000000000000000000000000000000000000000000082169050919050565b6129408161290b565b811461294b57600080fd5b50565b60008135905061295d81612937565b92915050565b60006020828403121561297957612978612901565b5b60006129878482850161294e565b91505092915050565b60008115159050919050565b6129a581612990565b82525050565b60006020820190506129c0600083018461299c565b92915050565b600081519050919050565b600082825260208201905092915050565b60005b83811015612a005780820151818401526020810190506129e5565b60008484015250505050565b6000601f19601f8301169050919050565b6000612a28826129c6565b612a3281856129d1565b9350612a428185602086016129e2565b612a4b81612a0c565b840191505092915050565b60006020820190508181036000830152612a708184612a1d565b905092915050565b6000819050919050565b612a8b81612a78565b8114612a9657600080fd5b50565b600081359050612aa881612a82565b92915050565b600060208284031215612ac457612ac3612901565b5b6000612ad284828501612a99565b91505092915050565b600073ffffffffffffffffffffffffffffffffffffffff82169050919050565b6000612b0682612adb565b9050919050565b612b1681612afb565b82525050565b6000602082019050612b316000830184612b0d565b92915050565b612b4081612afb565b8114612b4b57600080fd5b50565b600081359050612b5d81612b37565b92915050565b60008060408385031215612b7a57612b79612901565b5b6000612b8885828601612b4e565b9250506020612b9985828601612a99565b9150509250929050565b612bac81612a78565b82525050565b6000602082019050612bc76000830184612ba3565b92915050565b600080600060608486031215612be657612be5612901565b5b6000612bf486828701612b4e565b9350506020612c0586828701612b4e565b9250506040612c1686828701612a99565b9150509250925092565b600080fd5b600080fd5b7f4e487b7100000000000000000000000000000000000000000000000000000000600052604160045260246000fd5b612c6282612a0c565b810181811067ffffffffffffffff82111715612c8157612c80612c2a565b5b80604052505050565b6000612c946128f7565b9050612ca08282612c59565b919050565b600067ffffffffffffffff821115612cc057612cbf612c2a565b5b612cc982612a0c565b9050602081019050919050565b82818337600083830152505050565b6000612cf8612cf384612ca5565b612c8a565b905082815260208101848484011115612d1457612d13612c25565b5b612d1f848285612cd6565b509392505050565b600082601f830112612d3c57612d3b612c20565b5b8135612d4c848260208601612ce5565b91505092915050565b600060208284031215612d6b57612d6a612901565b5b600082013567ffffffffffffffff811115612d8957612d88612906565b5b612d9584828501612d27565b91505092915050565b600060208284031215612db457612db3612901565b5b6000612dc284828501612b4e565b91505092915050565b612dd481612990565b8114612ddf57600080fd5b50565b600081359050612df181612dcb565b92915050565b60008060408385031215612e0e57612e0d612901565b5b6000612e1c85828601612b4e565b9250506020612e2d85828601612de2565b9150509250929050565b600067ffffffffffffffff821115612e5257612e51612c2a565b5b612e5b82612a0c565b9050602081019050919050565b6000612e7b612e7684612e37565b612c8a565b905082815260208101848484011115612e9757612e96612c25565b5b612ea2848285612cd6565b509392505050565b600082601f830112612ebf57612ebe612c20565b5b8135612ecf848260208601612e68565b91505092915050565b60008060008060808587031215612ef257612ef1612901565b5b6000612f0087828801612b4e565b9450506020612f1187828801612b4e565b9350506040612f2287828801612a99565b925050606085013567ffffffffffffffff811115612f4357612f42612906565b5b612f4f87828801612eaa565b91505092959194509250565b600061014082019050612f71600083018d612b0d565b612f7e602083018c612ba3565b612f8b604083018b612ba3565b612f98606083018a612ba3565b612fa56080830189612ba3565b81810360a0830152612fb78188612a1d565b905081810360c0830152612fcb8187612a1d565b905081810360e0830152612fdf8186612a1d565b9050612fef61010083018561299c565b612ffd610120830184612ba3565b9b9a5050505050505050505050565b6000806040838503121561302357613022612901565b5b600061303185828601612b4e565b925050602061304285828601612b4e565b9150509250929050565b7f4e487b7100000000000000000000000000000000000000000000000000000000600052602260045260246000fd5b6000600282049050600182168061309357607f821691505b6020821081036130a6576130a561304c565b5b50919050565b7f4552433732313a20617070726f76616c20746f2063757272656e74206f776e6560008201527f7200000000000000000000000000000000000000000000000000000000000000602082015250565b60006131086021836129d1565b9150613113826130ac565b604082019050919050565b60006020820190508181036000830152613137816130fb565b9050919050565b7f4552433732313a20617070726f76652063616c6c6572206973206e6f7420746f60008201527f6b656e206f776e6572206f7220617070726f76656420666f7220616c6c000000602082015250565b600061319a603d836129d1565b91506131a58261313e565b604082019050919050565b600060208201905081810360008301526131c98161318d565b9050919050565b7f4552433732313a2063616c6c6572206973206e6f7420746f6b656e206f776e6560008201527f72206f7220617070726f76656400000000000000000000000000000000000000602082015250565b600061322c602d836129d1565b9150613237826131d0565b604082019050919050565b6000602082019050818103600083015261325b8161321f565b9050919050565b60008190508160005260206000209050919050565b60006020601f8301049050919050565b600082821b905092915050565b6000600883026132c47fffffffffffffffffffffffffffffffffffffffffffffffffffffffffffffffff82613287565b6132ce8683613287565b95508019841693508086168417925050509392505050565b6000819050919050565b600061330b61330661330184612a78565b6132e6565b612a78565b9050919050565b6000819050919050565b613325836132f0565b61333961333182613312565b848454613294565b825550505050565b600090565b61334e613341565b61335981848461331c565b505050565b5b8181101561337d57613372600082613346565b60018101905061335f565b5050565b601f8211156133c25761339381613262565b61339c84613277565b810160208510156133ab578190505b6133bf6133b785613277565b83018261335e565b50505b505050565b600082821c905092915050565b60006133e5600019846008026133c7565b1980831691505092915050565b60006133fe83836133d4565b9150826002028217905092915050565b613417826129c6565b67ffffffffffffffff8111156134305761342f612c2a565b5b61343a825461307b565b613445828285613381565b600060209050601f8311600181146134785760008415613466578287015190505b61347085826133f2565b8655506134d8565b601f19841661348686613262565b60005b828110156134ae57848901518255600182019150602085019450602081019050613489565b868310156134cb57848901516134c7601f8916826133d4565b8355505b6001600288020188555050505b505050505050565b7f4552433732313a20696e76616c696420746f6b656e2049440000000000000000600082015250565b60006135166018836129d1565b9150613521826134e0565b602082019050919050565b6000602082019050818103600083015261354581613509565b9050919050565b7f4552433732313a2061646472657373207a65726f206973206e6f74206120766160008201527f6c6964206f776e65720000000000000000000000000000000000000000000000602082015250565b60006135a86029836129d1565b91506135b38261354c565b604082019050919050565b600060208201905081810360008301526135d78161359b565b9050919050565b600081905092915050565b50565b60006135f96000836135de565b9150613604826135e9565b600082019050919050565b600061361a826135ec565b9150819050919050565b7f5061757365640000000000000000000000000000000000000000000000000000600082015250565b600061365a6006836129d1565b915061366582613624565b602082019050919050565b600060208201905081810360008301526136898161364d565b9050919050565b7f42616420616d6e74000000000000000000000000000000000000000000000000600082015250565b60006136c66008836129d1565b91506136d182613690565b602082019050919050565b600060208201905081810360008301526136f5816136b9565b9050919050565b7f4e487b7100000000000000000000000000000000000000000000000000000000600052601160045260246000fd5b600061373682612a78565b915061374183612a78565b9250828201905080821115613759576137586136fc565b5b92915050565b600061376a82612a78565b915061377583612a78565b925082820261378381612a78565b9150828204841483151761379a576137996136fc565b5b5092915050565b7f4e6f2062616c616e636500000000000000000000000000000000000000000000600082015250565b60006137d7600a836129d1565b91506137e2826137a1565b602082019050919050565b60006020820190508181036000830152613806816137ca565b9050919050565b600061381882612a78565b91507fffffffffffffffffffffffffffffffffffffffffffffffffffffffffffffffff820361384a576138496136fc565b5b600182019050919050565b7f555249206e6f6e65000000000000000000000000000000000000000000000000600082015250565b600061388b6008836129d1565b915061389682613855565b602082019050919050565b600060208201905081810360008301526138ba8161387e565b9050919050565b600081905092915050565b60006138d7826129c6565b6138e181856138c1565b93506138f18185602086016129e2565b80840191505092915050565b6000815461390a8161307b565b61391481866138c1565b9450600182166000811461392f576001811461394457613977565b60ff1983168652811515820286019350613977565b61394d85613262565b60005b8381101561396f57815481890152600182019150602081019050613950565b838801955050505b50505092915050565b600061398c82866138cc565b915061399882856138cc565b91506139a482846138fd565b9150819050949350505050565b7f4f776e61626c653a206e6577206f776e657220697320746865207a65726f206160008201527f6464726573730000000000000000000000000000000000000000000000000000602082015250565b6000613a0d6026836129d1565b9150613a18826139b1565b604082019050919050565b60006020820190508181036000830152613a3c81613a00565b9050919050565b7f4552433732313a207472616e736665722066726f6d20696e636f72726563742060008201527f6f776e6572000000000000000000000000000000000000000000000000000000602082015250565b6000613a9f6025836129d1565b9150613aaa82613a43565b604082019050919050565b60006020820190508181036000830152613ace81613a92565b9050919050565b7f4552433732313a207472616e7366657220746f20746865207a65726f2061646460008201527f7265737300000000000000000000000000000000000000000000000000000000602082015250565b6000613b316024836129d1565b9150613b3c82613ad5565b604082019050919050565b60006020820190508181036000830152613b6081613b24565b9050919050565b7f4f776e61626c653a2063616c6c6572206973206e6f7420746865206f776e6572600082015250565b6000613b9d6020836129d1565b9150613ba882613b67565b602082019050919050565b60006020820190508181036000830152613bcc81613b90565b9050919050565b7f45524337323155524953746f726167653a2055524920736574206f66206e6f6e60008201527f6578697374656e7420746f6b656e000000000000000000000000000000000000602082015250565b6000613c2f602e836129d1565b9150613c3a82613bd3565b604082019050919050565b60006020820190508181036000830152613c5e81613c22565b9050919050565b7f4552433732313a20617070726f766520746f2063616c6c657200000000000000600082015250565b6000613c9b6019836129d1565b9150613ca682613c65565b602082019050919050565b60006020820190508181036000830152613cca81613c8e565b9050919050565b7f4552433732313a207472616e7366657220746f206e6f6e20455243373231526560008201527f63656976657220696d706c656d656e7465720000000000000000000000000000602082015250565b6000613d2d6032836129d1565b9150613d3882613cd1565b604082019050919050565b60006020820190508181036000830152613d5c81613d20565b9050919050565b7f4e487b7100000000000000000000000000000000000000000000000000000000600052601260045260246000fd5b6000613d9d82612a78565b9150613da883612a78565b9250828203905081811115613dc057613dbf6136fc565b5b92915050565b600081519050919050565b600082825260208201905092915050565b6000613ded82613dc6565b613df78185613dd1565b9350613e078185602086016129e2565b613e1081612a0c565b840191505092915050565b6000608082019050613e306000830187612b0d565b613e3d6020830186612b0d565b613e4a6040830185612ba3565b8181036060830152613e5c8184613de2565b905095945050505050565b600081519050613e7681612937565b92915050565b600060208284031215613e9257613e91612901565b5b6000613ea084828501613e67565b91505092915050565b7f4552433732313a206d696e7420746f20746865207a65726f2061646472657373600082015250565b6000613edf6020836129d1565b9150613eea82613ea9565b602082019050919050565b60006020820190508181036000830152613f0e81613ed2565b9050919050565b7f4552433732313a20746f6b656e20616c7265616479206d696e74656400000000600082015250565b6000613f4b601c836129d1565b9150613f5682613f15565b602082019050919050565b60006020820190508181036000830152613f7a81613f3e565b905091905056fea2646970667358221220a0fd6ee6fde34d4fdde4764c528c7b0cf232e941c0215da8add65f4b9265cfba64736f6c63430008110033","opcodes":"PUSH1 0x80 PUSH1 0x40 MSTORE PUSH1 0x40 MLOAD DUP1 PUSH1 0x40 ADD PUSH1 0x40 MSTORE DUP1 PUSH1 0x5 DUP2 MSTORE PUSH1 0x20 ADD PUSH32 0x2E6A736F6E000000000000000000000000000000000000000000000000000000 DUP2 MSTORE POP PUSH1 0x14 SWAP1 DUP2 PUSH3 0x4A SWAP2 SWAP1 PUSH3 0xB5A JUMP JUMPDEST POP CALLVALUE DUP1 ISZERO PUSH3 0x58 JUMPI PUSH1 0x0 DUP1 REVERT JUMPDEST POP PUSH1 0x40 MLOAD PUSH3 0x531F CODESIZE SUB DUP1 PUSH3 0x531F DUP4 CODECOPY DUP2 DUP2 ADD PUSH1 0x40 MSTORE DUP2 ADD SWAP1 PUSH3 0x7E SWAP2 SWAP1 PUSH3 0xE3B JUMP JUMPDEST DUP8 DUP8 DUP2 PUSH1 0x0 SWAP1 DUP2 PUSH3 0x91 SWAP2 SWAP1 PUSH3 0xB5A JUMP JUMPDEST POP DUP1 PUSH1 0x1 SWAP1 DUP2 PUSH3 0xA3 SWAP2 SWAP1 PUSH3 0xB5A JUMP JUMPDEST POP POP POP PUSH3 0xC6 PUSH3 0xBA PUSH3 0x1B3 PUSH1 0x20 SHL PUSH1 0x20 SHR JUMP JUMPDEST PUSH3 0x1BB PUSH1 0x20 SHL PUSH1 0x20 SHR JUMP JUMPDEST DUP3 PUSH1 0x13 SWAP1 DUP2 PUSH3 0xD7 SWAP2 SWAP1 PUSH3 0xB5A JUMP JUMPDEST POP DUP9 PUSH1 0x8 PUSH1 0x0 PUSH2 0x100 EXP DUP2 SLOAD DUP2 PUSH20 0xFFFFFFFFFFFFFFFFFFFFFFFFFFFFFFFFFFFFFFFF MUL NOT AND SWAP1 DUP4 PUSH20 0xFFFFFFFFFFFFFFFFFFFFFFFFFFFFFFFFFFFFFFFF AND MUL OR SWAP1 SSTORE POP DUP8 PUSH1 0xE SWAP1 DUP2 PUSH3 0x12A SWAP2 SWAP1 PUSH3 0xB5A JUMP JUMPDEST POP DUP7 PUSH1 0xF SWAP1 DUP2 PUSH3 0x13C SWAP2 SWAP1 PUSH3 0xB5A JUMP JUMPDEST POP DUP6 PUSH1 0xB DUP2 SWAP1 SSTORE POP DUP4 PUSH1 0xA DUP2 SWAP1 SSTORE POP PUSH1 0xA SLOAD PUSH1 0x11 DUP2 SWAP1 SSTORE POP DUP5 PUSH1 0x9 DUP2 SWAP1 SSTORE POP DUP1 PUSH1 0xC DUP2 SWAP1 SSTORE POP DUP2 PUSH1 0xD DUP2 SWAP1 SSTORE POP PUSH1 0x0 PUSH1 0x1 SWAP1 POP JUMPDEST PUSH1 0xA SLOAD DUP2 LT ISZERO PUSH3 0x1A3 JUMPI PUSH3 0x18D CALLER DUP3 PUSH3 0x281 PUSH1 0x20 SHL PUSH1 0x20 SHR JUMP JUMPDEST DUP1 DUP1 PUSH3 0x19A SWAP1 PUSH3 0xFA6 JUMP JUMPDEST SWAP2 POP POP PUSH3 0x170 JUMP JUMPDEST POP POP POP POP POP POP POP POP POP POP PUSH3 0x1358 JUMP JUMPDEST PUSH1 0x0 CALLER SWAP1 POP SWAP1 JUMP JUMPDEST PUSH1 0x0 PUSH1 0x7 PUSH1 0x0 SWAP1 SLOAD SWAP1 PUSH2 0x100 EXP SWAP1 DIV PUSH20 0xFFFFFFFFFFFFFFFFFFFFFFFFFFFFFFFFFFFFFFFF AND SWAP1 POP DUP2 PUSH1 0x7 PUSH1 0x0 PUSH2 0x100 EXP DUP2 SLOAD DUP2 PUSH20 0xFFFFFFFFFFFFFFFFFFFFFFFFFFFFFFFFFFFFFFFF MUL NOT AND SWAP1 DUP4 PUSH20 0xFFFFFFFFFFFFFFFFFFFFFFFFFFFFFFFFFFFFFFFF AND MUL OR SWAP1 SSTORE POP DUP2 PUSH20 0xFFFFFFFFFFFFFFFFFFFFFFFFFFFFFFFFFFFFFFFF AND DUP2 PUSH20 0xFFFFFFFFFFFFFFFFFFFFFFFFFFFFFFFFFFFFFFFF AND PUSH32 0x8BE0079C531659141344CD1FD0A4F28419497F9722A3DAAFE3B4186F6B6457E0 PUSH1 0x40 MLOAD PUSH1 0x40 MLOAD DUP1 SWAP2 SUB SWAP1 LOG3 POP POP JUMP JUMPDEST PUSH3 0x2A3 DUP3 DUP3 PUSH1 0x40 MLOAD DUP1 PUSH1 0x20 ADD PUSH1 0x40 MSTORE DUP1 PUSH1 0x0 DUP2 MSTORE POP PUSH3 0x2A7 PUSH1 0x20 SHL PUSH1 0x20 SHR JUMP JUMPDEST POP POP JUMP JUMPDEST PUSH3 0x2B9 DUP4 DUP4 PUSH3 0x315 PUSH1 0x20 SHL PUSH1 0x20 SHR JUMP JUMPDEST PUSH3 0x2CE PUSH1 0x0 DUP5 DUP5 DUP5 PUSH3 0x55B PUSH1 0x20 SHL PUSH1 0x20 SHR JUMP JUMPDEST PUSH3 0x310 JUMPI PUSH1 0x40 MLOAD PUSH32 0x8C379A000000000000000000000000000000000000000000000000000000000 DUP2 MSTORE PUSH1 0x4 ADD PUSH3 0x307 SWAP1 PUSH3 0x107A JUMP JUMPDEST PUSH1 0x40 MLOAD DUP1 SWAP2 SUB SWAP1 REVERT JUMPDEST POP POP POP JUMP JUMPDEST PUSH1 0x0 PUSH20 0xFFFFFFFFFFFFFFFFFFFFFFFFFFFFFFFFFFFFFFFF AND DUP3 PUSH20 0xFFFFFFFFFFFFFFFFFFFFFFFFFFFFFFFFFFFFFFFF AND SUB PUSH3 0x387 JUMPI PUSH1 0x40 MLOAD PUSH32 0x8C379A000000000000000000000000000000000000000000000000000000000 DUP2 MSTORE PUSH1 0x4 ADD PUSH3 0x37E SWAP1 PUSH3 0x10EC JUMP JUMPDEST PUSH1 0x40 MLOAD DUP1 SWAP2 SUB SWAP1 REVERT JUMPDEST PUSH3 0x398 DUP2 PUSH3 0x704 PUSH1 0x20 SHL PUSH1 0x20 SHR JUMP JUMPDEST ISZERO PUSH3 0x3DB JUMPI PUSH1 0x40 MLOAD PUSH32 0x8C379A000000000000000000000000000000000000000000000000000000000 DUP2 MSTORE PUSH1 0x4 ADD PUSH3 0x3D2 SWAP1 PUSH3 0x115E JUMP JUMPDEST PUSH1 0x40 MLOAD DUP1 SWAP2 SUB SWAP1 REVERT JUMPDEST PUSH3 0x3F1 PUSH1 0x0 DUP4 DUP4 PUSH1 0x1 PUSH3 0x74D PUSH1 0x20 SHL PUSH1 0x20 SHR JUMP JUMPDEST PUSH3 0x402 DUP2 PUSH3 0x704 PUSH1 0x20 SHL PUSH1 0x20 SHR JUMP JUMPDEST ISZERO PUSH3 0x445 JUMPI PUSH1 0x40 MLOAD PUSH32 0x8C379A000000000000000000000000000000000000000000000000000000000 DUP2 MSTORE PUSH1 0x4 ADD PUSH3 0x43C SWAP1 PUSH3 0x115E JUMP JUMPDEST PUSH1 0x40 MLOAD DUP1 SWAP2 SUB SWAP1 REVERT JUMPDEST PUSH1 0x1 PUSH1 0x3 PUSH1 0x0 DUP5 PUSH20 0xFFFFFFFFFFFFFFFFFFFFFFFFFFFFFFFFFFFFFFFF AND PUSH20 0xFFFFFFFFFFFFFFFFFFFFFFFFFFFFFFFFFFFFFFFF AND DUP2 MSTORE PUSH1 0x20 ADD SWAP1 DUP2 MSTORE PUSH1 0x20 ADD PUSH1 0x0 KECCAK256 PUSH1 0x0 DUP3 DUP3 SLOAD ADD SWAP3 POP POP DUP2 SWAP1 SSTORE POP DUP2 PUSH1 0x2 PUSH1 0x0 DUP4 DUP2 MSTORE PUSH1 0x20 ADD SWAP1 DUP2 MSTORE PUSH1 0x20 ADD PUSH1 0x0 KECCAK256 PUSH1 0x0 PUSH2 0x100 EXP DUP2 SLOAD DUP2 PUSH20 0xFFFFFFFFFFFFFFFFFFFFFFFFFFFFFFFFFFFFFFFF MUL NOT AND SWAP1 DUP4 PUSH20 0xFFFFFFFFFFFFFFFFFFFFFFFFFFFFFFFFFFFFFFFF AND MUL OR SWAP1 SSTORE POP DUP1 DUP3 PUSH20 0xFFFFFFFFFFFFFFFFFFFFFFFFFFFFFFFFFFFFFFFF AND PUSH1 0x0 PUSH20 0xFFFFFFFFFFFFFFFFFFFFFFFFFFFFFFFFFFFFFFFF AND PUSH32 0xDDF252AD1BE2C89B69C2B068FC378DAA952BA7F163C4A11628F55A4DF523B3EF PUSH1 0x40 MLOAD PUSH1 0x40 MLOAD DUP1 SWAP2 SUB SWAP1 LOG4 PUSH3 0x557 PUSH1 0x0 DUP4 DUP4 PUSH1 0x1 PUSH3 0x87A PUSH1 0x20 SHL PUSH1 0x20 SHR JUMP JUMPDEST POP POP JUMP JUMPDEST PUSH1 0x0 PUSH3 0x589 DUP5 PUSH20 0xFFFFFFFFFFFFFFFFFFFFFFFFFFFFFFFFFFFFFFFF AND PUSH3 0x880 PUSH1 0x20 SHL PUSH3 0x17DD OR PUSH1 0x20 SHR JUMP JUMPDEST ISZERO PUSH3 0x6F7 JUMPI DUP4 PUSH20 0xFFFFFFFFFFFFFFFFFFFFFFFFFFFFFFFFFFFFFFFF AND PUSH4 0x150B7A02 PUSH3 0x5BB PUSH3 0x1B3 PUSH1 0x20 SHL PUSH1 0x20 SHR JUMP JUMPDEST DUP8 DUP7 DUP7 PUSH1 0x40 MLOAD DUP6 PUSH4 0xFFFFFFFF AND PUSH1 0xE0 SHL DUP2 MSTORE PUSH1 0x4 ADD PUSH3 0x5DF SWAP5 SWAP4 SWAP3 SWAP2 SWAP1 PUSH3 0x11FF JUMP JUMPDEST PUSH1 0x20 PUSH1 0x40 MLOAD DUP1 DUP4 SUB DUP2 PUSH1 0x0 DUP8 GAS CALL SWAP3 POP POP POP DUP1 ISZERO PUSH3 0x61E JUMPI POP PUSH1 0x40 MLOAD RETURNDATASIZE PUSH1 0x1F NOT PUSH1 0x1F DUP3 ADD AND DUP3 ADD DUP1 PUSH1 0x40 MSTORE POP DUP2 ADD SWAP1 PUSH3 0x61B SWAP2 SWAP1 PUSH3 0x12B0 JUMP JUMPDEST PUSH1 0x1 JUMPDEST PUSH3 0x6A6 JUMPI RETURNDATASIZE DUP1 PUSH1 0x0 DUP2 EQ PUSH3 0x651 JUMPI PUSH1 0x40 MLOAD SWAP2 POP PUSH1 0x1F NOT PUSH1 0x3F RETURNDATASIZE ADD AND DUP3 ADD PUSH1 0x40 MSTORE RETURNDATASIZE DUP3 MSTORE RETURNDATASIZE PUSH1 0x0 PUSH1 0x20 DUP5 ADD RETURNDATACOPY PUSH3 0x656 JUMP JUMPDEST PUSH1 0x60 SWAP2 POP JUMPDEST POP PUSH1 0x0 DUP2 MLOAD SUB PUSH3 0x69E JUMPI PUSH1 0x40 MLOAD PUSH32 0x8C379A000000000000000000000000000000000000000000000000000000000 DUP2 MSTORE PUSH1 0x4 ADD PUSH3 0x695 SWAP1 PUSH3 0x107A JUMP JUMPDEST PUSH1 0x40 MLOAD DUP1 SWAP2 SUB SWAP1 REVERT JUMPDEST DUP1 MLOAD DUP2 PUSH1 0x20 ADD REVERT JUMPDEST PUSH4 0x150B7A02 PUSH1 0xE0 SHL PUSH28 0xFFFFFFFFFFFFFFFFFFFFFFFFFFFFFFFFFFFFFFFFFFFFFFFFFFFFFFFF NOT AND DUP2 PUSH28 0xFFFFFFFFFFFFFFFFFFFFFFFFFFFFFFFFFFFFFFFFFFFFFFFFFFFFFFFF NOT AND EQ SWAP2 POP POP PUSH3 0x6FC JUMP JUMPDEST PUSH1 0x1 SWAP1 POP JUMPDEST SWAP5 SWAP4 POP POP POP POP JUMP JUMPDEST PUSH1 0x0 DUP1 PUSH20 0xFFFFFFFFFFFFFFFFFFFFFFFFFFFFFFFFFFFFFFFF AND PUSH3 0x72E DUP4 PUSH3 0x8A3 PUSH1 0x20 SHL PUSH1 0x20 SHR JUMP JUMPDEST PUSH20 0xFFFFFFFFFFFFFFFFFFFFFFFFFFFFFFFFFFFFFFFF AND EQ ISZERO SWAP1 POP SWAP2 SWAP1 POP JUMP JUMPDEST PUSH1 0x1 DUP2 GT ISZERO PUSH3 0x874 JUMPI PUSH1 0x0 PUSH20 0xFFFFFFFFFFFFFFFFFFFFFFFFFFFFFFFFFFFFFFFF AND DUP5 PUSH20 0xFFFFFFFFFFFFFFFFFFFFFFFFFFFFFFFFFFFFFFFF AND EQ PUSH3 0x7E5 JUMPI DUP1 PUSH1 0x3 PUSH1 0x0 DUP7 PUSH20 0xFFFFFFFFFFFFFFFFFFFFFFFFFFFFFFFFFFFFFFFF AND PUSH20 0xFFFFFFFFFFFFFFFFFFFFFFFFFFFFFFFFFFFFFFFF AND DUP2 MSTORE PUSH1 0x20 ADD SWAP1 DUP2 MSTORE PUSH1 0x20 ADD PUSH1 0x0 KECCAK256 PUSH1 0x0 DUP3 DUP3 SLOAD PUSH3 0x7DD SWAP2 SWAP1 PUSH3 0x12E2 JUMP JUMPDEST SWAP3 POP POP DUP2 SWAP1 SSTORE POP JUMPDEST PUSH1 0x0 PUSH20 0xFFFFFFFFFFFFFFFFFFFFFFFFFFFFFFFFFFFFFFFF AND DUP4 PUSH20 0xFFFFFFFFFFFFFFFFFFFFFFFFFFFFFFFFFFFFFFFF AND EQ PUSH3 0x873 JUMPI DUP1 PUSH1 0x3 PUSH1 0x0 DUP6 PUSH20 0xFFFFFFFFFFFFFFFFFFFFFFFFFFFFFFFFFFFFFFFF AND PUSH20 0xFFFFFFFFFFFFFFFFFFFFFFFFFFFFFFFFFFFFFFFF AND DUP2 MSTORE PUSH1 0x20 ADD SWAP1 DUP2 MSTORE PUSH1 0x20 ADD PUSH1 0x0 KECCAK256 PUSH1 0x0 DUP3 DUP3 SLOAD PUSH3 0x86B SWAP2 SWAP1 PUSH3 0x131D JUMP JUMPDEST SWAP3 POP POP DUP2 SWAP1 SSTORE POP JUMPDEST JUMPDEST POP POP POP POP JUMP JUMPDEST POP POP POP POP JUMP JUMPDEST PUSH1 0x0 DUP1 DUP3 PUSH20 0xFFFFFFFFFFFFFFFFFFFFFFFFFFFFFFFFFFFFFFFF AND EXTCODESIZE GT SWAP1 POP SWAP2 SWAP1 POP JUMP JUMPDEST PUSH1 0x0 PUSH1 0x2 PUSH1 0x0 DUP4 DUP2 MSTORE PUSH1 0x20 ADD SWAP1 DUP2 MSTORE PUSH1 0x20 ADD PUSH1 0x0 KECCAK256 PUSH1 0x0 SWAP1 SLOAD SWAP1 PUSH2 0x100 EXP SWAP1 DIV PUSH20 0xFFFFFFFFFFFFFFFFFFFFFFFFFFFFFFFFFFFFFFFF AND SWAP1 POP SWAP2 SWAP1 POP JUMP JUMPDEST PUSH1 0x0 DUP2 MLOAD SWAP1 POP SWAP2 SWAP1 POP JUMP JUMPDEST PUSH32 0x4E487B7100000000000000000000000000000000000000000000000000000000 PUSH1 0x0 MSTORE PUSH1 0x41 PUSH1 0x4 MSTORE PUSH1 0x24 PUSH1 0x0 REVERT JUMPDEST PUSH32 0x4E487B7100000000000000000000000000000000000000000000000000000000 PUSH1 0x0 MSTORE PUSH1 0x22 PUSH1 0x4 MSTORE PUSH1 0x24 PUSH1 0x0 REVERT JUMPDEST PUSH1 0x0 PUSH1 0x2 DUP3 DIV SWAP1 POP PUSH1 0x1 DUP3 AND DUP1 PUSH3 0x962 JUMPI PUSH1 0x7F DUP3 AND SWAP2 POP JUMPDEST PUSH1 0x20 DUP3 LT DUP2 SUB PUSH3 0x978 JUMPI PUSH3 0x977 PUSH3 0x91A JUMP JUMPDEST JUMPDEST POP SWAP2 SWAP1 POP JUMP JUMPDEST PUSH1 0x0 DUP2 SWAP1 POP DUP2 PUSH1 0x0 MSTORE PUSH1 0x20 PUSH1 0x0 KECCAK256 SWAP1 POP SWAP2 SWAP1 POP JUMP JUMPDEST PUSH1 0x0 PUSH1 0x20 PUSH1 0x1F DUP4 ADD DIV SWAP1 POP SWAP2 SWAP1 POP JUMP JUMPDEST PUSH1 0x0 DUP3 DUP3 SHL SWAP1 POP SWAP3 SWAP2 POP POP JUMP JUMPDEST PUSH1 0x0 PUSH1 0x8 DUP4 MUL PUSH3 0x9E2 PUSH32 0xFFFFFFFFFFFFFFFFFFFFFFFFFFFFFFFFFFFFFFFFFFFFFFFFFFFFFFFFFFFFFFFF DUP3 PUSH3 0x9A3 JUMP JUMPDEST PUSH3 0x9EE DUP7 DUP4 PUSH3 0x9A3 JUMP JUMPDEST SWAP6 POP DUP1 NOT DUP5 AND SWAP4 POP DUP1 DUP7 AND DUP5 OR SWAP3 POP POP POP SWAP4 SWAP3 POP POP POP JUMP JUMPDEST PUSH1 0x0 DUP2 SWAP1 POP SWAP2 SWAP1 POP JUMP JUMPDEST PUSH1 0x0 DUP2 SWAP1 POP SWAP2 SWAP1 POP JUMP JUMPDEST PUSH1 0x0 PUSH3 0xA3B PUSH3 0xA35 PUSH3 0xA2F DUP5 PUSH3 0xA06 JUMP JUMPDEST PUSH3 0xA10 JUMP JUMPDEST PUSH3 0xA06 JUMP JUMPDEST SWAP1 POP SWAP2 SWAP1 POP JUMP JUMPDEST PUSH1 0x0 DUP2 SWAP1 POP SWAP2 SWAP1 POP JUMP JUMPDEST PUSH3 0xA57 DUP4 PUSH3 0xA1A JUMP JUMPDEST PUSH3 0xA6F PUSH3 0xA66 DUP3 PUSH3 0xA42 JUMP JUMPDEST DUP5 DUP5 SLOAD PUSH3 0x9B0 JUMP JUMPDEST DUP3 SSTORE POP POP POP POP JUMP JUMPDEST PUSH1 0x0 SWAP1 JUMP JUMPDEST PUSH3 0xA86 PUSH3 0xA77 JUMP JUMPDEST PUSH3 0xA93 DUP2 DUP5 DUP5 PUSH3 0xA4C JUMP JUMPDEST POP POP POP JUMP JUMPDEST JUMPDEST DUP2 DUP2 LT ISZERO PUSH3 0xABB JUMPI PUSH3 0xAAF PUSH1 0x0 DUP3 PUSH3 0xA7C JUMP JUMPDEST PUSH1 0x1 DUP2 ADD SWAP1 POP PUSH3 0xA99 JUMP JUMPDEST POP POP JUMP JUMPDEST PUSH1 0x1F DUP3 GT ISZERO PUSH3 0xB0A JUMPI PUSH3 0xAD4 DUP2 PUSH3 0x97E JUMP JUMPDEST PUSH3 0xADF DUP5 PUSH3 0x993 JUMP JUMPDEST DUP2 ADD PUSH1 0x20 DUP6 LT ISZERO PUSH3 0xAEF JUMPI DUP2 SWAP1 POP JUMPDEST PUSH3 0xB07 PUSH3 0xAFE DUP6 PUSH3 0x993 JUMP JUMPDEST DUP4 ADD DUP3 PUSH3 0xA98 JUMP JUMPDEST POP POP JUMPDEST POP POP POP JUMP JUMPDEST PUSH1 0x0 DUP3 DUP3 SHR SWAP1 POP SWAP3 SWAP2 POP POP JUMP JUMPDEST PUSH1 0x0 PUSH3 0xB2F PUSH1 0x0 NOT DUP5 PUSH1 0x8 MUL PUSH3 0xB0F JUMP JUMPDEST NOT DUP1 DUP4 AND SWAP2 POP POP SWAP3 SWAP2 POP POP JUMP JUMPDEST PUSH1 0x0 PUSH3 0xB4A DUP4 DUP4 PUSH3 0xB1C JUMP JUMPDEST SWAP2 POP DUP3 PUSH1 0x2 MUL DUP3 OR SWAP1 POP SWAP3 SWAP2 POP POP JUMP JUMPDEST PUSH3 0xB65 DUP3 PUSH3 0x8E0 JUMP JUMPDEST PUSH8 0xFFFFFFFFFFFFFFFF DUP2 GT ISZERO PUSH3 0xB81 JUMPI PUSH3 0xB80 PUSH3 0x8EB JUMP JUMPDEST JUMPDEST PUSH3 0xB8D DUP3 SLOAD PUSH3 0x949 JUMP JUMPDEST PUSH3 0xB9A DUP3 DUP3 DUP6 PUSH3 0xABF JUMP JUMPDEST PUSH1 0x0 PUSH1 0x20 SWAP1 POP PUSH1 0x1F DUP4 GT PUSH1 0x1 DUP2 EQ PUSH3 0xBD2 JUMPI PUSH1 0x0 DUP5 ISZERO PUSH3 0xBBD JUMPI DUP3 DUP8 ADD MLOAD SWAP1 POP JUMPDEST PUSH3 0xBC9 DUP6 DUP3 PUSH3 0xB3C JUMP JUMPDEST DUP7 SSTORE POP PUSH3 0xC39 JUMP JUMPDEST PUSH1 0x1F NOT DUP5 AND PUSH3 0xBE2 DUP7 PUSH3 0x97E JUMP JUMPDEST PUSH1 0x0 JUMPDEST DUP3 DUP2 LT ISZERO PUSH3 0xC0C JUMPI DUP5 DUP10 ADD MLOAD DUP3 SSTORE PUSH1 0x1 DUP3 ADD SWAP2 POP PUSH1 0x20 DUP6 ADD SWAP5 POP PUSH1 0x20 DUP2 ADD SWAP1 POP PUSH3 0xBE5 JUMP JUMPDEST DUP7 DUP4 LT ISZERO PUSH3 0xC2C JUMPI DUP5 DUP10 ADD MLOAD PUSH3 0xC28 PUSH1 0x1F DUP10 AND DUP3 PUSH3 0xB1C JUMP JUMPDEST DUP4 SSTORE POP JUMPDEST PUSH1 0x1 PUSH1 0x2 DUP9 MUL ADD DUP9 SSTORE POP POP POP JUMPDEST POP POP POP POP POP POP JUMP JUMPDEST PUSH1 0x0 PUSH1 0x40 MLOAD SWAP1 POP SWAP1 JUMP JUMPDEST PUSH1 0x0 DUP1 REVERT JUMPDEST PUSH1 0x0 DUP1 REVERT JUMPDEST PUSH1 0x0 PUSH20 0xFFFFFFFFFFFFFFFFFFFFFFFFFFFFFFFFFFFFFFFF DUP3 AND SWAP1 POP SWAP2 SWAP1 POP JUMP JUMPDEST PUSH1 0x0 PUSH3 0xC82 DUP3 PUSH3 0xC55 JUMP JUMPDEST SWAP1 POP SWAP2 SWAP1 POP JUMP JUMPDEST PUSH3 0xC94 DUP2 PUSH3 0xC75 JUMP JUMPDEST DUP2 EQ PUSH3 0xCA0 JUMPI PUSH1 0x0 DUP1 REVERT JUMPDEST POP JUMP JUMPDEST PUSH1 0x0 DUP2 MLOAD SWAP1 POP PUSH3 0xCB4 DUP2 PUSH3 0xC89 JUMP JUMPDEST SWAP3 SWAP2 POP POP JUMP JUMPDEST PUSH1 0x0 DUP1 REVERT JUMPDEST PUSH1 0x0 DUP1 REVERT JUMPDEST PUSH1 0x0 PUSH1 0x1F NOT PUSH1 0x1F DUP4 ADD AND SWAP1 POP SWAP2 SWAP1 POP JUMP JUMPDEST PUSH3 0xCE0 DUP3 PUSH3 0xCC4 JUMP JUMPDEST DUP2 ADD DUP2 DUP2 LT PUSH8 0xFFFFFFFFFFFFFFFF DUP3 GT OR ISZERO PUSH3 0xD02 JUMPI PUSH3 0xD01 PUSH3 0x8EB JUMP JUMPDEST JUMPDEST DUP1 PUSH1 0x40 MSTORE POP POP POP JUMP JUMPDEST PUSH1 0x0 PUSH3 0xD17 PUSH3 0xC41 JUMP JUMPDEST SWAP1 POP PUSH3 0xD25 DUP3 DUP3 PUSH3 0xCD5 JUMP JUMPDEST SWAP2 SWAP1 POP JUMP JUMPDEST PUSH1 0x0 PUSH8 0xFFFFFFFFFFFFFFFF DUP3 GT ISZERO PUSH3 0xD48 JUMPI PUSH3 0xD47 PUSH3 0x8EB JUMP JUMPDEST JUMPDEST PUSH3 0xD53 DUP3 PUSH3 0xCC4 JUMP JUMPDEST SWAP1 POP PUSH1 0x20 DUP2 ADD SWAP1 POP SWAP2 SWAP1 POP JUMP JUMPDEST PUSH1 0x0 JUMPDEST DUP4 DUP2 LT ISZERO PUSH3 0xD80 JUMPI DUP1 DUP3 ADD MLOAD DUP2 DUP5 ADD MSTORE PUSH1 0x20 DUP2 ADD SWAP1 POP PUSH3 0xD63 JUMP JUMPDEST PUSH1 0x0 DUP5 DUP5 ADD MSTORE POP POP POP POP JUMP JUMPDEST PUSH1 0x0 PUSH3 0xDA3 PUSH3 0xD9D DUP5 PUSH3 0xD2A JUMP JUMPDEST PUSH3 0xD0B JUMP JUMPDEST SWAP1 POP DUP3 DUP2 MSTORE PUSH1 0x20 DUP2 ADD DUP5 DUP5 DUP5 ADD GT ISZERO PUSH3 0xDC2 JUMPI PUSH3 0xDC1 PUSH3 0xCBF JUMP JUMPDEST JUMPDEST PUSH3 0xDCF DUP5 DUP3 DUP6 PUSH3 0xD60 JUMP JUMPDEST POP SWAP4 SWAP3 POP POP POP JUMP JUMPDEST PUSH1 0x0 DUP3 PUSH1 0x1F DUP4 ADD SLT PUSH3 0xDEF JUMPI PUSH3 0xDEE PUSH3 0xCBA JUMP JUMPDEST JUMPDEST DUP2 MLOAD PUSH3 0xE01 DUP5 DUP3 PUSH1 0x20 DUP7 ADD PUSH3 0xD8C JUMP JUMPDEST SWAP2 POP POP SWAP3 SWAP2 POP POP JUMP JUMPDEST PUSH3 0xE15 DUP2 PUSH3 0xA06 JUMP JUMPDEST DUP2 EQ PUSH3 0xE21 JUMPI PUSH1 0x0 DUP1 REVERT JUMPDEST POP JUMP JUMPDEST PUSH1 0x0 DUP2 MLOAD SWAP1 POP PUSH3 0xE35 DUP2 PUSH3 0xE0A JUMP JUMPDEST SWAP3 SWAP2 POP POP JUMP JUMPDEST PUSH1 0x0 DUP1 PUSH1 0x0 DUP1 PUSH1 0x0 DUP1 PUSH1 0x0 DUP1 PUSH1 0x0 PUSH2 0x120 DUP11 DUP13 SUB SLT ISZERO PUSH3 0xE61 JUMPI PUSH3 0xE60 PUSH3 0xC4B JUMP JUMPDEST JUMPDEST PUSH1 0x0 PUSH3 0xE71 DUP13 DUP3 DUP14 ADD PUSH3 0xCA3 JUMP JUMPDEST SWAP10 POP POP PUSH1 0x20 DUP11 ADD MLOAD PUSH8 0xFFFFFFFFFFFFFFFF DUP2 GT ISZERO PUSH3 0xE95 JUMPI PUSH3 0xE94 PUSH3 0xC50 JUMP JUMPDEST JUMPDEST PUSH3 0xEA3 DUP13 DUP3 DUP14 ADD PUSH3 0xDD7 JUMP JUMPDEST SWAP9 POP POP PUSH1 0x40 DUP11 ADD MLOAD PUSH8 0xFFFFFFFFFFFFFFFF DUP2 GT ISZERO PUSH3 0xEC7 JUMPI PUSH3 0xEC6 PUSH3 0xC50 JUMP JUMPDEST JUMPDEST PUSH3 0xED5 DUP13 DUP3 DUP14 ADD PUSH3 0xDD7 JUMP JUMPDEST SWAP8 POP POP PUSH1 0x60 PUSH3 0xEE8 DUP13 DUP3 DUP14 ADD PUSH3 0xE24 JUMP JUMPDEST SWAP7 POP POP PUSH1 0x80 PUSH3 0xEFB DUP13 DUP3 DUP14 ADD PUSH3 0xE24 JUMP JUMPDEST SWAP6 POP POP PUSH1 0xA0 PUSH3 0xF0E DUP13 DUP3 DUP14 ADD PUSH3 0xE24 JUMP JUMPDEST SWAP5 POP POP PUSH1 0xC0 DUP11 ADD MLOAD PUSH8 0xFFFFFFFFFFFFFFFF DUP2 GT ISZERO PUSH3 0xF32 JUMPI PUSH3 0xF31 PUSH3 0xC50 JUMP JUMPDEST JUMPDEST PUSH3 0xF40 DUP13 DUP3 DUP14 ADD PUSH3 0xDD7 JUMP JUMPDEST SWAP4 POP POP PUSH1 0xE0 PUSH3 0xF53 DUP13 DUP3 DUP14 ADD PUSH3 0xE24 JUMP JUMPDEST SWAP3 POP POP PUSH2 0x100 PUSH3 0xF67 DUP13 DUP3 DUP14 ADD PUSH3 0xE24 JUMP JUMPDEST SWAP2 POP POP SWAP3 SWAP6 SWAP9 POP SWAP3 SWAP6 SWAP9 POP SWAP3 SWAP6 SWAP9 JUMP JUMPDEST PUSH32 0x4E487B7100000000000000000000000000000000000000000000000000000000 PUSH1 0x0 MSTORE PUSH1 0x11 PUSH1 0x4 MSTORE PUSH1 0x24 PUSH1 0x0 REVERT JUMPDEST PUSH1 0x0 PUSH3 0xFB3 DUP3 PUSH3 0xA06 JUMP JUMPDEST SWAP2 POP PUSH32 0xFFFFFFFFFFFFFFFFFFFFFFFFFFFFFFFFFFFFFFFFFFFFFFFFFFFFFFFFFFFFFFFF DUP3 SUB PUSH3 0xFE8 JUMPI PUSH3 0xFE7 PUSH3 0xF77 JUMP JUMPDEST JUMPDEST PUSH1 0x1 DUP3 ADD SWAP1 POP SWAP2 SWAP1 POP JUMP JUMPDEST PUSH1 0x0 DUP3 DUP3 MSTORE PUSH1 0x20 DUP3 ADD SWAP1 POP SWAP3 SWAP2 POP POP JUMP JUMPDEST PUSH32 0x4552433732313A207472616E7366657220746F206E6F6E204552433732315265 PUSH1 0x0 DUP3 ADD MSTORE PUSH32 0x63656976657220696D706C656D656E7465720000000000000000000000000000 PUSH1 0x20 DUP3 ADD MSTORE POP JUMP JUMPDEST PUSH1 0x0 PUSH3 0x1062 PUSH1 0x32 DUP4 PUSH3 0xFF3 JUMP JUMPDEST SWAP2 POP PUSH3 0x106F DUP3 PUSH3 0x1004 JUMP JUMPDEST PUSH1 0x40 DUP3 ADD SWAP1 POP SWAP2 SWAP1 POP JUMP JUMPDEST PUSH1 0x0 PUSH1 0x20 DUP3 ADD SWAP1 POP DUP2 DUP2 SUB PUSH1 0x0 DUP4 ADD MSTORE PUSH3 0x1095 DUP2 PUSH3 0x1053 JUMP JUMPDEST SWAP1 POP SWAP2 SWAP1 POP JUMP JUMPDEST PUSH32 0x4552433732313A206D696E7420746F20746865207A65726F2061646472657373 PUSH1 0x0 DUP3 ADD MSTORE POP JUMP JUMPDEST PUSH1 0x0 PUSH3 0x10D4 PUSH1 0x20 DUP4 PUSH3 0xFF3 JUMP JUMPDEST SWAP2 POP PUSH3 0x10E1 DUP3 PUSH3 0x109C JUMP JUMPDEST PUSH1 0x20 DUP3 ADD SWAP1 POP SWAP2 SWAP1 POP JUMP JUMPDEST PUSH1 0x0 PUSH1 0x20 DUP3 ADD SWAP1 POP DUP2 DUP2 SUB PUSH1 0x0 DUP4 ADD MSTORE PUSH3 0x1107 DUP2 PUSH3 0x10C5 JUMP JUMPDEST SWAP1 POP SWAP2 SWAP1 POP JUMP JUMPDEST PUSH32 0x4552433732313A20746F6B656E20616C7265616479206D696E74656400000000 PUSH1 0x0 DUP3 ADD MSTORE POP JUMP JUMPDEST PUSH1 0x0 PUSH3 0x1146 PUSH1 0x1C DUP4 PUSH3 0xFF3 JUMP JUMPDEST SWAP2 POP PUSH3 0x1153 DUP3 PUSH3 0x110E JUMP JUMPDEST PUSH1 0x20 DUP3 ADD SWAP1 POP SWAP2 SWAP1 POP JUMP JUMPDEST PUSH1 0x0 PUSH1 0x20 DUP3 ADD SWAP1 POP DUP2 DUP2 SUB PUSH1 0x0 DUP4 ADD MSTORE PUSH3 0x1179 DUP2 PUSH3 0x1137 JUMP JUMPDEST SWAP1 POP SWAP2 SWAP1 POP JUMP JUMPDEST PUSH3 0x118B DUP2 PUSH3 0xC75 JUMP JUMPDEST DUP3 MSTORE POP POP JUMP JUMPDEST PUSH3 0x119C DUP2 PUSH3 0xA06 JUMP JUMPDEST DUP3 MSTORE POP POP JUMP JUMPDEST PUSH1 0x0 DUP2 MLOAD SWAP1 POP SWAP2 SWAP1 POP JUMP JUMPDEST PUSH1 0x0 DUP3 DUP3 MSTORE PUSH1 0x20 DUP3 ADD SWAP1 POP SWAP3 SWAP2 POP POP JUMP JUMPDEST PUSH1 0x0 PUSH3 0x11CB DUP3 PUSH3 0x11A2 JUMP JUMPDEST PUSH3 0x11D7 DUP2 DUP6 PUSH3 0x11AD JUMP JUMPDEST SWAP4 POP PUSH3 0x11E9 DUP2 DUP6 PUSH1 0x20 DUP7 ADD PUSH3 0xD60 JUMP JUMPDEST PUSH3 0x11F4 DUP2 PUSH3 0xCC4 JUMP JUMPDEST DUP5 ADD SWAP2 POP POP SWAP3 SWAP2 POP POP JUMP JUMPDEST PUSH1 0x0 PUSH1 0x80 DUP3 ADD SWAP1 POP PUSH3 0x1216 PUSH1 0x0 DUP4 ADD DUP8 PUSH3 0x1180 JUMP JUMPDEST PUSH3 0x1225 PUSH1 0x20 DUP4 ADD DUP7 PUSH3 0x1180 JUMP JUMPDEST PUSH3 0x1234 PUSH1 0x40 DUP4 ADD DUP6 PUSH3 0x1191 JUMP JUMPDEST DUP2 DUP2 SUB PUSH1 0x60 DUP4 ADD MSTORE PUSH3 0x1248 DUP2 DUP5 PUSH3 0x11BE JUMP JUMPDEST SWAP1 POP SWAP6 SWAP5 POP POP POP POP POP JUMP JUMPDEST PUSH1 0x0 PUSH32 0xFFFFFFFF00000000000000000000000000000000000000000000000000000000 DUP3 AND SWAP1 POP SWAP2 SWAP1 POP JUMP JUMPDEST PUSH3 0x128A DUP2 PUSH3 0x1253 JUMP JUMPDEST DUP2 EQ PUSH3 0x1296 JUMPI PUSH1 0x0 DUP1 REVERT JUMPDEST POP JUMP JUMPDEST PUSH1 0x0 DUP2 MLOAD SWAP1 POP PUSH3 0x12AA DUP2 PUSH3 0x127F JUMP JUMPDEST SWAP3 SWAP2 POP POP JUMP JUMPDEST PUSH1 0x0 PUSH1 0x20 DUP3 DUP5 SUB SLT ISZERO PUSH3 0x12C9 JUMPI PUSH3 0x12C8 PUSH3 0xC4B JUMP JUMPDEST JUMPDEST PUSH1 0x0 PUSH3 0x12D9 DUP5 DUP3 DUP6 ADD PUSH3 0x1299 JUMP JUMPDEST SWAP2 POP POP SWAP3 SWAP2 POP POP JUMP JUMPDEST PUSH1 0x0 PUSH3 0x12EF DUP3 PUSH3 0xA06 JUMP JUMPDEST SWAP2 POP PUSH3 0x12FC DUP4 PUSH3 0xA06 JUMP JUMPDEST SWAP3 POP DUP3 DUP3 SUB SWAP1 POP DUP2 DUP2 GT ISZERO PUSH3 0x1317 JUMPI PUSH3 0x1316 PUSH3 0xF77 JUMP JUMPDEST JUMPDEST SWAP3 SWAP2 POP POP JUMP JUMPDEST PUSH1 0x0 PUSH3 0x132A DUP3 PUSH3 0xA06 JUMP JUMPDEST SWAP2 POP PUSH3 0x1337 DUP4 PUSH3 0xA06 JUMP JUMPDEST SWAP3 POP DUP3 DUP3 ADD SWAP1 POP DUP1 DUP3 GT ISZERO PUSH3 0x1352 JUMPI PUSH3 0x1351 PUSH3 0xF77 JUMP JUMPDEST JUMPDEST SWAP3 SWAP2 POP POP JUMP JUMPDEST PUSH2 0x3FB7 DUP1 PUSH3 0x1368 PUSH1 0x0 CODECOPY PUSH1 0x0 RETURN INVALID PUSH1 0x80 PUSH1 0x40 MSTORE PUSH1 0x4 CALLDATASIZE LT PUSH2 0x1EE JUMPI PUSH1 0x0 CALLDATALOAD PUSH1 0xE0 SHR DUP1 PUSH4 0x853828B6 GT PUSH2 0x10D JUMPI DUP1 PUSH4 0xA42D20AE GT PUSH2 0xA0 JUMPI DUP1 PUSH4 0xC87B56DD GT PUSH2 0x6F JUMPI DUP1 PUSH4 0xC87B56DD EQ PUSH2 0x69D JUMPI DUP1 PUSH4 0xDB83694C EQ PUSH2 0x6DA JUMPI DUP1 PUSH4 0xE985E9C5 EQ PUSH2 0x70E JUMPI DUP1 PUSH4 0xF2FDE38B EQ PUSH2 0x74B JUMPI DUP1 PUSH4 0xF47C84C5 EQ PUSH2 0x774 JUMPI PUSH2 0x1EE JUMP JUMPDEST DUP1 PUSH4 0xA42D20AE EQ PUSH2 0x5F3 JUMPI DUP1 PUSH4 0xB19960E6 EQ PUSH2 0x61E JUMPI DUP1 PUSH4 0xB88D4FDE EQ PUSH2 0x649 JUMPI DUP1 PUSH4 0xC6682862 EQ PUSH2 0x672 JUMPI PUSH2 0x1EE JUMP JUMPDEST DUP1 PUSH4 0x95D89B41 GT PUSH2 0xDC JUMPI DUP1 PUSH4 0x95D89B41 EQ PUSH2 0x558 JUMPI DUP1 PUSH4 0xA035B1FE EQ PUSH2 0x583 JUMPI DUP1 PUSH4 0xA0712D68 EQ PUSH2 0x5AE JUMPI DUP1 PUSH4 0xA22CB465 EQ PUSH2 0x5CA JUMPI PUSH2 0x1EE JUMP JUMPDEST DUP1 PUSH4 0x853828B6 EQ PUSH2 0x4CD JUMPI DUP1 PUSH4 0x8DA5CB5B EQ PUSH2 0x4D7 JUMPI DUP1 PUSH4 0x8ECAD721 EQ PUSH2 0x502 JUMPI DUP1 PUSH4 0x94F4E679 EQ PUSH2 0x52D JUMPI PUSH2 0x1EE JUMP JUMPDEST DUP1 PUSH4 0x3BB3A24D GT PUSH2 0x185 JUMPI DUP1 PUSH4 0x6352211E GT PUSH2 0x154 JUMPI DUP1 PUSH4 0x6352211E EQ PUSH2 0x411 JUMPI DUP1 PUSH4 0x6C0360EB EQ PUSH2 0x44E JUMPI DUP1 PUSH4 0x70A08231 EQ PUSH2 0x479 JUMPI DUP1 PUSH4 0x715018A6 EQ PUSH2 0x4B6 JUMPI PUSH2 0x1EE JUMP JUMPDEST DUP1 PUSH4 0x3BB3A24D EQ PUSH2 0x357 JUMPI DUP1 PUSH4 0x42842E0E EQ PUSH2 0x394 JUMPI DUP1 PUSH4 0x55F804B3 EQ PUSH2 0x3BD JUMPI DUP1 PUSH4 0x564566A8 EQ PUSH2 0x3E6 JUMPI PUSH2 0x1EE JUMP JUMPDEST DUP1 PUSH4 0x18160DDD GT PUSH2 0x1C1 JUMPI DUP1 PUSH4 0x18160DDD EQ PUSH2 0x2C1 JUMPI DUP1 PUSH4 0x18BEE97E EQ PUSH2 0x2EC JUMPI DUP1 PUSH4 0x23B872DD EQ PUSH2 0x317 JUMPI DUP1 PUSH4 0x34918DFD EQ PUSH2 0x340 JUMPI PUSH2 0x1EE JUMP JUMPDEST DUP1 PUSH4 0x1FFC9A7 EQ PUSH2 0x1F3 JUMPI DUP1 PUSH4 0x6FDDE03 EQ PUSH2 0x230 JUMPI DUP1 PUSH4 0x81812FC EQ PUSH2 0x25B JUMPI DUP1 PUSH4 0x95EA7B3 EQ PUSH2 0x298 JUMPI JUMPDEST PUSH1 0x0 DUP1 REVERT JUMPDEST CALLVALUE DUP1 ISZERO PUSH2 0x1FF JUMPI PUSH1 0x0 DUP1 REVERT JUMPDEST POP PUSH2 0x21A PUSH1 0x4 DUP1 CALLDATASIZE SUB DUP2 ADD SWAP1 PUSH2 0x215 SWAP2 SWAP1 PUSH2 0x2963 JUMP JUMPDEST PUSH2 0x79F JUMP JUMPDEST PUSH1 0x40 MLOAD PUSH2 0x227 SWAP2 SWAP1 PUSH2 0x29AB JUMP JUMPDEST PUSH1 0x40 MLOAD DUP1 SWAP2 SUB SWAP1 RETURN JUMPDEST CALLVALUE DUP1 ISZERO PUSH2 0x23C JUMPI PUSH1 0x0 DUP1 REVERT JUMPDEST POP PUSH2 0x245 PUSH2 0x881 JUMP JUMPDEST PUSH1 0x40 MLOAD PUSH2 0x252 SWAP2 SWAP1 PUSH2 0x2A56 JUMP JUMPDEST PUSH1 0x40 MLOAD DUP1 SWAP2 SUB SWAP1 RETURN JUMPDEST CALLVALUE DUP1 ISZERO PUSH2 0x267 JUMPI PUSH1 0x0 DUP1 REVERT JUMPDEST POP PUSH2 0x282 PUSH1 0x4 DUP1 CALLDATASIZE SUB DUP2 ADD SWAP1 PUSH2 0x27D SWAP2 SWAP1 PUSH2 0x2AAE JUMP JUMPDEST PUSH2 0x913 JUMP JUMPDEST PUSH1 0x40 MLOAD PUSH2 0x28F SWAP2 SWAP1 PUSH2 0x2B1C JUMP JUMPDEST PUSH1 0x40 MLOAD DUP1 SWAP2 SUB SWAP1 RETURN JUMPDEST CALLVALUE DUP1 ISZERO PUSH2 0x2A4 JUMPI PUSH1 0x0 DUP1 REVERT JUMPDEST POP PUSH2 0x2BF PUSH1 0x4 DUP1 CALLDATASIZE SUB DUP2 ADD SWAP1 PUSH2 0x2BA SWAP2 SWAP1 PUSH2 0x2B63 JUMP JUMPDEST PUSH2 0x959 JUMP JUMPDEST STOP JUMPDEST CALLVALUE DUP1 ISZERO PUSH2 0x2CD JUMPI PUSH1 0x0 DUP1 REVERT JUMPDEST POP PUSH2 0x2D6 PUSH2 0xA70 JUMP JUMPDEST PUSH1 0x40 MLOAD PUSH2 0x2E3 SWAP2 SWAP1 PUSH2 0x2BB2 JUMP JUMPDEST PUSH1 0x40 MLOAD DUP1 SWAP2 SUB SWAP1 RETURN JUMPDEST CALLVALUE DUP1 ISZERO PUSH2 0x2F8 JUMPI PUSH1 0x0 DUP1 REVERT JUMPDEST POP PUSH2 0x301 PUSH2 0xA76 JUMP JUMPDEST PUSH1 0x40 MLOAD PUSH2 0x30E SWAP2 SWAP1 PUSH2 0x2B1C JUMP JUMPDEST PUSH1 0x40 MLOAD DUP1 SWAP2 SUB SWAP1 RETURN JUMPDEST CALLVALUE DUP1 ISZERO PUSH2 0x323 JUMPI PUSH1 0x0 DUP1 REVERT JUMPDEST POP PUSH2 0x33E PUSH1 0x4 DUP1 CALLDATASIZE SUB DUP2 ADD SWAP1 PUSH2 0x339 SWAP2 SWAP1 PUSH2 0x2BCD JUMP JUMPDEST PUSH2 0xA9C JUMP JUMPDEST STOP JUMPDEST CALLVALUE DUP1 ISZERO PUSH2 0x34C JUMPI PUSH1 0x0 DUP1 REVERT JUMPDEST POP PUSH2 0x355 PUSH2 0xAFC JUMP JUMPDEST STOP JUMPDEST CALLVALUE DUP1 ISZERO PUSH2 0x363 JUMPI PUSH1 0x0 DUP1 REVERT JUMPDEST POP PUSH2 0x37E PUSH1 0x4 DUP1 CALLDATASIZE SUB DUP2 ADD SWAP1 PUSH2 0x379 SWAP2 SWAP1 PUSH2 0x2AAE JUMP JUMPDEST PUSH2 0xB82 JUMP JUMPDEST PUSH1 0x40 MLOAD PUSH2 0x38B SWAP2 SWAP1 PUSH2 0x2A56 JUMP JUMPDEST PUSH1 0x40 MLOAD DUP1 SWAP2 SUB SWAP1 RETURN JUMPDEST CALLVALUE DUP1 ISZERO PUSH2 0x3A0 JUMPI PUSH1 0x0 DUP1 REVERT JUMPDEST POP PUSH2 0x3BB PUSH1 0x4 DUP1 CALLDATASIZE SUB DUP2 ADD SWAP1 PUSH2 0x3B6 SWAP2 SWAP1 PUSH2 0x2BCD JUMP JUMPDEST PUSH2 0xB94 JUMP JUMPDEST STOP JUMPDEST CALLVALUE DUP1 ISZERO PUSH2 0x3C9 JUMPI PUSH1 0x0 DUP1 REVERT JUMPDEST POP PUSH2 0x3E4 PUSH1 0x4 DUP1 CALLDATASIZE SUB DUP2 ADD SWAP1 PUSH2 0x3DF SWAP2 SWAP1 PUSH2 0x2D55 JUMP JUMPDEST PUSH2 0xBB4 JUMP JUMPDEST STOP JUMPDEST CALLVALUE DUP1 ISZERO PUSH2 0x3F2 JUMPI PUSH1 0x0 DUP1 REVERT JUMPDEST POP PUSH2 0x3FB PUSH2 0xC21 JUMP JUMPDEST PUSH1 0x40 MLOAD PUSH2 0x408 SWAP2 SWAP1 PUSH2 0x29AB JUMP JUMPDEST PUSH1 0x40 MLOAD DUP1 SWAP2 SUB SWAP1 RETURN JUMPDEST CALLVALUE DUP1 ISZERO PUSH2 0x41D JUMPI PUSH1 0x0 DUP1 REVERT JUMPDEST POP PUSH2 0x438 PUSH1 0x4 DUP1 CALLDATASIZE SUB DUP2 ADD SWAP1 PUSH2 0x433 SWAP2 SWAP1 PUSH2 0x2AAE JUMP JUMPDEST PUSH2 0xC34 JUMP JUMPDEST PUSH1 0x40 MLOAD PUSH2 0x445 SWAP2 SWAP1 PUSH2 0x2B1C JUMP JUMPDEST PUSH1 0x40 MLOAD DUP1 SWAP2 SUB SWAP1 RETURN JUMPDEST CALLVALUE DUP1 ISZERO PUSH2 0x45A JUMPI PUSH1 0x0 DUP1 REVERT JUMPDEST POP PUSH2 0x463 PUSH2 0xCBA JUMP JUMPDEST PUSH1 0x40 MLOAD PUSH2 0x470 SWAP2 SWAP1 PUSH2 0x2A56 JUMP JUMPDEST PUSH1 0x40 MLOAD DUP1 SWAP2 SUB SWAP1 RETURN JUMPDEST CALLVALUE DUP1 ISZERO PUSH2 0x485 JUMPI PUSH1 0x0 DUP1 REVERT JUMPDEST POP PUSH2 0x4A0 PUSH1 0x4 DUP1 CALLDATASIZE SUB DUP2 ADD SWAP1 PUSH2 0x49B SWAP2 SWAP1 PUSH2 0x2D9E JUMP JUMPDEST PUSH2 0xD48 JUMP JUMPDEST PUSH1 0x40 MLOAD PUSH2 0x4AD SWAP2 SWAP1 PUSH2 0x2BB2 JUMP JUMPDEST PUSH1 0x40 MLOAD DUP1 SWAP2 SUB SWAP1 RETURN JUMPDEST CALLVALUE DUP1 ISZERO PUSH2 0x4C2 JUMPI PUSH1 0x0 DUP1 REVERT JUMPDEST POP PUSH2 0x4CB PUSH2 0xDFF JUMP JUMPDEST STOP JUMPDEST PUSH2 0x4D5 PUSH2 0xE13 JUMP JUMPDEST STOP JUMPDEST CALLVALUE DUP1 ISZERO PUSH2 0x4E3 JUMPI PUSH1 0x0 DUP1 REVERT JUMPDEST POP PUSH2 0x4EC PUSH2 0xEEC JUMP JUMPDEST PUSH1 0x40 MLOAD PUSH2 0x4F9 SWAP2 SWAP1 PUSH2 0x2B1C JUMP JUMPDEST PUSH1 0x40 MLOAD DUP1 SWAP2 SUB SWAP1 RETURN JUMPDEST CALLVALUE DUP1 ISZERO PUSH2 0x50E JUMPI PUSH1 0x0 DUP1 REVERT JUMPDEST POP PUSH2 0x517 PUSH2 0xF16 JUMP JUMPDEST PUSH1 0x40 MLOAD PUSH2 0x524 SWAP2 SWAP1 PUSH2 0x2BB2 JUMP JUMPDEST PUSH1 0x40 MLOAD DUP1 SWAP2 SUB SWAP1 RETURN JUMPDEST CALLVALUE DUP1 ISZERO PUSH2 0x539 JUMPI PUSH1 0x0 DUP1 REVERT JUMPDEST POP PUSH2 0x542 PUSH2 0xF1C JUMP JUMPDEST PUSH1 0x40 MLOAD PUSH2 0x54F SWAP2 SWAP1 PUSH2 0x2A56 JUMP JUMPDEST PUSH1 0x40 MLOAD DUP1 SWAP2 SUB SWAP1 RETURN JUMPDEST CALLVALUE DUP1 ISZERO PUSH2 0x564 JUMPI PUSH1 0x0 DUP1 REVERT JUMPDEST POP PUSH2 0x56D PUSH2 0xFAA JUMP JUMPDEST PUSH1 0x40 MLOAD PUSH2 0x57A SWAP2 SWAP1 PUSH2 0x2A56 JUMP JUMPDEST PUSH1 0x40 MLOAD DUP1 SWAP2 SUB SWAP1 RETURN JUMPDEST CALLVALUE DUP1 ISZERO PUSH2 0x58F JUMPI PUSH1 0x0 DUP1 REVERT JUMPDEST POP PUSH2 0x598 PUSH2 0x103C JUMP JUMPDEST PUSH1 0x40 MLOAD PUSH2 0x5A5 SWAP2 SWAP1 PUSH2 0x2BB2 JUMP JUMPDEST PUSH1 0x40 MLOAD DUP1 SWAP2 SUB SWAP1 RETURN JUMPDEST PUSH2 0x5C8 PUSH1 0x4 DUP1 CALLDATASIZE SUB DUP2 ADD SWAP1 PUSH2 0x5C3 SWAP2 SWAP1 PUSH2 0x2AAE JUMP JUMPDEST PUSH2 0x1042 JUMP JUMPDEST STOP JUMPDEST CALLVALUE DUP1 ISZERO PUSH2 0x5D6 JUMPI PUSH1 0x0 DUP1 REVERT JUMPDEST POP PUSH2 0x5F1 PUSH1 0x4 DUP1 CALLDATASIZE SUB DUP2 ADD SWAP1 PUSH2 0x5EC SWAP2 SWAP1 PUSH2 0x2DF7 JUMP JUMPDEST PUSH2 0x1260 JUMP JUMPDEST STOP JUMPDEST CALLVALUE DUP1 ISZERO PUSH2 0x5FF JUMPI PUSH1 0x0 DUP1 REVERT JUMPDEST POP PUSH2 0x608 PUSH2 0x1276 JUMP JUMPDEST PUSH1 0x40 MLOAD PUSH2 0x615 SWAP2 SWAP1 PUSH2 0x2A56 JUMP JUMPDEST PUSH1 0x40 MLOAD DUP1 SWAP2 SUB SWAP1 RETURN JUMPDEST CALLVALUE DUP1 ISZERO PUSH2 0x62A JUMPI PUSH1 0x0 DUP1 REVERT JUMPDEST POP PUSH2 0x633 PUSH2 0x1304 JUMP JUMPDEST PUSH1 0x40 MLOAD PUSH2 0x640 SWAP2 SWAP1 PUSH2 0x2BB2 JUMP JUMPDEST PUSH1 0x40 MLOAD DUP1 SWAP2 SUB SWAP1 RETURN JUMPDEST CALLVALUE DUP1 ISZERO PUSH2 0x655 JUMPI PUSH1 0x0 DUP1 REVERT JUMPDEST POP PUSH2 0x670 PUSH1 0x4 DUP1 CALLDATASIZE SUB DUP2 ADD SWAP1 PUSH2 0x66B SWAP2 SWAP1 PUSH2 0x2ED8 JUMP JUMPDEST PUSH2 0x130A JUMP JUMPDEST STOP JUMPDEST CALLVALUE DUP1 ISZERO PUSH2 0x67E JUMPI PUSH1 0x0 DUP1 REVERT JUMPDEST POP PUSH2 0x687 PUSH2 0x136C JUMP JUMPDEST PUSH1 0x40 MLOAD PUSH2 0x694 SWAP2 SWAP1 PUSH2 0x2A56 JUMP JUMPDEST PUSH1 0x40 MLOAD DUP1 SWAP2 SUB SWAP1 RETURN JUMPDEST CALLVALUE DUP1 ISZERO PUSH2 0x6A9 JUMPI PUSH1 0x0 DUP1 REVERT JUMPDEST POP PUSH2 0x6C4 PUSH1 0x4 DUP1 CALLDATASIZE SUB DUP2 ADD SWAP1 PUSH2 0x6BF SWAP2 SWAP1 PUSH2 0x2AAE JUMP JUMPDEST PUSH2 0x13FA JUMP JUMPDEST PUSH1 0x40 MLOAD PUSH2 0x6D1 SWAP2 SWAP1 PUSH2 0x2A56 JUMP JUMPDEST PUSH1 0x40 MLOAD DUP1 SWAP2 SUB SWAP1 RETURN JUMPDEST CALLVALUE DUP1 ISZERO PUSH2 0x6E6 JUMPI PUSH1 0x0 DUP1 REVERT JUMPDEST POP PUSH2 0x6EF PUSH2 0x14A4 JUMP JUMPDEST PUSH1 0x40 MLOAD PUSH2 0x705 SWAP11 SWAP10 SWAP9 SWAP8 SWAP7 SWAP6 SWAP5 SWAP4 SWAP3 SWAP2 SWAP1 PUSH2 0x2F5B JUMP JUMPDEST PUSH1 0x40 MLOAD DUP1 SWAP2 SUB SWAP1 RETURN JUMPDEST CALLVALUE DUP1 ISZERO PUSH2 0x71A JUMPI PUSH1 0x0 DUP1 REVERT JUMPDEST POP PUSH2 0x735 PUSH1 0x4 DUP1 CALLDATASIZE SUB DUP2 ADD SWAP1 PUSH2 0x730 SWAP2 SWAP1 PUSH2 0x300C JUMP JUMPDEST PUSH2 0x16C0 JUMP JUMPDEST PUSH1 0x40 MLOAD PUSH2 0x742 SWAP2 SWAP1 PUSH2 0x29AB JUMP JUMPDEST PUSH1 0x40 MLOAD DUP1 SWAP2 SUB SWAP1 RETURN JUMPDEST CALLVALUE DUP1 ISZERO PUSH2 0x757 JUMPI PUSH1 0x0 DUP1 REVERT JUMPDEST POP PUSH2 0x772 PUSH1 0x4 DUP1 CALLDATASIZE SUB DUP2 ADD SWAP1 PUSH2 0x76D SWAP2 SWAP1 PUSH2 0x2D9E JUMP JUMPDEST PUSH2 0x1754 JUMP JUMPDEST STOP JUMPDEST CALLVALUE DUP1 ISZERO PUSH2 0x780 JUMPI PUSH1 0x0 DUP1 REVERT JUMPDEST POP PUSH2 0x789 PUSH2 0x17D7 JUMP JUMPDEST PUSH1 0x40 MLOAD PUSH2 0x796 SWAP2 SWAP1 PUSH2 0x2BB2 JUMP JUMPDEST PUSH1 0x40 MLOAD DUP1 SWAP2 SUB SWAP1 RETURN JUMPDEST PUSH1 0x0 PUSH32 0x80AC58CD00000000000000000000000000000000000000000000000000000000 PUSH28 0xFFFFFFFFFFFFFFFFFFFFFFFFFFFFFFFFFFFFFFFFFFFFFFFFFFFFFFFF NOT AND DUP3 PUSH28 0xFFFFFFFFFFFFFFFFFFFFFFFFFFFFFFFFFFFFFFFFFFFFFFFFFFFFFFFF NOT AND EQ DUP1 PUSH2 0x86A JUMPI POP PUSH32 0x5B5E139F00000000000000000000000000000000000000000000000000000000 PUSH28 0xFFFFFFFFFFFFFFFFFFFFFFFFFFFFFFFFFFFFFFFFFFFFFFFFFFFFFFFF NOT AND DUP3 PUSH28 0xFFFFFFFFFFFFFFFFFFFFFFFFFFFFFFFFFFFFFFFFFFFFFFFFFFFFFFFF NOT AND EQ JUMPDEST DUP1 PUSH2 0x87A JUMPI POP PUSH2 0x879 DUP3 PUSH2 0x1800 JUMP JUMPDEST JUMPDEST SWAP1 POP SWAP2 SWAP1 POP JUMP JUMPDEST PUSH1 0x60 PUSH1 0x0 DUP1 SLOAD PUSH2 0x890 SWAP1 PUSH2 0x307B JUMP JUMPDEST DUP1 PUSH1 0x1F ADD PUSH1 0x20 DUP1 SWAP2 DIV MUL PUSH1 0x20 ADD PUSH1 0x40 MLOAD SWAP1 DUP2 ADD PUSH1 0x40 MSTORE DUP1 SWAP3 SWAP2 SWAP1 DUP2 DUP2 MSTORE PUSH1 0x20 ADD DUP3 DUP1 SLOAD PUSH2 0x8BC SWAP1 PUSH2 0x307B JUMP JUMPDEST DUP1 ISZERO PUSH2 0x909 JUMPI DUP1 PUSH1 0x1F LT PUSH2 0x8DE JUMPI PUSH2 0x100 DUP1 DUP4 SLOAD DIV MUL DUP4 MSTORE SWAP2 PUSH1 0x20 ADD SWAP2 PUSH2 0x909 JUMP JUMPDEST DUP3 ADD SWAP2 SWAP1 PUSH1 0x0 MSTORE PUSH1 0x20 PUSH1 0x0 KECCAK256 SWAP1 JUMPDEST DUP2 SLOAD DUP2 MSTORE SWAP1 PUSH1 0x1 ADD SWAP1 PUSH1 0x20 ADD DUP1 DUP4 GT PUSH2 0x8EC JUMPI DUP3 SWAP1 SUB PUSH1 0x1F AND DUP3 ADD SWAP2 JUMPDEST POP POP POP POP POP SWAP1 POP SWAP1 JUMP JUMPDEST PUSH1 0x0 PUSH2 0x91E DUP3 PUSH2 0x186A JUMP JUMPDEST PUSH1 0x4 PUSH1 0x0 DUP4 DUP2 MSTORE PUSH1 0x20 ADD SWAP1 DUP2 MSTORE PUSH1 0x20 ADD PUSH1 0x0 KECCAK256 PUSH1 0x0 SWAP1 SLOAD SWAP1 PUSH2 0x100 EXP SWAP1 DIV PUSH20 0xFFFFFFFFFFFFFFFFFFFFFFFFFFFFFFFFFFFFFFFF AND SWAP1 POP SWAP2 SWAP1 POP JUMP JUMPDEST PUSH1 0x0 PUSH2 0x964 DUP3 PUSH2 0xC34 JUMP JUMPDEST SWAP1 POP DUP1 PUSH20 0xFFFFFFFFFFFFFFFFFFFFFFFFFFFFFFFFFFFFFFFF AND DUP4 PUSH20 0xFFFFFFFFFFFFFFFFFFFFFFFFFFFFFFFFFFFFFFFF AND SUB PUSH2 0x9D4 JUMPI PUSH1 0x40 MLOAD PUSH32 0x8C379A000000000000000000000000000000000000000000000000000000000 DUP2 MSTORE PUSH1 0x4 ADD PUSH2 0x9CB SWAP1 PUSH2 0x311E JUMP JUMPDEST PUSH1 0x40 MLOAD DUP1 SWAP2 SUB SWAP1 REVERT JUMPDEST DUP1 PUSH20 0xFFFFFFFFFFFFFFFFFFFFFFFFFFFFFFFFFFFFFFFF AND PUSH2 0x9F3 PUSH2 0x18B5 JUMP JUMPDEST PUSH20 0xFFFFFFFFFFFFFFFFFFFFFFFFFFFFFFFFFFFFFFFF AND EQ DUP1 PUSH2 0xA22 JUMPI POP PUSH2 0xA21 DUP2 PUSH2 0xA1C PUSH2 0x18B5 JUMP JUMPDEST PUSH2 0x16C0 JUMP JUMPDEST JUMPDEST PUSH2 0xA61 JUMPI PUSH1 0x40 MLOAD PUSH32 0x8C379A000000000000000000000000000000000000000000000000000000000 DUP2 MSTORE PUSH1 0x4 ADD PUSH2 0xA58 SWAP1 PUSH2 0x31B0 JUMP JUMPDEST PUSH1 0x40 MLOAD DUP1 SWAP2 SUB SWAP1 REVERT JUMPDEST PUSH2 0xA6B DUP4 DUP4 PUSH2 0x18BD JUMP JUMPDEST POP POP POP JUMP JUMPDEST PUSH1 0x11 SLOAD DUP2 JUMP JUMPDEST PUSH1 0x8 PUSH1 0x0 SWAP1 SLOAD SWAP1 PUSH2 0x100 EXP SWAP1 DIV PUSH20 0xFFFFFFFFFFFFFFFFFFFFFFFFFFFFFFFFFFFFFFFF AND DUP2 JUMP JUMPDEST PUSH2 0xAAD PUSH2 0xAA7 PUSH2 0x18B5 JUMP JUMPDEST DUP3 PUSH2 0x1976 JUMP JUMPDEST PUSH2 0xAEC JUMPI PUSH1 0x40 MLOAD PUSH32 0x8C379A000000000000000000000000000000000000000000000000000000000 DUP2 MSTORE PUSH1 0x4 ADD PUSH2 0xAE3 SWAP1 PUSH2 0x3242 JUMP JUMPDEST PUSH1 0x40 MLOAD DUP1 SWAP2 SUB SWAP1 REVERT JUMPDEST PUSH2 0xAF7 DUP4 DUP4 DUP4 PUSH2 0x1A0B JUMP JUMPDEST POP POP POP JUMP JUMPDEST PUSH1 0x8 PUSH1 0x0 SWAP1 SLOAD SWAP1 PUSH2 0x100 EXP SWAP1 DIV PUSH20 0xFFFFFFFFFFFFFFFFFFFFFFFFFFFFFFFFFFFFFFFF AND PUSH20 0xFFFFFFFFFFFFFFFFFFFFFFFFFFFFFFFFFFFFFFFF AND CALLER PUSH20 0xFFFFFFFFFFFFFFFFFFFFFFFFFFFFFFFFFFFFFFFF AND EQ PUSH2 0xB56 JUMPI PUSH1 0x0 DUP1 REVERT JUMPDEST PUSH1 0x10 PUSH1 0x0 SWAP1 SLOAD SWAP1 PUSH2 0x100 EXP SWAP1 DIV PUSH1 0xFF AND ISZERO PUSH1 0x10 PUSH1 0x0 PUSH2 0x100 EXP DUP2 SLOAD DUP2 PUSH1 0xFF MUL NOT AND SWAP1 DUP4 ISZERO ISZERO MUL OR SWAP1 SSTORE POP JUMP JUMPDEST PUSH1 0x60 PUSH2 0xB8D DUP3 PUSH2 0x13FA JUMP JUMPDEST SWAP1 POP SWAP2 SWAP1 POP JUMP JUMPDEST PUSH2 0xBAF DUP4 DUP4 DUP4 PUSH1 0x40 MLOAD DUP1 PUSH1 0x20 ADD PUSH1 0x40 MSTORE DUP1 PUSH1 0x0 DUP2 MSTORE POP PUSH2 0x130A JUMP JUMPDEST POP POP POP JUMP JUMPDEST PUSH1 0x8 PUSH1 0x0 SWAP1 SLOAD SWAP1 PUSH2 0x100 EXP SWAP1 DIV PUSH20 0xFFFFFFFFFFFFFFFFFFFFFFFFFFFFFFFFFFFFFFFF AND PUSH20 0xFFFFFFFFFFFFFFFFFFFFFFFFFFFFFFFFFFFFFFFF AND CALLER PUSH20 0xFFFFFFFFFFFFFFFFFFFFFFFFFFFFFFFFFFFFFFFF AND EQ PUSH2 0xC0E JUMPI PUSH1 0x0 DUP1 REVERT JUMPDEST DUP1 PUSH1 0x13 SWAP1 DUP2 PUSH2 0xC1D SWAP2 SWAP1 PUSH2 0x340E JUMP JUMPDEST POP POP JUMP JUMPDEST PUSH1 0x10 PUSH1 0x0 SWAP1 SLOAD SWAP1 PUSH2 0x100 EXP SWAP1 DIV PUSH1 0xFF AND DUP2 JUMP JUMPDEST PUSH1 0x0 DUP1 PUSH2 0xC40 DUP4 PUSH2 0x1D04 JUMP JUMPDEST SWAP1 POP PUSH1 0x0 PUSH20 0xFFFFFFFFFFFFFFFFFFFFFFFFFFFFFFFFFFFFFFFF AND DUP2 PUSH20 0xFFFFFFFFFFFFFFFFFFFFFFFFFFFFFFFFFFFFFFFF AND SUB PUSH2 0xCB1 JUMPI PUSH1 0x40 MLOAD PUSH32 0x8C379A000000000000000000000000000000000000000000000000000000000 DUP2 MSTORE PUSH1 0x4 ADD PUSH2 0xCA8 SWAP1 PUSH2 0x352C JUMP JUMPDEST PUSH1 0x40 MLOAD DUP1 SWAP2 SUB SWAP1 REVERT JUMPDEST DUP1 SWAP2 POP POP SWAP2 SWAP1 POP JUMP JUMPDEST PUSH1 0x13 DUP1 SLOAD PUSH2 0xCC7 SWAP1 PUSH2 0x307B JUMP JUMPDEST DUP1 PUSH1 0x1F ADD PUSH1 0x20 DUP1 SWAP2 DIV MUL PUSH1 0x20 ADD PUSH1 0x40 MLOAD SWAP1 DUP2 ADD PUSH1 0x40 MSTORE DUP1 SWAP3 SWAP2 SWAP1 DUP2 DUP2 MSTORE PUSH1 0x20 ADD DUP3 DUP1 SLOAD PUSH2 0xCF3 SWAP1 PUSH2 0x307B JUMP JUMPDEST DUP1 ISZERO PUSH2 0xD40 JUMPI DUP1 PUSH1 0x1F LT PUSH2 0xD15 JUMPI PUSH2 0x100 DUP1 DUP4 SLOAD DIV MUL DUP4 MSTORE SWAP2 PUSH1 0x20 ADD SWAP2 PUSH2 0xD40 JUMP JUMPDEST DUP3 ADD SWAP2 SWAP1 PUSH1 0x0 MSTORE PUSH1 0x20 PUSH1 0x0 KECCAK256 SWAP1 JUMPDEST DUP2 SLOAD DUP2 MSTORE SWAP1 PUSH1 0x1 ADD SWAP1 PUSH1 0x20 ADD DUP1 DUP4 GT PUSH2 0xD23 JUMPI DUP3 SWAP1 SUB PUSH1 0x1F AND DUP3 ADD SWAP2 JUMPDEST POP POP POP POP POP DUP2 JUMP JUMPDEST PUSH1 0x0 DUP1 PUSH20 0xFFFFFFFFFFFFFFFFFFFFFFFFFFFFFFFFFFFFFFFF AND DUP3 PUSH20 0xFFFFFFFFFFFFFFFFFFFFFFFFFFFFFFFFFFFFFFFF AND SUB PUSH2 0xDB8 JUMPI PUSH1 0x40 MLOAD PUSH32 0x8C379A000000000000000000000000000000000000000000000000000000000 DUP2 MSTORE PUSH1 0x4 ADD PUSH2 0xDAF SWAP1 PUSH2 0x35BE JUMP JUMPDEST PUSH1 0x40 MLOAD DUP1 SWAP2 SUB SWAP1 REVERT JUMPDEST PUSH1 0x3 PUSH1 0x0 DUP4 PUSH20 0xFFFFFFFFFFFFFFFFFFFFFFFFFFFFFFFFFFFFFFFF AND PUSH20 0xFFFFFFFFFFFFFFFFFFFFFFFFFFFFFFFFFFFFFFFF AND DUP2 MSTORE PUSH1 0x20 ADD SWAP1 DUP2 MSTORE PUSH1 0x20 ADD PUSH1 0x0 KECCAK256 SLOAD SWAP1 POP SWAP2 SWAP1 POP JUMP JUMPDEST PUSH2 0xE07 PUSH2 0x1D41 JUMP JUMPDEST PUSH2 0xE11 PUSH1 0x0 PUSH2 0x1DBF JUMP JUMPDEST JUMP JUMPDEST PUSH1 0x8 PUSH1 0x0 SWAP1 SLOAD SWAP1 PUSH2 0x100 EXP SWAP1 DIV PUSH20 0xFFFFFFFFFFFFFFFFFFFFFFFFFFFFFFFFFFFFFFFF AND PUSH20 0xFFFFFFFFFFFFFFFFFFFFFFFFFFFFFFFFFFFFFFFF AND CALLER PUSH20 0xFFFFFFFFFFFFFFFFFFFFFFFFFFFFFFFFFFFFFFFF AND EQ PUSH2 0xE6D JUMPI PUSH1 0x0 DUP1 REVERT JUMPDEST PUSH1 0x0 SELFBALANCE SWAP1 POP PUSH1 0x0 CALLER PUSH20 0xFFFFFFFFFFFFFFFFFFFFFFFFFFFFFFFFFFFFFFFF AND DUP3 PUSH1 0x40 MLOAD PUSH2 0xE98 SWAP1 PUSH2 0x360F JUMP JUMPDEST PUSH1 0x0 PUSH1 0x40 MLOAD DUP1 DUP4 SUB DUP2 DUP6 DUP8 GAS CALL SWAP3 POP POP POP RETURNDATASIZE DUP1 PUSH1 0x0 DUP2 EQ PUSH2 0xED5 JUMPI PUSH1 0x40 MLOAD SWAP2 POP PUSH1 0x1F NOT PUSH1 0x3F RETURNDATASIZE ADD AND DUP3 ADD PUSH1 0x40 MSTORE RETURNDATASIZE DUP3 MSTORE RETURNDATASIZE PUSH1 0x0 PUSH1 0x20 DUP5 ADD RETURNDATACOPY PUSH2 0xEDA JUMP JUMPDEST PUSH1 0x60 SWAP2 POP JUMPDEST POP POP SWAP1 POP DUP1 PUSH2 0xEE8 JUMPI PUSH1 0x0 DUP1 REVERT JUMPDEST POP POP JUMP JUMPDEST PUSH1 0x0 PUSH1 0x7 PUSH1 0x0 SWAP1 SLOAD SWAP1 PUSH2 0x100 EXP SWAP1 DIV PUSH20 0xFFFFFFFFFFFFFFFFFFFFFFFFFFFFFFFFFFFFFFFF AND SWAP1 POP SWAP1 JUMP JUMPDEST PUSH1 0xC SLOAD DUP2 JUMP JUMPDEST PUSH1 0xE DUP1 SLOAD PUSH2 0xF29 SWAP1 PUSH2 0x307B JUMP JUMPDEST DUP1 PUSH1 0x1F ADD PUSH1 0x20 DUP1 SWAP2 DIV MUL PUSH1 0x20 ADD PUSH1 0x40 MLOAD SWAP1 DUP2 ADD PUSH1 0x40 MSTORE DUP1 SWAP3 SWAP2 SWAP1 DUP2 DUP2 MSTORE PUSH1 0x20 ADD DUP3 DUP1 SLOAD PUSH2 0xF55 SWAP1 PUSH2 0x307B JUMP JUMPDEST DUP1 ISZERO PUSH2 0xFA2 JUMPI DUP1 PUSH1 0x1F LT PUSH2 0xF77 JUMPI PUSH2 0x100 DUP1 DUP4 SLOAD DIV MUL DUP4 MSTORE SWAP2 PUSH1 0x20 ADD SWAP2 PUSH2 0xFA2 JUMP JUMPDEST DUP3 ADD SWAP2 SWAP1 PUSH1 0x0 MSTORE PUSH1 0x20 PUSH1 0x0 KECCAK256 SWAP1 JUMPDEST DUP2 SLOAD DUP2 MSTORE SWAP1 PUSH1 0x1 ADD SWAP1 PUSH1 0x20 ADD DUP1 DUP4 GT PUSH2 0xF85 JUMPI DUP3 SWAP1 SUB PUSH1 0x1F AND DUP3 ADD SWAP2 JUMPDEST POP POP POP POP POP DUP2 JUMP JUMPDEST PUSH1 0x60 PUSH1 0x1 DUP1 SLOAD PUSH2 0xFB9 SWAP1 PUSH2 0x307B JUMP JUMPDEST DUP1 PUSH1 0x1F ADD PUSH1 0x20 DUP1 SWAP2 DIV MUL PUSH1 0x20 ADD PUSH1 0x40 MLOAD SWAP1 DUP2 ADD PUSH1 0x40 MSTORE DUP1 SWAP3 SWAP2 SWAP1 DUP2 DUP2 MSTORE PUSH1 0x20 ADD DUP3 DUP1 SLOAD PUSH2 0xFE5 SWAP1 PUSH2 0x307B JUMP JUMPDEST DUP1 ISZERO PUSH2 0x1032 JUMPI DUP1 PUSH1 0x1F LT PUSH2 0x1007 JUMPI PUSH2 0x100 DUP1 DUP4 SLOAD DIV MUL DUP4 MSTORE SWAP2 PUSH1 0x20 ADD SWAP2 PUSH2 0x1032 JUMP JUMPDEST DUP3 ADD SWAP2 SWAP1 PUSH1 0x0 MSTORE PUSH1 0x20 PUSH1 0x0 KECCAK256 SWAP1 JUMPDEST DUP2 SLOAD DUP2 MSTORE SWAP1 PUSH1 0x1 ADD SWAP1 PUSH1 0x20 ADD DUP1 DUP4 GT PUSH2 0x1015 JUMPI DUP3 SWAP1 SUB PUSH1 0x1F AND DUP3 ADD SWAP2 JUMPDEST POP POP POP POP POP SWAP1 POP SWAP1 JUMP JUMPDEST PUSH1 0xB SLOAD DUP2 JUMP JUMPDEST PUSH1 0x10 PUSH1 0x0 SWAP1 SLOAD SWAP1 PUSH2 0x100 EXP SWAP1 DIV PUSH1 0xFF AND PUSH2 0x1091 JUMPI PUSH1 0x40 MLOAD PUSH32 0x8C379A000000000000000000000000000000000000000000000000000000000 DUP2 MSTORE PUSH1 0x4 ADD PUSH2 0x1088 SWAP1 PUSH2 0x3670 JUMP JUMPDEST PUSH1 0x40 MLOAD DUP1 SWAP2 SUB SWAP1 REVERT JUMPDEST PUSH1 0xC SLOAD DUP2 GT ISZERO PUSH2 0x10D6 JUMPI PUSH1 0x40 MLOAD PUSH32 0x8C379A000000000000000000000000000000000000000000000000000000000 DUP2 MSTORE PUSH1 0x4 ADD PUSH2 0x10CD SWAP1 PUSH2 0x36DC JUMP JUMPDEST PUSH1 0x40 MLOAD DUP1 SWAP2 SUB SWAP1 REVERT JUMPDEST PUSH1 0xD SLOAD DUP2 PUSH1 0x12 PUSH1 0x0 CALLER PUSH20 0xFFFFFFFFFFFFFFFFFFFFFFFFFFFFFFFFFFFFFFFF AND PUSH20 0xFFFFFFFFFFFFFFFFFFFFFFFFFFFFFFFFFFFFFFFF AND DUP2 MSTORE PUSH1 0x20 ADD SWAP1 DUP2 MSTORE PUSH1 0x20 ADD PUSH1 0x0 KECCAK256 SLOAD PUSH2 0x1124 SWAP2 SWAP1 PUSH2 0x372B JUMP JUMPDEST GT ISZERO PUSH2 0x112F JUMPI PUSH1 0x0 DUP1 REVERT JUMPDEST PUSH1 0x0 PUSH1 0x11 SLOAD SWAP1 POP PUSH1 0x9 SLOAD DUP3 DUP3 PUSH2 0x1145 SWAP2 SWAP1 PUSH2 0x372B JUMP JUMPDEST GT ISZERO PUSH2 0x1150 JUMPI PUSH1 0x0 DUP1 REVERT JUMPDEST CALLVALUE PUSH1 0xB SLOAD DUP4 PUSH2 0x115F SWAP2 SWAP1 PUSH2 0x375F JUMP JUMPDEST GT ISZERO PUSH2 0x11A0 JUMPI PUSH1 0x40 MLOAD PUSH32 0x8C379A000000000000000000000000000000000000000000000000000000000 DUP2 MSTORE PUSH1 0x4 ADD PUSH2 0x1197 SWAP1 PUSH2 0x37ED JUMP JUMPDEST PUSH1 0x40 MLOAD DUP1 SWAP2 SUB SWAP1 REVERT JUMPDEST PUSH1 0x0 PUSH1 0x1 SWAP1 POP JUMPDEST DUP3 DUP2 GT PUSH2 0x11EC JUMPI PUSH1 0x0 DUP2 DUP4 PUSH2 0x11BC SWAP2 SWAP1 PUSH2 0x372B JUMP JUMPDEST SWAP1 POP PUSH2 0x11C8 CALLER DUP3 PUSH2 0x1E85 JUMP JUMPDEST PUSH2 0x11DA DUP2 PUSH2 0x11D5 DUP4 PUSH2 0x13FA JUMP JUMPDEST PUSH2 0x1EA3 JUMP JUMPDEST POP DUP1 PUSH2 0x11E5 SWAP1 PUSH2 0x380D JUMP JUMPDEST SWAP1 POP PUSH2 0x11A7 JUMP JUMPDEST POP DUP2 PUSH1 0x12 PUSH1 0x0 CALLER PUSH20 0xFFFFFFFFFFFFFFFFFFFFFFFFFFFFFFFFFFFFFFFF AND PUSH20 0xFFFFFFFFFFFFFFFFFFFFFFFFFFFFFFFFFFFFFFFF AND DUP2 MSTORE PUSH1 0x20 ADD SWAP1 DUP2 MSTORE PUSH1 0x20 ADD PUSH1 0x0 KECCAK256 PUSH1 0x0 DUP3 DUP3 SLOAD PUSH2 0x123C SWAP2 SWAP1 PUSH2 0x372B JUMP JUMPDEST SWAP3 POP POP DUP2 SWAP1 SSTORE POP DUP2 PUSH1 0x11 PUSH1 0x0 DUP3 DUP3 SLOAD PUSH2 0x1255 SWAP2 SWAP1 PUSH2 0x372B JUMP JUMPDEST SWAP3 POP POP DUP2 SWAP1 SSTORE POP POP POP JUMP JUMPDEST PUSH2 0x1272 PUSH2 0x126B PUSH2 0x18B5 JUMP JUMPDEST DUP4 DUP4 PUSH2 0x1F10 JUMP JUMPDEST POP POP JUMP JUMPDEST PUSH1 0xF DUP1 SLOAD PUSH2 0x1283 SWAP1 PUSH2 0x307B JUMP JUMPDEST DUP1 PUSH1 0x1F ADD PUSH1 0x20 DUP1 SWAP2 DIV MUL PUSH1 0x20 ADD PUSH1 0x40 MLOAD SWAP1 DUP2 ADD PUSH1 0x40 MSTORE DUP1 SWAP3 SWAP2 SWAP1 DUP2 DUP2 MSTORE PUSH1 0x20 ADD DUP3 DUP1 SLOAD PUSH2 0x12AF SWAP1 PUSH2 0x307B JUMP JUMPDEST DUP1 ISZERO PUSH2 0x12FC JUMPI DUP1 PUSH1 0x1F LT PUSH2 0x12D1 JUMPI PUSH2 0x100 DUP1 DUP4 SLOAD DIV MUL DUP4 MSTORE SWAP2 PUSH1 0x20 ADD SWAP2 PUSH2 0x12FC JUMP JUMPDEST DUP3 ADD SWAP2 SWAP1 PUSH1 0x0 MSTORE PUSH1 0x20 PUSH1 0x0 KECCAK256 SWAP1 JUMPDEST DUP2 SLOAD DUP2 MSTORE SWAP1 PUSH1 0x1 ADD SWAP1 PUSH1 0x20 ADD DUP1 DUP4 GT PUSH2 0x12DF JUMPI DUP3 SWAP1 SUB PUSH1 0x1F AND DUP3 ADD SWAP2 JUMPDEST POP POP POP POP POP DUP2 JUMP JUMPDEST PUSH1 0xD SLOAD DUP2 JUMP JUMPDEST PUSH2 0x131B PUSH2 0x1315 PUSH2 0x18B5 JUMP JUMPDEST DUP4 PUSH2 0x1976 JUMP JUMPDEST PUSH2 0x135A JUMPI PUSH1 0x40 MLOAD PUSH32 0x8C379A000000000000000000000000000000000000000000000000000000000 DUP2 MSTORE PUSH1 0x4 ADD PUSH2 0x1351 SWAP1 PUSH2 0x3242 JUMP JUMPDEST PUSH1 0x40 MLOAD DUP1 SWAP2 SUB SWAP1 REVERT JUMPDEST PUSH2 0x1366 DUP5 DUP5 DUP5 DUP5 PUSH2 0x207C JUMP JUMPDEST POP POP POP POP JUMP JUMPDEST PUSH1 0x14 DUP1 SLOAD PUSH2 0x1379 SWAP1 PUSH2 0x307B JUMP JUMPDEST DUP1 PUSH1 0x1F ADD PUSH1 0x20 DUP1 SWAP2 DIV MUL PUSH1 0x20 ADD PUSH1 0x40 MLOAD SWAP1 DUP2 ADD PUSH1 0x40 MSTORE DUP1 SWAP3 SWAP2 SWAP1 DUP2 DUP2 MSTORE PUSH1 0x20 ADD DUP3 DUP1 SLOAD PUSH2 0x13A5 SWAP1 PUSH2 0x307B JUMP JUMPDEST DUP1 ISZERO PUSH2 0x13F2 JUMPI DUP1 PUSH1 0x1F LT PUSH2 0x13C7 JUMPI PUSH2 0x100 DUP1 DUP4 SLOAD DIV MUL DUP4 MSTORE SWAP2 PUSH1 0x20 ADD SWAP2 PUSH2 0x13F2 JUMP JUMPDEST DUP3 ADD SWAP2 SWAP1 PUSH1 0x0 MSTORE PUSH1 0x20 PUSH1 0x0 KECCAK256 SWAP1 JUMPDEST DUP2 SLOAD DUP2 MSTORE SWAP1 PUSH1 0x1 ADD SWAP1 PUSH1 0x20 ADD DUP1 DUP4 GT PUSH2 0x13D5 JUMPI DUP3 SWAP1 SUB PUSH1 0x1F AND DUP3 ADD SWAP2 JUMPDEST POP POP POP POP POP DUP2 JUMP JUMPDEST PUSH1 0x60 PUSH2 0x1405 DUP3 PUSH2 0x20D8 JUMP JUMPDEST PUSH2 0x1444 JUMPI PUSH1 0x40 MLOAD PUSH32 0x8C379A000000000000000000000000000000000000000000000000000000000 DUP2 MSTORE PUSH1 0x4 ADD PUSH2 0x143B SWAP1 PUSH2 0x38A1 JUMP JUMPDEST PUSH1 0x40 MLOAD DUP1 SWAP2 SUB SWAP1 REVERT JUMPDEST PUSH1 0x0 PUSH2 0x144E PUSH2 0x2119 JUMP JUMPDEST SWAP1 POP PUSH1 0x0 DUP2 MLOAD GT PUSH2 0x146E JUMPI PUSH1 0x40 MLOAD DUP1 PUSH1 0x20 ADD PUSH1 0x40 MSTORE DUP1 PUSH1 0x0 DUP2 MSTORE POP PUSH2 0x149C JUMP JUMPDEST DUP1 PUSH2 0x1478 DUP5 PUSH2 0x21AB JUMP JUMPDEST PUSH1 0x14 PUSH1 0x40 MLOAD PUSH1 0x20 ADD PUSH2 0x148C SWAP4 SWAP3 SWAP2 SWAP1 PUSH2 0x3980 JUMP JUMPDEST PUSH1 0x40 MLOAD PUSH1 0x20 DUP2 DUP4 SUB SUB DUP2 MSTORE SWAP1 PUSH1 0x40 MSTORE JUMPDEST SWAP2 POP POP SWAP2 SWAP1 POP JUMP JUMPDEST PUSH1 0x0 DUP1 PUSH1 0x0 DUP1 PUSH1 0x0 PUSH1 0x60 DUP1 PUSH1 0x60 PUSH1 0x0 DUP1 PUSH1 0x8 PUSH1 0x0 SWAP1 SLOAD SWAP1 PUSH2 0x100 EXP SWAP1 DIV PUSH20 0xFFFFFFFFFFFFFFFFFFFFFFFFFFFFFFFFFFFFFFFF AND PUSH1 0x9 SLOAD PUSH1 0xB SLOAD PUSH1 0xC SLOAD PUSH1 0xD SLOAD PUSH1 0xE PUSH1 0xF PUSH1 0x13 PUSH1 0x10 PUSH1 0x0 SWAP1 SLOAD SWAP1 PUSH2 0x100 EXP SWAP1 DIV PUSH1 0xFF AND PUSH1 0x11 SLOAD DUP5 DUP1 SLOAD PUSH2 0x1508 SWAP1 PUSH2 0x307B JUMP JUMPDEST DUP1 PUSH1 0x1F ADD PUSH1 0x20 DUP1 SWAP2 DIV MUL PUSH1 0x20 ADD PUSH1 0x40 MLOAD SWAP1 DUP2 ADD PUSH1 0x40 MSTORE DUP1 SWAP3 SWAP2 SWAP1 DUP2 DUP2 MSTORE PUSH1 0x20 ADD DUP3 DUP1 SLOAD PUSH2 0x1534 SWAP1 PUSH2 0x307B JUMP JUMPDEST DUP1 ISZERO PUSH2 0x1581 JUMPI DUP1 PUSH1 0x1F LT PUSH2 0x1556 JUMPI PUSH2 0x100 DUP1 DUP4 SLOAD DIV MUL DUP4 MSTORE SWAP2 PUSH1 0x20 ADD SWAP2 PUSH2 0x1581 JUMP JUMPDEST DUP3 ADD SWAP2 SWAP1 PUSH1 0x0 MSTORE PUSH1 0x20 PUSH1 0x0 KECCAK256 SWAP1 JUMPDEST DUP2 SLOAD DUP2 MSTORE SWAP1 PUSH1 0x1 ADD SWAP1 PUSH1 0x20 ADD DUP1 DUP4 GT PUSH2 0x1564 JUMPI DUP3 SWAP1 SUB PUSH1 0x1F AND DUP3 ADD SWAP2 JUMPDEST POP POP POP POP POP SWAP5 POP DUP4 DUP1 SLOAD PUSH2 0x1594 SWAP1 PUSH2 0x307B JUMP JUMPDEST DUP1 PUSH1 0x1F ADD PUSH1 0x20 DUP1 SWAP2 DIV MUL PUSH1 0x20 ADD PUSH1 0x40 MLOAD SWAP1 DUP2 ADD PUSH1 0x40 MSTORE DUP1 SWAP3 SWAP2 SWAP1 DUP2 DUP2 MSTORE PUSH1 0x20 ADD DUP3 DUP1 SLOAD PUSH2 0x15C0 SWAP1 PUSH2 0x307B JUMP JUMPDEST DUP1 ISZERO PUSH2 0x160D JUMPI DUP1 PUSH1 0x1F LT PUSH2 0x15E2 JUMPI PUSH2 0x100 DUP1 DUP4 SLOAD DIV MUL DUP4 MSTORE SWAP2 PUSH1 0x20 ADD SWAP2 PUSH2 0x160D JUMP JUMPDEST DUP3 ADD SWAP2 SWAP1 PUSH1 0x0 MSTORE PUSH1 0x20 PUSH1 0x0 KECCAK256 SWAP1 JUMPDEST DUP2 SLOAD DUP2 MSTORE SWAP1 PUSH1 0x1 ADD SWAP1 PUSH1 0x20 ADD DUP1 DUP4 GT PUSH2 0x15F0 JUMPI DUP3 SWAP1 SUB PUSH1 0x1F AND DUP3 ADD SWAP2 JUMPDEST POP POP POP POP POP SWAP4 POP DUP3 DUP1 SLOAD PUSH2 0x1620 SWAP1 PUSH2 0x307B JUMP JUMPDEST DUP1 PUSH1 0x1F ADD PUSH1 0x20 DUP1 SWAP2 DIV MUL PUSH1 0x20 ADD PUSH1 0x40 MLOAD SWAP1 DUP2 ADD PUSH1 0x40 MSTORE DUP1 SWAP3 SWAP2 SWAP1 DUP2 DUP2 MSTORE PUSH1 0x20 ADD DUP3 DUP1 SLOAD PUSH2 0x164C SWAP1 PUSH2 0x307B JUMP JUMPDEST DUP1 ISZERO PUSH2 0x1699 JUMPI DUP1 PUSH1 0x1F LT PUSH2 0x166E JUMPI PUSH2 0x100 DUP1 DUP4 SLOAD DIV MUL DUP4 MSTORE SWAP2 PUSH1 0x20 ADD SWAP2 PUSH2 0x1699 JUMP JUMPDEST DUP3 ADD SWAP2 SWAP1 PUSH1 0x0 MSTORE PUSH1 0x20 PUSH1 0x0 KECCAK256 SWAP1 JUMPDEST DUP2 SLOAD DUP2 MSTORE SWAP1 PUSH1 0x1 ADD SWAP1 PUSH1 0x20 ADD DUP1 DUP4 GT PUSH2 0x167C JUMPI DUP3 SWAP1 SUB PUSH1 0x1F AND DUP3 ADD SWAP2 JUMPDEST POP POP POP POP POP SWAP3 POP SWAP10 POP SWAP10 POP SWAP10 POP SWAP10 POP SWAP10 POP SWAP10 POP SWAP10 POP SWAP10 POP SWAP10 POP SWAP10 POP SWAP1 SWAP2 SWAP3 SWAP4 SWAP5 SWAP6 SWAP7 SWAP8 SWAP9 SWAP10 JUMP JUMPDEST PUSH1 0x0 PUSH1 0x5 PUSH1 0x0 DUP5 PUSH20 0xFFFFFFFFFFFFFFFFFFFFFFFFFFFFFFFFFFFFFFFF AND PUSH20 0xFFFFFFFFFFFFFFFFFFFFFFFFFFFFFFFFFFFFFFFF AND DUP2 MSTORE PUSH1 0x20 ADD SWAP1 DUP2 MSTORE PUSH1 0x20 ADD PUSH1 0x0 KECCAK256 PUSH1 0x0 DUP4 PUSH20 0xFFFFFFFFFFFFFFFFFFFFFFFFFFFFFFFFFFFFFFFF AND PUSH20 0xFFFFFFFFFFFFFFFFFFFFFFFFFFFFFFFFFFFFFFFF AND DUP2 MSTORE PUSH1 0x20 ADD SWAP1 DUP2 MSTORE PUSH1 0x20 ADD PUSH1 0x0 KECCAK256 PUSH1 0x0 SWAP1 SLOAD SWAP1 PUSH2 0x100 EXP SWAP1 DIV PUSH1 0xFF AND SWAP1 POP SWAP3 SWAP2 POP POP JUMP JUMPDEST PUSH2 0x175C PUSH2 0x1D41 JUMP JUMPDEST PUSH1 0x0 PUSH20 0xFFFFFFFFFFFFFFFFFFFFFFFFFFFFFFFFFFFFFFFF AND DUP2 PUSH20 0xFFFFFFFFFFFFFFFFFFFFFFFFFFFFFFFFFFFFFFFF AND SUB PUSH2 0x17CB JUMPI PUSH1 0x40 MLOAD PUSH32 0x8C379A000000000000000000000000000000000000000000000000000000000 DUP2 MSTORE PUSH1 0x4 ADD PUSH2 0x17C2 SWAP1 PUSH2 0x3A23 JUMP JUMPDEST PUSH1 0x40 MLOAD DUP1 SWAP2 SUB SWAP1 REVERT JUMPDEST PUSH2 0x17D4 DUP2 PUSH2 0x1DBF JUMP JUMPDEST POP JUMP JUMPDEST PUSH1 0x9 SLOAD DUP2 JUMP JUMPDEST PUSH1 0x0 DUP1 DUP3 PUSH20 0xFFFFFFFFFFFFFFFFFFFFFFFFFFFFFFFFFFFFFFFF AND EXTCODESIZE GT SWAP1 POP SWAP2 SWAP1 POP JUMP JUMPDEST PUSH1 0x0 PUSH32 0x1FFC9A700000000000000000000000000000000000000000000000000000000 PUSH28 0xFFFFFFFFFFFFFFFFFFFFFFFFFFFFFFFFFFFFFFFFFFFFFFFFFFFFFFFF NOT AND DUP3 PUSH28 0xFFFFFFFFFFFFFFFFFFFFFFFFFFFFFFFFFFFFFFFFFFFFFFFFFFFFFFFF NOT AND EQ SWAP1 POP SWAP2 SWAP1 POP JUMP JUMPDEST PUSH2 0x1873 DUP2 PUSH2 0x20D8 JUMP JUMPDEST PUSH2 0x18B2 JUMPI PUSH1 0x40 MLOAD PUSH32 0x8C379A000000000000000000000000000000000000000000000000000000000 DUP2 MSTORE PUSH1 0x4 ADD PUSH2 0x18A9 SWAP1 PUSH2 0x352C JUMP JUMPDEST PUSH1 0x40 MLOAD DUP1 SWAP2 SUB SWAP1 REVERT JUMPDEST POP JUMP JUMPDEST PUSH1 0x0 CALLER SWAP1 POP SWAP1 JUMP JUMPDEST DUP2 PUSH1 0x4 PUSH1 0x0 DUP4 DUP2 MSTORE PUSH1 0x20 ADD SWAP1 DUP2 MSTORE PUSH1 0x20 ADD PUSH1 0x0 KECCAK256 PUSH1 0x0 PUSH2 0x100 EXP DUP2 SLOAD DUP2 PUSH20 0xFFFFFFFFFFFFFFFFFFFFFFFFFFFFFFFFFFFFFFFF MUL NOT AND SWAP1 DUP4 PUSH20 0xFFFFFFFFFFFFFFFFFFFFFFFFFFFFFFFFFFFFFFFF AND MUL OR SWAP1 SSTORE POP DUP1 DUP3 PUSH20 0xFFFFFFFFFFFFFFFFFFFFFFFFFFFFFFFFFFFFFFFF AND PUSH2 0x1930 DUP4 PUSH2 0xC34 JUMP JUMPDEST PUSH20 0xFFFFFFFFFFFFFFFFFFFFFFFFFFFFFFFFFFFFFFFF AND PUSH32 0x8C5BE1E5EBEC7D5BD14F71427D1E84F3DD0314C0F7B2291E5B200AC8C7C3B925 PUSH1 0x40 MLOAD PUSH1 0x40 MLOAD DUP1 SWAP2 SUB SWAP1 LOG4 POP POP JUMP JUMPDEST PUSH1 0x0 DUP1 PUSH2 0x1982 DUP4 PUSH2 0xC34 JUMP JUMPDEST SWAP1 POP DUP1 PUSH20 0xFFFFFFFFFFFFFFFFFFFFFFFFFFFFFFFFFFFFFFFF AND DUP5 PUSH20 0xFFFFFFFFFFFFFFFFFFFFFFFFFFFFFFFFFFFFFFFF AND EQ DUP1 PUSH2 0x19C4 JUMPI POP PUSH2 0x19C3 DUP2 DUP6 PUSH2 0x16C0 JUMP JUMPDEST JUMPDEST DUP1 PUSH2 0x1A02 JUMPI POP DUP4 PUSH20 0xFFFFFFFFFFFFFFFFFFFFFFFFFFFFFFFFFFFFFFFF AND PUSH2 0x19EA DUP5 PUSH2 0x913 JUMP JUMPDEST PUSH20 0xFFFFFFFFFFFFFFFFFFFFFFFFFFFFFFFFFFFFFFFF AND EQ JUMPDEST SWAP2 POP POP SWAP3 SWAP2 POP POP JUMP JUMPDEST DUP3 PUSH20 0xFFFFFFFFFFFFFFFFFFFFFFFFFFFFFFFFFFFFFFFF AND PUSH2 0x1A2B DUP3 PUSH2 0xC34 JUMP JUMPDEST PUSH20 0xFFFFFFFFFFFFFFFFFFFFFFFFFFFFFFFFFFFFFFFF AND EQ PUSH2 0x1A81 JUMPI PUSH1 0x40 MLOAD PUSH32 0x8C379A000000000000000000000000000000000000000000000000000000000 DUP2 MSTORE PUSH1 0x4 ADD PUSH2 0x1A78 SWAP1 PUSH2 0x3AB5 JUMP JUMPDEST PUSH1 0x40 MLOAD DUP1 SWAP2 SUB SWAP1 REVERT JUMPDEST PUSH1 0x0 PUSH20 0xFFFFFFFFFFFFFFFFFFFFFFFFFFFFFFFFFFFFFFFF AND DUP3 PUSH20 0xFFFFFFFFFFFFFFFFFFFFFFFFFFFFFFFFFFFFFFFF AND SUB PUSH2 0x1AF0 JUMPI PUSH1 0x40 MLOAD PUSH32 0x8C379A000000000000000000000000000000000000000000000000000000000 DUP2 MSTORE PUSH1 0x4 ADD PUSH2 0x1AE7 SWAP1 PUSH2 0x3B47 JUMP JUMPDEST PUSH1 0x40 MLOAD DUP1 SWAP2 SUB SWAP1 REVERT JUMPDEST PUSH2 0x1AFD DUP4 DUP4 DUP4 PUSH1 0x1 PUSH2 0x2279 JUMP JUMPDEST DUP3 PUSH20 0xFFFFFFFFFFFFFFFFFFFFFFFFFFFFFFFFFFFFFFFF AND PUSH2 0x1B1D DUP3 PUSH2 0xC34 JUMP JUMPDEST PUSH20 0xFFFFFFFFFFFFFFFFFFFFFFFFFFFFFFFFFFFFFFFF AND EQ PUSH2 0x1B73 JUMPI PUSH1 0x40 MLOAD PUSH32 0x8C379A000000000000000000000000000000000000000000000000000000000 DUP2 MSTORE PUSH1 0x4 ADD PUSH2 0x1B6A SWAP1 PUSH2 0x3AB5 JUMP JUMPDEST PUSH1 0x40 MLOAD DUP1 SWAP2 SUB SWAP1 REVERT JUMPDEST PUSH1 0x4 PUSH1 0x0 DUP3 DUP2 MSTORE PUSH1 0x20 ADD SWAP1 DUP2 MSTORE PUSH1 0x20 ADD PUSH1 0x0 KECCAK256 PUSH1 0x0 PUSH2 0x100 EXP DUP2 SLOAD SWAP1 PUSH20 0xFFFFFFFFFFFFFFFFFFFFFFFFFFFFFFFFFFFFFFFF MUL NOT AND SWAP1 SSTORE PUSH1 0x1 PUSH1 0x3 PUSH1 0x0 DUP6 PUSH20 0xFFFFFFFFFFFFFFFFFFFFFFFFFFFFFFFFFFFFFFFF AND PUSH20 0xFFFFFFFFFFFFFFFFFFFFFFFFFFFFFFFFFFFFFFFF AND DUP2 MSTORE PUSH1 0x20 ADD SWAP1 DUP2 MSTORE PUSH1 0x20 ADD PUSH1 0x0 KECCAK256 PUSH1 0x0 DUP3 DUP3 SLOAD SUB SWAP3 POP POP DUP2 SWAP1 SSTORE POP PUSH1 0x1 PUSH1 0x3 PUSH1 0x0 DUP5 PUSH20 0xFFFFFFFFFFFFFFFFFFFFFFFFFFFFFFFFFFFFFFFF AND PUSH20 0xFFFFFFFFFFFFFFFFFFFFFFFFFFFFFFFFFFFFFFFF AND DUP2 MSTORE PUSH1 0x20 ADD SWAP1 DUP2 MSTORE PUSH1 0x20 ADD PUSH1 0x0 KECCAK256 PUSH1 0x0 DUP3 DUP3 SLOAD ADD SWAP3 POP POP DUP2 SWAP1 SSTORE POP DUP2 PUSH1 0x2 PUSH1 0x0 DUP4 DUP2 MSTORE PUSH1 0x20 ADD SWAP1 DUP2 MSTORE PUSH1 0x20 ADD PUSH1 0x0 KECCAK256 PUSH1 0x0 PUSH2 0x100 EXP DUP2 SLOAD DUP2 PUSH20 0xFFFFFFFFFFFFFFFFFFFFFFFFFFFFFFFFFFFFFFFF MUL NOT AND SWAP1 DUP4 PUSH20 0xFFFFFFFFFFFFFFFFFFFFFFFFFFFFFFFFFFFFFFFF AND MUL OR SWAP1 SSTORE POP DUP1 DUP3 PUSH20 0xFFFFFFFFFFFFFFFFFFFFFFFFFFFFFFFFFFFFFFFF AND DUP5 PUSH20 0xFFFFFFFFFFFFFFFFFFFFFFFFFFFFFFFFFFFFFFFF AND PUSH32 0xDDF252AD1BE2C89B69C2B068FC378DAA952BA7F163C4A11628F55A4DF523B3EF PUSH1 0x40 MLOAD PUSH1 0x40 MLOAD DUP1 SWAP2 SUB SWAP1 LOG4 PUSH2 0x1CFF DUP4 DUP4 DUP4 PUSH1 0x1 PUSH2 0x239F JUMP JUMPDEST POP POP POP JUMP JUMPDEST PUSH1 0x0 PUSH1 0x2 PUSH1 0x0 DUP4 DUP2 MSTORE PUSH1 0x20 ADD SWAP1 DUP2 MSTORE PUSH1 0x20 ADD PUSH1 0x0 KECCAK256 PUSH1 0x0 SWAP1 SLOAD SWAP1 PUSH2 0x100 EXP SWAP1 DIV PUSH20 0xFFFFFFFFFFFFFFFFFFFFFFFFFFFFFFFFFFFFFFFF AND SWAP1 POP SWAP2 SWAP1 POP JUMP JUMPDEST PUSH2 0x1D49 PUSH2 0x18B5 JUMP JUMPDEST PUSH20 0xFFFFFFFFFFFFFFFFFFFFFFFFFFFFFFFFFFFFFFFF AND PUSH2 0x1D67 PUSH2 0xEEC JUMP JUMPDEST PUSH20 0xFFFFFFFFFFFFFFFFFFFFFFFFFFFFFFFFFFFFFFFF AND EQ PUSH2 0x1DBD JUMPI PUSH1 0x40 MLOAD PUSH32 0x8C379A000000000000000000000000000000000000000000000000000000000 DUP2 MSTORE PUSH1 0x4 ADD PUSH2 0x1DB4 SWAP1 PUSH2 0x3BB3 JUMP JUMPDEST PUSH1 0x40 MLOAD DUP1 SWAP2 SUB SWAP1 REVERT JUMPDEST JUMP JUMPDEST PUSH1 0x0 PUSH1 0x7 PUSH1 0x0 SWAP1 SLOAD SWAP1 PUSH2 0x100 EXP SWAP1 DIV PUSH20 0xFFFFFFFFFFFFFFFFFFFFFFFFFFFFFFFFFFFFFFFF AND SWAP1 POP DUP2 PUSH1 0x7 PUSH1 0x0 PUSH2 0x100 EXP DUP2 SLOAD DUP2 PUSH20 0xFFFFFFFFFFFFFFFFFFFFFFFFFFFFFFFFFFFFFFFF MUL NOT AND SWAP1 DUP4 PUSH20 0xFFFFFFFFFFFFFFFFFFFFFFFFFFFFFFFFFFFFFFFF AND MUL OR SWAP1 SSTORE POP DUP2 PUSH20 0xFFFFFFFFFFFFFFFFFFFFFFFFFFFFFFFFFFFFFFFF AND DUP2 PUSH20 0xFFFFFFFFFFFFFFFFFFFFFFFFFFFFFFFFFFFFFFFF AND PUSH32 0x8BE0079C531659141344CD1FD0A4F28419497F9722A3DAAFE3B4186F6B6457E0 PUSH1 0x40 MLOAD PUSH1 0x40 MLOAD DUP1 SWAP2 SUB SWAP1 LOG3 POP POP JUMP JUMPDEST PUSH2 0x1E9F DUP3 DUP3 PUSH1 0x40 MLOAD DUP1 PUSH1 0x20 ADD PUSH1 0x40 MSTORE DUP1 PUSH1 0x0 DUP2 MSTORE POP PUSH2 0x23A5 JUMP JUMPDEST POP POP JUMP JUMPDEST PUSH2 0x1EAC DUP3 PUSH2 0x20D8 JUMP JUMPDEST PUSH2 0x1EEB JUMPI PUSH1 0x40 MLOAD PUSH32 0x8C379A000000000000000000000000000000000000000000000000000000000 DUP2 MSTORE PUSH1 0x4 ADD PUSH2 0x1EE2 SWAP1 PUSH2 0x3C45 JUMP JUMPDEST PUSH1 0x40 MLOAD DUP1 SWAP2 SUB SWAP1 REVERT JUMPDEST DUP1 PUSH1 0x6 PUSH1 0x0 DUP5 DUP2 MSTORE PUSH1 0x20 ADD SWAP1 DUP2 MSTORE PUSH1 0x20 ADD PUSH1 0x0 KECCAK256 SWAP1 DUP2 PUSH2 0x1F0B SWAP2 SWAP1 PUSH2 0x340E JUMP JUMPDEST POP POP POP JUMP JUMPDEST DUP2 PUSH20 0xFFFFFFFFFFFFFFFFFFFFFFFFFFFFFFFFFFFFFFFF AND DUP4 PUSH20 0xFFFFFFFFFFFFFFFFFFFFFFFFFFFFFFFFFFFFFFFF AND SUB PUSH2 0x1F7E JUMPI PUSH1 0x40 MLOAD PUSH32 0x8C379A000000000000000000000000000000000000000000000000000000000 DUP2 MSTORE PUSH1 0x4 ADD PUSH2 0x1F75 SWAP1 PUSH2 0x3CB1 JUMP JUMPDEST PUSH1 0x40 MLOAD DUP1 SWAP2 SUB SWAP1 REVERT JUMPDEST DUP1 PUSH1 0x5 PUSH1 0x0 DUP6 PUSH20 0xFFFFFFFFFFFFFFFFFFFFFFFFFFFFFFFFFFFFFFFF AND PUSH20 0xFFFFFFFFFFFFFFFFFFFFFFFFFFFFFFFFFFFFFFFF AND DUP2 MSTORE PUSH1 0x20 ADD SWAP1 DUP2 MSTORE PUSH1 0x20 ADD PUSH1 0x0 KECCAK256 PUSH1 0x0 DUP5 PUSH20 0xFFFFFFFFFFFFFFFFFFFFFFFFFFFFFFFFFFFFFFFF AND PUSH20 0xFFFFFFFFFFFFFFFFFFFFFFFFFFFFFFFFFFFFFFFF AND DUP2 MSTORE PUSH1 0x20 ADD SWAP1 DUP2 MSTORE PUSH1 0x20 ADD PUSH1 0x0 KECCAK256 PUSH1 0x0 PUSH2 0x100 EXP DUP2 SLOAD DUP2 PUSH1 0xFF MUL NOT AND SWAP1 DUP4 ISZERO ISZERO MUL OR SWAP1 SSTORE POP DUP2 PUSH20 0xFFFFFFFFFFFFFFFFFFFFFFFFFFFFFFFFFFFFFFFF AND DUP4 PUSH20 0xFFFFFFFFFFFFFFFFFFFFFFFFFFFFFFFFFFFFFFFF AND PUSH32 0x17307EAB39AB6107E8899845AD3D59BD9653F200F220920489CA2B5937696C31 DUP4 PUSH1 0x40 MLOAD PUSH2 0x206F SWAP2 SWAP1 PUSH2 0x29AB JUMP JUMPDEST PUSH1 0x40 MLOAD DUP1 SWAP2 SUB SWAP1 LOG3 POP POP POP JUMP JUMPDEST PUSH2 0x2087 DUP5 DUP5 DUP5 PUSH2 0x1A0B JUMP JUMPDEST PUSH2 0x2093 DUP5 DUP5 DUP5 DUP5 PUSH2 0x2400 JUMP JUMPDEST PUSH2 0x20D2 JUMPI PUSH1 0x40 MLOAD PUSH32 0x8C379A000000000000000000000000000000000000000000000000000000000 DUP2 MSTORE PUSH1 0x4 ADD PUSH2 0x20C9 SWAP1 PUSH2 0x3D43 JUMP JUMPDEST PUSH1 0x40 MLOAD DUP1 SWAP2 SUB SWAP1 REVERT JUMPDEST POP POP POP POP JUMP JUMPDEST PUSH1 0x0 DUP1 PUSH20 0xFFFFFFFFFFFFFFFFFFFFFFFFFFFFFFFFFFFFFFFF AND PUSH2 0x20FA DUP4 PUSH2 0x1D04 JUMP JUMPDEST PUSH20 0xFFFFFFFFFFFFFFFFFFFFFFFFFFFFFFFFFFFFFFFF AND EQ ISZERO SWAP1 POP SWAP2 SWAP1 POP JUMP JUMPDEST PUSH1 0x60 PUSH1 0x13 DUP1 SLOAD PUSH2 0x2128 SWAP1 PUSH2 0x307B JUMP JUMPDEST DUP1 PUSH1 0x1F ADD PUSH1 0x20 DUP1 SWAP2 DIV MUL PUSH1 0x20 ADD PUSH1 0x40 MLOAD SWAP1 DUP2 ADD PUSH1 0x40 MSTORE DUP1 SWAP3 SWAP2 SWAP1 DUP2 DUP2 MSTORE PUSH1 0x20 ADD DUP3 DUP1 SLOAD PUSH2 0x2154 SWAP1 PUSH2 0x307B JUMP JUMPDEST DUP1 ISZERO PUSH2 0x21A1 JUMPI DUP1 PUSH1 0x1F LT PUSH2 0x2176 JUMPI PUSH2 0x100 DUP1 DUP4 SLOAD DIV MUL DUP4 MSTORE SWAP2 PUSH1 0x20 ADD SWAP2 PUSH2 0x21A1 JUMP JUMPDEST DUP3 ADD SWAP2 SWAP1 PUSH1 0x0 MSTORE PUSH1 0x20 PUSH1 0x0 KECCAK256 SWAP1 JUMPDEST DUP2 SLOAD DUP2 MSTORE SWAP1 PUSH1 0x1 ADD SWAP1 PUSH1 0x20 ADD DUP1 DUP4 GT PUSH2 0x2184 JUMPI DUP3 SWAP1 SUB PUSH1 0x1F AND DUP3 ADD SWAP2 JUMPDEST POP POP POP POP POP SWAP1 POP SWAP1 JUMP JUMPDEST PUSH1 0x60 PUSH1 0x0 PUSH1 0x1 PUSH2 0x21BA DUP5 PUSH2 0x2587 JUMP JUMPDEST ADD SWAP1 POP PUSH1 0x0 DUP2 PUSH8 0xFFFFFFFFFFFFFFFF DUP2 GT ISZERO PUSH2 0x21D9 JUMPI PUSH2 0x21D8 PUSH2 0x2C2A JUMP JUMPDEST JUMPDEST PUSH1 0x40 MLOAD SWAP1 DUP1 DUP3 MSTORE DUP1 PUSH1 0x1F ADD PUSH1 0x1F NOT AND PUSH1 0x20 ADD DUP3 ADD PUSH1 0x40 MSTORE DUP1 ISZERO PUSH2 0x220B JUMPI DUP2 PUSH1 0x20 ADD PUSH1 0x1 DUP3 MUL DUP1 CALLDATASIZE DUP4 CALLDATACOPY DUP1 DUP3 ADD SWAP2 POP POP SWAP1 POP JUMPDEST POP SWAP1 POP PUSH1 0x0 DUP3 PUSH1 0x20 ADD DUP3 ADD SWAP1 POP JUMPDEST PUSH1 0x1 ISZERO PUSH2 0x226E JUMPI DUP1 DUP1 PUSH1 0x1 SWAP1 SUB SWAP2 POP POP PUSH32 0x3031323334353637383961626364656600000000000000000000000000000000 PUSH1 0xA DUP7 MOD BYTE DUP2 MSTORE8 PUSH1 0xA DUP6 DUP2 PUSH2 0x2262 JUMPI PUSH2 0x2261 PUSH2 0x3D63 JUMP JUMPDEST JUMPDEST DIV SWAP5 POP PUSH1 0x0 DUP6 SUB PUSH2 0x2219 JUMPI JUMPDEST DUP2 SWAP4 POP POP POP POP SWAP2 SWAP1 POP JUMP JUMPDEST PUSH1 0x1 DUP2 GT ISZERO PUSH2 0x2399 JUMPI PUSH1 0x0 PUSH20 0xFFFFFFFFFFFFFFFFFFFFFFFFFFFFFFFFFFFFFFFF AND DUP5 PUSH20 0xFFFFFFFFFFFFFFFFFFFFFFFFFFFFFFFFFFFFFFFF AND EQ PUSH2 0x230D JUMPI DUP1 PUSH1 0x3 PUSH1 0x0 DUP7 PUSH20 0xFFFFFFFFFFFFFFFFFFFFFFFFFFFFFFFFFFFFFFFF AND PUSH20 0xFFFFFFFFFFFFFFFFFFFFFFFFFFFFFFFFFFFFFFFF AND DUP2 MSTORE PUSH1 0x20 ADD SWAP1 DUP2 MSTORE PUSH1 0x20 ADD PUSH1 0x0 KECCAK256 PUSH1 0x0 DUP3 DUP3 SLOAD PUSH2 0x2305 SWAP2 SWAP1 PUSH2 0x3D92 JUMP JUMPDEST SWAP3 POP POP DUP2 SWAP1 SSTORE POP JUMPDEST PUSH1 0x0 PUSH20 0xFFFFFFFFFFFFFFFFFFFFFFFFFFFFFFFFFFFFFFFF AND DUP4 PUSH20 0xFFFFFFFFFFFFFFFFFFFFFFFFFFFFFFFFFFFFFFFF AND EQ PUSH2 0x2398 JUMPI DUP1 PUSH1 0x3 PUSH1 0x0 DUP6 PUSH20 0xFFFFFFFFFFFFFFFFFFFFFFFFFFFFFFFFFFFFFFFF AND PUSH20 0xFFFFFFFFFFFFFFFFFFFFFFFFFFFFFFFFFFFFFFFF AND DUP2 MSTORE PUSH1 0x20 ADD SWAP1 DUP2 MSTORE PUSH1 0x20 ADD PUSH1 0x0 KECCAK256 PUSH1 0x0 DUP3 DUP3 SLOAD PUSH2 0x2390 SWAP2 SWAP1 PUSH2 0x372B JUMP JUMPDEST SWAP3 POP POP DUP2 SWAP1 SSTORE POP JUMPDEST JUMPDEST POP POP POP POP JUMP JUMPDEST POP POP POP POP JUMP JUMPDEST PUSH2 0x23AF DUP4 DUP4 PUSH2 0x26DA JUMP JUMPDEST PUSH2 0x23BC PUSH1 0x0 DUP5 DUP5 DUP5 PUSH2 0x2400 JUMP JUMPDEST PUSH2 0x23FB JUMPI PUSH1 0x40 MLOAD PUSH32 0x8C379A000000000000000000000000000000000000000000000000000000000 DUP2 MSTORE PUSH1 0x4 ADD PUSH2 0x23F2 SWAP1 PUSH2 0x3D43 JUMP JUMPDEST PUSH1 0x40 MLOAD DUP1 SWAP2 SUB SWAP1 REVERT JUMPDEST POP POP POP JUMP JUMPDEST PUSH1 0x0 PUSH2 0x2421 DUP5 PUSH20 0xFFFFFFFFFFFFFFFFFFFFFFFFFFFFFFFFFFFFFFFF AND PUSH2 0x17DD JUMP JUMPDEST ISZERO PUSH2 0x257A JUMPI DUP4 PUSH20 0xFFFFFFFFFFFFFFFFFFFFFFFFFFFFFFFFFFFFFFFF AND PUSH4 0x150B7A02 PUSH2 0x244A PUSH2 0x18B5 JUMP JUMPDEST DUP8 DUP7 DUP7 PUSH1 0x40 MLOAD DUP6 PUSH4 0xFFFFFFFF AND PUSH1 0xE0 SHL DUP2 MSTORE PUSH1 0x4 ADD PUSH2 0x246C SWAP5 SWAP4 SWAP3 SWAP2 SWAP1 PUSH2 0x3E1B JUMP JUMPDEST PUSH1 0x20 PUSH1 0x40 MLOAD DUP1 DUP4 SUB DUP2 PUSH1 0x0 DUP8 GAS CALL SWAP3 POP POP POP DUP1 ISZERO PUSH2 0x24A8 JUMPI POP PUSH1 0x40 MLOAD RETURNDATASIZE PUSH1 0x1F NOT PUSH1 0x1F DUP3 ADD AND DUP3 ADD DUP1 PUSH1 0x40 MSTORE POP DUP2 ADD SWAP1 PUSH2 0x24A5 SWAP2 SWAP1 PUSH2 0x3E7C JUMP JUMPDEST PUSH1 0x1 JUMPDEST PUSH2 0x252A JUMPI RETURNDATASIZE DUP1 PUSH1 0x0 DUP2 EQ PUSH2 0x24D8 JUMPI PUSH1 0x40 MLOAD SWAP2 POP PUSH1 0x1F NOT PUSH1 0x3F RETURNDATASIZE ADD AND DUP3 ADD PUSH1 0x40 MSTORE RETURNDATASIZE DUP3 MSTORE RETURNDATASIZE PUSH1 0x0 PUSH1 0x20 DUP5 ADD RETURNDATACOPY PUSH2 0x24DD JUMP JUMPDEST PUSH1 0x60 SWAP2 POP JUMPDEST POP PUSH1 0x0 DUP2 MLOAD SUB PUSH2 0x2522 JUMPI PUSH1 0x40 MLOAD PUSH32 0x8C379A000000000000000000000000000000000000000000000000000000000 DUP2 MSTORE PUSH1 0x4 ADD PUSH2 0x2519 SWAP1 PUSH2 0x3D43 JUMP JUMPDEST PUSH1 0x40 MLOAD DUP1 SWAP2 SUB SWAP1 REVERT JUMPDEST DUP1 MLOAD DUP2 PUSH1 0x20 ADD REVERT JUMPDEST PUSH4 0x150B7A02 PUSH1 0xE0 SHL PUSH28 0xFFFFFFFFFFFFFFFFFFFFFFFFFFFFFFFFFFFFFFFFFFFFFFFFFFFFFFFF NOT AND DUP2 PUSH28 0xFFFFFFFFFFFFFFFFFFFFFFFFFFFFFFFFFFFFFFFFFFFFFFFFFFFFFFFF NOT AND EQ SWAP2 POP POP PUSH2 0x257F JUMP JUMPDEST PUSH1 0x1 SWAP1 POP JUMPDEST SWAP5 SWAP4 POP POP POP POP JUMP JUMPDEST PUSH1 0x0 DUP1 PUSH1 0x0 SWAP1 POP PUSH27 0x184F03E93FF9F4DAA797ED6E38ED64BF6A1F010000000000000000 DUP4 LT PUSH2 0x25E5 JUMPI PUSH27 0x184F03E93FF9F4DAA797ED6E38ED64BF6A1F010000000000000000 DUP4 DUP2 PUSH2 0x25DB JUMPI PUSH2 0x25DA PUSH2 0x3D63 JUMP JUMPDEST JUMPDEST DIV SWAP3 POP PUSH1 0x40 DUP2 ADD SWAP1 POP JUMPDEST PUSH14 0x4EE2D6D415B85ACEF8100000000 DUP4 LT PUSH2 0x2622 JUMPI PUSH14 0x4EE2D6D415B85ACEF8100000000 DUP4 DUP2 PUSH2 0x2618 JUMPI PUSH2 0x2617 PUSH2 0x3D63 JUMP JUMPDEST JUMPDEST DIV SWAP3 POP PUSH1 0x20 DUP2 ADD SWAP1 POP JUMPDEST PUSH7 0x2386F26FC10000 DUP4 LT PUSH2 0x2651 JUMPI PUSH7 0x2386F26FC10000 DUP4 DUP2 PUSH2 0x2647 JUMPI PUSH2 0x2646 PUSH2 0x3D63 JUMP JUMPDEST JUMPDEST DIV SWAP3 POP PUSH1 0x10 DUP2 ADD SWAP1 POP JUMPDEST PUSH4 0x5F5E100 DUP4 LT PUSH2 0x267A JUMPI PUSH4 0x5F5E100 DUP4 DUP2 PUSH2 0x2670 JUMPI PUSH2 0x266F PUSH2 0x3D63 JUMP JUMPDEST JUMPDEST DIV SWAP3 POP PUSH1 0x8 DUP2 ADD SWAP1 POP JUMPDEST PUSH2 0x2710 DUP4 LT PUSH2 0x269F JUMPI PUSH2 0x2710 DUP4 DUP2 PUSH2 0x2695 JUMPI PUSH2 0x2694 PUSH2 0x3D63 JUMP JUMPDEST JUMPDEST DIV SWAP3 POP PUSH1 0x4 DUP2 ADD SWAP1 POP JUMPDEST PUSH1 0x64 DUP4 LT PUSH2 0x26C2 JUMPI PUSH1 0x64 DUP4 DUP2 PUSH2 0x26B8 JUMPI PUSH2 0x26B7 PUSH2 0x3D63 JUMP JUMPDEST JUMPDEST DIV SWAP3 POP PUSH1 0x2 DUP2 ADD SWAP1 POP JUMPDEST PUSH1 0xA DUP4 LT PUSH2 0x26D1 JUMPI PUSH1 0x1 DUP2 ADD SWAP1 POP JUMPDEST DUP1 SWAP2 POP POP SWAP2 SWAP1 POP JUMP JUMPDEST PUSH1 0x0 PUSH20 0xFFFFFFFFFFFFFFFFFFFFFFFFFFFFFFFFFFFFFFFF AND DUP3 PUSH20 0xFFFFFFFFFFFFFFFFFFFFFFFFFFFFFFFFFFFFFFFF AND SUB PUSH2 0x2749 JUMPI PUSH1 0x40 MLOAD PUSH32 0x8C379A000000000000000000000000000000000000000000000000000000000 DUP2 MSTORE PUSH1 0x4 ADD PUSH2 0x2740 SWAP1 PUSH2 0x3EF5 JUMP JUMPDEST PUSH1 0x40 MLOAD DUP1 SWAP2 SUB SWAP1 REVERT JUMPDEST PUSH2 0x2752 DUP2 PUSH2 0x20D8 JUMP JUMPDEST ISZERO PUSH2 0x2792 JUMPI PUSH1 0x40 MLOAD PUSH32 0x8C379A000000000000000000000000000000000000000000000000000000000 DUP2 MSTORE PUSH1 0x4 ADD PUSH2 0x2789 SWAP1 PUSH2 0x3F61 JUMP JUMPDEST PUSH1 0x40 MLOAD DUP1 SWAP2 SUB SWAP1 REVERT JUMPDEST PUSH2 0x27A0 PUSH1 0x0 DUP4 DUP4 PUSH1 0x1 PUSH2 0x2279 JUMP JUMPDEST PUSH2 0x27A9 DUP2 PUSH2 0x20D8 JUMP JUMPDEST ISZERO PUSH2 0x27E9 JUMPI PUSH1 0x40 MLOAD PUSH32 0x8C379A000000000000000000000000000000000000000000000000000000000 DUP2 MSTORE PUSH1 0x4 ADD PUSH2 0x27E0 SWAP1 PUSH2 0x3F61 JUMP JUMPDEST PUSH1 0x40 MLOAD DUP1 SWAP2 SUB SWAP1 REVERT JUMPDEST PUSH1 0x1 PUSH1 0x3 PUSH1 0x0 DUP5 PUSH20 0xFFFFFFFFFFFFFFFFFFFFFFFFFFFFFFFFFFFFFFFF AND PUSH20 0xFFFFFFFFFFFFFFFFFFFFFFFFFFFFFFFFFFFFFFFF AND DUP2 MSTORE PUSH1 0x20 ADD SWAP1 DUP2 MSTORE PUSH1 0x20 ADD PUSH1 0x0 KECCAK256 PUSH1 0x0 DUP3 DUP3 SLOAD ADD SWAP3 POP POP DUP2 SWAP1 SSTORE POP DUP2 PUSH1 0x2 PUSH1 0x0 DUP4 DUP2 MSTORE PUSH1 0x20 ADD SWAP1 DUP2 MSTORE PUSH1 0x20 ADD PUSH1 0x0 KECCAK256 PUSH1 0x0 PUSH2 0x100 EXP DUP2 SLOAD DUP2 PUSH20 0xFFFFFFFFFFFFFFFFFFFFFFFFFFFFFFFFFFFFFFFF MUL NOT AND SWAP1 DUP4 PUSH20 0xFFFFFFFFFFFFFFFFFFFFFFFFFFFFFFFFFFFFFFFF AND MUL OR SWAP1 SSTORE POP DUP1 DUP3 PUSH20 0xFFFFFFFFFFFFFFFFFFFFFFFFFFFFFFFFFFFFFFFF AND PUSH1 0x0 PUSH20 0xFFFFFFFFFFFFFFFFFFFFFFFFFFFFFFFFFFFFFFFF AND PUSH32 0xDDF252AD1BE2C89B69C2B068FC378DAA952BA7F163C4A11628F55A4DF523B3EF PUSH1 0x40 MLOAD PUSH1 0x40 MLOAD DUP1 SWAP2 SUB SWAP1 LOG4 PUSH2 0x28F3 PUSH1 0x0 DUP4 DUP4 PUSH1 0x1 PUSH2 0x239F JUMP JUMPDEST POP POP JUMP JUMPDEST PUSH1 0x0 PUSH1 0x40 MLOAD SWAP1 POP SWAP1 JUMP JUMPDEST PUSH1 0x0 DUP1 REVERT JUMPDEST PUSH1 0x0 DUP1 REVERT JUMPDEST PUSH1 0x0 PUSH32 0xFFFFFFFF00000000000000000000000000000000000000000000000000000000 DUP3 AND SWAP1 POP SWAP2 SWAP1 POP JUMP JUMPDEST PUSH2 0x2940 DUP2 PUSH2 0x290B JUMP JUMPDEST DUP2 EQ PUSH2 0x294B JUMPI PUSH1 0x0 DUP1 REVERT JUMPDEST POP JUMP JUMPDEST PUSH1 0x0 DUP2 CALLDATALOAD SWAP1 POP PUSH2 0x295D DUP2 PUSH2 0x2937 JUMP JUMPDEST SWAP3 SWAP2 POP POP JUMP JUMPDEST PUSH1 0x0 PUSH1 0x20 DUP3 DUP5 SUB SLT ISZERO PUSH2 0x2979 JUMPI PUSH2 0x2978 PUSH2 0x2901 JUMP JUMPDEST JUMPDEST PUSH1 0x0 PUSH2 0x2987 DUP5 DUP3 DUP6 ADD PUSH2 0x294E JUMP JUMPDEST SWAP2 POP POP SWAP3 SWAP2 POP POP JUMP JUMPDEST PUSH1 0x0 DUP2 ISZERO ISZERO SWAP1 POP SWAP2 SWAP1 POP JUMP JUMPDEST PUSH2 0x29A5 DUP2 PUSH2 0x2990 JUMP JUMPDEST DUP3 MSTORE POP POP JUMP JUMPDEST PUSH1 0x0 PUSH1 0x20 DUP3 ADD SWAP1 POP PUSH2 0x29C0 PUSH1 0x0 DUP4 ADD DUP5 PUSH2 0x299C JUMP JUMPDEST SWAP3 SWAP2 POP POP JUMP JUMPDEST PUSH1 0x0 DUP2 MLOAD SWAP1 POP SWAP2 SWAP1 POP JUMP JUMPDEST PUSH1 0x0 DUP3 DUP3 MSTORE PUSH1 0x20 DUP3 ADD SWAP1 POP SWAP3 SWAP2 POP POP JUMP JUMPDEST PUSH1 0x0 JUMPDEST DUP4 DUP2 LT ISZERO PUSH2 0x2A00 JUMPI DUP1 DUP3 ADD MLOAD DUP2 DUP5 ADD MSTORE PUSH1 0x20 DUP2 ADD SWAP1 POP PUSH2 0x29E5 JUMP JUMPDEST PUSH1 0x0 DUP5 DUP5 ADD MSTORE POP POP POP POP JUMP JUMPDEST PUSH1 0x0 PUSH1 0x1F NOT PUSH1 0x1F DUP4 ADD AND SWAP1 POP SWAP2 SWAP1 POP JUMP JUMPDEST PUSH1 0x0 PUSH2 0x2A28 DUP3 PUSH2 0x29C6 JUMP JUMPDEST PUSH2 0x2A32 DUP2 DUP6 PUSH2 0x29D1 JUMP JUMPDEST SWAP4 POP PUSH2 0x2A42 DUP2 DUP6 PUSH1 0x20 DUP7 ADD PUSH2 0x29E2 JUMP JUMPDEST PUSH2 0x2A4B DUP2 PUSH2 0x2A0C JUMP JUMPDEST DUP5 ADD SWAP2 POP POP SWAP3 SWAP2 POP POP JUMP JUMPDEST PUSH1 0x0 PUSH1 0x20 DUP3 ADD SWAP1 POP DUP2 DUP2 SUB PUSH1 0x0 DUP4 ADD MSTORE PUSH2 0x2A70 DUP2 DUP5 PUSH2 0x2A1D JUMP JUMPDEST SWAP1 POP SWAP3 SWAP2 POP POP JUMP JUMPDEST PUSH1 0x0 DUP2 SWAP1 POP SWAP2 SWAP1 POP JUMP JUMPDEST PUSH2 0x2A8B DUP2 PUSH2 0x2A78 JUMP JUMPDEST DUP2 EQ PUSH2 0x2A96 JUMPI PUSH1 0x0 DUP1 REVERT JUMPDEST POP JUMP JUMPDEST PUSH1 0x0 DUP2 CALLDATALOAD SWAP1 POP PUSH2 0x2AA8 DUP2 PUSH2 0x2A82 JUMP JUMPDEST SWAP3 SWAP2 POP POP JUMP JUMPDEST PUSH1 0x0 PUSH1 0x20 DUP3 DUP5 SUB SLT ISZERO PUSH2 0x2AC4 JUMPI PUSH2 0x2AC3 PUSH2 0x2901 JUMP JUMPDEST JUMPDEST PUSH1 0x0 PUSH2 0x2AD2 DUP5 DUP3 DUP6 ADD PUSH2 0x2A99 JUMP JUMPDEST SWAP2 POP POP SWAP3 SWAP2 POP POP JUMP JUMPDEST PUSH1 0x0 PUSH20 0xFFFFFFFFFFFFFFFFFFFFFFFFFFFFFFFFFFFFFFFF DUP3 AND SWAP1 POP SWAP2 SWAP1 POP JUMP JUMPDEST PUSH1 0x0 PUSH2 0x2B06 DUP3 PUSH2 0x2ADB JUMP JUMPDEST SWAP1 POP SWAP2 SWAP1 POP JUMP JUMPDEST PUSH2 0x2B16 DUP2 PUSH2 0x2AFB JUMP JUMPDEST DUP3 MSTORE POP POP JUMP JUMPDEST PUSH1 0x0 PUSH1 0x20 DUP3 ADD SWAP1 POP PUSH2 0x2B31 PUSH1 0x0 DUP4 ADD DUP5 PUSH2 0x2B0D JUMP JUMPDEST SWAP3 SWAP2 POP POP JUMP JUMPDEST PUSH2 0x2B40 DUP2 PUSH2 0x2AFB JUMP JUMPDEST DUP2 EQ PUSH2 0x2B4B JUMPI PUSH1 0x0 DUP1 REVERT JUMPDEST POP JUMP JUMPDEST PUSH1 0x0 DUP2 CALLDATALOAD SWAP1 POP PUSH2 0x2B5D DUP2 PUSH2 0x2B37 JUMP JUMPDEST SWAP3 SWAP2 POP POP JUMP JUMPDEST PUSH1 0x0 DUP1 PUSH1 0x40 DUP4 DUP6 SUB SLT ISZERO PUSH2 0x2B7A JUMPI PUSH2 0x2B79 PUSH2 0x2901 JUMP JUMPDEST JUMPDEST PUSH1 0x0 PUSH2 0x2B88 DUP6 DUP3 DUP7 ADD PUSH2 0x2B4E JUMP JUMPDEST SWAP3 POP POP PUSH1 0x20 PUSH2 0x2B99 DUP6 DUP3 DUP7 ADD PUSH2 0x2A99 JUMP JUMPDEST SWAP2 POP POP SWAP3 POP SWAP3 SWAP1 POP JUMP JUMPDEST PUSH2 0x2BAC DUP2 PUSH2 0x2A78 JUMP JUMPDEST DUP3 MSTORE POP POP JUMP JUMPDEST PUSH1 0x0 PUSH1 0x20 DUP3 ADD SWAP1 POP PUSH2 0x2BC7 PUSH1 0x0 DUP4 ADD DUP5 PUSH2 0x2BA3 JUMP JUMPDEST SWAP3 SWAP2 POP POP JUMP JUMPDEST PUSH1 0x0 DUP1 PUSH1 0x0 PUSH1 0x60 DUP5 DUP7 SUB SLT ISZERO PUSH2 0x2BE6 JUMPI PUSH2 0x2BE5 PUSH2 0x2901 JUMP JUMPDEST JUMPDEST PUSH1 0x0 PUSH2 0x2BF4 DUP7 DUP3 DUP8 ADD PUSH2 0x2B4E JUMP JUMPDEST SWAP4 POP POP PUSH1 0x20 PUSH2 0x2C05 DUP7 DUP3 DUP8 ADD PUSH2 0x2B4E JUMP JUMPDEST SWAP3 POP POP PUSH1 0x40 PUSH2 0x2C16 DUP7 DUP3 DUP8 ADD PUSH2 0x2A99 JUMP JUMPDEST SWAP2 POP POP SWAP3 POP SWAP3 POP SWAP3 JUMP JUMPDEST PUSH1 0x0 DUP1 REVERT JUMPDEST PUSH1 0x0 DUP1 REVERT JUMPDEST PUSH32 0x4E487B7100000000000000000000000000000000000000000000000000000000 PUSH1 0x0 MSTORE PUSH1 0x41 PUSH1 0x4 MSTORE PUSH1 0x24 PUSH1 0x0 REVERT JUMPDEST PUSH2 0x2C62 DUP3 PUSH2 0x2A0C JUMP JUMPDEST DUP2 ADD DUP2 DUP2 LT PUSH8 0xFFFFFFFFFFFFFFFF DUP3 GT OR ISZERO PUSH2 0x2C81 JUMPI PUSH2 0x2C80 PUSH2 0x2C2A JUMP JUMPDEST JUMPDEST DUP1 PUSH1 0x40 MSTORE POP POP POP JUMP JUMPDEST PUSH1 0x0 PUSH2 0x2C94 PUSH2 0x28F7 JUMP JUMPDEST SWAP1 POP PUSH2 0x2CA0 DUP3 DUP3 PUSH2 0x2C59 JUMP JUMPDEST SWAP2 SWAP1 POP JUMP JUMPDEST PUSH1 0x0 PUSH8 0xFFFFFFFFFFFFFFFF DUP3 GT ISZERO PUSH2 0x2CC0 JUMPI PUSH2 0x2CBF PUSH2 0x2C2A JUMP JUMPDEST JUMPDEST PUSH2 0x2CC9 DUP3 PUSH2 0x2A0C JUMP JUMPDEST SWAP1 POP PUSH1 0x20 DUP2 ADD SWAP1 POP SWAP2 SWAP1 POP JUMP JUMPDEST DUP3 DUP2 DUP4 CALLDATACOPY PUSH1 0x0 DUP4 DUP4 ADD MSTORE POP POP POP JUMP JUMPDEST PUSH1 0x0 PUSH2 0x2CF8 PUSH2 0x2CF3 DUP5 PUSH2 0x2CA5 JUMP JUMPDEST PUSH2 0x2C8A JUMP JUMPDEST SWAP1 POP DUP3 DUP2 MSTORE PUSH1 0x20 DUP2 ADD DUP5 DUP5 DUP5 ADD GT ISZERO PUSH2 0x2D14 JUMPI PUSH2 0x2D13 PUSH2 0x2C25 JUMP JUMPDEST JUMPDEST PUSH2 0x2D1F DUP5 DUP3 DUP6 PUSH2 0x2CD6 JUMP JUMPDEST POP SWAP4 SWAP3 POP POP POP JUMP JUMPDEST PUSH1 0x0 DUP3 PUSH1 0x1F DUP4 ADD SLT PUSH2 0x2D3C JUMPI PUSH2 0x2D3B PUSH2 0x2C20 JUMP JUMPDEST JUMPDEST DUP2 CALLDATALOAD PUSH2 0x2D4C DUP5 DUP3 PUSH1 0x20 DUP7 ADD PUSH2 0x2CE5 JUMP JUMPDEST SWAP2 POP POP SWAP3 SWAP2 POP POP JUMP JUMPDEST PUSH1 0x0 PUSH1 0x20 DUP3 DUP5 SUB SLT ISZERO PUSH2 0x2D6B JUMPI PUSH2 0x2D6A PUSH2 0x2901 JUMP JUMPDEST JUMPDEST PUSH1 0x0 DUP3 ADD CALLDATALOAD PUSH8 0xFFFFFFFFFFFFFFFF DUP2 GT ISZERO PUSH2 0x2D89 JUMPI PUSH2 0x2D88 PUSH2 0x2906 JUMP JUMPDEST JUMPDEST PUSH2 0x2D95 DUP5 DUP3 DUP6 ADD PUSH2 0x2D27 JUMP JUMPDEST SWAP2 POP POP SWAP3 SWAP2 POP POP JUMP JUMPDEST PUSH1 0x0 PUSH1 0x20 DUP3 DUP5 SUB SLT ISZERO PUSH2 0x2DB4 JUMPI PUSH2 0x2DB3 PUSH2 0x2901 JUMP JUMPDEST JUMPDEST PUSH1 0x0 PUSH2 0x2DC2 DUP5 DUP3 DUP6 ADD PUSH2 0x2B4E JUMP JUMPDEST SWAP2 POP POP SWAP3 SWAP2 POP POP JUMP JUMPDEST PUSH2 0x2DD4 DUP2 PUSH2 0x2990 JUMP JUMPDEST DUP2 EQ PUSH2 0x2DDF JUMPI PUSH1 0x0 DUP1 REVERT JUMPDEST POP JUMP JUMPDEST PUSH1 0x0 DUP2 CALLDATALOAD SWAP1 POP PUSH2 0x2DF1 DUP2 PUSH2 0x2DCB JUMP JUMPDEST SWAP3 SWAP2 POP POP JUMP JUMPDEST PUSH1 0x0 DUP1 PUSH1 0x40 DUP4 DUP6 SUB SLT ISZERO PUSH2 0x2E0E JUMPI PUSH2 0x2E0D PUSH2 0x2901 JUMP JUMPDEST JUMPDEST PUSH1 0x0 PUSH2 0x2E1C DUP6 DUP3 DUP7 ADD PUSH2 0x2B4E JUMP JUMPDEST SWAP3 POP POP PUSH1 0x20 PUSH2 0x2E2D DUP6 DUP3 DUP7 ADD PUSH2 0x2DE2 JUMP JUMPDEST SWAP2 POP POP SWAP3 POP SWAP3 SWAP1 POP JUMP JUMPDEST PUSH1 0x0 PUSH8 0xFFFFFFFFFFFFFFFF DUP3 GT ISZERO PUSH2 0x2E52 JUMPI PUSH2 0x2E51 PUSH2 0x2C2A JUMP JUMPDEST JUMPDEST PUSH2 0x2E5B DUP3 PUSH2 0x2A0C JUMP JUMPDEST SWAP1 POP PUSH1 0x20 DUP2 ADD SWAP1 POP SWAP2 SWAP1 POP JUMP JUMPDEST PUSH1 0x0 PUSH2 0x2E7B PUSH2 0x2E76 DUP5 PUSH2 0x2E37 JUMP JUMPDEST PUSH2 0x2C8A JUMP JUMPDEST SWAP1 POP DUP3 DUP2 MSTORE PUSH1 0x20 DUP2 ADD DUP5 DUP5 DUP5 ADD GT ISZERO PUSH2 0x2E97 JUMPI PUSH2 0x2E96 PUSH2 0x2C25 JUMP JUMPDEST JUMPDEST PUSH2 0x2EA2 DUP5 DUP3 DUP6 PUSH2 0x2CD6 JUMP JUMPDEST POP SWAP4 SWAP3 POP POP POP JUMP JUMPDEST PUSH1 0x0 DUP3 PUSH1 0x1F DUP4 ADD SLT PUSH2 0x2EBF JUMPI PUSH2 0x2EBE PUSH2 0x2C20 JUMP JUMPDEST JUMPDEST DUP2 CALLDATALOAD PUSH2 0x2ECF DUP5 DUP3 PUSH1 0x20 DUP7 ADD PUSH2 0x2E68 JUMP JUMPDEST SWAP2 POP POP SWAP3 SWAP2 POP POP JUMP JUMPDEST PUSH1 0x0 DUP1 PUSH1 0x0 DUP1 PUSH1 0x80 DUP6 DUP8 SUB SLT ISZERO PUSH2 0x2EF2 JUMPI PUSH2 0x2EF1 PUSH2 0x2901 JUMP JUMPDEST JUMPDEST PUSH1 0x0 PUSH2 0x2F00 DUP8 DUP3 DUP9 ADD PUSH2 0x2B4E JUMP JUMPDEST SWAP5 POP POP PUSH1 0x20 PUSH2 0x2F11 DUP8 DUP3 DUP9 ADD PUSH2 0x2B4E JUMP JUMPDEST SWAP4 POP POP PUSH1 0x40 PUSH2 0x2F22 DUP8 DUP3 DUP9 ADD PUSH2 0x2A99 JUMP JUMPDEST SWAP3 POP POP PUSH1 0x60 DUP6 ADD CALLDATALOAD PUSH8 0xFFFFFFFFFFFFFFFF DUP2 GT ISZERO PUSH2 0x2F43 JUMPI PUSH2 0x2F42 PUSH2 0x2906 JUMP JUMPDEST JUMPDEST PUSH2 0x2F4F DUP8 DUP3 DUP9 ADD PUSH2 0x2EAA JUMP JUMPDEST SWAP2 POP POP SWAP3 SWAP6 SWAP2 SWAP5 POP SWAP3 POP JUMP JUMPDEST PUSH1 0x0 PUSH2 0x140 DUP3 ADD SWAP1 POP PUSH2 0x2F71 PUSH1 0x0 DUP4 ADD DUP14 PUSH2 0x2B0D JUMP JUMPDEST PUSH2 0x2F7E PUSH1 0x20 DUP4 ADD DUP13 PUSH2 0x2BA3 JUMP JUMPDEST PUSH2 0x2F8B PUSH1 0x40 DUP4 ADD DUP12 PUSH2 0x2BA3 JUMP JUMPDEST PUSH2 0x2F98 PUSH1 0x60 DUP4 ADD DUP11 PUSH2 0x2BA3 JUMP JUMPDEST PUSH2 0x2FA5 PUSH1 0x80 DUP4 ADD DUP10 PUSH2 0x2BA3 JUMP JUMPDEST DUP2 DUP2 SUB PUSH1 0xA0 DUP4 ADD MSTORE PUSH2 0x2FB7 DUP2 DUP9 PUSH2 0x2A1D JUMP JUMPDEST SWAP1 POP DUP2 DUP2 SUB PUSH1 0xC0 DUP4 ADD MSTORE PUSH2 0x2FCB DUP2 DUP8 PUSH2 0x2A1D JUMP JUMPDEST SWAP1 POP DUP2 DUP2 SUB PUSH1 0xE0 DUP4 ADD MSTORE PUSH2 0x2FDF DUP2 DUP7 PUSH2 0x2A1D JUMP JUMPDEST SWAP1 POP PUSH2 0x2FEF PUSH2 0x100 DUP4 ADD DUP6 PUSH2 0x299C JUMP JUMPDEST PUSH2 0x2FFD PUSH2 0x120 DUP4 ADD DUP5 PUSH2 0x2BA3 JUMP JUMPDEST SWAP12 SWAP11 POP POP POP POP POP POP POP POP POP POP POP JUMP JUMPDEST PUSH1 0x0 DUP1 PUSH1 0x40 DUP4 DUP6 SUB SLT ISZERO PUSH2 0x3023 JUMPI PUSH2 0x3022 PUSH2 0x2901 JUMP JUMPDEST JUMPDEST PUSH1 0x0 PUSH2 0x3031 DUP6 DUP3 DUP7 ADD PUSH2 0x2B4E JUMP JUMPDEST SWAP3 POP POP PUSH1 0x20 PUSH2 0x3042 DUP6 DUP3 DUP7 ADD PUSH2 0x2B4E JUMP JUMPDEST SWAP2 POP POP SWAP3 POP SWAP3 SWAP1 POP JUMP JUMPDEST PUSH32 0x4E487B7100000000000000000000000000000000000000000000000000000000 PUSH1 0x0 MSTORE PUSH1 0x22 PUSH1 0x4 MSTORE PUSH1 0x24 PUSH1 0x0 REVERT JUMPDEST PUSH1 0x0 PUSH1 0x2 DUP3 DIV SWAP1 POP PUSH1 0x1 DUP3 AND DUP1 PUSH2 0x3093 JUMPI PUSH1 0x7F DUP3 AND SWAP2 POP JUMPDEST PUSH1 0x20 DUP3 LT DUP2 SUB PUSH2 0x30A6 JUMPI PUSH2 0x30A5 PUSH2 0x304C JUMP JUMPDEST JUMPDEST POP SWAP2 SWAP1 POP JUMP JUMPDEST PUSH32 0x4552433732313A20617070726F76616C20746F2063757272656E74206F776E65 PUSH1 0x0 DUP3 ADD MSTORE PUSH32 0x7200000000000000000000000000000000000000000000000000000000000000 PUSH1 0x20 DUP3 ADD MSTORE POP JUMP JUMPDEST PUSH1 0x0 PUSH2 0x3108 PUSH1 0x21 DUP4 PUSH2 0x29D1 JUMP JUMPDEST SWAP2 POP PUSH2 0x3113 DUP3 PUSH2 0x30AC JUMP JUMPDEST PUSH1 0x40 DUP3 ADD SWAP1 POP SWAP2 SWAP1 POP JUMP JUMPDEST PUSH1 0x0 PUSH1 0x20 DUP3 ADD SWAP1 POP DUP2 DUP2 SUB PUSH1 0x0 DUP4 ADD MSTORE PUSH2 0x3137 DUP2 PUSH2 0x30FB JUMP JUMPDEST SWAP1 POP SWAP2 SWAP1 POP JUMP JUMPDEST PUSH32 0x4552433732313A20617070726F76652063616C6C6572206973206E6F7420746F PUSH1 0x0 DUP3 ADD MSTORE PUSH32 0x6B656E206F776E6572206F7220617070726F76656420666F7220616C6C000000 PUSH1 0x20 DUP3 ADD MSTORE POP JUMP JUMPDEST PUSH1 0x0 PUSH2 0x319A PUSH1 0x3D DUP4 PUSH2 0x29D1 JUMP JUMPDEST SWAP2 POP PUSH2 0x31A5 DUP3 PUSH2 0x313E JUMP JUMPDEST PUSH1 0x40 DUP3 ADD SWAP1 POP SWAP2 SWAP1 POP JUMP JUMPDEST PUSH1 0x0 PUSH1 0x20 DUP3 ADD SWAP1 POP DUP2 DUP2 SUB PUSH1 0x0 DUP4 ADD MSTORE PUSH2 0x31C9 DUP2 PUSH2 0x318D JUMP JUMPDEST SWAP1 POP SWAP2 SWAP1 POP JUMP JUMPDEST PUSH32 0x4552433732313A2063616C6C6572206973206E6F7420746F6B656E206F776E65 PUSH1 0x0 DUP3 ADD MSTORE PUSH32 0x72206F7220617070726F76656400000000000000000000000000000000000000 PUSH1 0x20 DUP3 ADD MSTORE POP JUMP JUMPDEST PUSH1 0x0 PUSH2 0x322C PUSH1 0x2D DUP4 PUSH2 0x29D1 JUMP JUMPDEST SWAP2 POP PUSH2 0x3237 DUP3 PUSH2 0x31D0 JUMP JUMPDEST PUSH1 0x40 DUP3 ADD SWAP1 POP SWAP2 SWAP1 POP JUMP JUMPDEST PUSH1 0x0 PUSH1 0x20 DUP3 ADD SWAP1 POP DUP2 DUP2 SUB PUSH1 0x0 DUP4 ADD MSTORE PUSH2 0x325B DUP2 PUSH2 0x321F JUMP JUMPDEST SWAP1 POP SWAP2 SWAP1 POP JUMP JUMPDEST PUSH1 0x0 DUP2 SWAP1 POP DUP2 PUSH1 0x0 MSTORE PUSH1 0x20 PUSH1 0x0 KECCAK256 SWAP1 POP SWAP2 SWAP1 POP JUMP JUMPDEST PUSH1 0x0 PUSH1 0x20 PUSH1 0x1F DUP4 ADD DIV SWAP1 POP SWAP2 SWAP1 POP JUMP JUMPDEST PUSH1 0x0 DUP3 DUP3 SHL SWAP1 POP SWAP3 SWAP2 POP POP JUMP JUMPDEST PUSH1 0x0 PUSH1 0x8 DUP4 MUL PUSH2 0x32C4 PUSH32 0xFFFFFFFFFFFFFFFFFFFFFFFFFFFFFFFFFFFFFFFFFFFFFFFFFFFFFFFFFFFFFFFF DUP3 PUSH2 0x3287 JUMP JUMPDEST PUSH2 0x32CE DUP7 DUP4 PUSH2 0x3287 JUMP JUMPDEST SWAP6 POP DUP1 NOT DUP5 AND SWAP4 POP DUP1 DUP7 AND DUP5 OR SWAP3 POP POP POP SWAP4 SWAP3 POP POP POP JUMP JUMPDEST PUSH1 0x0 DUP2 SWAP1 POP SWAP2 SWAP1 POP JUMP JUMPDEST PUSH1 0x0 PUSH2 0x330B PUSH2 0x3306 PUSH2 0x3301 DUP5 PUSH2 0x2A78 JUMP JUMPDEST PUSH2 0x32E6 JUMP JUMPDEST PUSH2 0x2A78 JUMP JUMPDEST SWAP1 POP SWAP2 SWAP1 POP JUMP JUMPDEST PUSH1 0x0 DUP2 SWAP1 POP SWAP2 SWAP1 POP JUMP JUMPDEST PUSH2 0x3325 DUP4 PUSH2 0x32F0 JUMP JUMPDEST PUSH2 0x3339 PUSH2 0x3331 DUP3 PUSH2 0x3312 JUMP JUMPDEST DUP5 DUP5 SLOAD PUSH2 0x3294 JUMP JUMPDEST DUP3 SSTORE POP POP POP POP JUMP JUMPDEST PUSH1 0x0 SWAP1 JUMP JUMPDEST PUSH2 0x334E PUSH2 0x3341 JUMP JUMPDEST PUSH2 0x3359 DUP2 DUP5 DUP5 PUSH2 0x331C JUMP JUMPDEST POP POP POP JUMP JUMPDEST JUMPDEST DUP2 DUP2 LT ISZERO PUSH2 0x337D JUMPI PUSH2 0x3372 PUSH1 0x0 DUP3 PUSH2 0x3346 JUMP JUMPDEST PUSH1 0x1 DUP2 ADD SWAP1 POP PUSH2 0x335F JUMP JUMPDEST POP POP JUMP JUMPDEST PUSH1 0x1F DUP3 GT ISZERO PUSH2 0x33C2 JUMPI PUSH2 0x3393 DUP2 PUSH2 0x3262 JUMP JUMPDEST PUSH2 0x339C DUP5 PUSH2 0x3277 JUMP JUMPDEST DUP2 ADD PUSH1 0x20 DUP6 LT ISZERO PUSH2 0x33AB JUMPI DUP2 SWAP1 POP JUMPDEST PUSH2 0x33BF PUSH2 0x33B7 DUP6 PUSH2 0x3277 JUMP JUMPDEST DUP4 ADD DUP3 PUSH2 0x335E JUMP JUMPDEST POP POP JUMPDEST POP POP POP JUMP JUMPDEST PUSH1 0x0 DUP3 DUP3 SHR SWAP1 POP SWAP3 SWAP2 POP POP JUMP JUMPDEST PUSH1 0x0 PUSH2 0x33E5 PUSH1 0x0 NOT DUP5 PUSH1 0x8 MUL PUSH2 0x33C7 JUMP JUMPDEST NOT DUP1 DUP4 AND SWAP2 POP POP SWAP3 SWAP2 POP POP JUMP JUMPDEST PUSH1 0x0 PUSH2 0x33FE DUP4 DUP4 PUSH2 0x33D4 JUMP JUMPDEST SWAP2 POP DUP3 PUSH1 0x2 MUL DUP3 OR SWAP1 POP SWAP3 SWAP2 POP POP JUMP JUMPDEST PUSH2 0x3417 DUP3 PUSH2 0x29C6 JUMP JUMPDEST PUSH8 0xFFFFFFFFFFFFFFFF DUP2 GT ISZERO PUSH2 0x3430 JUMPI PUSH2 0x342F PUSH2 0x2C2A JUMP JUMPDEST JUMPDEST PUSH2 0x343A DUP3 SLOAD PUSH2 0x307B JUMP JUMPDEST PUSH2 0x3445 DUP3 DUP3 DUP6 PUSH2 0x3381 JUMP JUMPDEST PUSH1 0x0 PUSH1 0x20 SWAP1 POP PUSH1 0x1F DUP4 GT PUSH1 0x1 DUP2 EQ PUSH2 0x3478 JUMPI PUSH1 0x0 DUP5 ISZERO PUSH2 0x3466 JUMPI DUP3 DUP8 ADD MLOAD SWAP1 POP JUMPDEST PUSH2 0x3470 DUP6 DUP3 PUSH2 0x33F2 JUMP JUMPDEST DUP7 SSTORE POP PUSH2 0x34D8 JUMP JUMPDEST PUSH1 0x1F NOT DUP5 AND PUSH2 0x3486 DUP7 PUSH2 0x3262 JUMP JUMPDEST PUSH1 0x0 JUMPDEST DUP3 DUP2 LT ISZERO PUSH2 0x34AE JUMPI DUP5 DUP10 ADD MLOAD DUP3 SSTORE PUSH1 0x1 DUP3 ADD SWAP2 POP PUSH1 0x20 DUP6 ADD SWAP5 POP PUSH1 0x20 DUP2 ADD SWAP1 POP PUSH2 0x3489 JUMP JUMPDEST DUP7 DUP4 LT ISZERO PUSH2 0x34CB JUMPI DUP5 DUP10 ADD MLOAD PUSH2 0x34C7 PUSH1 0x1F DUP10 AND DUP3 PUSH2 0x33D4 JUMP JUMPDEST DUP4 SSTORE POP JUMPDEST PUSH1 0x1 PUSH1 0x2 DUP9 MUL ADD DUP9 SSTORE POP POP POP JUMPDEST POP POP POP POP POP POP JUMP JUMPDEST PUSH32 0x4552433732313A20696E76616C696420746F6B656E2049440000000000000000 PUSH1 0x0 DUP3 ADD MSTORE POP JUMP JUMPDEST PUSH1 0x0 PUSH2 0x3516 PUSH1 0x18 DUP4 PUSH2 0x29D1 JUMP JUMPDEST SWAP2 POP PUSH2 0x3521 DUP3 PUSH2 0x34E0 JUMP JUMPDEST PUSH1 0x20 DUP3 ADD SWAP1 POP SWAP2 SWAP1 POP JUMP JUMPDEST PUSH1 0x0 PUSH1 0x20 DUP3 ADD SWAP1 POP DUP2 DUP2 SUB PUSH1 0x0 DUP4 ADD MSTORE PUSH2 0x3545 DUP2 PUSH2 0x3509 JUMP JUMPDEST SWAP1 POP SWAP2 SWAP1 POP JUMP JUMPDEST PUSH32 0x4552433732313A2061646472657373207A65726F206973206E6F742061207661 PUSH1 0x0 DUP3 ADD MSTORE PUSH32 0x6C6964206F776E65720000000000000000000000000000000000000000000000 PUSH1 0x20 DUP3 ADD MSTORE POP JUMP JUMPDEST PUSH1 0x0 PUSH2 0x35A8 PUSH1 0x29 DUP4 PUSH2 0x29D1 JUMP JUMPDEST SWAP2 POP PUSH2 0x35B3 DUP3 PUSH2 0x354C JUMP JUMPDEST PUSH1 0x40 DUP3 ADD SWAP1 POP SWAP2 SWAP1 POP JUMP JUMPDEST PUSH1 0x0 PUSH1 0x20 DUP3 ADD SWAP1 POP DUP2 DUP2 SUB PUSH1 0x0 DUP4 ADD MSTORE PUSH2 0x35D7 DUP2 PUSH2 0x359B JUMP JUMPDEST SWAP1 POP SWAP2 SWAP1 POP JUMP JUMPDEST PUSH1 0x0 DUP2 SWAP1 POP SWAP3 SWAP2 POP POP JUMP JUMPDEST POP JUMP JUMPDEST PUSH1 0x0 PUSH2 0x35F9 PUSH1 0x0 DUP4 PUSH2 0x35DE JUMP JUMPDEST SWAP2 POP PUSH2 0x3604 DUP3 PUSH2 0x35E9 JUMP JUMPDEST PUSH1 0x0 DUP3 ADD SWAP1 POP SWAP2 SWAP1 POP JUMP JUMPDEST PUSH1 0x0 PUSH2 0x361A DUP3 PUSH2 0x35EC JUMP JUMPDEST SWAP2 POP DUP2 SWAP1 POP SWAP2 SWAP1 POP JUMP JUMPDEST PUSH32 0x5061757365640000000000000000000000000000000000000000000000000000 PUSH1 0x0 DUP3 ADD MSTORE POP JUMP JUMPDEST PUSH1 0x0 PUSH2 0x365A PUSH1 0x6 DUP4 PUSH2 0x29D1 JUMP JUMPDEST SWAP2 POP PUSH2 0x3665 DUP3 PUSH2 0x3624 JUMP JUMPDEST PUSH1 0x20 DUP3 ADD SWAP1 POP SWAP2 SWAP1 POP JUMP JUMPDEST PUSH1 0x0 PUSH1 0x20 DUP3 ADD SWAP1 POP DUP2 DUP2 SUB PUSH1 0x0 DUP4 ADD MSTORE PUSH2 0x3689 DUP2 PUSH2 0x364D JUMP JUMPDEST SWAP1 POP SWAP2 SWAP1 POP JUMP JUMPDEST PUSH32 0x42616420616D6E74000000000000000000000000000000000000000000000000 PUSH1 0x0 DUP3 ADD MSTORE POP JUMP JUMPDEST PUSH1 0x0 PUSH2 0x36C6 PUSH1 0x8 DUP4 PUSH2 0x29D1 JUMP JUMPDEST SWAP2 POP PUSH2 0x36D1 DUP3 PUSH2 0x3690 JUMP JUMPDEST PUSH1 0x20 DUP3 ADD SWAP1 POP SWAP2 SWAP1 POP JUMP JUMPDEST PUSH1 0x0 PUSH1 0x20 DUP3 ADD SWAP1 POP DUP2 DUP2 SUB PUSH1 0x0 DUP4 ADD MSTORE PUSH2 0x36F5 DUP2 PUSH2 0x36B9 JUMP JUMPDEST SWAP1 POP SWAP2 SWAP1 POP JUMP JUMPDEST PUSH32 0x4E487B7100000000000000000000000000000000000000000000000000000000 PUSH1 0x0 MSTORE PUSH1 0x11 PUSH1 0x4 MSTORE PUSH1 0x24 PUSH1 0x0 REVERT JUMPDEST PUSH1 0x0 PUSH2 0x3736 DUP3 PUSH2 0x2A78 JUMP JUMPDEST SWAP2 POP PUSH2 0x3741 DUP4 PUSH2 0x2A78 JUMP JUMPDEST SWAP3 POP DUP3 DUP3 ADD SWAP1 POP DUP1 DUP3 GT ISZERO PUSH2 0x3759 JUMPI PUSH2 0x3758 PUSH2 0x36FC JUMP JUMPDEST JUMPDEST SWAP3 SWAP2 POP POP JUMP JUMPDEST PUSH1 0x0 PUSH2 0x376A DUP3 PUSH2 0x2A78 JUMP JUMPDEST SWAP2 POP PUSH2 0x3775 DUP4 PUSH2 0x2A78 JUMP JUMPDEST SWAP3 POP DUP3 DUP3 MUL PUSH2 0x3783 DUP2 PUSH2 0x2A78 JUMP JUMPDEST SWAP2 POP DUP3 DUP3 DIV DUP5 EQ DUP4 ISZERO OR PUSH2 0x379A JUMPI PUSH2 0x3799 PUSH2 0x36FC JUMP JUMPDEST JUMPDEST POP SWAP3 SWAP2 POP POP JUMP JUMPDEST PUSH32 0x4E6F2062616C616E636500000000000000000000000000000000000000000000 PUSH1 0x0 DUP3 ADD MSTORE POP JUMP JUMPDEST PUSH1 0x0 PUSH2 0x37D7 PUSH1 0xA DUP4 PUSH2 0x29D1 JUMP JUMPDEST SWAP2 POP PUSH2 0x37E2 DUP3 PUSH2 0x37A1 JUMP JUMPDEST PUSH1 0x20 DUP3 ADD SWAP1 POP SWAP2 SWAP1 POP JUMP JUMPDEST PUSH1 0x0 PUSH1 0x20 DUP3 ADD SWAP1 POP DUP2 DUP2 SUB PUSH1 0x0 DUP4 ADD MSTORE PUSH2 0x3806 DUP2 PUSH2 0x37CA JUMP JUMPDEST SWAP1 POP SWAP2 SWAP1 POP JUMP JUMPDEST PUSH1 0x0 PUSH2 0x3818 DUP3 PUSH2 0x2A78 JUMP JUMPDEST SWAP2 POP PUSH32 0xFFFFFFFFFFFFFFFFFFFFFFFFFFFFFFFFFFFFFFFFFFFFFFFFFFFFFFFFFFFFFFFF DUP3 SUB PUSH2 0x384A JUMPI PUSH2 0x3849 PUSH2 0x36FC JUMP JUMPDEST JUMPDEST PUSH1 0x1 DUP3 ADD SWAP1 POP SWAP2 SWAP1 POP JUMP JUMPDEST PUSH32 0x555249206E6F6E65000000000000000000000000000000000000000000000000 PUSH1 0x0 DUP3 ADD MSTORE POP JUMP JUMPDEST PUSH1 0x0 PUSH2 0x388B PUSH1 0x8 DUP4 PUSH2 0x29D1 JUMP JUMPDEST SWAP2 POP PUSH2 0x3896 DUP3 PUSH2 0x3855 JUMP JUMPDEST PUSH1 0x20 DUP3 ADD SWAP1 POP SWAP2 SWAP1 POP JUMP JUMPDEST PUSH1 0x0 PUSH1 0x20 DUP3 ADD SWAP1 POP DUP2 DUP2 SUB PUSH1 0x0 DUP4 ADD MSTORE PUSH2 0x38BA DUP2 PUSH2 0x387E JUMP JUMPDEST SWAP1 POP SWAP2 SWAP1 POP JUMP JUMPDEST PUSH1 0x0 DUP2 SWAP1 POP SWAP3 SWAP2 POP POP JUMP JUMPDEST PUSH1 0x0 PUSH2 0x38D7 DUP3 PUSH2 0x29C6 JUMP JUMPDEST PUSH2 0x38E1 DUP2 DUP6 PUSH2 0x38C1 JUMP JUMPDEST SWAP4 POP PUSH2 0x38F1 DUP2 DUP6 PUSH1 0x20 DUP7 ADD PUSH2 0x29E2 JUMP JUMPDEST DUP1 DUP5 ADD SWAP2 POP POP SWAP3 SWAP2 POP POP JUMP JUMPDEST PUSH1 0x0 DUP2 SLOAD PUSH2 0x390A DUP2 PUSH2 0x307B JUMP JUMPDEST PUSH2 0x3914 DUP2 DUP7 PUSH2 0x38C1 JUMP JUMPDEST SWAP5 POP PUSH1 0x1 DUP3 AND PUSH1 0x0 DUP2 EQ PUSH2 0x392F JUMPI PUSH1 0x1 DUP2 EQ PUSH2 0x3944 JUMPI PUSH2 0x3977 JUMP JUMPDEST PUSH1 0xFF NOT DUP4 AND DUP7 MSTORE DUP2 ISZERO ISZERO DUP3 MUL DUP7 ADD SWAP4 POP PUSH2 0x3977 JUMP JUMPDEST PUSH2 0x394D DUP6 PUSH2 0x3262 JUMP JUMPDEST PUSH1 0x0 JUMPDEST DUP4 DUP2 LT ISZERO PUSH2 0x396F JUMPI DUP2 SLOAD DUP2 DUP10 ADD MSTORE PUSH1 0x1 DUP3 ADD SWAP2 POP PUSH1 0x20 DUP2 ADD SWAP1 POP PUSH2 0x3950 JUMP JUMPDEST DUP4 DUP9 ADD SWAP6 POP POP POP JUMPDEST POP POP POP SWAP3 SWAP2 POP POP JUMP JUMPDEST PUSH1 0x0 PUSH2 0x398C DUP3 DUP7 PUSH2 0x38CC JUMP JUMPDEST SWAP2 POP PUSH2 0x3998 DUP3 DUP6 PUSH2 0x38CC JUMP JUMPDEST SWAP2 POP PUSH2 0x39A4 DUP3 DUP5 PUSH2 0x38FD JUMP JUMPDEST SWAP2 POP DUP2 SWAP1 POP SWAP5 SWAP4 POP POP POP POP JUMP JUMPDEST PUSH32 0x4F776E61626C653A206E6577206F776E657220697320746865207A65726F2061 PUSH1 0x0 DUP3 ADD MSTORE PUSH32 0x6464726573730000000000000000000000000000000000000000000000000000 PUSH1 0x20 DUP3 ADD MSTORE POP JUMP JUMPDEST PUSH1 0x0 PUSH2 0x3A0D PUSH1 0x26 DUP4 PUSH2 0x29D1 JUMP JUMPDEST SWAP2 POP PUSH2 0x3A18 DUP3 PUSH2 0x39B1 JUMP JUMPDEST PUSH1 0x40 DUP3 ADD SWAP1 POP SWAP2 SWAP1 POP JUMP JUMPDEST PUSH1 0x0 PUSH1 0x20 DUP3 ADD SWAP1 POP DUP2 DUP2 SUB PUSH1 0x0 DUP4 ADD MSTORE PUSH2 0x3A3C DUP2 PUSH2 0x3A00 JUMP JUMPDEST SWAP1 POP SWAP2 SWAP1 POP JUMP JUMPDEST PUSH32 0x4552433732313A207472616E736665722066726F6D20696E636F727265637420 PUSH1 0x0 DUP3 ADD MSTORE PUSH32 0x6F776E6572000000000000000000000000000000000000000000000000000000 PUSH1 0x20 DUP3 ADD MSTORE POP JUMP JUMPDEST PUSH1 0x0 PUSH2 0x3A9F PUSH1 0x25 DUP4 PUSH2 0x29D1 JUMP JUMPDEST SWAP2 POP PUSH2 0x3AAA DUP3 PUSH2 0x3A43 JUMP JUMPDEST PUSH1 0x40 DUP3 ADD SWAP1 POP SWAP2 SWAP1 POP JUMP JUMPDEST PUSH1 0x0 PUSH1 0x20 DUP3 ADD SWAP1 POP DUP2 DUP2 SUB PUSH1 0x0 DUP4 ADD MSTORE PUSH2 0x3ACE DUP2 PUSH2 0x3A92 JUMP JUMPDEST SWAP1 POP SWAP2 SWAP1 POP JUMP JUMPDEST PUSH32 0x4552433732313A207472616E7366657220746F20746865207A65726F20616464 PUSH1 0x0 DUP3 ADD MSTORE PUSH32 0x7265737300000000000000000000000000000000000000000000000000000000 PUSH1 0x20 DUP3 ADD MSTORE POP JUMP JUMPDEST PUSH1 0x0 PUSH2 0x3B31 PUSH1 0x24 DUP4 PUSH2 0x29D1 JUMP JUMPDEST SWAP2 POP PUSH2 0x3B3C DUP3 PUSH2 0x3AD5 JUMP JUMPDEST PUSH1 0x40 DUP3 ADD SWAP1 POP SWAP2 SWAP1 POP JUMP JUMPDEST PUSH1 0x0 PUSH1 0x20 DUP3 ADD SWAP1 POP DUP2 DUP2 SUB PUSH1 0x0 DUP4 ADD MSTORE PUSH2 0x3B60 DUP2 PUSH2 0x3B24 JUMP JUMPDEST SWAP1 POP SWAP2 SWAP1 POP JUMP JUMPDEST PUSH32 0x4F776E61626C653A2063616C6C6572206973206E6F7420746865206F776E6572 PUSH1 0x0 DUP3 ADD MSTORE POP JUMP JUMPDEST PUSH1 0x0 PUSH2 0x3B9D PUSH1 0x20 DUP4 PUSH2 0x29D1 JUMP JUMPDEST SWAP2 POP PUSH2 0x3BA8 DUP3 PUSH2 0x3B67 JUMP JUMPDEST PUSH1 0x20 DUP3 ADD SWAP1 POP SWAP2 SWAP1 POP JUMP JUMPDEST PUSH1 0x0 PUSH1 0x20 DUP3 ADD SWAP1 POP DUP2 DUP2 SUB PUSH1 0x0 DUP4 ADD MSTORE PUSH2 0x3BCC DUP2 PUSH2 0x3B90 JUMP JUMPDEST SWAP1 POP SWAP2 SWAP1 POP JUMP JUMPDEST PUSH32 0x45524337323155524953746F726167653A2055524920736574206F66206E6F6E PUSH1 0x0 DUP3 ADD MSTORE PUSH32 0x6578697374656E7420746F6B656E000000000000000000000000000000000000 PUSH1 0x20 DUP3 ADD MSTORE POP JUMP JUMPDEST PUSH1 0x0 PUSH2 0x3C2F PUSH1 0x2E DUP4 PUSH2 0x29D1 JUMP JUMPDEST SWAP2 POP PUSH2 0x3C3A DUP3 PUSH2 0x3BD3 JUMP JUMPDEST PUSH1 0x40 DUP3 ADD SWAP1 POP SWAP2 SWAP1 POP JUMP JUMPDEST PUSH1 0x0 PUSH1 0x20 DUP3 ADD SWAP1 POP DUP2 DUP2 SUB PUSH1 0x0 DUP4 ADD MSTORE PUSH2 0x3C5E DUP2 PUSH2 0x3C22 JUMP JUMPDEST SWAP1 POP SWAP2 SWAP1 POP JUMP JUMPDEST PUSH32 0x4552433732313A20617070726F766520746F2063616C6C657200000000000000 PUSH1 0x0 DUP3 ADD MSTORE POP JUMP JUMPDEST PUSH1 0x0 PUSH2 0x3C9B PUSH1 0x19 DUP4 PUSH2 0x29D1 JUMP JUMPDEST SWAP2 POP PUSH2 0x3CA6 DUP3 PUSH2 0x3C65 JUMP JUMPDEST PUSH1 0x20 DUP3 ADD SWAP1 POP SWAP2 SWAP1 POP JUMP JUMPDEST PUSH1 0x0 PUSH1 0x20 DUP3 ADD SWAP1 POP DUP2 DUP2 SUB PUSH1 0x0 DUP4 ADD MSTORE PUSH2 0x3CCA DUP2 PUSH2 0x3C8E JUMP JUMPDEST SWAP1 POP SWAP2 SWAP1 POP JUMP JUMPDEST PUSH32 0x4552433732313A207472616E7366657220746F206E6F6E204552433732315265 PUSH1 0x0 DUP3 ADD MSTORE PUSH32 0x63656976657220696D706C656D656E7465720000000000000000000000000000 PUSH1 0x20 DUP3 ADD MSTORE POP JUMP JUMPDEST PUSH1 0x0 PUSH2 0x3D2D PUSH1 0x32 DUP4 PUSH2 0x29D1 JUMP JUMPDEST SWAP2 POP PUSH2 0x3D38 DUP3 PUSH2 0x3CD1 JUMP JUMPDEST PUSH1 0x40 DUP3 ADD SWAP1 POP SWAP2 SWAP1 POP JUMP JUMPDEST PUSH1 0x0 PUSH1 0x20 DUP3 ADD SWAP1 POP DUP2 DUP2 SUB PUSH1 0x0 DUP4 ADD MSTORE PUSH2 0x3D5C DUP2 PUSH2 0x3D20 JUMP JUMPDEST SWAP1 POP SWAP2 SWAP1 POP JUMP JUMPDEST PUSH32 0x4E487B7100000000000000000000000000000000000000000000000000000000 PUSH1 0x0 MSTORE PUSH1 0x12 PUSH1 0x4 MSTORE PUSH1 0x24 PUSH1 0x0 REVERT JUMPDEST PUSH1 0x0 PUSH2 0x3D9D DUP3 PUSH2 0x2A78 JUMP JUMPDEST SWAP2 POP PUSH2 0x3DA8 DUP4 PUSH2 0x2A78 JUMP JUMPDEST SWAP3 POP DUP3 DUP3 SUB SWAP1 POP DUP2 DUP2 GT ISZERO PUSH2 0x3DC0 JUMPI PUSH2 0x3DBF PUSH2 0x36FC JUMP JUMPDEST JUMPDEST SWAP3 SWAP2 POP POP JUMP JUMPDEST PUSH1 0x0 DUP2 MLOAD SWAP1 POP SWAP2 SWAP1 POP JUMP JUMPDEST PUSH1 0x0 DUP3 DUP3 MSTORE PUSH1 0x20 DUP3 ADD SWAP1 POP SWAP3 SWAP2 POP POP JUMP JUMPDEST PUSH1 0x0 PUSH2 0x3DED DUP3 PUSH2 0x3DC6 JUMP JUMPDEST PUSH2 0x3DF7 DUP2 DUP6 PUSH2 0x3DD1 JUMP JUMPDEST SWAP4 POP PUSH2 0x3E07 DUP2 DUP6 PUSH1 0x20 DUP7 ADD PUSH2 0x29E2 JUMP JUMPDEST PUSH2 0x3E10 DUP2 PUSH2 0x2A0C JUMP JUMPDEST DUP5 ADD SWAP2 POP POP SWAP3 SWAP2 POP POP JUMP JUMPDEST PUSH1 0x0 PUSH1 0x80 DUP3 ADD SWAP1 POP PUSH2 0x3E30 PUSH1 0x0 DUP4 ADD DUP8 PUSH2 0x2B0D JUMP JUMPDEST PUSH2 0x3E3D PUSH1 0x20 DUP4 ADD DUP7 PUSH2 0x2B0D JUMP JUMPDEST PUSH2 0x3E4A PUSH1 0x40 DUP4 ADD DUP6 PUSH2 0x2BA3 JUMP JUMPDEST DUP2 DUP2 SUB PUSH1 0x60 DUP4 ADD MSTORE PUSH2 0x3E5C DUP2 DUP5 PUSH2 0x3DE2 JUMP JUMPDEST SWAP1 POP SWAP6 SWAP5 POP POP POP POP POP JUMP JUMPDEST PUSH1 0x0 DUP2 MLOAD SWAP1 POP PUSH2 0x3E76 DUP2 PUSH2 0x2937 JUMP JUMPDEST SWAP3 SWAP2 POP POP JUMP JUMPDEST PUSH1 0x0 PUSH1 0x20 DUP3 DUP5 SUB SLT ISZERO PUSH2 0x3E92 JUMPI PUSH2 0x3E91 PUSH2 0x2901 JUMP JUMPDEST JUMPDEST PUSH1 0x0 PUSH2 0x3EA0 DUP5 DUP3 DUP6 ADD PUSH2 0x3E67 JUMP JUMPDEST SWAP2 POP POP SWAP3 SWAP2 POP POP JUMP JUMPDEST PUSH32 0x4552433732313A206D696E7420746F20746865207A65726F2061646472657373 PUSH1 0x0 DUP3 ADD MSTORE POP JUMP JUMPDEST PUSH1 0x0 PUSH2 0x3EDF PUSH1 0x20 DUP4 PUSH2 0x29D1 JUMP JUMPDEST SWAP2 POP PUSH2 0x3EEA DUP3 PUSH2 0x3EA9 JUMP JUMPDEST PUSH1 0x20 DUP3 ADD SWAP1 POP SWAP2 SWAP1 POP JUMP JUMPDEST PUSH1 0x0 PUSH1 0x20 DUP3 ADD SWAP1 POP DUP2 DUP2 SUB PUSH1 0x0 DUP4 ADD MSTORE PUSH2 0x3F0E DUP2 PUSH2 0x3ED2 JUMP JUMPDEST SWAP1 POP SWAP2 SWAP1 POP JUMP JUMPDEST PUSH32 0x4552433732313A20746F6B656E20616C7265616479206D696E74656400000000 PUSH1 0x0 DUP3 ADD MSTORE POP JUMP JUMPDEST PUSH1 0x0 PUSH2 0x3F4B PUSH1 0x1C DUP4 PUSH2 0x29D1 JUMP JUMPDEST SWAP2 POP PUSH2 0x3F56 DUP3 PUSH2 0x3F15 JUMP JUMPDEST PUSH1 0x20 DUP3 ADD SWAP1 POP SWAP2 SWAP1 POP JUMP JUMPDEST PUSH1 0x0 PUSH1 0x20 DUP3 ADD SWAP1 POP DUP2 DUP2 SUB PUSH1 0x0 DUP4 ADD MSTORE PUSH2 0x3F7A DUP2 PUSH2 0x3F3E JUMP JUMPDEST SWAP1 POP SWAP2 SWAP1 POP JUMP INVALID LOG2 PUSH5 0x6970667358 0x22 SLT KECCAK256 LOG0 REVERT PUSH15 0xE6FDE34D4FDDE4764C528C7B0CF232 0xE9 COINBASE 0xC0 0x21 0x5D 0xA8 0xAD 0xD6 0x5F 0x4B SWAP3 PUSH6 0xCFBA64736F6C PUSH4 0x43000811 STOP CALLER "},"gasEstimates":{"creation":{"codeDepositCost":"3262200","executionCost":"infinite","totalCost":"infinite"},"external":{"Creator()":"2582","MAX_MINT_PER_TX()":"2519","MAX_MINT_PER_WALLET()":"2496","MAX_TOKENS()":"2561","NFTName()":"infinite","NFTSymbol()":"infinite","approve(address,uint256)":"infinite","balanceOf(address)":"2965","baseExtension()":"infinite","baseURI()":"infinite","flipSaleState()":"28832","getApproved(uint256)":"5323","getSaleInfo()":"infinite","getTokenURI(uint256)":"infinite","isApprovedForAll(address,address)":"infinite","isSaleActive()":"2583","mint(uint256)":"infinite","name()":"infinite","owner()":"2590","ownerOf(uint256)":"3044","price()":"2496","renounceOwnership()":"30509","safeTransferFrom(address,address,uint256)":"infinite","safeTransferFrom(address,address,uint256,bytes)":"infinite","setApprovalForAll(address,bool)":"infinite","setBaseURI(string)":"infinite","supportsInterface(bytes4)":"820","symbol()":"infinite","tokenURI(uint256)":"infinite","totalSupply()":"2475","transferFrom(address,address,uint256)":"infinite","transferOwnership(address)":"30854","withdrawAll()":"infinite"},"internal":{"_baseURI()":"infinite"}},"methodIdentifiers":{"Creator()":"18bee97e","MAX_MINT_PER_TX()":"8ecad721","MAX_MINT_PER_WALLET()":"b19960e6","MAX_TOKENS()":"f47c84c5","NFTName()":"94f4e679","NFTSymbol()":"a42d20ae","approve(address,uint256)":"095ea7b3","balanceOf(address)":"70a08231","baseExtension()":"c6682862","baseURI()":"6c0360eb","flipSaleState()":"34918dfd","getApproved(uint256)":"081812fc","getSaleInfo()":"db83694c","getTokenURI(uint256)":"3bb3a24d","isApprovedForAll(address,address)":"e985e9c5","isSaleActive()":"564566a8","mint(uint256)":"a0712d68","name()":"06fdde03","owner()":"8da5cb5b","ownerOf(uint256)":"6352211e","price()":"a035b1fe","renounceOwnership()":"715018a6","safeTransferFrom(address,address,uint256)":"42842e0e","safeTransferFrom(address,address,uint256,bytes)":"b88d4fde","setApprovalForAll(address,bool)":"a22cb465","setBaseURI(string)":"55f804b3","supportsInterface(bytes4)":"01ffc9a7","symbol()":"95d89b41","tokenURI(uint256)":"c87b56dd","totalSupply()":"18160ddd","transferFrom(address,address,uint256)":"23b872dd","transferOwnership(address)":"f2fde38b","withdrawAll()":"853828b6"}},"storageLayout":{"storage":[{"astId":704,"contract":"contract.sol:NFT","label":"_name","offset":0,"slot":"0","type":"t_string_storage"},{"astId":706,"contract":"contract.sol:NFT","label":"_symbol","offset":0,"slot":"1","type":"t_string_storage"},{"astId":710,"contract":"contract.sol:NFT","label":"_owners","offset":0,"slot":"2","type":"t_mapping(t_uint256,t_address)"},{"astId":714,"contract":"contract.sol:NFT","label":"_balances","offset":0,"slot":"3","type":"t_mapping(t_address,t_uint256)"},{"astId":718,"contract":"contract.sol:NFT","label":"_tokenApprovals","offset":0,"slot":"4","type":"t_mapping(t_uint256,t_address)"},{"astId":724,"contract":"contract.sol:NFT","label":"_operatorApprovals","offset":0,"slot":"5","type":"t_mapping(t_address,t_mapping(t_address,t_bool))"},{"astId":453,"contract":"contract.sol:NFT","label":"_tokenURIs","offset":0,"slot":"6","type":"t_mapping(t_uint256,t_string_storage)"},{"astId":573,"contract":"contract.sol:NFT","label":"_owner","offset":0,"slot":"7","type":"t_address"},{"astId":71,"contract":"contract.sol:NFT","label":"Creator","offset":0,"slot":"8","type":"t_address"},{"astId":73,"contract":"contract.sol:NFT","label":"MAX_TOKENS","offset":0,"slot":"9","type":"t_uint256"},{"astId":75,"contract":"contract.sol:NFT","label":"TOKENS_RESERVED","offset":0,"slot":"10","type":"t_uint256"},{"astId":77,"contract":"contract.sol:NFT","label":"price","offset":0,"slot":"11","type":"t_uint256"},{"astId":79,"contract":"contract.sol:NFT","label":"MAX_MINT_PER_TX","offset":0,"slot":"12","type":"t_uint256"},{"astId":81,"contract":"contract.sol:NFT","label":"MAX_MINT_PER_WALLET","offset":0,"slot":"13","type":"t_uint256"},{"astId":83,"contract":"contract.sol:NFT","label":"NFTName","offset":0,"slot":"14","type":"t_string_storage"},{"astId":85,"contract":"contract.sol:NFT","label":"NFTSymbol","offset":0,"slot":"15","type":"t_string_storage"},{"astId":87,"contract":"contract.sol:NFT","label":"isSaleActive","offset":0,"slot":"16","type":"t_bool"},{"astId":89,"contract":"contract.sol:NFT","label":"totalSupply","offset":0,"slot":"17","type":"t_uint256"},{"astId":93,"contract":"contract.sol:NFT","label":"mintedPerWallet","offset":0,"slot":"18","type":"t_mapping(t_address,t_uint256)"},{"astId":95,"contract":"contract.sol:NFT","label":"baseURI","offset":0,"slot":"19","type":"t_string_storage"},{"astId":98,"contract":"contract.sol:NFT","label":"baseExtension","offset":0,"slot":"20","type":"t_string_storage"}],"types":{"t_address":{"encoding":"inplace","label":"address","numberOfBytes":"20"},"t_bool":{"encoding":"inplace","label":"bool","numberOfBytes":"1"},"t_mapping(t_address,t_bool)":{"encoding":"mapping","key":"t_address","label":"mapping(address => bool)","numberOfBytes":"32","value":"t_bool"},"t_mapping(t_address,t_mapping(t_address,t_bool))":{"encoding":"mapping","key":"t_address","label":"mapping(address => mapping(address => bool))","numberOfBytes":"32","value":"t_mapping(t_address,t_bool)"},"t_mapping(t_address,t_uint256)":{"encoding":"mapping","key":"t_address","label":"mapping(address => uint256)","numberOfBytes":"32","value":"t_uint256"},"t_mapping(t_uint256,t_address)":{"encoding":"mapping","key":"t_uint256","label":"mapping(uint256 => address)","numberOfBytes":"32","value":"t_address"},"t_mapping(t_uint256,t_string_storage)":{"encoding":"mapping","key":"t_uint256","label":"mapping(uint256 => string)","numberOfBytes":"32","value":"t_string_storage"},"t_string_storage":{"encoding":"bytes","label":"string","numberOfBytes":"32"},"t_uint256":{"encoding":"inplace","label":"uint256","numberOfBytes":"32"}}},"userdoc":{"kind":"user","methods":{},"version":1}}